:020000040000FA
:10000000B6EF07F01200FFFF04EF08F01200FFFF49
:10001000FFFFFFFFFFFFFFFF0CEF08F01200FFFFE5
:1000200000000001636B676968696969666B010EAE
:100030006A6F1200D9CFE6FFE1CFD9FFE652000187
:1000400063511FE1040108BF1BD0400EE66E700E25
:10005000E66E030EE66E08EC06F0E552E552E55258
:100060000001010E636FDF6A400EDF5C09E2DF50C2
:10007000EA6AB00FE96E030EEA22EF6ADF2AF4D7CC
:1000800081D103017051080A01E16BD10F0A01E12E
:100090000ED1010A01E103D1030A01E19FD0010A57
:1000A0006AE0070A5DE0010A01E06CD10301020E7B
:1000B000B06F03013A0EB16F0301010EB26F03017D
:1000C000010EB36F0301B46B100EB56FB66BB76B57
:1000D0000301B86B700EB96FBA6BBB6B0301030EF3
:1000E000BC6F0301BD6BBE6B300EBF6FC06B0301F5
:1000F0000E0EC16FC26BC36BC46B0301010EC56FE3
:100100000301C66BC76B200EC86FC96B0301080ED5
:10011000CA6FCB6BCC6BCD6B0301CE690301020EB2
:10012000CE6F0301CF6BD06BF00ED16FD26B03019A
:10013000D36B010ED46FD56BD66B0301D769040165
:100140000CBF0DD0400EE66EB00EE66E030EE66EEE
:10015000D8EC05F0E552E552E5520001636B12D18F
:100160000001010E6A6F0301715102E100016A6B27
:100170000001636B07D1400E0001646F656B0001E5
:10018000000E645D020E65591FE2040064C000F0B9
:1001900065C001F0026A060E1F0B00C0F6FF01C029
:1001A000F7FF02C0F8FF06E0D890F636F736F836CB
:1001B000E806FAE1940EA66E9ED962EC06F0000104
:1001C000642B000E6523DBD7F66AF76A200EF86E03
:1001D000940EA66E90D90001636BD4D0300E03014B
:1001E000735D07E100016A5101E13BD90001636BD6
:1001F000C9D0F00E0301735D04E15BD90001636BAC
:10020000C1D0E8680001671905E1E868681902E1F2
:10021000E868691906E171C367F072C368F073C3D7
:1002200069F0670EE96E000EEA6EEE500301711977
:1002300008E1EE500301721904E1EE500301731955
:1002400000E12AE1DF6A03017551DF5C25E23A0E25
:100250000301D8807555DF24EA6A760FE96E030E34
:10026000EA22EF50E66E00016651EA6A6B0FE96E12
:10027000000EEA22E552E750EF6E0001662B000106
:10028000672B000E6823000E6923200E0001665DB7
:1002900001E17DD8DF2AD7D70001636B73D077D80F
:1002A00000016769686969690001636B6BD00301CC
:1002B000070EB06F71C3B1F372C3B2F373C3B3F37C
:1002C00074C3B4F375C3B5F371C3F6FF72C3F7FF1C
:1002D00073C3F8FFDF6A03017551DF5C31E2F00E92
:1002E0000301735D13E1DF5003017125A96EA66A56
:1002F000A6803A0E0301D8807555DF24EA6AB60F4E
:10030000E96E030EEA22A8CFEFFF18D00900300EE5
:10031000F85C08E1050EF65C01E1F568080EF65C94
:1003200001E1F5683A0E0301D8807555DF24EA6AC9
:10033000B60FE96E030EEA22F5CFEFFFDF2ACBD727
:1003400004010CBF0DD0400EE66EB00EE66E030E3B
:10035000E66ED8EC05F0E552E552E5520001636B1C
:1003600011D06D926D6ADF6AFF0EDF5C09E2E8680A
:10037000E85004E0E80600D000D0FAD7DF2AF4D72E
:10038000FF0000D0E552E552E7CFD9FF1200D9CFE8
:10039000E6FFE1CFD9FF030EE126010EDB6A66C05E
:1003A00000F0016A026A00500001675DF66E0150BC
:1003B00000016859F76E025000016959F86E1F0E6E
:1003C000F614E76E020EE7CFDBFFE00EF616DF6AEB
:1003D000200EDF5C1EE2020EDB5015E100016651CB
:1003E0000FE0010EDB50EA6A6B0FE96E000EEA22A5
:1003F000EF50F56E0D00010EDB2A0001660702D0FA
:10040000F5680D0004D0F5680D00020EDB06DF2A4A
:10041000DFD70A00A40EA66E6ED8DF6A000166510F
:10042000DF5C15E2010EDB50DF24EA6A6B0FE96E38
:10043000000EEA22EF50E66EDF50EA6A6B0FE96EBB
:10044000000EEA22E552E750EF6EDF2AE7D7030EEF
:10045000E15C02E2E16AE552E16EE552E7CFD9FFE5
:100460001200D9CFE6FFE1CFD9FFE65271C3F6FF04
:1004700072C3F7FF73C3F8FFDF6A03017551DF5CD6
:1004800013E23A0E0301D8807555DF24EA6A760F2D
:10049000E96E030EEA22EF50F56E0C00C40EA66E54
:1004A0002AD80900DF2AE9D7E552E552E7CFD9FF7C
:1004B0001200D9CFE6FFE1CFD9FFE652DF6A030190
:1004C0007551DF5C13E2DF507125A96E3A0ED880BA
:1004D0007555DF24EA6A760FE96E030EEA22EF50C3
:1004E000A86E040EA66E07D8DF2AE9D7E552E552BA
:1004F000E7CFD9FF1200F29E550EA76EAA0EA76E87
:10050000A682A6B2FED7A69412006C500CE16896A3
:10051000040100513C0BE842E8420D0802E10AD810
:10052000010C3BD8010C040E6C5C03E1689644D8C6
:10053000010C000C70D9E652040104BF046B0001E9
:10054000B36BAB6BAC6BB16BB26B1CEC04F0DF6AE2
:10055000DF50006E016A010E005C000E01581AE2C5
:100560000001AC5117E1F76ADF34FE0BF736F66E87
:100570005A0EF6260E0EF7220900F5CF00F00800FD
:10058000F5CF01F004D001C0FAFF0050F96EFBDF97
:10059000DF2ADED7ACD8E55243D1020E0001AB5DB5
:1005A00009E179D8040100BD02D0C80E01D0880E3F
:1005B000006F1200B0EF03F0040E0301FA5D09E1D1
:1005C00012C46EFF6E50000802E2050E01D0030E49
:1005D000FA6F0001AB0510E111D8020E0001B35D06
:1005E00003E10401840E06D0040104BD02D0C80E4C
:1005F00001D0880E046F1200B0EF03F00CD9020E88
:10060000E1260001080EB15D000EB2590DE2B1C045
:10061000DEFFB2C0DDFFB35102E1010E03D0B3052E
:1006200006E1020EB36F03D0080EDE6EDD6A040130
:1006300004930491010EDB500413DFCF05F4000E88
:10064000DB500001B15F010EDB50B25B180EAF6FE3
:10065000040EB06F0301FBA30CD0D6D815E0ADC0DB
:10066000F6FFAEC0F7FF0800F550BED8F6E2DB0695
:10067000F4D7CAD809E0ADC0E9FFAEC0EAFFEF5039
:10068000B3D8F7E2DB06F5D7020EE15C02E2E16ADD
:10069000E552E16EC5D0BFD8020EE126030E04017B
:1006A0000015E76E010EE7CFDBFF01C4DFFFDE5070
:1006B0000001B127DD50B223180EAD6F040EAE6FEE
:1006C000A3D80EE0ADC0E9FFAEC0EAFFEF50AFC067
:1006D000E9FFB0C0EAFFEF6EA7D8F2E2DB06F0D781
:1006E000020EE15C02E2E16AE552E16E99D06D989A
:1006F0000001AC5105E180D8840E006F04011DD0CB
:10070000040110AF1CD00001B1510401165D0001BD
:10071000B2510401175904E216C4B1F017C4B2F083
:100720006DDF0001010EAB6F67D8800E006F040112
:10073000180E066F040E076FC80E046F120000013A
:10074000020EAB6F0401056BC80E046F0401080EA6
:10075000016F180E026F040E036FC80E006F1200B7
:100760005AD8E652020E0001AB5D35E16D50100B18
:1007700032E004010151006E016A080E00182BE1FD
:10078000015029E100513C0BE842E8420D0823E109
:100790000051800B20E1100E026F040E036FDF6A20
:1007A000DF50006E016A080E005C000E01581AE26C
:1007B000DF50EA6A180FE96E040EEA22EF50E66E87
:1007C000DF50EA6A100FE96E040EEA22E552E750A4
:1007D000EF6EDF2AE5D70001AB6B0ED88C0E006FF1
:1007E0000401046BE5521CD0AFC0E9FFB0C0EAFFC2
:1007F000EF6E000114EF04F00401080E016F100EFB
:10080000026F040E036F1200D9CFE9FFDACFEAFFBF
:10081000EE50ED101200D9CFE6FFE1CFD9FF120064
:10082000E552E7CFD9FF1200AF2B000EB023AD2B5E
:10083000AE23DF06010E120004011051600BE842E6
:10084000E842E842E842E842000901E012001151A2
:10085000070A40E00B0A3EE0070A33E0010A23E002
:100860000B0A1FE0020A1DE0030A19E0080A10E063
:10087000010A0CE00F0A08E0030A01E0120012D995
:100880000301040EFA6F12006BEF04F0A2EF04F004
:1008900009D90001FC0EAD6F030EAE6F0CD0BDEF99
:1008A00004F0EFEF04F002D90001AD6FAE6BFD0E66
:1008B000AD27030EAE230301FB930001010EB16FC0
:1008C0001200F4D8EA6AFD0FE96E030EEA2212C4A0
:1008D000EFFF12001200800E0401105D32E113518F
:1008E000030A1FE0010A0AE0030A29E1DBD800013C
:1008F000BC0EAD6F0D0EAE6F120E1ED0B2D8500EE4
:10090000F6260E0EC0D8020E0001F76AAD25F66E6F
:10091000AE51F7220900F5CFB1F00A00F5CFB2F0E1
:100920000ED09FD8540EF6260E0EADD8ADC0F6FFF1
:10093000AEC0F7FF0800F5500001B16FB26B0301C4
:10094000FB831200AFD80F0EE66E710EE66E0F0E2F
:10095000A2D8010EE66EFD0EE66E030E9CD812C400
:10096000FCF30401125104E10301050EFA6F1200B9
:100970000301060EFA6FC3EF05F00401186B196B43
:10098000040110511F0B020A0FE0030A0BE0010AD9
:1009900018E188D8040118810301FBA112D00401D9
:1009A00018830FD07FD80DD050D801E0010E62D847
:1009B000AFC0E9FFEA6EEF50040B03E00401010E43
:1009C000186F0001AC050AE10001180EAD6F040EAE
:1009D000AE6F0301FB930001020EB16F1200040120
:1009E00012050EE110511F0B00090AE15BD8030E3E
:1009F0000401115D03E10301FB8102D00301FB91BE
:100A00000401125121E110511F0B02081DE1145184
:100A10000F0B000919E019D801E0010E2BD8030EC5
:100A20000401115D02E1840E03D014AF07D0400E23
:100A3000AFC0E9FFB0C0EAFFEF6E1200880EAFC092
:100A4000E9FFB0C0EAFFEF6E120030D80F0B080DBF
:100A5000F350016A000F006E040E01221451800B46
:100A6000120020D804011251F66EF76AD890F636BB
:100A7000F7361200040DF35000010024AF6F000E92
:100A80000120B06F1200F7220900F5CFADF00A0087
:100A9000F5CFAEF01200E66EC9EC06F0E552E55275
:100AA000E55212000001010EAC6F1200FBDF0401E1
:100AB00014511200040110511F0B010801E0120033
:100AC000145101E01200060E115D24E11351230AB6
:100AD0001FE0010A0DE0030A1BE1DBD80301FC055E
:100AE00005E10001E00EAD6F0D0EAE6F090E0DD0E9
:100AF000D0D80301FC0505E10001330EAD6F0E0EE9
:100B0000AE6F0301FC0504E11D0E0001B16FB26B75
:100B10000301FB8304011051600BE842E842E84204
:100B2000E842E842010801E0120011510B0A25E0F9
:100B3000080A17E0090A11E0080A09E00B0A05E0B3
:100B4000080A01E01200C1EF05F0C2EF05F0A1D8DC
:100B50000001B40EAD6F000E09D09BD813C4B4F0E1
:100B6000120097D80001B50EAD6F000EAE6F0301F5
:100B7000FB930001010EB16F12008BD812C4B5F0C7
:100B80001200120012000001B66B1E0E716E0401FD
:100B9000400E096F200E0A6F040E0B6F880E086F4F
:100BA0000401600E0E6F040E0F6F400E0C6F1200EA
:100BB000D9CFE6FFE1CFD9FFE652FC0EDB5040086B
:100BC00005E2400EF36EFC0EF3CFDBFFDF6AFC0E96
:100BD000DB50DF5C0FE2DF5050D8EF50E66EDF50A5
:100BE000EA6A600FE96E040EEA22E552E750EF6E02
:100BF000DF2AEDD7FC0EDBCF0DF4400E04010C17FD
:100C00000C7D880E0C13E552E552E7CFD9FF120098
:100C1000D9CFE6FFE1CFD9FF0001B66B040108BFD1
:100C200026D0FC0EDBCF00F00951D880005403E23F
:100C3000FC0E09C4DBFF0001B66BFC0EDB50B65D99
:100C40000FE2B651EA6A200FE96E040EEA22EF5075
:100C5000E66EB65112D8E552E750EF6EB62BEDD7DF
:100C60000401400E096F0817087D880E0813000163
:100C7000B651E552E7CFD9FF1200E76EFD0EDBCF8C
:100C8000E9FFFE0EDBCFEAFFE750E926000EEA227D
:100C900012000001020EAC6F12006DA60CD8030109
:100CA000FA0508E16DBA06D0686A696A69806988E0
:100CB000020EFA6F12006D6A696A6D860301010EF9
:100CC000FA6F12000301FA5101E1120068B425D84D
:100CD0006DB2120068B038D868B817D868BA24D88E
:100CE000030E0301FA5D01E212000301FE6B040E24
:100CF000FE5D0AE268A608D085EC02F0000901E179
:100D000068960301FE2BF3D71200698468986D8200
:100D1000A19AA08A0300A09A12006D92699468A417
:100D200002D06894FCD7120070A00CD0800E040191
:100D3000005D07E1840E0401045D03E104018C0EF3
:100D4000006F7090689A12006A6A686A9F0E6B6EF4
:100D50007B0E696E6E6A0F0EE66E710EE66E0F0EFA
:100D6000E66E17D8E552E552E552160E706E68A68B
:100D700005D0689600D000D00000F9D76D98B0EC8F
:100D800003F00301FB910301FC6B0301030EFA6FF7
:100D90001200D9CFE6FFE1CFD9FFFD0EDBCFE9FF8F
:100DA000FE0EDBCFEAFFFC0EDB5004E0EE6AFC0E29
:100DB000DB06F9D7E552E7CFD9FF12001201000296
:100DC00000000008D8043C000500010200010902EF
:100DD0002900010100C0780904000002030000009E
:100DE000092111010001221D0007058103400001B6
:100DF00007050103400001040309041203620072A5
:100E000000790064006C0069006E006700260342F0
:100E1000003200350036004100310033002000620E
:100E2000006F006F0074006C006F0061006400656B
:100E30000072000600FF0901A101190129401500F7
:100E400026FF00750895408102190129409102C0D2
:100E5000CE0DCE0DF70DFB0D0D0EB40A200EF66E65
:100E6000000EF76E000EF86E03010900F550F56FE5
:100E70000900F550F66F03E1F56701D03DD0090098
:100E8000F550F06F0900F550F16F0900F550F26F61
:100E900009000900F550E96E0900F550EA6E0900F5
:100EA00009000900F550F36F0900F550F46F0900CF
:100EB0000900F6CFF7F3F7CFF8F3F8CFF9F3F0C363
:100EC000F6FFF1C3F7FFF2C3F8FF0301F35302E1AA
:100ED000F45307E00900F550EE6EF307F8E2F4076B
:100EE000F9D7F7C3F6FFF8C3F7FFF9C3F8FF03011B
:100EF000F507000EF65BBFD71200D9CFE6FFE1CFB2
:100F0000D9FFE6520F0E966E949E9298829E80882C
:100F1000DF6A100EDF5C04E2828E829EDF2AF9D740
:100F200084A604D0070EC16E00EF08F011D80400AB
:100F300019D8060E0301FA5D05E16D50020B02E1BE
:100F40001AEC00F0F4D7E552E552E7CFD9FF1200D2
:100F5000140E6F6E0301FA6B0301FB6B0301FC6B54
:100F600011EF00F04DEC06F062EF06F013EE00F02A
:100F700023EE00F0F86A049C2EEC07F0CBEC07F0AF
:100F80007DEC07F0FBD7120000EE00F00F0EEE6ACA
:100F9000EA62FDD712001200FFFFFFFFFFFFFFFF15
:100FA000FFFFFFFFFFFFFFFFFFFFFFFFFFFFFFFF51
:100FB000FFFFFFFFFFFFFFFFFFFFFFFFFFFFFFFF41
:100FC000FFFFFFFFFFFFFFFFFFFFFFFFFFFFFFFF31
:100FD000FFFFFFFFFFFFFFFFFFFFFFFFFFFFFFFF21
:100FE000FFFFFFFFFFFFFFFFFFFFFFFFFFFFFFFF11
:100FF000FFFFFFFFFFFFFFFFFFFFFFFFFFFFFFFF01
:020000040030CA
:0E000000200E361E0001810000800F800F4090
:020000040020DA
:08000000FFFFFFFFFFFFFFFF00
:00000001FF
