:100000000C9480010C94B1010C94B1010C94B101D9
:100010000C94B1010C94B1010C94B1010C94B10198
:100020000C94B1010C94B1010C94B1010C94B10188
:100030000C94B1010C94B1010C94B1010C94B10178
:100040000C94B1010C94B1010C94B1010C94B10168
:100050000C94B1010C94B1010C94B1010C940124E5
:100060000C94B1010C94CB230C94A1230C94B101FA
:100070000C94B1010C94B1010C94B1010C94B10138
:100080000C94B1010C94B1010C94B1010C94B10128
:100090000C94B1010C94B1010C94B1010C94B10118
:1000A0000C94B1010C94B1010C94B1010C94B10108
:1000B0000C94B1010C94B1010C94B1010C94B101F8
:1000C0000C94B1010C94B1010C94B1010C94B101E8
:1000D0000C94B1010C94B1010C94B1010C94B101D8
:1000E0000C94B1010C947E1B0C94D7020C94AF1BA2
:1000F0000C94C21A0C94AB190C94CE1E0C94680D7F
:100100000C9404030C94821B0C949E190C949D1B5C
:100110000C9477080C94BD1B0C94772A0C94EE0A6F
:100120000C944B240C94931B0C94681D0C94AF1EE0
:100130000C94971B0C94861B0C94F40A0C94C80620
:100140000C94A11B0C947C140C94BD1F0C94901463
:100150000C94E80F0C94B31B0C9449150C94E40612
:100160000C94BA030C94E20F0C9478140C9497142A
:100170000C94401C0C94B91B0C948A1B0C949A147C
:100180000C94BD1A0C948D1B0C9430070C94EB0A44
:100190000C94A51B0C949D120C9435030C948014A4
:1001A0000C947E200C946E0D0C949E140C94DF061F
:1001B0000C94C4150C94F81E0C9413030C943F1269
:1001C0000C94F9200C946D030C9427030C94EB14FD
:1001D0000C9441120C94C9060C94AB1B0000200037
:1001E0002300260029002C002F003200000100000F
:1001F00003010601090100000A0B02090C0D0E089B
:1002000007030401000000000000000000000000DF
:1002100000000000000000000000000000000000DE
:10022000000012111000000000000000000000009B
:10023000000000000000000000000000000022009C
:10024000250028002B002E003100340002010000A0
:10025000050108010B0100002100240027002A00ED
:100260002D003000330001010000040107010A01E4
:1002700005050505070508080808020202020A0A22
:100280000808040404040101010101010101030340
:10029000030303030303040707070C0C0C0C0C0CEB
:1002A0000C0C0202020206060606060606060B0BE8
:1002B0000B0B0B0B0B0B0102102020080810204029
:1002C000102040800201020108040201010204081A
:1002D00010204080804020100804020180040201A8
:1002E00080402010080402010804020101020408F1
:1002F0001020408001020408102040804B24772AFF
:1003000011241FBECFEFD1E2DEBFCDBF00E00CBF96
:1003100014E0A0E0B2E0EEE3FCE500E00BBF02C0B9
:1003200007900D92AE3DB107D9F729E1AEEDB4E0EB
:1003300001C01D92A234B207E1F711E0CFE7D1E08E
:1003400000E006C021970109802FFE010E94C02B0A
:10035000CE37D10780E00807A9F70E9429250C9421
:100360000D2E0C940000FB01DC016C9112967C9127
:10037000962F990F990F990F35E5292F239F020E7C
:1003800020E0211D1124822F562F5074462F4072D9
:1003900067FD40C051112CC0411105C0922F9095AE
:1003A000892F90E004C025E5280F90E08BEA7F3F7D
:1003B000D9F030E0772321F0779F312D09F03F5FAE
:1003C000332309F448C0482F439F040E40E0411DE9
:1003D000842F239F020E20E0211D492F439F040EEE
:1003E00040E0411D942F112480832183928308953E
:1003F00041110BC0392F2AEA329F030E30E0311D24
:1004000011249BEA931B280FCBCF90E02095982FC7
:1004100080E0CDCF511112C041110CC0392F2AEA12
:10042000329F030E30E0311D11242BEA231B95E58A
:10043000930FEECF922F909520E0B9CF411106C0D7
:1004400025E5280F9BEA981B822FF6CF2AEA280F72
:1004500090E0932FF8CF90E020E080E0C5CF8CBDF6
:100460009DBD0895EF92FF920F931F93CF93DF935B
:10047000EC017B018A01E881F9810480F581E02D9E
:100480001995FB82EA821E870D87E881F981028433
:10049000F385E02DCE011995009701F19C0150E004
:1004A00040E060E472E48FE090E00E94412B809194
:1004B000F3189091F418A091F518B091F6188217DE
:1004C0009307A407B50710F4DA01C9018093F31864
:1004D0009093F418A093F518B093F618CE01DF911D
:1004E000CF911F910F91FF90EF900895CF92DF92DF
:1004F000EF9230E020E0FA01C080D180E280FC0180
:10050000C192D192E192CF012F5F3F4F62177307E3
:1005100091F7EF90DF90CF90089590E0FC01EA54BE
:10052000FD4F249180599D4FFC018491882399F0BF
:1005300090E0880F991FFC01EA5AFD4FA591B491F4
:10054000FC01E45CFD4F859194918FB7F894EC9198
:10055000E22BEC938FBF0895DC0117962C9117972F
:1005600030E0F901EA54FD4FE4911696EC931697AA
:1005700020593D4FF9018491E82FF0E0EE0FFF1F65
:10058000E45CFD4F8591949113969C938E93129702
:10059000F9012491E22FF0E0EE0FFF1FE452FE4F2D
:1005A0008591949115969C938E9314970895AF928C
:1005B000BF92CF92DF92EF92FF920F931F93CF9350
:1005C000DF936C017B018B01040F151FEB015E01B2
:1005D000AE18BF08C017D10759F06991D601ED9147
:1005E000FC910190F081E02DC6011995892B79F7D6
:1005F000C501DF91CF911F910F91FF90EF90DF9098
:10060000CF90BF90AF900895FC01538D448D252F5E
:1006100030E0842F90E0821B930B541710F0CF969C
:10062000089501970895FC01918D828D981761F0CE
:10063000A28DAE0FBF2FB11D5D968C91928D9F5FE5
:100640009F73928F90E008958FEF9FEF0895FC01C4
:10065000918D828D981731F0828DE80FF11D858D77
:1006600090E008958FEF9FEF0895FC01918D228D0A
:10067000892F90E0805C9F4F821B91098F7399278F
:1006800008958DE198E10E94350321E0892B09F45A
:1006900020E0822F0895FC01A48DA80FB92FB11D71
:1006A000A35ABF4F2C91848D90E001968F739927A8
:1006B000848FA689B7892C93A089B1898C91837086
:1006C00080648C93938D848D981306C00288F3897F
:1006D000E02D80818F7D80830895EF92FF920F93AC
:1006E0001F93CF93DF93EC0181E0888F9B8D8C8DDE
:1006F00098131AC0E889F989808185FF15C09FB7D2
:10070000F894EE89FF896083E889F9898081837094
:10071000806480839FBF81E090E0DF91CF911F9143
:100720000F91FF90EF900895F62E0B8D10E00F5F64
:100730001F4F0F731127E02E8C8D8E110CC00FB63A
:1007400007FCFACFE889F989808185FFF5CFCE01D2
:100750000E944B03F1CFEB8DEC0FFD2FF11DE35AFF
:10076000FF4FF0829FB7F8940B8FEA89FB89808155
:100770008062CFCFCF93DF93EC01888D8823B9F0CF
:10078000AA89BB89E889F9898C9185FD03C080819C
:1007900086FD0DC00FB607FCF7CF8C9185FFF2CF19
:1007A000808185FFEDCFCE010E944B03E9CFDF9121
:1007B000CF91089580E090E0892B29F00E944103B9
:1007C00081110E94000080E090E0892B49F080E0D8
:1007D00090E0892B29F00E94000081110E94000006
:1007E00080E090E0892B49F080E090E0892B29F0AF
:1007F0000E94000081110E94000080E090E0892B9F
:1008000049F080E090E0892B29F00E9400008111DE
:100810000C94000008953FB7F8948091E9049091FA
:10082000EA04A091EB04B091EC0426B5A89B05C0A6
:100830002F3F19F00196A11DB11D3FBFBA2FA92F5F
:10084000982F8827BC01CD01620F711D811D911D5C
:1008500042E0660F771F881F991F4A95D1F70895C8
:100860008F929F92AF92BF92CF92DF92EF92FF92C0
:100870004B015C010E940B046B017C010E940B0484
:100880006C197D098E099F09683E734081059105A9
:10089000A8F321E0821A9108A108B10888EEC80ED9
:1008A00083E0D81EE11CF11C81149104A104B10461
:1008B00029F7FF90EF90DF90CF90BF90AF909F907F
:1008C0008F9008952FB7F8946091E5047091E60435
:1008D0008091E7049091E8042FBF08954F925F92B2
:1008E0006F927F929F92AF92BF92CF92DF92EF92E0
:1008F000FF920F931F93CF93DF9300D0CDB7DEB756
:10090000D090F0188091F3189091F418A091F518F8
:10091000B091F618892B8A2B8B2BD9F00E940B04EF
:100920000091191810911A1820911B1830911C1859
:10093000601B710B820B930B0091F3181091F4184C
:100940002091F5183091F618601771078207930708
:10095000C8F20E940B046093191870931A188093C0
:100960001B1890931C18E091FB18F091FC1830971D
:1009700059F04091F7185091F8186091F91870915A
:10098000FA188D2D1995D82EE0901718F090181898
:100990004D2C512C712C612CE114F10409F459C037
:1009A000D7011C96CC901C978091F1189091F21869
:1009B0008436910510F41C961C92D701ED91FC91A0
:1009C000A280B38019821A821B82DD2079F1F7019F
:1009D000369610E000E02191222319F192809920AF
:1009E00001F130E050E040E02F5F3F4F4F4F5F4F4D
:1009F000C301B2010E949C2B9B01AC01892D90E0A8
:100A0000B0E0A0E0BC01CD016F5F7F4F8F4F9F4FE3
:100A10000E949C2BA1E0B0E0AC0FBD1FA00FB11F46
:100A20008C930F5F1F4F03301105A9F609811A81BE
:100A30002B81F7014585568562817381C701F501D8
:100A40001995D7011C96CC921C971496ED90FC90AA
:100A5000A3CF80911518909116188C010F5F1F4F2E
:100A600010931618009315184997B4F10E94620468
:100A7000C0901118D0901218E0901318F09014182C
:100A80009B01AC012C193D094E095F0921F421E0BD
:100A900030E040E050E088EE93E0089FB001099F0D
:100AA000700D189F700D1124072E000C880B990BE8
:100AB0000E946B2B3093F2182093F11810921618A5
:100AC000109215180E946204609311187093121806
:100AD00080931318909314180F900F900F90DF913C
:100AE000CF911F910F91FF90EF90DF90CF90BF902B
:100AF000AF909F907F906F905F904F900895FC0112
:100B000020812EBD9B012150310941F051810DB44E
:100B100007FEFDCF4EB55EBD4193F5CF6150710923
:100B2000860F971F0DB407FEFDCF2EB5FC01208365
:100B30000895E0910B18F0910C18808190910A189B
:100B4000892B80830895E0910B18F0910C18908107
:100B500080910A1880958923808308958EBD0000B6
:100B60000DB407FEFDCF8EB50895AF92BF92CF9220
:100B7000DF92EF92FF920F931F93CF93DF9300D0FA
:100B800000D01F921F92CDB7DEB78C017B016A01A6
:100B900080910E188333E1F45801A40EB51EA016FF
:100BA000B10609F46FC00E94A30580EF0E94AE0554
:100BB000812F0E94AE05802F0E94AE050F5F1F4F50
:100BC000F70181917F010E94AE050E949905E7CF50
:100BD0005B01A40EB51E8433C1F40E94A3051983E2
:100BE0000A838D2D80688B83CC8264E070E0CE0117
:100BF00001960E947F05AE14BF0409F441C0F701BD
:100C000081917F010E94AE05F6CF0E94A3050F3FA0
:100C1000110509F028F419820A8384E08B830CC043
:100C200017FD17C019820A8333E0169507953A9588
:100C3000E1F7007E0C600B8386E0C816D104A0F5B6
:100C4000F701DE011496EA15FB0599F081918D9369
:100C5000FACFC80126E0969587952A95E1F7807E20
:100C600019830A830115104C10F48461D7CF8C616D
:100C7000D5CFB6016D5F7F4FCE0101960E947F05F3
:100C80000E949905C60128960FB6F894DEBF0FBEE4
:100C9000CDBFDF91CF911F910F91FF90EF90DF902B
:100CA000CF90BF90AF90089563E070E0CE010196C1
:100CB0000E947F05F70181917F010E94AE05AE146D
:100CC000BF04C1F7DDCFCF93DF931F92CDB7DEB75F
:100CD000898341E050E0BE016F5F7F4F90E080E08C
:100CE0000E94B5050F90DF91CF91089590E020917B
:100CF0000E18233339F40C96982F990F990F990FEA
:100D000080E008954896F8CFDA01E0910F18F0E0FE
:100D1000FE2FEE27E60FF71F90E0982F8827A901F6
:100D2000BD018E0F9F1F0C94B505CF93DF931F92CB
:100D30001F92CDB7DEB779836A8322E030E0AE013F
:100D40004F5F5F4F64E070E00E9484060F900F9049
:100D5000DF91CF910895CF93DF931F92CDB7DEB788
:100D600020910F1830E0322F2227260F371F90E0F6
:100D7000982F8827498341E050E0BE016F5F7F4F85
:100D8000820F931F0E94B5050F90DF91CF910895B8
:100D90000895CF93DF931F92CDB7DEB76983DC014F
:100DA000ED91FC910280F381E02D41E050E0BE0125
:100DB0006F5F7F4F19950F90DF91CF910895FC01E0
:100DC000818D928D08950895DF92EF92FF920F9397
:100DD0001F93CF93DF931F921F92CDB7DEB7FB0116
:100DE000DC0157961C921E9256972281211109C050
:100DF0002381211106C02481211103C025812223D2
:100E000069F14115510551F17A018F01FC01D08C36
:100E100080E591E00E942F02A8014E5F5F4F24E021
:100E200030E06CE070E08D2D0E948406F982EA8249
:100E300022E030E0AE014F5F5F4F60E170E08D2D4A
:100E40000E94840681E090E00F900F90DF91CF9197
:100E50001F910F91FF90EF90DF90089580E0F3CF06
:100E60002F923F924F925F926F927F928F929F92BA
:100E7000AF92BF92CF92DF92EF92FF920F931F93A8
:100E8000CF93DF9300D000D000D0CDB7DEB78987F5
:100E900049835A836B837C8300911718109118182B
:100EA000BDE78B2E912CA12CB12C0115110509F455
:100EB0006BC0D801ED91FC910084F185E02DC80153
:100EC00019951C01D8011296ED91FC91C12CD12CE1
:100ED0007601412C512C320120E030E0A90100972D
:100EE00091F06081260F311D411D511D6181460E1B
:100EF000511C611C711C6281C60ED11CE11CF11CCD
:100F000001973396ECCFA0E5B0E00E94602B6D8393
:100F10007E838F839887A7E3B0E0A30192010E94AC
:100F2000602B2B013C01ABE4B0E0A70196010E94CD
:100F3000602B2D813E814F815885C32ED42EE52E06
:100F4000FF2445E0429D9001439D300D1124C20EC7
:100F5000D31EE11CF11C8C0C9D1CAE1CBF1C452C2F
:100F6000562C672C7724840C951CA61CB71C472F85
:100F7000582F692F7727840E951EA61EB71ED801FD
:100F800014960D911C9191CFB985CB2ED12CF12CBB
:100F9000E12CA7019601C501B4010E949C2B872E6C
:100FA000982EA92EBB2429813A814B815C8182161F
:100FB0009306A406B50668F0A701960169817A81B7
:100FC0008B819C810E949C2BA50194010E946B2B1C
:100FD0002987898529960FB6F894DEBF0FBECDBF4D
:100FE000DF91CF911F910F91FF90EF90DF90CF9005
:100FF000BF90AF909F908F907F906F905F904F9039
:101000003F902F900895FC01A281B3819C9186812D
:101010002681982381E0921380E00895FC01868167
:101020000280F381E02D908180958923808308954B
:10103000FC0196810280F381E02D8081892B8083E1
:1010400008950F931F93CF93DF932091E3042F5FB5
:10105000322F37703093E30420FF2BC020E831FD9E
:101060002064347009F02062205FFC01EC012396BB
:1010700000E011E06485662329F070E0C8010E9459
:10108000AC2B6F5F6187322F369F030E30E0311D2E
:101090001124311110C01682662311F0615061874E
:1010A0003196EC17FD0731F7DF91CF911F910F912A
:1010B000089520E0D4CF31503683EECFCF93DF9325
:1010C000EC010E940B0479836883DF91CF9108952E
:1010D000CF93DF93EC010E940B0428813981621BBE
:1010E000730B6A307105B8F3DF91CF9108954F9279
:1010F0005F927F928F929F92AF92BF92CF92DF9238
:10110000EF92FF920F931F93CF93DF93EB010F9614
:101110002C010E946808F8948A819B811816190690
:101120000CF0EAC1E881F98160910B0162603091B5
:101130000B013D7F30930B01DA848F812D2D281B0D
:10114000822F2F834F85042E000C550BAA81BB8163
:101150007D85FC84EE8488248394870EF394E39445
:101160009E819884B984AB841181C12C7C2D0C2D77
:101170002C2D2181112788942111280F08F42FEF9D
:101180008195889480FC120F1795889481FC120F2A
:101190001795889482FC120F1795889483FC120F80
:1011A0001795889484FC120F1795889485FC120F6C
:1011B0001795889486FC120F1795889487FC120F58
:1011C00017958894722F8110712F8D0D172F002C79
:1011D00060930B01002C17FF30930B0120817727C0
:1011E000889400C000C030930B012111290F00C06A
:1011F00060930B01002C16FF30930B0108F42FEFC6
:101200009195889400C000C030930B01F0FC720FE0
:1012100000C060930B01002C15FF30930B017795F4
:101220008894F1FC720F00C000C030930B017795D9
:10123000889400C060930B01002C14FF30930B01C5
:10124000F2FC720F7795889400C000C030930B01B8
:10125000F3FC720F00C060930B01002C13FF30935E
:101260000B0177958894F4FC720F00C000C0309396
:101270000B017795889400C060930B01002C12FF3E
:1012800030930B01F5FC720F7795889400C000C075
:1012900030930B01F6FC720F00C060930B01002C21
:1012A00011FF30930B0177958894F7FC720F00C003
:1012B00000C030930B017795889400C060930B01B8
:1012C000002C10FF30930B01122FF110172F9B0DE4
:1012D00000C000C030930B0100C000C060930B0140
:1012E000002C17FF30930B0122817727889400C0D0
:1012F00000C030930B012111290D00C060930B0138
:10130000002C16FF30930B0108F42FEFE40FF51FAC
:1013100000C000C030930B01E0FC720F00C060936E
:101320000B01002C15FF30930B0177958894E1FC9D
:10133000720F00C000C030930B017795889400C0F5
:1013400060930B01002C14FF30930B01E2FC720F31
:101350007795889400C000C030930B01E3FC720FB6
:1013600000C060930B01002C13FF30930B017795A5
:101370008894E4FC720F00C000C030930B01779595
:10138000889400C060930B01002C12FF30930B0176
:10139000E5FC720F7795889400C000C030930B0174
:1013A000E6FC720F00C060930B01002C11FF30931C
:1013B0000B0177958894E7FC720F00C000C0309352
:1013C0000B017795889400C060930B01002C10FFEF
:1013D00030930B01122FE110172F919400C000C021
:1013E00030930B019A0C00C0002C60930B01002C71
:1013F00017FF30930B0121817727889400C000C02C
:1014000030930B012111280F00C060930B01002CB9
:1014100016FF30930B0108F42FEF8195889400C0DC
:1014200000C030930B0180FC720F00C060930B0171
:10143000002C15FF30930B017795889481FC720F77
:1014400000C000C030930B017795889400C0609372
:101450000B01002C14FF30930B0182FC720F779567
:10146000889400C000C030930B0183FC720F00C051
:1014700060930B01002C13FF30930B017795889438
:1014800084FC720F00C000C030930B0177958894E4
:1014900000C060930B01002C12FF30930B0185FC00
:1014A000720F7795889400C000C030930B0186FCC2
:1014B000720F00C060930B01002C11FF30930B01E1
:1014C0007795889487FC720F00C000C030930B01A1
:1014D0007795889400C060930B01002C10FF309327
:1014E0000B01122F8110172F8D0D00C000C03093FB
:1014F0000B01119709F06CCE4A815B8120EE31E03F
:10150000DA010E94C82BDC01CB0164E0B695A795F7
:10151000979587956A95D1F730E020E0B901EAE91F
:101520004E9F040E611D5E9F600D711D1124650F9D
:10153000711D860F971FA11DB11D893E43E09407C1
:10154000A105B10508F434C0885E9340A109B10932
:1015500042E0B695A795979587954A95D1F747E0CC
:10156000849F080E211D949F200D311D1124290FE9
:10157000311D6091E20470E0860F971F280F391F1C
:101580008091E5049091E604A091E704B091E8040D
:10159000432F5527840F951FA11DB11D8093E5048E
:1015A0009093E604A093E704B093E8042093E20448
:1015B0007894C201DF91CF911F910F91FF90EF902E
:1015C000DF90CF90BF90AF909F908F907F905F9073
:1015D0004F900C945E0880E991E00895EAE0F1E014
:1015E00080818260808308954F925F927F928F9274
:1015F0009F92AF92BF92CF92DF92EF92FF920F93A2
:101600001F93CF93DF93EB010F962C010E94680884
:10161000F8948A819B81181619060CF0EAC1E881BA
:10162000F98160910B01616030910B013E7F309335
:101630000B01DA848F812D2D281B822F2F834F855C
:10164000042E000C550BAA81BB817D85FC84EE84A1
:1016500088248394870EF394E3949E819884B984BC
:10166000AB841181C12C7C2D0C2D2C2D21811127B7
:1016700088942111280F08F42FEF8195889480FC1D
:10168000120F1795889481FC120F1795889482FC8D
:10169000120F1795889483FC120F1795889484FC79
:1016A000120F1795889485FC120F1795889486FC65
:1016B000120F1795889487FC120F17958894722F34
:1016C0008110712F8D0D172F002C60930B01002CB2
:1016D00017FF30930B0120817727889400C000C04A
:1016E00030930B012111290F00C060930B01002CD6
:1016F00016FF30930B0108F42FEF9195889400C0EA
:1017000000C030930B01F0FC720F00C060930B011E
:10171000002C15FF30930B0177958894F1FC720F24
:1017200000C000C030930B017795889400C060938F
:101730000B01002C14FF30930B01F2FC720F779514
:10174000889400C000C030930B01F3FC720F00C0FE
:1017500060930B01002C13FF30930B017795889455
:10176000F4FC720F00C000C030930B017795889491
:1017700000C060930B01002C12FF30930B01F5FCAD
:10178000720F7795889400C000C030930B01F6FC6F
:10179000720F00C060930B01002C11FF30930B01FE
:1017A00077958894F7FC720F00C000C030930B014E
:1017B0007795889400C060930B01002C10FF309344
:1017C0000B01122FF110172F9B0D00C000C030939A
:1017D0000B0100C000C060930B01002C17FF309379
:1017E0000B0122817727889400C000C030930B0141
:1017F0002111290D00C060930B01002C16FF3093BE
:101800000B0108F42FEFE40FF51F00C000C0309368
:101810000B01E0FC720F00C060930B01002C15FF60
:1018200030930B0177958894E1FC720F00C000C0E3
:1018300030930B017795889400C060930B01002CC6
:1018400014FF30930B01E2FC720F7795889400C06F
:1018500000C030930B01E3FC720F00C060930B01DA
:10186000002C13FF30930B0177958894E4FC720FE2
:1018700000C000C030930B017795889400C060933E
:101880000B01002C12FF30930B01E5FC720F7795D2
:10189000889400C000C030930B01E6FC720F00C0BA
:1018A00060930B01002C11FF30930B017795889406
:1018B000E7FC720F00C000C030930B01779588944D
:1018C00000C060930B01002C10FF30930B01122F0E
:1018D000E110172F919400C000C030930B019A0CB7
:1018E00000C0002C60930B01002C17FF30930B01FC
:1018F00021817727889400C000C030930B0121110B
:10190000280F00C060930B01002C16FF30930B01D1
:1019100008F42FEF8195889400C000C030930B012C
:1019200080FC720F00C060930B01002C15FF3093F8
:101930000B017795889481FC720F00C000C0309332
:101940000B017795889400C060930B01002C14FF65
:1019500030930B0182FC720F7795889400C000C011
:1019600030930B0183FC720F00C060930B01002CBD
:1019700013FF30930B017795889484FC720F00C09D
:1019800000C030930B017795889400C060930B01E1
:10199000002C12FF30930B0185FC720F7795889411
:1019A00000C000C030930B0186FC720F00C0609332
:1019B0000B01002C11FF30930B017795889487FC65
:1019C000720F00C000C030930B017795889400C05F
:1019D00060930B01002C10FF30930B01122F81102C
:1019E000172F8D0D00C000C030930B01119709F027
:1019F0006CCE4A815B8120EE31E0DA010E94C82B77
:101A0000DC01CB0164E0B695A795979587956A951B
:101A1000D1F730E020E0B901EAE94E9F040E611DE4
:101A20005E9F600D711D1124650F711D860F971F3C
:101A3000A11DB11D893E43E09407A105B10508F43D
:101A400034C0885E9340A109B10942E0B695A795DC
:101A5000979587954A95D1F747E0849F080E211DF9
:101A6000949F200D311D1124290F311D6091E20436
:101A700070E0860F971F280F391F8091E504909121
:101A8000E604A091E704B091E804432F5527840FA2
:101A9000951FA11DB11D8093E5049093E604A093CA
:101AA000E704B093E8042093E2047894C201DF9144
:101AB000CF911F910F91FF90EF90DF90CF90BF904B
:101AC000AF909F908F907F905F904F900C945E08A6
:101AD000EAE0F1E080818160808308954F925F9217
:101AE0007F928F929F92AF92BF92CF92DF92EF92AE
:101AF000FF920F931F93CF93DF93EB010F962C016F
:101B00000E946808F8948A819B81181619060CF0C7
:101B1000EAC1E881F98160910B01606830910B01A5
:101B20003F7730930B01DA848F812D2D281B822F74
:101B30002F834F85042E000C550BAA81BB817D8518
:101B4000FC84EE8488248394870EF394E3949E812E
:101B50009884B984AB841181C12C7C2D0C2D2C2D43
:101B60002181112788942111280F08F42FEF8195E6
:101B7000889480FC120F1795889481FC120F17959A
:101B8000889482FC120F1795889483FC120F179586
:101B9000889484FC120F1795889485FC120F179572
:101BA000889486FC120F1795889487FC120F17955E
:101BB0008894722F8110712F8D0D172F002C609338
:101BC0000B01002C17FF30930B012081772788949D
:101BD00000C000C030930B012111290F00C0609399
:101BE0000B01002C16FF30930B0108F42FEF919599
:101BF000889400C000C030930B01F0FC720F00C04D
:101C000060930B01002C15FF30930B01779588949E
:101C1000F1FC720F00C000C030930B0177958894DF
:101C200000C060930B01002C14FF30930B01F2FCF9
:101C3000720F7795889400C000C030930B01F3FCBD
:101C4000720F00C060930B01002C13FF30930B0147
:101C500077958894F4FC720F00C000C030930B019C
:101C60007795889400C060930B01002C12FF30938D
:101C70000B01F5FC720F7795889400C000C030937B
:101C80000B01F6FC720F00C060930B01002C11FFDA
:101C900030930B0177958894F7FC720F00C000C059
:101CA00030930B017795889400C060930B01002C52
:101CB00010FF30930B01122FF110172F9B0D00C056
:101CC00000C030930B0100C000C060930B01002CDA
:101CD00017FF30930B0122817727889400C000C042
:101CE00030930B012111290D00C060930B01002CD2
:101CF00016FF30930B0108F42FEFE40FF51F00C01F
:101D000000C030930B01E0FC720F00C060930B0128
:101D1000002C15FF30930B0177958894E1FC720F2E
:101D200000C000C030930B017795889400C0609389
:101D30000B01002C14FF30930B01E2FC720F77951E
:101D4000889400C000C030930B01E3FC720F00C008
:101D500060930B01002C13FF30930B01779588944F
:101D6000E4FC720F00C000C030930B01779588949B
:101D700000C060930B01002C12FF30930B01E5FCB7
:101D8000720F7795889400C000C030930B01E6FC79
:101D9000720F00C060930B01002C11FF30930B01F8
:101DA00077958894E7FC720F00C000C030930B0158
:101DB0007795889400C060930B01002C10FF30933E
:101DC0000B01122FE110172F919400C000C0309327
:101DD0000B019A0C00C0002C60930B01002C17FF24
:101DE00030930B0121817727889400C000C0309385
:101DF0000B012111280F00C060930B01002C16FF6E
:101E000030930B0108F42FEF8195889400C000C037
:101E100030930B0180FC720F00C060930B01002C0B
:101E200015FF30930B017795889481FC720F00C0E9
:101E300000C030930B017795889400C060930B012C
:101E4000002C14FF30930B0182FC720F779588945D
:101E500000C000C030930B0183FC720F00C0609380
:101E60000B01002C13FF30930B017795889484FCB1
:101E7000720F00C000C030930B017795889400C0AA
:101E800060930B01002C12FF30930B0185FC720F45
:101E90007795889400C000C030930B0186FC720FC8
:101EA00000C060930B01002C11FF30930B0177955C
:101EB000889487FC720F00C000C030930B017795A7
:101EC000889400C060930B01002C10FF30930B012D
:101ED000122F8110172F8D0D00C000C030930B0101
:101EE000119709F06CCE4A815B8120EE31E0DA0176
:101EF0000E94C82BDC01CB0164E0B695A7959795AD
:101F000087956A95D1F730E020E0B901EAE94E9F64
:101F1000040E611D5E9F600D711D1124650F711D02
:101F2000860F971FA11DB11D893E43E09407A105AF
:101F3000B10508F434C0885E9340A109B10942E0BC
:101F4000B695A795979587954A95D1F747E0849FD1
:101F5000080E211D949F200D311D1124290F311DC4
:101F60006091E20470E0860F971F280F391F80915F
:101F7000E5049091E604A091E704B091E804432FB2
:101F80005527840F951FA11DB11D8093E5049093E3
:101F9000E604A093E704B093E8042093E204789465
:101FA000C201DF91CF911F910F91FF90EF90DF90D1
:101FB000CF90BF90AF909F908F907F905F904F9009
:101FC0000C945E08EAE0F1E08081806880830895E7
:101FD0004F925F927F928F929F92AF92BF92CF92D9
:101FE000DF92EF92FF920F931F93CF93DF93EB015A
:101FF0000F962C010E946808F8948A819B8118161C
:1020000019060CF0CDC1E881F98164B3862E68947D
:1020100081F834B33D7F34BBDA848F812D2D281BAA
:10202000822F2F834F85042E000C550BAA81BB8174
:102030007D85FC84EE847F5FF394E3949E81988495
:10204000B984AB841181C12C6C2D0C2D2C2D2181D8
:10205000112788942111280F08F42FEF8195889477
:1020600070FD120F1795889471FD120F17958894C3
:1020700072FD120F1795889473FD120F17958894AF
:1020800074FD120F1795889475FD120F179588949B
:1020900076FD120F1795889477FD120F1795889487
:1020A000622F7111612F8D0D162F002C84BA00C084
:1020B00017FF34BB20816627889400C000C0002C25
:1020C00034BB2111290F00C0002C84BA00C016FFB8
:1020D00034BB08F42FEF9195889400C000C0002C09
:1020E00034BBF0FC620F00C0002C84BA00C015FFA6
:1020F00034BB67958894F1FC620F00C000C0002CCF
:1021000034BB6795889400C0002C84BA00C014FFCB
:1021100034BBF2FC620F6795889400C000C0002CAD
:1021200034BBF3FC620F00C0002C84BA00C013FF64
:1021300034BB67958894F4FC620F00C000C0002C8B
:1021400034BB6795889400C0002C84BA00C012FF8D
:1021500034BBF5FC620F6795889400C000C0002C6A
:1021600034BBF6FC620F00C0002C84BA00C011FF23
:1021700034BB67958894F7FC620F00C000C0002C48
:1021800034BB6795889400C0002C84BA00C010FF4F
:1021900034BB122FF110162F9B0D00C000C0002C75
:1021A00034BB00C000C0002C84BA00C017FF34BB91
:1021B00022816627889400C000C0002C34BB211106
:1021C000290D00C0002C84BA00C016FF34BB08F4EF
:1021D0002FEFE40FF51F00C000C0002C34BBE0FC63
:1021E000620F00C0002C84BA00C015FF34BB679595
:1021F0008894E1FC620F00C000C0002C34BB6795DE
:10220000889400C0002C84BA00C014FF34BBE2FCE8
:10221000620F6795889400C000C0002C34BBE3FCBB
:10222000620F00C0002C84BA00C013FF34BB679556
:102230008894E4FC620F00C000C0002C34BB67959A
:10224000889400C0002C84BA00C012FF34BBE5FCA7
:10225000620F6795889400C000C0002C34BBE6FC78
:10226000620F00C0002C84BA00C011FF34BB679518
:102270008894E7FC620F00C000C0002C34BB679557
:10228000889400C0002C84BA00C010FF34BB122F09
:10229000E110162F919400C000C0002C34BB9A0CA2
:1022A00000C000C084BA00C017FF34BB218166277C
:1022B000889400C000C0002C34BB2111280F00C03E
:1022C000002C84BA00C016FF34BB08F42FEF8195B0
:1022D000889400C000C0002C34BB70FD620F00C0A9
:1022E000002C84BA00C015FF34BB6795889471FD3B
:1022F000620F00C000C0002C34BB6795889400C0FA
:10230000002C84BA00C014FF34BB72FD620F6795C5
:10231000889400C000C0002C34BB73FD620F00C065
:10232000002C84BA00C013FF34BB6795889474FDF9
:10233000620F00C000C0002C34BB6795889400C0B9
:10234000002C84BA00C012FF34BB75FD620F679584
:10235000889400C000C0002C34BB76FD620F00C022
:10236000002C84BA00C011FF34BB6795889477FDB8
:10237000620F00C000C0002C34BB6795889400C079
:10238000002C84BA00C010FF34BB122F7111162F1D
:102390008D0D00C000C0002C34BB119709F086CE13
:1023A0004A815B8120EE31E0DA010E94C82BDC011A
:1023B000CB0164E0B695A795979587956A95D1F777
:1023C00030E020E0B901EAE94E9F040E611D5E9FF6
:1023D000600D711D1124650F711D860F971FA11DC2
:1023E000B11D893E43E09407A105B10508F434C04E
:1023F000885E9340A109B10942E0B695A7959795EB
:1024000087954A95D1F747E0849F080E211D949F38
:10241000200D311D1124290F311D6091E20470E05F
:10242000860F971F280F391F8091E5049091E604CD
:10243000A091E704B091E804432F5527840F951F1E
:10244000A11DB11D8093E5049093E604A093E704D9
:10245000B093E8042093E2047894C201DF91CF9115
:102460001F910F91FF90EF90DF90CF90BF90AF90B2
:102470009F908F907F905F904F900C945E08999AF8
:1024800008956F927F928F92CF92DF92EF92FF9298
:102490000F931F93CF93DF93CDB7DEB762970FB63D
:1024A000F894DEBF0FBECDBF6C017A013801822ED9
:1024B000DC011C962C91CA0157FF04C0882799277C
:1024C000841B950B7A8369839C838B839E838D8386
:1024D0006D867E868F86213049F5CE0101960E9459
:1024E000210883E0888B1A8A198AF7FE02C08DEFD3
:1024F000888BD601ED91FC910484F585E02DBE0119
:102500006F5F7F4FC601199562960FB6F894DEBFD4
:102510000FBECDBFDF91CF911F910F91FF90EF9034
:10252000DF90CF908F907F906F9008951C861B86D0
:102530001A86198618861F82D4CFEF92FF920F93C6
:102540001F93CF93DF93CDB7DEB762970FB6F894A2
:10255000DEBF0FBECDBF7C01DC011C968C917A835F
:1025600069835C834B835E834D830D871E872F8732
:102570008130F9F4CE0101960E942108188A1A8A46
:10258000198AD701ED91FC910484F585E02DBE01F7
:102590006F5F7F4FC701199562960FB6F894DEBF43
:1025A0000FBECDBFDF91CF911F910F91FF90EF90A4
:1025B00008951C861B861A86198618861F82DECF10
:1025C000FF920F931F93CF93DF9300D0CDB7DEB769
:1025D0008091D913882319F1109100028DE2F82E11
:1025E000F9820FEF0A831B8367EA76E0CE0101963A
:1025F0000E94B301F9820A831B836CEB76E0CE0163
:1026000001960E94B30181E08093E3130F900F9035
:102610000F90DF91CF911F910F91FF9008950DE2E0
:1026200009831FEF1A831B8267EA76E0CE010196C9
:102630000E94B30109831A831B82DFCFFF920F939D
:102640001F93CF93DF9300D0CDB7DEB78091DA131D
:10265000882319F11091000280E6F82EF9820FEF1D
:102660000A831B8362EA75E0CE0101960E94B301E2
:10267000F9820A831B8365EA75E0CE0101960E9408
:10268000B30181E08093E3130F900F900F90DF91DF
:10269000CF911F910F91FF90089500E609831FEFDE
:1026A0001A831B8262EA75E0CE0101960E94B30193
:1026B00009831A831B82DFCFFF920F931F93CF935F
:1026C000DF9300D0CDB7DEB78091DB13882319F1FB
:1026D0001091000280E6F82EF9820FEF0A831B8327
:1026E0006CE975E0CE0101960E94B301F9820A837C
:1026F0001B836FE975E0CE0101960E94B30181E072
:102700008093E3130F900F900F90DF91CF911F9163
:102710000F91FF90089500E609831FEF1A831B8233
:102720006CE975E0CE0101960E94B30109831A831A
:102730001B82DFCFFF920F931F93CF93DF9300D0C5
:10274000CDB7DEB78091DC13882319F11091000218
:1027500080E6F82EF9820FEF0A831B8364E575E0AB
:10276000CE0101960E94B301F9820A831B836AE5B8
:1027700075E0CE0101960E94B30181E08093E313DE
:102780000F900F900F90DF91CF911F910F91FF90BD
:10279000089500E609831FEF1A831B8264E575E044
:1027A000CE0101960E94B30109831A831B82DFCFF9
:1027B000FF920F931F93CF93DF9300D0CDB7DEB777
:1027C0008091DD13882319F1109100028DE2F82E1B
:1027D000F9820FEF0A831B8361E575E0CE01019654
:1027E0000E94B301F9820A831B8367E575E0CE017D
:1027F00001960E94B30181E08093E3130F900F9044
:102800000F90DF91CF911F910F91FF9008950DE2EE
:1028100009831FEF1A831B8261E575E0CE010196E3
:102820000E94B30109831A831B82DFCFFF920F93AB
:102830001F93CF93DF9300D0CDB7DEB78091DE1327
:102840008823A9F11091000280E6F82EF9820FEF9B
:102850000A831B836DEC77E0CE0101960E94B301E1
:10286000F9820A831B8360ED77E0CE0101960E9416
:10287000B301F9820A831B8363ED77E0CE010196F1
:102880000E94B301F9820A831B8366ED77E0CE01D3
:1028900001960E94B30181E08093E3130F900F90A3
:1028A0000F90DF91CF911F910F91FF90089500E657
:1028B00009831FEF1A831B826DEC77E0CE0101962E
:1028C0000E94B30109831A831B8260ED77E0CE0179
:1028D00001960E94B30109831A831B8263ED77E09E
:1028E000CE0101960E94B30109831A831B82CDCFCA
:1028F000FC01848595850895FC0184899589089556
:1029000022EB32E0FC0131832083FB0140895189B5
:1029100062897389FC0142835383648375830895BC
:10292000DC01ED91FC91048CF58DE02D199490E083
:1029300080E00895FC018585968508950F931F9387
:10294000CF93DF9300D0CDB7DEB7AB0119821A82E7
:102950001B82DC01ED91FC910190F081E02D00E003
:1029600010E020E0BE016F5F7F4F19950F900F9030
:102970000F90DF91CF911F910F910895FC018EE18F
:1029800092E091838083138212828FEF8683878304
:10299000808781878287838781E084871686158672
:1029A000158214828091171890911818892B21F4A0
:1029B000F0931818E0931718A091DE04B091DF048B
:1029C000109721F01596FC93EE931497F093DF0483
:1029D000E093DE04089590E080E00895FB0101900B
:1029E0000020E9F73197AF01461B570BDC01ED9151
:1029F000FC910280F381E02D19948F929F92AF9207
:102A0000BF92EF92FF920F931F93CF93DF93CDB7B7
:102A1000DEB7A1970FB6F894DEBF0FBECDBF7C0125
:102A2000FA01CB0119A2223008F42AE08E010F5DD1
:102A30001F4F822E912CB12CA12CBF01A501940116
:102A40000E946B2BF901CA016A300CF5605DD80158
:102A50006E938D01232B242B252B79F790E080E0BA
:102A6000109721F0BD01C7010E94EE14A1960FB688
:102A7000F894DEBF0FBECDBFDF91CF911F910F91B4
:102A8000FF90EF90BF90AF909F908F900895695CFA
:102A9000DECF8F929F92AF92BF92CF92DF92EF9252
:102AA000FF920F931F93CF93DF937C01EB016C0197
:102AB00082E0C80ED11C4701E5E08E0E911C10E0AB
:102AC00000E0F60141916F0150E070E060E02AE023
:102AD000CE010E94FD145C01E881F9810190F08132
:102AE000E02D6EE2CE0119958A0D9B1D080F191F6E
:102AF000C814D90431F7F701458150E070E060E077
:102B00002AE0CE010E94FD14800F911FDF91CF912A
:102B10001F910F91FF90EF90DF90CF90BF90AF90FB
:102B20009F908F9008950F931F93CF93DF93EC01A5
:102B3000FB014481558160817181E881F9810280C6
:102B4000F381E02D19958C0164EB72E0CE010E94B7
:102B5000EE14800F911FDF91CF911F910F91089577
:102B60000F931F93CF93DF93EC010E94EE148C011F
:102B700064EB72E0CE010E94EE14800F911FDF9192
:102B8000CF911F910F9108950E94E92DFC01808142
:102B90009181009711F00C94832A60E070E0CB01E2
:102BA0000895EF92FF920F931F93CF93DF938617B1
:102BB000970769F1FC0124813581FB01448155812E
:102BC00024173507E1F4232B11F1FC010081118159
:102BD000FB01C081D181F80181918F018823B9F077
:102BE000082E000C990B0E94EE2D7C018991082E75
:102BF000000C990B0E94EE2DE816F90661F380E0B7
:102C0000DF91CF911F910F91FF90EF90089581E098
:102C1000F7CF0F931F93CF93DF93EC0188819981B6
:102C2000009759F02A813B812617370730F081E061
:102C3000DF91CF911F910F9108958B016F5F7F4FAF
:102C40000E94082D009759F0998388831B830A837B
:102C50002C813D81232B59F7FC011082E8CF80E0C5
:102C6000E7CFEF92FF920F931F93CF93DF936115FE
:102C7000710541F480E0DF91CF911F910F91FF909A
:102C8000EF90089541155105B1F07B01EC010C81E5
:102C90001D81040F151FB8010E940916882351F3E6
:102CA000288139818C819D81B701820F931F0E94F9
:102CB000062E1D830C8381E0DECFCF93DF93EC01E2
:102CC00088819981009711F00E947F2C19821882C7
:102CD0001D821C821B821A82DF91CF910895CF93AF
:102CE000DF93EC01FB0144815581608171810E9479
:102CF0003116811103C0CE010E945D16CE01DF9115
:102D0000CF910895EF92FF920F931F93CF93DF938C
:102D1000EC017B018A01BA010E94091681110BC0E6
:102D2000CE010E945D16CE01DF91CF911F910F91D0
:102D3000FF90EF9008951D830C83B70188819981DE
:102D40000E94062EF0CFEF92FF920F931F93CF9326
:102D5000DF93CDB7DEB762970FB6F894DEBF0FBE34
:102D6000CDBF8C01CB01F801118210821382128237
:102D7000158214824AE09E012F5F3F4F7901B9010D
:102D80000E94D52AF70101900020E9F73197AF01A1
:102D90004E195F09B701C8010E94821662960FB6EC
:102DA000F894DEBF0FBECDBFDF91CF911F910F9181
:102DB000FF90EF900895FC0111821082138212821D
:102DC000158214826115710551F0FB0101900020FC
:102DD000E9F73197AF01461B570B0C948216089503
:102DE000FC0180819181009711F00C947F2C089553
:102DF000CF93DF93CDB7DEB72C970FB6F894DEBF35
:102E00000FBECDBF67EB72E08DE198E10E94B01577
:102E10006091000270910102CE0107960E94A316F4
:102E200063ED72E0CE0101960E94DB16BE01695F80
:102E30007F4FCE0101960E946F16BC018DE198E193
:102E40000E949315CE0101960E94F016CE010796BE
:102E50000E94F0160E9416140E94D8130E949A1322
:102E60000E945C130E941E130E94E01268EE72E042
:102E70008DE198E10E94B0152C960FB6F894DEBF54
:102E80000FBECDBFDF91CF910895EF92FF920F93C8
:102E90001F93CF93DF93CDB7DEB72C970FB6F8947F
:102EA000DEBF0FBECDBF63E073E08DE198E10E940D
:102EB000B0156091020270910302CE0107960E9444
:102EC000A3166CE173E0CE0101960E94DB16BE01F1
:102ED000695F7F4FCE0101960E946F16BC018DE1A4
:102EE00098E10E949315CE0101960E94F016CE0142
:102EF00007960E94F0161092E1041092E00450E64A
:102F0000E52EFF24FA940091E0041091E104043FBF
:102F100081E01807BCF480910202E982FA828B8377
:102F2000B801660F771F600F711F6350724FCE019B
:102F300001960E94B3010F5F1F4F1093E1040093AD
:102F4000E004E1CF1092E1041092E00430E6E32EB9
:102F5000FF24FA940091E0041091E104043F81E021
:102F60001807BCF480910202E982FA828B83B801CF
:102F7000660F771F600F711F6F5D774FCE0101964F
:102F80000E94B3010F5F1F4F1093E1040093E00410
:102F9000E1CF1092E1041092E00490E6F92EEE24C5
:102FA000EA940091E0041091E1040E341105E4F478
:102FB000C8018A549109049780F080910202F98235
:102FC000EA828B83B801660F771F600F711F615112
:102FD000794FCE0101960E94B3010F5F1F4F1093EE
:102FE000E1040093E004DDCF8EE490E09093E104EF
:102FF0008093E004B0E6EB2EFF24FA940091E00405
:103000001091E1040E351105BCF480910202E982B1
:10301000FA828B83B801660F771F600F711F6151B1
:10302000794FCE0101960E94B3010F5F1F4F10939D
:10303000E1040093E004E2CF8EE590E09093E10498
:103040008093E004F0E6EF2EFF24FA940091E00470
:103050001091E10406361105BCF480910202E98268
:10306000FA828B83B801660F771F600F711F615161
:10307000794FCE0101960E94B3010F5F1F4F10934D
:10308000E1040093E004E2CF1092E1041092E00426
:1030900050E6F52EEE24EA940091E0041091E1044C
:1030A0000D311105F4F404301105A0F0C801499761
:1030B000049780F080910202F982EA828B83B80142
:1030C000660F771F600F711F6F5A7A4FCE010196FE
:1030D0000E94B3010F5F1F4F1093E1040093E004BF
:1030E000DBCF8DE190E09093E1048093E00430E643
:1030F000E32EFF24FA940091E0041091E1040535D9
:103100001105BCF480910202E982FA828B83B80136
:10311000660F771F600F711F6F5A7A4FCE010196AD
:103120000E94B3010F5F1F4F1093E1040093E0046E
:10313000E2CF85E590E09093E1048093E00490E68F
:10314000F92EEE24EA940091E0041091E1040A388B
:103150001105ECF40D31110599F00432110581F0DF
:1031600080910202F982EA828B83B801660F771F91
:10317000600F711F6F5A7A4FCE0101960E94B30102
:103180000F5F1F4F1093E1040093E004DCCF61E375
:1031900073E08DE198E10E94B0152C960FB6F8947B
:1031A000DEBF0FBECDBFDF91CF911F910F91FF907A
:1031B000EF900895AF92BF92CF92DF92EF92FF927D
:1031C0000F931F93CF93DF9300D01F92CDB7DEB73D
:1031D0008C016B017A0180910E188333E9F45B0155
:1031E0006801C40ED51EC016D106A9F10E94A30520
:1031F0008FE00E94AE05812F0E94AE05802F0E94B5
:10320000AE050F5F1F4F80E00E94AE05F501819370
:103210005F010E949905E7CF843369F50E94A305F9
:1032200019830A838F2D8F778B83EC8264E070E0A3
:10323000CE0101960E947F05A70170E060E0C60103
:103240000E94FF2DE114F10421F0B701C6010E9494
:103250007F050E949905C7010F900F900F900F9066
:10326000DF91CF911F910F91FF90EF90DF90CF9062
:10327000BF90AF9008950E94A3050F3F110509F07C
:1032800030F419820A831B8263E070E0D1CF17FD0E
:103290000BC019820A8333E0169507953A95E1F73A
:1032A000007E08600B83F0CFC80126E096958795D5
:1032B0002A95E1F7807E19830A830115104C18F4D2
:1032C00080618B83E1CF8861FCCFCF93DF931F9226
:1032D000CDB7DEB720910F1830E0322F2227260F0E
:1032E000371F90E0982F882741E050E0BE016F5FC4
:1032F0007F4F820F931F0E94DA1889810F90DF9110
:10330000CF910895CF93C82F462F61E070E00E94BF
:10331000AB0661E070E08C2F0E9465198111F9CF36
:10332000CF910895CF93C82F80E591E00E942F029E
:1033300060E170E08C2FCF910C948219CF93DF93D2
:10334000EC01888D883020F40E94921988E0888FE3
:10335000DF91CF910895CF93FC01C08D80E591E07E
:103360000E942F0260E270E08C2F0E94821962E0BE
:1033700070E08C2F0E94651984FD16C062E070E039
:103380008C2F0E94651983FF0AC048E162E070E05B
:103390008C2F0E94AB0680E090E0CF91089580E5ED
:1033A00091E00E942F02E3CF40E162E070E08C2FB9
:1033B0000E94AB0681E0F0CFCF93DF931F92CDB791
:1033C000DEB741E050E0BE016F5F7F4F90E080E0EC
:1033D0000E94DA1889810F90DF91CF910895CF93E1
:1033E000DF93C4E1D0E00E94DC19882361F061E042
:1033F00070E080E090E00E9430042197A1F780E027
:10340000DF91CF91089581E0FBCFCF92DF92EF92D1
:10341000FF920F931F93CF93DF93CDB7DEB7C454C2
:10342000D1090FB6F894DEBF0FBECDBFFC0182817B
:103430009381A481B58123968CAF9DAFAEAFBFAF12
:10344000239721E023962FAF239723964CAD5DADB4
:103450006EAD7FAD23974BAB5CAB6DAB7EAB89AFF5
:103460009AAFABAFBCAF8DA79EA7AFA7B8AB28AB49
:103470004DA55EA56FA578A94FA358A769A77AA700
:103480002EAB4BA95CA96DA97EA949A35AA36BA336
:103490007CA38B8F9C8FAD8FBE8F42EB52E05C8BF9
:1034A0004B8B3FEF3D8B3E8B3F8B188E5E874D875E
:1034B0002AA7CFA0D8A4E9A4FAA4CF86D88AE98AFB
:1034C000FA8A2CA309A11AA12BA13CA109871A876A
:1034D0002B873C875A8349838B839C83AD83BE8330
:1034E000809110188111D4C060E372E080E090E018
:1034F0000E9430041FB7F89480910D1881115FC0AD
:1035000045EA52E0FA0184912BEE32E0F901949100
:10351000E82FF0E0EE0FFF1FEA5AFD4FA591B4919E
:103520008C91982309F03CC0EBE2F2E08491F90120
:103530002491FA019491992309F432C0882311F15E
:1035400081508231F8F4E82FF0E08827E555F54EF8
:103550008F4F0C94C02B861B8A1BBD1A7E1B821BAF
:10356000C21A8D1B931B971B9D1BA11BA51BAB1B7D
:10357000AF1BC21AB31BB91BBD1B809180008F7794
:1035800080938000E92FF0E0EE0FFF1FE45CFD4F19
:10359000A591B4918FB7F8949C91292B2C938FBF50
:1035A00085E30E948D028CB580618CBD8CB58064F2
:1035B0008CBD84E30E948D0283E30E948D02809182
:1035C0000D188F5F80930D181FBFEAE7F2E0E491BA
:1035D000F0E0EE0FFF1FE45CFD4F85919491909316
:1035E0000C1880930B18E0ECF2E0E491E0930A18D9
:1035F0008AE00E948D020E94990580E591E00E9478
:103600002F0284E380930E1880E80E9463060E94D4
:10361000EF19882309F4B5C088E00E9463060E9470
:10362000DC19883009F0ADC080E10E9463060E9479
:10363000DC19803109F0A5C080E00E9463060E9479
:10364000DC19182F81119DC041E050E0BE016D5B77
:103650007F4F8FE190E00E94DA1824968FAD249777
:10366000833009F08EC080E480930F1842E06EE151
:1036700070E0812F0E94AB0642E06FE170E0812F85
:103680000E94AB061F5F183089F781E08093101805
:1036900080E591E00E942F0246E050E068E072E091
:1036A00089E090E00E94B50544E050E0BE016D5F06
:1036B0007F4F8FE090E00E94B50544E050E0BE01EE
:1036C000615F7F4F81E090E00E94B50544E050E0EB
:1036D000BE016B5E7F4F85E090E00E94B50581E002
:1036E0008C8789859A85AB85BC858093DA18909301
:1036F000DB18A093DC18B093DD18B2C08091800075
:103700008F7D3ECF80918000877F3ACF84B58F77C1
:1037100084BD38CF84B58F7DFBCF8091B0008F778B
:103720008093B0002FCF8091B0008F7DF9CF809132
:1037300090008F778093900025CF809190008F7DAF
:10374000F9CF80919000877FF5CF8091A0008F778F
:103750008093A00017CF8091A0008F7DF9CF80913A
:10376000A000877FF5CF809120018F778093200183
:1037700009CF809120018F7DF9CF80912001877F33
:10378000F5CF87E380930E1880E80E9463060E94BD
:10379000EF19882339F188E00E9463060E94DC1942
:1037A000883001F580E10E9463060E94DC19182F21
:1037B0008031C1F480E00E9463060E94DC1981110F
:1037C00011C041E050E0BE016D5B7F4F89E390E0A6
:1037D0000E94DA1824968FAD2497843019F4109340
:1037E0000F1853CF83E380930E1880E80E9463067E
:1037F0000E94EF19882391F180E10E9463060E94E4
:10380000DC19803159F582E10E9463060E94DC19BF
:10381000823121F580E00E9463060E94DC1981114B
:103820001DC084E080930F1815E525961FAF2597DE
:1038300041E050E0BE016C5B7F4F8BE190E00E9465
:10384000B50524961FAF249741E050E0BE016D5BA3
:103850007F4F8AE190E00E94B50517CF10920E18B5
:10386000CC5BDF4F0FB6F894DEBF0FBECDBFDF914C
:10387000CF911F910F91FF90EF90DF90CF9008951F
:103880001F93CF93DF931F92CDB7DEB7FC01108D4E
:10389000183020F5818D928D892B01F180E591E022
:1038A0000E942F02812F0E94760627E0129FF001CE
:1038B0001124EE52F84E22813381377041E050E0FE
:1038C000BE016F5F7F4F820F931F0E94DA188981BC
:1038D00090E00F90DF91CF911F9108958FEF9FEFB0
:1038E000F8CFDA01E0910F18F0E0FE2FEE27E60F97
:1038F000F71F90E0982F8827A901BD018E0F9F1F09
:103900000C94DA188F929F92AF92BF92CF92DF926F
:10391000EF92FF920F931F93CF93DF93CDB7DEB754
:1039200060970FB6F894DEBF0FBECDBF7C019091BB
:103930000E18911115C018E0812F60960FB6F894FB
:10394000DEBF0FBECDBFDF91CF911F910F91FF90D2
:10395000EF90DF90CF90BF90AF909F908F900895A1
:1039600008E0933309F404E06B0180E591E00E94E4
:103970002F029E012F5F3F4F5901490110E063E084
:1039800070E0812F0E946519F40181934F01882313
:10399000C1F01F5F0113F3CF00E0F50181915F01DA
:1039A0008D3149F0883139F08A51823020F00F5F33
:1039B0001013F3CFC0CF60E170E0802F0E94821916
:1039C000102FA12EB12C83EE93E00197F1F742E87E
:1039D00070E060E0812F0E94AB064FEF62E070E084
:1039E000812F0E94AB06B601C114D10491F48091DD
:1039F00006029091070201968115F0EC9F0708F4EA
:103A000064C0909307028093060260910602709151
:103A10000702812F0E94950686E0E4E1F2E0DE01D4
:103A2000199601900D928A95E1F7F70183818F77BE
:103A30008C8784818D8785818E87A7014E5F5F4F3C
:103A400024E030E06CE070E0812F0E948406DF8685
:103A5000C88A22E030E0AE01415F5F4F60E170E074
:103A6000812F0E94840626E030E0AE01475F5F4F61
:103A700066E070E0812F0E94840661E070E0812F93
:103A80000E94821927E02A9DC0012B9D900D1124D0
:103A90009C012E52384E7901F9011182108222E0E8
:103AA00030E0AE01415F5F4F68E270E0812F0E941D
:103AB000711C8F859889982789279827F701938308
:103AC000828316821582148237CF80E090EC99CFE2
:103AD000CF92DF92EF92FF920F931F93CF93DF93DA
:103AE00000D000D0CDB7DEB78C016B017A01FC01AC
:103AF000808D883010F40E94921982EB92E09A83B4
:103B00008983F60182819381A481B5818B839C8313
:103B1000AD83BE83B701CE0101960E94821CF801DD
:103B2000808F8830A0F4F586E486128E118E81E0B5
:103B300026960FB6F894DEBF0FBECDBFDF91CF91B2
:103B40001F910F91FF90EF90DF90CF90089580E04C
:103B5000EFCFFF920F931F93CF93DF931F921F928C
:103B6000CDB7DEB7F82E22E030E0AE014F5F5F4FF9
:103B700066E270E00E94711C09811A8110270127FA
:103B8000102722E030E0AE014F5F5F4F66E270E049
:103B90008F2D0E94711C89819A81982789279827E7
:103BA0000817190749F4C8010F900F90DF91CF91C2
:103BB0001F910F91FF9008958C01E3CF4F925F9278
:103BC0007F928F929F92AF92BF92CF92DF92EF92AD
:103BD000FF920F931F93CF93DF931F921F92CDB746
:103BE000DEB7782E6B014A01A82EB12C27E0829F08
:103BF000C0011124FC01EE52F84E7F0100811181B9
:103C000080E591E00E942F020815190554F4872DD4
:103C10000E94A91DF70126818C01021B1109118345
:103C200000830115110529F563E070E0872D0E94DE
:103C30006519843159F0882349F001E010E08C3196
:103C400011F410E000E0119501951109C8010F90E1
:103C50000F90DF91CF911F910F91FF90EF90DF9028
:103C6000CF90BF90AF909F908F907F905F904F903C
:103C70000895801691060CF4840187E08A9DF00176
:103C80008B9DF00D1124EE52F84EE280F380C114AA
:103C9000D10451F12701F7E05F22872D0E947606BB
:103CA000840D951D20910E18273309F453C09801F7
:103CB000240D351D2130384008F44CC020E038E098
:103CC000490184189508A401B6010E94DA1826015A
:103CD000480C591C6801C818D908872D0E9476061F
:103CE000A601B2010E94DA18E00EF11E87E08A9D5B
:103CF000F0018B9DF00D1124EE52F84EF382E2821A
:103D000020813181201B310B318320838681800FFC
:103D1000912F911D8A3F910510F4232BF1F487E038
:103D20008A9DF0018B9DF00D1124EE52F84E168203
:103D3000F982EA8222E030E0AE014F5F5F4F68E235
:103D400070E0872D0E94840660E470E0872D0E9459
:103D500082197CCFA801B601C5CF868377CFCF93D8
:103D6000DF93FC01218D328D2115310529F48FEF70
:103D70009FEFDF91CF910895EC01808D421753079B
:103D800008F0A9010E94DE1D1816190684F7298D76
:103D90003A8D281B390B3A8F298FEBCF0F931F9346
:103DA000CF93DF931F92CDB7DEB7FC01218D328D0B
:103DB000232B41F48FEF9FEF0F90DF91CF911F9155
:103DC0000F9108958C0141E050E0BE016F5F7F4F7D
:103DD000FC01808D0E94DE1D181619065CF7F801A3
:103DE000818D928D0197928F818F898190E0E4CFB0
:103DF0003F924F925F926F927F928F929F92AF927B
:103E0000BF92CF92DF92EF92FF920F931F93CF93C7
:103E1000DF931F921F92CDB7DEB75C014B01342EAA
:103E2000452EFC0166887788508C80E591E00E94E1
:103E30002F0222E030E0AE014F5F5F4F60E270E0A2
:103E4000852D0E94711CC980DA80DC24CD24DC24FD
:103E500022E030E0AE014F5F5F4F60E270E0852D01
:103E60000E94711C89819A81982789279827C816F2
:103E7000D90609F079C0E52CF12C67E0569EF001D7
:103E80001124EE52F84ED582C482032D142DC01693
:103E9000D10608F4860122E030E0AE014F5F5F4FAB
:103EA00064E270E0852D0E94711C89819A819827B7
:103EB00089279827680E791E9301377040910E1854
:103EC000433309F053C088E0E80EF11CFE2CEE24C9
:103ED000FF0CFF0CFF0CC9018E0D9F1D473309F429
:103EE00049C0A901400F511F4130584008F442C059
:103EF00060E078E06B01C21AD30AA601B4010E9407
:103F0000B505A8014C195D09B4016C0D7D1DC701F3
:103F10000E94B505600E711E79826A8222E030E04F
:103F2000AE014F5F5F4F64E270E0852D0E94840612
:103F3000F50186899789800F911F978B868BC80121
:103F40000F900F90DF91CF911F910F91FF90EF9005
:103F5000DF90CF90BF90AF909F908F907F906F90A9
:103F60005F904F903F9008956C0172CFE0E1EE0EAC
:103F7000F11CACCFA801B401CBCF8F929F92AF922E
:103F8000BF92CF92DF92EF92FF920F931F93CF9346
:103F9000DF9300D000D000D01F92CDB7DEB76C0108
:103FA0005B01FC01808D883010F40E949219809191
:103FB0000E18811117C088E0F601808F80E02A96E4
:103FC0000FB6F894DEBF0FBECDBFDF91CF911F912A
:103FD0000F91FF90EF90DF90CF90BF90AF909F90A8
:103FE0008F90089508E0833309F404E080E591E0C0
:103FF0000E942F029E012F5F3F4F4901790110E07F
:1040000063E070E0812F0E946519F70181937F01C1
:104010008823C1F01F5F0113F3CFF12CF4018191CC
:104020004F018D3149F0883139F08A51823020F0CA
:10403000F3941F11F3CFBFCF60E170E08F2D0E948A
:1040400082191F2DE12EF12C83EE93E00197F1F7F9
:1040500042E070E060E0812F0E94AB064FEF62E02B
:1040600070E0812F0E94AB06B501A114B10489F460
:10407000809106029091070201968115F0EC9F074E
:10408000D0F190930702809306026091060270912E
:104090000702812F0E94950661E070E0812F0E9447
:1040A000821927E02E9DC0012F9D900D11249C01A7
:1040B0002E52384E7901F9011182108222E030E04F
:1040C000AE01475F5F4F68E270E0812F0E94711C74
:1040D00089859A85982789279827F7019383828372
:1040E000168215821482F601108FB586A486128E70
:1040F000118E81E064CF80E090ECC3CFDF92EF922D
:10410000FF920F931F93CF93DF9300D000D01F92A5
:104110001F92CDB7DEB78C01D80159964D915C91B5
:104120005A974115510551F0ED91FC91048CF58D94
:10413000E02D70E060E0C8011995EECFF801D08C59
:10414000F7E0DF9EC00111249C012E52384E790108
:10415000D9018D919C91892B59F148E050E0BE0125
:104160006F5F7F4FF801808D0E94DE1D18161906C3
:1041700094F5D801509684E0FE01319601900D929D
:104180008A95E1F78D8190E0982F88272E81820F04
:10419000911DF801958B848B8F81282F30E0322F71
:1041A00022278885820F932F911D928F818F13C0B4
:1041B00080E591E00E942F028D2D0E94A91DD7015C
:1041C00016962C911697821B91098D939C93892B9F
:1041D00021F690E080E028960FB6F894DEBF0FBE7F
:1041E000CDBFDF91CF911F910F91FF90EF90DF90A6
:1041F00008956F927F928F929F92AF92BF92CF92CB
:10420000DF92EF92FF920F931F93CF93DF93CDB77F
:10421000DEB7EC970FB6F894DEBF0FBECDBF4C01F2
:104220008B013A0182EB92E09A8389831C861B867C
:1042300048EE53E060E070E04D875E876F87788BD3
:1042400028E832E03A872987988F8F8B198E1A8E4B
:104250001B8E1C8E28E029A399AB88AB1AAA1BAA37
:104260001CAA1DAA8091DA189091DB18A091DC1885
:10427000B091DD188EA39FA3A8A7B9A78B839C83B9
:10428000AD83BE8318861F82F80120E090E080E0B5
:104290006AE03191332309F47AC040ED430F4A308C
:1042A00008F064C0689FA001699F500D1124CA01E5
:1042B000C097830F911D37FD9A958F3F910549F364
:1042C00040F34B815C816D817E818091E6189091F5
:1042D000E718A091E818B091E918481759076A073C
:1042E0007B0709F428C20E9462046F7077277C5F05
:1042F000CE0109960E94BD1F813009F01FC282EBDA
:1043000092E09DA38CA38B819C81AD81BE818EA305
:104310009FA3A8A7B9A745E350E0BE016C5D7F4FFE
:10432000CE0109960E94E406892B09F04EC010E0E8
:1043300000E0CE0109960E949E190130110559F145
:10434000C801EC960FB6F894DEBF0FBECDBFDF916B
:10435000CF911F910F91FF90EF90DF90CF90BF9082
:10436000AF909F908F907F906F9008953E3209F0AC
:10437000A8CF233009F4A5CFA2E3B0E0AC0FBD1F56
:10438000A20FB11D8C932F5F90E080E082CF23308D
:1043900009F097CF8DABD401ED91FC910488F5899C
:1043A000E02D82EB92E09DA38CA38AA99BA9ACA9E6
:1043B000BDA98EA39FA3A8A7B9A7A301BE016C5D49
:1043C0007F4FC40119958C01BBCF0E94620478878E
:1043D0006F8342E050E0BE01695F7F4FCE010996D6
:1043E0000E94F81E81E090E09DA38CA342E050E083
:1043F000BE016C5D7F4FCE0109960E94F81E80E0E1
:1044000091E09DA38CA342E050E0BE016C5D7F4F24
:10441000CE0109960E94F81E1DA21CA242E050E0A7
:10442000BE016C5D7F4FCE0109960E94F81E42E0EE
:1044300050E0BE016C5D7F4FCE0109960E94F81ED0
:1044400042E050E0BE016C5D7F4FCE0109960E94B4
:10445000F81E7801D8018C91882311F18701F801A9
:1044600081916F01882311F08E32C1F45801AE188A
:10447000BF081A141B0484F4AEAA41E050E0BE0148
:104480006A5C7F4FCE0109960E94F81EA501B70114
:10449000CE0109960E94F81E7601DCCF8601DFCF9F
:1044A0001EAA41E050E0BE016A5C7F4FCE01099632
:1044B0000E94F81E00E011E01DA30CA342E050E0B2
:1044C000BE016C5D7F4FCE0109960E94F81E1DA3B0
:1044D0000CA342E050E0BE016C5D7F4FCE01099617
:1044E0000E94F81ECE0109960E94AB19892B09F48F
:1044F0001ECF83E0E82EF12CD7C04B815C816D810B
:104500007E81898D9A8DAB8DBC8D481759076A07BE
:104510007B0709F00AC18D8D9E8DC59709F005C1F5
:104520008AA19BA10DEF1FEF0C970CF4B4C04CE0D7
:1045300050E0BE016C5D7F4FCE0109960E94AF1E18
:104540008EA19FA19827892798279BAF8AAF4F817B
:1045500058852CA13DA14217530709F0E9C097FFE8
:10456000E7C08F7092700BEF1FEF892B09F093C09B
:10457000AAA4BBA4BA24AB24BA240AEF1FEFA11447
:10458000B10409F488C010E000E088A599A5982737
:10459000892798270817190708F541E050E0BE0160
:1045A0006A5C7F4FCE0109960E94AF1E4EA944233C
:1045B00039F050E070E060E0CE0109960E94AF1E35
:1045C0008EA98111EACF44E050E070E060E0CE01B6
:1045D00009960E94AF1E0F5F1F4FD7CFD12CC12C61
:1045E00041E050E0BE01645C7F4FCE0109960E941D
:1045F000AF1E4CAD842F807C09F074C0442339F089
:1046000050E070E060E0CE0109960E94AF1E8CADD4
:104610008111E6CF42E050E0BE01685C7F4FCE01E1
:1046200009960E94AF1E42E050E0BE016A5C7F4FD7
:10463000CE0109960E94AF1E44E050E070E060E0B9
:10464000CE0109960E94AF1E42E050E0BE01665CBA
:104650007F4FCE0109960E94AF1E88AD99AD4AAD3D
:104660005BAD8115914009F047C00EA91FA9102725
:10467000012710270130110509F03EC041155440B3
:1046800009F04DC044E050E0BE016E5C7F4FCE01AA
:1046900009960E94AF1EF1E0EF1AF10809F449CE25
:1046A0000F3F100709F045CE0E9462045B016C01C8
:1046B000CE0109960E947E20181619060CF41DCF13
:1046C0000E9462046A197B098C099D09693873414B
:1046D0008105910538F562E370E080E090E00E948A
:1046E0003004E6CF41E050E070E060E0CE01099692
:1046F0000E94AF1E1CAE8BCF54274527542770E075
:1047000060E0CE0109960E94AF1EEFEFCE1ADE0ADE
:10471000AC14BD0409F064CF06EF1FEFBCCF07EF68
:104720001FEFB9CF0FEF1FEFB6CF0EEF1FEFB3CFD5
:104730000CEF1FEFB0CF0EEF1FEF02CE10E000E046
:10474000FFCD1F920F920FB60F9211240BB60F924E
:104750002F933F934F935F936F937F938F939F9389
:10476000AF93BF93EF93FF938DE198E10E944B03CA
:10477000FF91EF91BF91AF919F918F917F916F9139
:104780005F914F913F912F910F900BBE0F900FBEF5
:104790000F901F9018951F920F920FB60F92112431
:1047A0000BB60F922F938F939F93EF93FF93E0910C
:1047B0002D18F0912E188081E0913318F091341863
:1047C00082FD1DC09081809136188F5F8F7320917C
:1047D0003718821741F0E0913618F0E0E35EF74EAB
:1047E000958F80933618FF91EF919F918F912F9124
:1047F0000F900BBE0F900FBE0F901F9018958081E9
:10480000F2CF1F920F920FB60F9211242F933F9366
:104810008F939F93AF93BF938091E5049091E604AB
:10482000A091E704B091E8043091E40423E0230F61
:104830002D3758F50196A11DB11D2093E4048093F6
:10484000E5049093E604A093E704B093E804809114
:10485000E9049091EA04A091EB04B091EC04019674
:10486000A11DB11D8093E9049093EA04A093EB0489
:10487000B093EC04BF91AF919F918F913F912F9195
:104880000F900FBE0F901F90189526E8230F0296E9
:10489000A11DB11DD2CFBF92CF92DF92EF92FF92B6
:1048A0000F931F93CF93DF93EDE1F8E11382128210
:1048B00088EEC82E83E0D82EE12CF12CC482D5825C
:1048C000E682F78286E792E09183808385EC90E030
:1048D0009587848784EC90E09787868780EC90E0CA
:1048E000918B808B81EC90E0938B828B82EC90E0BB
:1048F000958B848B86EC90E0978B868B118E128E35
:10490000138E148EEAEBF8E1C2EBD2E0D183C083C0
:104910001282138214821582E0ECF8E1D183C08305
:104920001282138214821582E6ECF8E1D183C083EF
:104930001282138214821582ECECF8E1D183C083D9
:104940001282138214821582E2EDF8E1D183C083D2
:104950001282138214821582EEEDF8E1D183C083B6
:104960001282138214821582E8EDF8E1D183C083AC
:104970001282138214821582E4EEF8E1D183C0839F
:104980001282138214821582EAEEF8E1D183C08389
:104990001282138214821582E0EFF8E18FEF808398
:1049A00012821182148613868FEF9FEFDC018783BA
:1049B0009087A187B28769E473E086E399E10E945A
:1049C000DB16E0E3F9E1D183C08312821382148203
:1049D0001582EAE2F9E1D183C0839CEAB92EB28262
:1049E00000E1038311E0148389E685836FE473E0BB
:1049F00084E299E10E94DB16EEE1F9E1D183C08304
:104A0000B282038314838AE085836CE573E088E1D6
:104A100099E10E94DB16EDEFF8E113821282C48265
:104A2000D582E682F78288E892E091838083D787F7
:104A3000C687108A118A128A138A88E0808FDF91D4
:104A4000CF911F910F91FF90EF90DF90CF90BF908B
:104A50000895CF93DF93CDB7DEB7E9970FB6F894FB
:104A6000DEBF0FBECDBF789484B5826084BD84B5AF
:104A7000816084BD85B5826085BD85B5816085BD59
:104A800080916E00816080936E0010928100809111
:104A90008100826080938100809181008160809399
:104AA0008100809180008160809380008091B100BE
:104AB00084608093B1008091B00081608093B000E9
:104AC000809191008260809391008091910081603B
:104AD00080939100809190008160809390008091FC
:104AE000A10082608093A1008091A10081608093E9
:104AF000A1008091A00081608093A000809121019D
:104B00008260809321018091210181608093210145
:104B10008091200181608093200180917A008460DF
:104B200080937A0080917A00826080937A008091ED
:104B30007A00816080937A0080917A008068809307
:104B40007A001092C100E0912D18F0912E1882E0A9
:104B50008083E0912918F0912A181082E0912B1897
:104B6000F0912C1887E0808310923518E09131186D
:104B7000F091321886E08083E0912F18F091301880
:104B8000808180618083E0912F18F09130188081BE
:104B900088608083E0912F18F091301880818068C0
:104BA0008083E0912F18F091301880818F7D808371
:104BB00068E673E08DE198E10E94B01564EF71E062
:104BC00080E090E00E94300452EBE52E52E0F52E9A
:104BD000FA82E98280912C1990912D19A0912E19B9
:104BE000B0912F198B839C83AD83BE838E010F5FA1
:104BF0001F4FC8010E94051A6DE67EE18DEF98E116
:104C00000E94BD1FFA82E98280912019909121199A
:104C1000A0912219B09123198B839C83AD83BE830D
:104C200048E759E6B8018DEF98E10E94E4060E943A
:104C300062041BA21AA21DA21CA21FA21EA22AE08D
:104C4000A8010E94F52AF80101900020E9F73197A8
:104C5000AF01401B510BB801CE0182960E94821613
:104C60006DE773E0C8010E94DB1664E279E1C801D8
:104C70000E946F167C0141E050E061E973E00E9400
:104C80003116811103C0C7010E945D16BE016E5D21
:104C90007F4FC7010E946F167C014FE050E063E92F
:104CA00073E00E943116811103C0C7010E945D1696
:104CB000B7018DEF98E10E949315C8010E94F0168C
:104CC000CE0182960E94F0168DEF98E10E94AB19FA
:104CD0008091FE04811111C08DEE94E00E94BE14FB
:104CE0001092FD041092FC048EE292E09093EE0488
:104CF0008093ED0481E08093FE0444EF51E06DEF7A
:104D00007DE08DEE94E00E943202809117058111C2
:104D100011C086E095E00E94BE1410921605109214
:104D2000150580E492E0909307058093060581E0E5
:104D30008093170544EF51E061E278E086E095E06A
:104D40000E94320280913005811111C08FE195E0FF
:104D50000E94BE1410922F0510922E0582E592E05B
:104D60009093200580931F0581E08093300546E6EF
:104D700050E06FEE76E08FE195E00E943202809184
:104D80004905811111C088E395E00E94BE1410927C
:104D900048051092470584E692E090933905809388
:104DA000380581E0809349054AE850E061E575E007
:104DB00088E395E00E943202E0911718F0911818EC
:104DC000309729F014860480F581E02DF9CF809189
:104DD00004028093F01880E397E09093FC1880938E
:104DE000FB1880EA96E8A1E0B0E08093F718909372
:104DF000F818A093F918B093FA18198280E8E82EF1
:104E0000EA821B82A80164EF71E08DEF9DE00E94B1
:104E100076021982EA821B82A80164EF71E081E2C6
:104E200098E00E9476021982EA821B82A80166E657
:104E300070E08FEE96E00E9476021982EA821B8271
:104E4000A8016AE870E081E595E00E9476020E9480
:104E50006E0460ED77E080E090E00E943004FF2473
:104E6000FA94F9821A821B82A80164EF71E08DEF37
:104E70009DE00E947602F9821A821B82A80164EFEB
:104E800071E081E298E00E947602F9821A821B8228
:104E9000A80166E670E08FEE96E00E947602F98245
:104EA0001A821B82A8016AE870E081E595E00E9401
:104EB00076020E946E0460ED77E080E090E00E9450
:104EC0003004F982FA821B82A80164EF71E08DEF51
:104ED0009DE00E947602F982FA821B82A80164EFAB
:104EE00071E081E298E00E947602F982FA821B82E8
:104EF000A80166E670E08FEE96E00E947602F982E5
:104F0000FA821B82A8016AE870E081E595E00E94C0
:104F100076020E946E0460ED77E080E090E00E94EF
:104F2000300419821A821B82A80164EF71E08DEFB0
:104F30009DE00E94760219821A821B82A80164EF0A
:104F400071E081E298E00E94760219821A821B8247
:104F5000A80166E670E08FEE96E00E947602198264
:104F60001A821B82A8016AE870E081E595E00E9440
:104F700076020E946E0468EE73E080E090E00E948A
:104F800030041982EA821B82A80164EF71E08DEF80
:104F90009DE00E9476021982EA821B82A80164EFDA
:104FA00071E081E298E00E9476021982EA821B8217
:104FB000A80166E670E08FEE96E00E947602198204
:104FC000EA821B82A8016AE870E081E595E00E9410
:104FD00076020E946E0468EE73E080E090E00E942A
:104FE00030040E94620468517C4F8F4F9F4F609342
:104FF000CE177093CF178093D0179093D11794E664
:10500000E92E24E6A22EB12C32EB832E32E0932E31
:10501000FF24F394CC24CA94D12C0E9462044090C3
:10502000CE175090CF176090D0177090D11764159D
:10503000750586059705B0F1609004027090050231
:105040006114710479F10E946204665F7F4F8F4F93
:105050009F4F6093CE177093CF178093D017909384
:10506000D11781E0681A71087092050260920402FB
:105070006092F0180E946E048091040290910502E3
:10508000892B81F4E092F018109203021092020230
:10509000B0920102A09200020E9445170E94F816E9
:1050A0000E946E048DEF98E10E947E209093CD17B0
:1050B0008093CC1747EE53E064EE73E18DEF98E1F7
:1050C0000E9490141816190624F48C519C4EFC0171
:1050D00010828091CC179091CD17892B09F4CDC106
:1050E00063EA73E08DE198E10E94B0159A828982AB
:1050F0008091201990912119A0912219B091231922
:105100008B839C83AD83BE8348E759E6B8018DEF5E
:1051100098E10E94E40669EB73E08DEF98E10E944C
:10512000B0158DEF98E10E94AB1966EB72E0CE01ED
:10513000C4960E94DB1663ED73E084EE93E10E9457
:10514000AA2ABC01CE018E960E94DB1665ED73E0A3
:10515000C8010E94DB16BE01625D7F4FC8010E943C
:105160006F16BC018DE198E10E949315C8010E9461
:10517000F01663ED73E090E080E00E94AA2ABC0183
:10518000CE0188960E94DB1665EE73E0C8010E948E
:10519000DB16BE01685D7F4FC8010E946F16BC011F
:1051A0008DE198E10E949315C8010E94F01666EF08
:1051B00073E0C8010E94DB16B801CE018E960E94F2
:1051C000D115782EC8010E94F0167720B9F168E059
:1051D00074E08DE198E10E94B015CE0188960E949E
:1051E000C6157093030260930202C8010E94A316C1
:1051F0006CE173E0CE0182960E94DB16B801CE010D
:1052000082960E946F16BC018DE198E10E94931571
:10521000CE0182960E94F016C8010E94F01680917D
:105220000202909103028F3F910524F0D092030275
:10523000C09202020E944517F092E31361E274E00B
:10524000C8010E94DB16B801CE018E960E94D115CE
:10525000782EC8010E94F0167720B9F163E374E05C
:105260008DE198E10E94B015CE0188960E94C61586
:105270007093010260930002C8010E94A3166CE4BF
:1052800074E0CE0182960E94DB16B801CE018296B0
:105290000E946F16BC018DE198E10E949315CE012A
:1052A00082960E94F016C8010E94F01680910002BA
:1052B000909101028F3F910524F0D0920102C0929B
:1052C00000020E94F816F092E31361E674E0C80150
:1052D0000E94DB16B801CE018E960E94D115782E61
:1052E000C8010E94F016772091F069E674E08DE124
:1052F00098E10E94B015CE0188960E94C6156130D3
:10530000710509F0E2C0F092DE130E9416146DE7F9
:1053100074E0C8010E94DB16B801CE018E960E948F
:10532000D115782EC8010E94F016772091F067E71A
:1053300074E08DE198E10E94B015CE0188960E943C
:10534000C6156130710509F0C3C0F092DD130E94EB
:10535000D8136AE974E0C8010E94DB16B801CE01D7
:105360008E960E94D115782EC8010E94F0167720E3
:1053700091F064E974E08DE198E10E94B015CE01EE
:1053800088960E94C6156130710509F0A4C0F0929C
:10539000DC130E949A1361EB74E0C8010E94DB16D3
:1053A000B801CE018E960E94D115782EC8010E94B8
:1053B000F016772091F06BEA74E08DE198E10E949D
:1053C000B015CE0188960E94C6156130710509F0AE
:1053D00085C0F092DB130E945C1365EC74E0C80199
:1053E0000E94DB16B801CE018E960E94D115782E50
:1053F000C8010E94F016772091F06FEB74E08DE108
:1054000098E10E94B015CE0188960E94C6156130C1
:10541000710509F066C0F092DA130E941E1369ED5F
:1054200074E0C8010E94DB16B801CE018E960E947E
:10543000D115782EC8010E94F016772091F063ED07
:1054400074E08DE198E10E94B015CE0188960E942B
:10545000C6156130710509F047C0F092D9130E945A
:10546000E012CE0188960E94F016CE018E960E9420
:10547000F016CE01C4960E94F0168091E3138823A3
:1054800009F10E9462044090DF135090E013609095
:10549000E1137090E213641575058605970590F089
:1054A0000E946E041092E3130E946204685D7F4FB5
:1054B0008F4F9F4F6093DF137093E0138093E1133E
:1054C0009093E2130E94DA03A8CD1092DE131DCF51
:1054D0001092DD133CCF1092DC135BCF1092DB13E4
:1054E0007ACF1092DA1399CF1092D913B8CF88E1FE
:1054F00099E10E94F01684E299E10E94F01686E399
:1055000099E10C94F0161F93FC0199278827BC01A0
:10551000E89411911032E9F3193010F01E30C8F3FD
:105520001B3251F01D3249F4689406C00E94E02AF3
:10553000610F711D811D911D119110531A30B0F32F
:105540003EF490958095709561957F4F8F4F9F4F5A
:105550001F9108954CE359E10C94AE2AFA01A191F0
:10556000B081009719F41097E1F0CD01DC01CD0175
:105570000D90002011F4C00113C0FB0121912223E2
:1055800019F02015D9F7F3CFFB012191201519F45B
:105590001E92119606C02223C1F70D900020A1F79C
:1055A000D001FA01A193B0830895BB274A3031F4AA
:1055B000992322F4BDE2909581959F4F0C94182B6E
:1055C000592F482F372F262F660F771F881F991FB7
:1055D000660F771F881F991F620F731F841F951F07
:1055E000660F771F881F991F0895BB27FA01A62F02
:1055F0006217710581059105330B30FB66F0AA2710
:10560000660F771F881F991FAA1FA21710F0A21BF1
:1056100063953850A9F7A05DAA3308F0A95DA1935E
:1056200036F7B111B1931082CA010C94312BBB270C
:10563000FB015527AA27880F991FAA1FA41710F04E
:10564000A41B83955051B9F7A05DAA3308F0A95D5A
:10565000A193009779F7B111B1931192CB010C94FA
:10566000312BDC01FC01672F71917723E1F7329731
:1056700004C07C916D9370836291AE17BF07C8F32D
:105680000895052E97FB1EF400940E94582B57FD99
:1056900007D00E946B2B07FC03D04EF40C94582BC0
:1056A00050954095309521953F4F4F4F5F4F08954E
:1056B00090958095709561957F4F8F4F9F4F08957E
:1056C0000E948D2BA59F900DB49F900DA49F800DDF
:1056D000911D11240895A1E21A2EAA1BBB1BFD01E6
:1056E0000DC0AA1FBB1FEE1FFF1FA217B307E407C1
:1056F000F50720F0A21BB30BE40BF50B661F771F19
:10570000881F991F1A9469F76095709580959095F8
:105710009B01AC01BD01CF010895A29FB001B39FD1
:10572000C001A39F700D811D1124911DB29F700DAA
:10573000811D1124911D0895DB018F939F930E9479
:10574000602BBF91AF91A29F800D911DA39F900DE3
:10575000B29F900D1124089597FB072E16F4009424
:1057600007D077FD09D00E94CF2B07FC05D03EF46F
:10577000909581959F4F0895709561957F4F0895FD
:10578000EE0FFF1F881F8BBF0790F691E02D199435
:105790000E948D2BB7FF0895821B930B0895AA1BBF
:1057A000BB1B51E107C0AA1FBB1FA617B70710F00C
:1057B000A61BB70B881F991F5A95A9F7809590953E
:1057C000BC01CD0108950F931F93CF93DF938230D7
:1057D000910510F482E090E0E0914019F0914119B8
:1057E00030E020E0B0E0A0E0309799F421153105D9
:1057F00009F44AC0281B390B24303105D8F58A81B9
:105800009B816115710589F1FB0193838283FE0100
:1058100011C0408151810281138148175907E0F07E
:105820004817590799F4109761F012960C93129744
:1058300013961C933296CF01DF91CF911F910F9158
:1058400008950093401910934119F4CF21153105A3
:1058500051F04217530738F0A901DB019A01BD014D
:10586000DF01F801C1CFEF01F9CF90934119809387
:105870004019CDCFFE01E20FF31F81939193225087
:10588000310939832883D7CF20913E1930913F19B0
:10589000232B41F4209110023091110230933F19D3
:1058A00020933E1920910E0230910F0221153105EF
:1058B00041F42DB73EB74091120250911302241BC0
:1058C000350BE0913E19F0913F19E217F307A0F470
:1058D0002E1B3F0B2817390778F0AC014E5F5F4F46
:1058E0002417350748F04E0F5F1F50933F19409320
:1058F0003E19819391939FCFF0E0E0E09CCFCF934E
:10590000DF930097E9F0FC01329713821282A09195
:105910004019B0914119ED0130E020E01097A1F459
:1059200020813181820F931F20913E1930913F19C0
:105930002817390709F061C0F0933F19E0933E1929
:10594000DF91CF910895EA01CE17DF07E8F54A818C
:105950005B819E0141155105B1F7E901FB83EA83A3
:1059600049915991C40FD51FEC17FD0761F480814F
:1059700091810296840F951FE90199838883828122
:1059800093819B838A83F0E0E0E012968D919C9155
:1059900013970097B9F52D913C911197CD0102967F
:1059A000820F931F20913E1930913F192817390714
:1059B00039F6309751F51092411910924019B09371
:1059C0003F19A0933E19BCCFD383C283408151813C
:1059D000840F951FC817D90761F44E5F5F4F888108
:1059E0009981480F591F518340838A819B819383FA
:1059F00082832115310509F0B0CFF0934119E0936E
:105A000040199ECFFD01DC01C0CF13821282D7CF97
:105A10004F925F926F927F928F929F92AF92BF92BE
:105A2000CF92DF92EF92FF920F931F93CF93DF936A
:105A30008C01009799F4CB01DF91CF911F910F91C9
:105A4000FF90EF90DF90CF90BF90AF909F908F909E
:105A50007F906F905F904F900C94E32BFC01E60FCA
:105A6000F71F9C0122503109E217F30708F4AEC07A
:105A7000D901CD91DC911197C617D70720F1C53018
:105A8000D10578F0CE0104978617970750F0C61B12
:105A9000D70B2297C193D1936D937C93CF010E9432
:105AA0007F2CC801DF91CF911F910F91FF90EF9054
:105AB000DF90CF90BF90AF909F908F907F906F902E
:105AC0005F904F9008955B01AC1ABD0A4C018C0E9B
:105AD0009D1EA0914019B0914119512C412CF12CDF
