:100000000C947B010C94AC010C94AC010C94AC01ED
:100010000C94AC010C94AC010C94AC010C94AC01AC
:100020000C94AC010C94AC010C94AC010C94AC019C
:100030000C94AC010C94AC010C94AC010C94AC018C
:100040000C94AC010C9448150C94AC010C94AC01CC
:100050000C94AC010C94AC010C94AC010C94741491
:100060000C94AC010C9476150C94AC010C94AC017E
:100070000C94AC010C94AC010C94AC010C94AC014C
:100080000C941A150C94AC010C94AC010C94AC01BA
:100090000C94AC010C94AC010C94AC010C94AC012C
:1000A0000C94AC010C94AC010C94EC140C94AC01C9
:1000B0000C94AC010C94AC010C94AC010C94BE14E7
:1000C0000C94AC010C94AC010C94AC010C94AC01FC
:1000D0000C94AC010C94AC010C94AC010C94AC01EC
:1000E0000C94AC010C9426080C94A10F0C940B1EDC
:1000F0000C9423020C943E020C94CC110C94EF0A45
:100100000C94E5080C9410080C9456020C94000210
:100110000C9451110C94CB050C94B4050C948B03E6
:100120000C9452020C9436020C943E080C943A0241
:100130000C94D0050C941F020C94D5030C947702F8
:100140000C944C020C94DB030C9430020C94B50517
:100150000C94AD080C94BD030C9417020C9444024B
:100160000C946F170C9468020C941B020C947D0382
:100170000C947B020C94E6080C94820F0C94B70349
:100180000C9445080C9473030C9448020C94D50805
:100190000C942A080C94EC070C94CB0F0C94C70316
:1001A0000C949D030C9405020C942E080C942602CA
:1001B0000C94FC070C94FC0A0C9442090C94E4087F
:1001C0000C94130D0C94B5030C945C020C94600217
:1001D0000C943B0E0C94BD070C9490100C946F0281
:1001E0000C9473020C9464020C942C0200000A0B11
:1001F00002090C0D0E0807030401000000000000B6
:1002000000000000000000000000000000000000EE
:1002100000000000000000001211100000000000AB
:1002200000000000000000000000000000000000CE
:10023000000000002200250028002B002E003100C5
:10024000340002010000050108010B01000021003B
:10025000240027002A002D00300033000101000097
:10026000040107010A010505050507050808080836
:10027000020202020A0A080804040404010101013E
:100280000101010103030303030303030407070739
:100290000C0C0C0C0C0C0C0C0202020206060606DE
:1002A000060606060B0B0B0B0B0B0B0B01021020AB
:1002B000200808102040102040800201020108049C
:1002C0000201010204081020408080402010080430
:1002D0000201800402018040201008040201080489
:1002E00002010102040810204080010204081020CD
:1002F00040806F170B1E11241FBECFEFD1E2DEBF6F
:10030000CDBF00E00CBF12E0A0E0B2E0EEE1F2E40D
:1003100000E00BBF02C007900D92A439B107D9F7D6
:1003200025E0A4E9B2E001C01D92AA3DB207E1F7C1
:1003300011E0CAE7D1E000E006C021970109802F53
:10034000FE010E94C41EC937D10780E00807A9F743
:100350000E94D3190C94FD200C94000090E0FC0145
:10036000E455FD4F24918A599D4FFC0184918823C7
:1003700099F090E0880F991FFC01E45BFD4FA59177
:10038000B491FC01EE5CFD4F859194918FB7F89488
:10039000EC91E22BEC938FBF08958CBD9DBD089529
:1003A000282F30E0F901E451FE4F9491F901E45512
:1003B000FD4F44912A593D4FF9012491222309F41C
:1003C00035C0992311F191509231F8F4E92FF0E002
:1003D0008827E251FE4F8F4F0C94C41E1F02230248
:1003E000000217021B02050226022C02300236020E
:1003F0003A023E024402480205024C0252025602F0
:10040000809180008F7780938000E22FF0E0EE0FE4
:10041000FF1FEE5CFD4FA591B4918FB7F894EC915E
:10042000611148C040954E234C938FBF0895809131
:1004300080008F7DE8CF80918000877FE4CF84B5F6
:100440008F7784BDE2CF84B58F7DFBCF8091B000E4
:100450008F778093B000D9CF8091B0008F7DF9CF96
:10046000809190008F7780939000CFCF8091900003
:100470008F7DF9CF80919000877FF5CF8091A0008C
:100480008F778093A000C1CF8091A0008F7DF9CF9E
:100490008091A000877FF5CF809120018F77809396
:1004A0002001B3CF809120018F7DF9CF8091200171
:1004B000877FF5CF4E2BB8CF682F8BE10C94D001FE
:1004C000682F8CE10C94D001682F8EE10C94D00140
:1004D00061E0019709F460E08FE10C94D001682F8E
:1004E0008DE10C94D001682F87E10C94D001682F26
:1004F00088E10C94D001CF93DF93EC0161E0029787
:1005000009F060E089E10E94D0016C2F85E0DF9165
:10051000CF910C94D0013FB7F89480919E029091B6
:100520009F02A091A002B091A10226B5A89B05C090
:100530002F3F19F00196A11DB11D3FBFBA2FA92F62
:10054000982F8827BC01CD01620F711D811D911D5F
:1005500042E0660F771F881F991F4A95D1F70895CB
:100560008F929F92AF92BF92CF92DF92EF92FF92C3
:100570004B015C010E948B026B017C010E948B028B
:100580006C197D098E099F09683E734081059105AC
:10059000A8F321E0821A9108A108B10888EEC80EDC
:1005A00083E0D81EE11CF11C81149104A104B10464
:1005B00029F7FF90EF90DF90CF90BF90AF909F9082
:1005C0008F9008952FB7F89460919A0270919B02D2
:1005D00080919C0290919D022FBF08950F931F93CD
:1005E000CF93DF93EC018B0188859985029751F4B5
:1005F0006130710509F43AC06CF560E00115110530
:1006000009F435C088859985049751F401301105A6
:1006100009F455C00CF035C00115110509F43EC0B0
:1006200088859985059709F0C8C00A30110508F03A
:10063000C4C0F8018827E05EFC4F8F4F0C94C41EA5
:1006400073037D038B039D03B503B703BD03C7038A
:10065000D503DB036230710591F060E003301105D2
:1006600089F68C850E94D00160E005C061E08C8530
:100670000E94D00161E08E850E94D001C3CF61E06D
:10068000F0CF0230110509F10330110509F0C8CF90
:1006900061E08C850E94D00160E01CC061E08C8527
:1006A0000E94D00160E08E850E94D00161E08889BF
:1006B0000E94D00160E08A890E94D001B1CF60E041
:1006C0008C850E94D00161E0EECF60E08C850E94B5
:1006D000D00161E08E850E94D00160E088890E948F
:1006E000D00161E0E8CF60E08C850E94D00161E03C
:1006F0008E850E94D00161E009C060E08C850E9477
:10070000D00161E08E850E94D00160E088890E945E
:10071000D00160E00DC060E08C850E94D00161E0F6
:100720008E850E94D00160E088890E94D00161E03E
:100730008A890E94D00161E011C060E08C850E942E
:10074000D00161E08E850E94D00160E088890E941E
:10075000D00161E08A890E94D00160E08C89DF913C
:10076000CF911F910F910C94D00161E0E7CF61E030
:100770008C850E94D00160E0E5CF61E08C850E940D
:10078000D00160E08E850E94D00161E0DFCF61E0A2
:100790008C850E94D00160E08E850E94D00161E0CE
:1007A00088890E94D00160E0D5CF61E08C850E94ED
:1007B000D00160E09DCF60E0F9CFDF91CF911F9134
:1007C0000F9108954F925F926F927F928F929F92B6
:1007D000AF92BF92CF92DF92EF92FF920F931F934F
:1007E000CF93DF93EC018B0177FF04C00027112723
:1007F000061B170B161617060CF04AC081E090E096
:100800009983888384E0E82EF12C9AE0C92ED12CBC
:100810000115110509F44EC00E948B028E889F8835
:10082000A88CB98C2B013C01481859086A087B0830
:100830008A809B80AC80BD80481459046A047B0484
:1008400038F36E8B7F8B888F998F8A859B85288163
:1008500039812130310511F501969B878A872E81D8
:100860003F818217930711F41B861A8601501109E4
:100870008A859B8528853985B6012530310509F0A3
:10088000B7010E94B01EBC01CE010E94EE02C0CF93
:10089000672B09F4B7CF19821882B4CF892B21F4C2
:1008A0008E819F819B878A878A859B8501979B87FD
:1008B0008A87DCCFDF91CF911F910F91FF90EF904E
:1008C000DF90CF90BF90AF909F908F907F906F9070
:1008D0005F904F900895FC0120812EBD9B01215017
:1008E000310941F051810DB407FEFDCF4EB55EBD1B
:1008F0004193F5CF61507109860F971F0DB407FE24
:10090000FDCF2EB5FC0120830895E0918403F09182
:100910008503808190918303892B80830895E091E2
:100920008403F091850390818091830380958923CE
:10093000808308958EBD00000DB407FEFDCF8EB5F7
:100940000895AF92BF92CF92DF92EF92FF920F93F2
:100950001F93CF93DF9300D000D01F921F92CDB78B
:10096000DEB78C017B016A01809187038333E1F458
:100970005801A40EB51EA016B10609F46FC00E945E
:100980008F0480EF0E949A04812F0E949A04802F86
:100990000E949A040F5F1F4FF70181917F010E940F
:1009A0009A040E948504E7CF5B01A40EB51E843330
:1009B000C1F40E948F0419830A838D2D80688B8374
:1009C000CC8264E070E0CE0101960E946B04AE140C
:1009D000BF0409F441C0F70181917F010E949A048C
:1009E000F6CF0E948F040F3F110509F028F41982F9
:1009F0000A8384E08B830CC017FD17C019820A8319
:100A000033E0169507953A95E1F7007E0C600B836D
:100A100086E0C816D104A0F5F701DE011496EA15A8
:100A2000FB0599F081918D93FACFC80126E0969548
:100A300087952A95E1F7807E19830A830115104C6A
:100A400010F48461D7CF8C61D5CFB6016D5F7F4F35
:100A5000CE0101960E946B040E948504C60128966F
:100A60000FB6F894DEBF0FBECDBFDF91CF911F91BF
:100A70000F91FF90EF90DF90CF90BF90AF900895CF
:100A800063E070E0CE0101960E946B04F701819152
:100A90007F010E949A04AE14BF04C1F7DDCFCF934B
:100AA000DF931F92CDB7DEB7898341E050E0BE01EE
:100AB0006F5F7F4F90E080E00E94A1040F90DF9174
:100AC000CF91089590E020918703233339F40C9659
:100AD000982F990F990F990F80E008954896F8CFB5
:100AE000DA01E0918803F0E0FE2FEE27E60FF71F12
:100AF00090E0982F8827A901BD018E0F9F1F0C94AD
:100B0000A104CF93DF931F921F92CDB7DEB77983F5
:100B10006A8322E030E0AE014F5F5F4F64E070E037
:100B20000E9470050F900F90DF91CF910895CF93A1
:100B3000DF931F92CDB7DEB72091880330E0322FCC
:100B40002227260F371F90E0982F8827498341E0FE
:100B500050E0BE016F5F7F4F820F931F0E94A10480
:100B60000F90DF91CF9108950895CF93DF931F9257
:100B7000CDB7DEB76983DC01ED91FC910280F38192
:100B8000E02D41E050E0BE016F5F7F4F19950F905F
:100B9000DF91CF910895FC01818D928D0895089584
:100BA000DF92EF92FF920F931F93CF93DF931F92E9
:100BB0001F92CDB7DEB7FB01DC0157961C921E9247
:100BC00056972281211109C02381211106C0248159
:100BD000211103C02581222369F14115510551F1ED
:100BE0007A018F01FC01D08C80E591E00E94CD015B
:100BF000A8014E5F5F4F24E030E06CE070E08D2D87
:100C00000E947005F982EA8222E030E0AE014F5F77
:100C10005F4F60E170E08D2D0E94700581E090E0F3
:100C20000F900F90DF91CF911F910F91FF90EF9058
:100C3000DF90089580E0F3CFDC01EC91E03390F594
:100C400011968C91119728E830E0281B310987FD17
:100C50003395220F331F220F331F6217730784F05F
:100C600012968C9128E532E0281B310987FD3395D7
:100C7000220F331F220F331F621773070CF49B01DF
:100C800022503109220F331F4FB7F8948E2F90E076
:100C9000FC01EE0FFF1FE80FF91FEE55FD4F3283E9
:100CA00021834FBF0895DF92EF92FF920F931F931E
:100CB000CF93DF93EC01D62E7A01890188818033AE
:100CC00008F066C0862F0E94AE018881282F30E090
:100CD000F901EE0FFF1FE20FF31FEE55FD4F9D2DA3
:100CE0009F736081607C692B608320E232E02E1963
:100CF0003F0937FF02C02D5F3F4F3595279535954A
:100D00002795298320E639E0201B310B37FF02C0ED
:100D10002D5F3F4F35952795359527952A832CE0F4
:100D2000622F0E94A41E829FB001112430E020E0B7
:100D3000AB01420F531FFA01EE0FFF1FE40FF51F27
:100D4000EE55FD4F908196FD16C02F5F3F4F2C3022
:100D5000310571F7813029F51092800082E080938F
:100D600081001092850010928400B19A80916F00EA
:100D7000826080936F00E8818E2F90E0FC01EE0F7F
:100D8000FF1FE80FF91FEE55FD4F808180648083BF
:100D90008881DF91CF911F910F91FF90EF90DF90AD
:100DA0000895823061F41092900080939100109227
:100DB00095001092940088BB80937100DCCF833043
:100DC00069F41092A00082E08093A1001092A50027
:100DD0001092A40089BB80937200CDCF8111CBCF3C
:100DE0001092200182E0809321011092250110923F
:100DF00024018ABB80937300BECF20E639E040E235
:100E000052E00C945306AF92BF92CF92DF92EF92D2
:100E1000FF920F931F93CF93DF936B017A01EC0145
:100E2000CC56DD4F28813CE0389F8001399F100D62
:100E30001124A0909802B12C27FF1FC0FB01118242
:100E4000108288818F5F888388819801280F311DE7
:100E500087FD3A95F6012A153B051CF488818C30F4
:100E6000C4F180819181049680349C4908F473C058
:100E7000F60180819181049670C088819801280FC5
:100E8000311D87FD3A952A153B05DCF68881A801BE
:100E9000480F511D87FD5A95FA01EE0FFF1FE40F11
:100EA000F51FEE55FD4F808186FFCBCF8881F8017D
:100EB000E80FF11D87FDFA95CF01EE0FFF1FE80F38
:100EC000F91FEE55FD4F808160E08F730E94D001C5
:100ED000B8CF808191812881A801420F511D27FD43
:100EE0005A959A01FA01EE0FFF1FE20FF31FEE551C
:100EF000FD4F21813281820F931FF70191838083FF
:100F000088819801280F311D87FD3A95F901EE0F70
:100F1000FF1FE20FF31FEE55FD4F808186FF22C0B9
:100F20008881080F111D87FD1A95F801EE0FFF1F2C
:100F3000E00FF11FEE55FD4F808161E08F73DF916F
:100F4000CF911F910F91FF90EF90DF90CF90BF90C6
:100F5000AF900C94D00180E49CE9F70191838083E9
:100F60008FEF8883DF91CF911F910F91FF90EF90CA
:100F7000DF90CF90BF90AF900895019761F56CE03E
:100F800070E089EB94E00E94FD066CE474E089EB6C
:100F900094E00E941C066AE070E080E090E00E940D
:100FA000B00260E273E089EB94E00E941C066CE200
:100FB00071E080E090E00E94B002E091B9048E2FD1
:100FC00090E0FC01EE0FFF1FE80FF91FEE55FD4FFB
:100FD00080818F7B808308959C01A6E9B0E00E9408
:100FE000951E28EE3DEF40E050E00E94491E3093F0
:100FF00039032093380308959C01A3EAB2E00E94CC
:10100000951E28EE3DEF40E050E00E94491E235D12
:101010003F4F4F4F5F4F30933F0320933E03089560
:10102000DC012AE33DEF4FEF5FEF0E94681E28EEE0
:101030003DEF40E050E00E94491E20533D4F4F4F8E
:101040005F4F30934503209344030895FC0184854A
:1010500095850895FC0184899589089520E632E0FC
:10106000FC0131832083FB014089518962897389A6
:10107000FC0142835383648375830895DC01ED9101
:10108000FC91048CF58DE02D1994CF92DF92EF92B4
:10109000FF920F931F93CF93DF93EC018C01055FB9
:1010A0001F4FEB858E2F90E0FC01EE0FFF1FE80F26
:1010B000F91FEE55FD4F808186FD0BC029893A89C5
:1010C0004F8558896E85062E000C770BC8010E944B
:1010D00053068A8580FF38C0F894888599852A85CB
:1010E0002E7F2A877894EB89FC89309769F01995CF
:1010F000BC01C801DF91CF911F910F91FF90EF903C
:10110000DF90CF900C941C06CF84D8880D2C000C57
:10111000EE08FF0829893A89032E000C440B550B71
:101120002C193D094E095F09DC010E94681E2FEF52
:101130003FEF40E050E00E94491EDA01C9018C0DEA
:101140009D1DAE1DBF1DD4CFDF91CF911F910F917B
:10115000FF90EF90DF90CF900895DC011A968C916C
:101160001A9780FF21C01E96ED91FC911F97309732
:10117000D9F0F89418968D919C9119971A962C9104
:101180001A972E7F1A962C931A9778941B962D9166
:101190003C911C97822393231D962C9102C0969517
:1011A00087952A95E2F719940895FC0182858111AB
:1011B00005C05187408785E0828705C0808591857D
:1011C00084179507B1F708950895089590E080E099
:1011D00008958F929F92AF92BF92EF92FF920F93DA
:1011E0001F93CF93DF93CDB7DEB7A1970FB6F894D7
:1011F000DEBF0FBECDBF7C01FA01CB0119A22230A8
:1012000008F42AE08E010F5D1F4F822E912CB12C25
:10121000A12CBF01A50194010E94731EF901CA010E
:101220006A3074F5605DD8016E938D01232B242BF9
:10123000252B79F790E080E0109789F0FD0101906F
:101240000020E9F73197AF014A1B5B0BD701ED9105
:10125000FC910280F381E02DB801C7011995A19698
:101260000FB6F894DEBF0FBECDBFDF91CF911F91B7
:101270000F91FF90EF90BF90AF909F908F90089547
:10128000695CD1CF8F929F92AF92BF92CF92DF9243
:10129000EF92FF920F931F93CF93DF937C01EB01AB
:1012A0006C0182E0C80ED11C4701E5E08E0E911C56
:1012B00010E000E0F60141916F0150E070E060E065
:1012C0002AE0CE010E94E9085C01E881F9810190E1
:1012D000F081E02D6EE2CE0119958A0D9B1D080F5D
:1012E000191FC814D90431F7F701458150E070E0A7
:1012F00060E02AE0CE010E94E908800F911FDF9193
:10130000CF911F910F91FF90EF90DF90CF90BF9002
:10131000AF909F908F9008950F931F93CF93DF937B
:10132000EC0188819981009759F02A813B81261729
:10133000370730F081E0DF91CF911F910F91089531
:101340008B016F5F7F4F0E940520009759F09983B2
:1013500088831B830A832C813D81232B59F7FC0151
:101360001082E8CF80E0E7CFEF92FF920F931F93B8
:10137000CF93DF936115710541F480E0DF91CF9148
:101380001F910F91FF90EF90089541155105B1F015
:101390007B01EC010C811D81040F151FB8010E9417
:1013A0008C09882351F3288139818C819D81B70173
:1013B000820F931F0E94F6201D830C8381E0DECFF5
:1013C000CF93DF93EC0188819981009711F00E94FF
:1013D0007C1F198218821D821C821B821A82DF9157
:1013E000CF910895EF92FF920F931F93CF93DF93C6
:1013F000EC017B01198218821B821A821D821C82D9
:10140000FB0101900020E9F731978F01061B170BB4
:10141000B8010E948C09811109C0CE01DF91CF91E2
:101420001F910F91FF90EF900C94E0091D830C83A6
:10143000B70188819981DF91CF911F910F91FF9022
:10144000EF900C94F620FC0180819181009711F0BF
:101450000C947C1F0895AF92BF92CF92DF92EF92CF
:10146000FF920F931F93CF93DF9300D01F92CDB7BE
:10147000DEB78C016B017A01809187038333E9F435
:101480005B016801C40ED51EC016D106A9F10E94E9
:101490008F048FE00E949A04812F0E949A04802F6B
:1014A0000E949A040F5F1F4F80E00E949A04F5018A
:1014B00081935F010E948504E7CF843369F50E9420
:1014C0008F0419830A838F2D8F778B83EC8264E0DE
:1014D00070E0CE0101960E946B04A70170E060E00D
:1014E000C6010E94EF20E114F10421F0B701C6010A
:1014F0000E946B040E948504C7010F900F900F900B
:101500000F90DF91CF911F910F91FF90EF90DF909F
:10151000CF90BF90AF9008950E948F040F3F1105A8
:1015200009F030F419820A831B8263E070E0D1CFA6
:1015300017FD0BC019820A8333E0169507953A957B
:10154000E1F7007E08600B83F0CFC80126E0969596
:1015500087952A95E1F7807E19830A830115104C3F
:1015600018F480618B83E1CF8861FCCFCF93DF9348
:101570001F92CDB7DEB72091880330E0322F2227AB
:10158000260F371F90E0982F882741E050E0BE01DA
:101590006F5F7F4F820F931F0E942B0A89810F90EC
:1015A000DF91CF910895CF93C82F462F61E070E06F
:1015B0000E94970561E070E08C2F0E94B60A8111AD
:1015C000F9CFCF910895CF93C82F80E591E00E9485
:1015D000CD0160E170E08C2FCF910C94D30ACF93B2
:1015E000DF93EC01888D883020F40E94E30A88E0C4
:1015F000888FDF91CF910895CF93FC01C08D80E556
:1016000091E00E94CD0160E270E08C2F0E94D30A2D
:1016100062E070E08C2F0E94B60A84FD16C062E082
:1016200070E08C2F0E94B60A83FF0AC048E162E096
:1016300070E08C2F0E94970580E090E0CF91089594
:1016400080E591E00E94CD01E3CF40E162E070E0EF
:101650008C2F0E94970581E0F0CFCF93DF931F92EC
:10166000CDB7DEB741E050E0BE016F5F7F4F90E045
:1016700080E00E942B0A89810F90DF91CF9108951D
:10168000CF93DF93C4E1D0E00E942D0B882361F05B
:1016900061E070E080E090E00E94B0022197A1F745
:1016A00080E0DF91CF91089581E0FBCFCF92DF9270
:1016B000EF92FF920F931F93CF93DF93CDB7DEB7D7
:1016C000C454D1090FB6F894DEBF0FBECDBFFC01E4
:1016D00082819381A481B58123968CAF9DAFAEAFFB
:1016E000BFAF239721E023962FAF239723964CADCE
:1016F0005DAD6EAD7FAD23974BAB5CAB6DAB7EABA1
:1017000089AF9AAFABAFBCAF8DA79EA7AFA7B8AB61
:1017100028AB4DA55EA56FA578A94FA358A769A7CB
:101720007AA72EAB4BA95CA96DA97EA949A35AA3A0
:101730006BA37CA38B8F9C8FAD8FBE8F40E652E056
:101740005C8B4B8B3FEF3D8B3E8B3F8B188E5E87C8
:101750004D872AA7CFA0D8A4E9A4FAA4CF86D88A17
:10176000E98AFA8A2CA309A11AA12BA13CA1098715
:101770001A872B873C875A8349838B839C83AD834D
:10178000BE8380918903811199C060E372E080E09B
:1017900090E00E94B0021FB7F894809186038111F7
:1017A00024C0EBE9F2E08491E1EEF2E09491E82FBD
:1017B000F0E0EE0FFF1FE45BFD4FA591B491EC91BB
:1017C000E92321F461E085E30E94D00185E30E94D2
:1017D000AE018CB580618CBD8CB580648CBD84E31A
:1017E0000E94AE0183E30E94AE01809186038F5F69
:1017F000809386031FBFE0E7F2E0E491F0E0EE0F94
:10180000FF1FEE5CFD4F859194919093850380932B
:101810008403E6EBF2E0E491E09383038AE00E9424
:10182000AE010E94850480E591E00E94CD0184E331
:101830008093870380E80E944F050E94400B882315
:1018400009F472C088E00E944F050E942D0B883079
:1018500009F06AC080E10E944F050E942D0B803183
:1018600009F062C080E00E944F050E942D0B182FE6
:1018700081115AC041E050E0BE016D5B7F4F8FE1A6
:1018800090E00E942B0A24968FAD2497833009F0B4
:101890004BC080E48093880342E06EE170E0812FCA
:1018A0000E94970542E06FE170E0812F0E9497054A
:1018B0001F5F183089F781E08093890380E591E00C
:1018C0000E94CD0146E050E062E072E089E090E0E5
:1018D0000E94A10444E050E0BE016D5F7F4F8FE0A5
:1018E00090E00E94A10444E050E0BE01615F7F4FA0
:1018F00081E090E00E94A10444E050E0BE016B5EF4
:101900007F4F85E090E00E94A10481E08C8789856B
:101910009A85AB85BC858093AA039093AB03A09373
:10192000AC03B093AD036FC087E38093870380E877
:101930000E944F050E94400B882339F188E00E94E5
:101940004F050E942D0B883001F580E10E944F0564
:101950000E942D0B182F8031C1F480E00E944F05AA
:101960000E942D0B811111C041E050E0BE016D5B62
:101970007F4F89E390E00E942B0A24968FAD249735
:10198000843019F41093880396CF83E38093870300
:1019900080E80E944F050E94400B882391F180E16E
:1019A0000E944F050E942D0B803159F582E10E9463
:1019B0004F050E942D0B823121F580E00E944F05DA
:1019C0000E942D0B81111DC084E08093880315E5D2
:1019D00025961FAF259741E050E0BE016C5B7F4F1D
:1019E0008BE190E00E94A10424961FAF249741E070
:1019F00050E0BE016D5B7F4F8AE190E00E94A10440
:101A00005ACF10928703CC5BDF4F0FB6F894DEBF3E
:101A10000FBECDBFDF91CF911F910F91FF90EF903F
:101A2000DF90CF9008951F93CF93DF931F92CDB790
:101A3000DEB7FC01108D183020F5818D928D892B39
:101A400001F180E591E00E94CD01812F0E946205A5
:101A500027E0129FF0011124E55BFC4F22813381C6
:101A6000377041E050E0BE016F5F7F4F820F931FE0
:101A70000E942B0A898190E00F90DF91CF911F91F6
:101A800008958FEF9FEFF8CFDA01E0918803F0E03F
:101A9000FE2FEE27E60FF71F90E0982F8827A90169
:101AA000BD018E0F9F1F0C942B0A8F929F92AF92B5
:101AB000BF92CF92DF92EF92FF920F931F93CF933B
:101AC000DF93CDB7DEB760970FB6F894DEBF0FBED9
:101AD000CDBF7C0190918703911115C018E0812F33
:101AE00060960FB6F894DEBF0FBECDBFDF91CF91E9
:101AF0001F910F91FF90EF90DF90CF90BF90AF902C
:101B00009F908F90089508E0933309F404E06B01EF
:101B100080E591E00E94CD019E012F5F3F4F59016A
:101B2000490110E063E070E0812F0E94B60AF401E1
:101B300081934F018823C1F01F5F0113F3CF00E0B1
:101B4000F50181915F018D3149F0883139F08A5179
:101B5000823020F00F5F1013F3CFC0CF60E170E050
:101B6000802F0E94D30A102FA12EB12C83EE93E078
:101B70000197F1F742E870E060E0812F0E9497053D
:101B80004FEF62E070E0812F0E949705B601C1140B
:101B9000D10491F480910002909101020196811587
:101BA000F0EC9F0708F464C0909301028093000258
:101BB0006091000270910102812F0E94810586E0F0
:101BC000EEE0F2E0DE01199601900D928A95E1F7C0
:101BD000F70183818F778C8784818D8785818E87BC
:101BE000A7014E5F5F4F24E030E06CE070E0812F92
:101BF0000E947005DF86C88A22E030E0AE01415FB6
:101C00005F4F60E170E0812F0E94700526E030E0B8
:101C1000AE01475F5F4F66E070E0812F0E94700564
:101C200061E070E0812F0E94D30A27E02A9DC00165
:101C30002B9D900D11249C01255B3C4F7901F901EE
:101C40001182108222E030E0AE01415F5F4F68E216
:101C500070E0812F0E94440D8F85988998278927ED
:101C60009827F7019383828316821582148237CFD7
:101C700080E090EC99CFCF92DF92EF92FF920F939A
:101C80001F93CF93DF9300D000D0CDB7DEB78C0188
:101C90006B017A01FC01808D883010F40E94E30A08
:101CA00080E692E09A838983F60182819381A48100
:101CB000B5818B839C83AD83BE83B701CE01019632
:101CC0000E94550DF801808F8830A0F4F586E486D7
:101CD000128E118E81E026960FB6F894DEBF0FBEED
:101CE000CDBFDF91CF911F910F91FF90EF90DF90CB
:101CF000CF90089580E0EFCFFF920F931F93CF9383
:101D0000DF931F921F92CDB7DEB7F82E22E030E0AE
:101D1000AE014F5F5F4F66E270E00E94440D0981A3
:101D20001A8110270127102722E030E0AE014F5F13
:101D30005F4F66E270E08F2D0E94440D89819A8189
:101D40009827892798270817190749F4C8010F9081
:101D50000F90DF91CF911F910F91FF9008958C010B
:101D6000E3CF4F925F927F928F929F92AF92BF92FA
:101D7000CF92DF92EF92FF920F931F93CF93DF9357
:101D80001F921F92CDB7DEB7782E6B014A01A82EA5
:101D9000B12C27E0829FC0011124FC01E55BFC4FC0
:101DA0007F010081118180E591E00E94CD0108153D
:101DB000190554F4872D0E947C0EF70126818C01B1
:101DC000021B1109118300830115110529F563E038
:101DD00070E0872D0E94B60A843159F0882349F0BB
:101DE00001E010E08C3111F410E000E01195019554
:101DF0001109C8010F900F90DF91CF911F910F91A2
:101E0000FF90EF90DF90CF90BF90AF909F908F901A
:101E10007F905F904F900895801691060CF4840196
:101E200087E08A9DF0018B9DF00D1124E55BFC4F4E
:101E3000E280F380C114D10451F12701F7E05F2261
:101E4000872D0E946205840D951D209187032733FD
:101E500009F453C09801240D351D2130384008F491
:101E60004CC020E038E0490184189508A401B6016F
:101E70000E942B0A2601480C591C6801C818D90871
:101E8000872D0E946205A601B2010E942B0AE00E76
:101E9000F11E87E08A9DF0018B9DF00D1124E55B1A
:101EA000FC4FF382E28220813181201B310B318390
:101EB00020838681800F912F911D8A3F910510F418
:101EC000232BF1F487E08A9DF0018B9DF00D112406
:101ED000E55BFC4F1682F982EA8222E030E0AE0137
:101EE0004F5F5F4F68E270E0872D0E94700560E4ED
:101EF00070E0872D0E94D30A7CCFA801B601C5CF20
:101F0000868377CFCF93DF93FC01218D328D21150E
:101F1000310529F48FEF9FEFDF91CF910895EC0108
:101F2000808D4217530708F0A9010E94B10E1816C0
:101F3000190684F7298D3A8D281B390B3A8F298F82
:101F4000EBCF0F931F93CF93DF931F92CDB7DEB7E5
:101F5000FC01218D328D232B41F48FEF9FEF0F90E9
:101F6000DF91CF911F910F9108958C0141E050E0D6
:101F7000BE016F5F7F4FFC01808D0E94B10E18166D
:101F800019065CF7F801818D928D0197928F818FF0
:101F9000898190E0E4CF3F924F925F926F927F925F
:101FA0008F929F92AF92BF92CF92DF92EF92FF9269
:101FB0000F931F93CF93DF931F921F92CDB7DEB77E
:101FC0005C014B01342E452EFC0166887788508CCD
:101FD00080E591E00E94CD0122E030E0AE014F5F4C
:101FE0005F4F60E270E0852D0E94440DC980DA8069
:101FF000DC24CD24DC2422E030E0AE014F5F5F4FD3
:1020000060E270E0852D0E94440D89819A819827B5
:1020100089279827C816D90609F079C0E52CF12C34
:1020200067E0569EF0011124E55BFC4FD582C48227
:10203000032D142DC016D10608F4860122E030E0ED
:10204000AE014F5F5F4F64E270E0852D0E94440D4A
:1020500089819A81982789279827680E791E93018C
:10206000377040918703433309F053C088E0E80E8E
:10207000F11CFE2CEE24FF0CFF0CFF0CC9018E0D91
:102080009F1D473309F449C0A901400F511F41303A
:10209000584008F442C060E078E06B01C21AD30AED
:1020A000A601B4010E94A104A8014C195D09B40164
:1020B0006C0D7D1DC7010E94A104600E711E798206
:1020C0006A8222E030E0AE014F5F5F4F64E270E071
:1020D000852D0E947005F50186899789800F911FD3
:1020E000978B868BC8010F900F90DF91CF911F9136
:1020F0000F91FF90EF90DF90CF90BF90AF909F90A7
:102100008F907F906F905F904F903F9008956C01FB
:1021100072CFE0E1EE0EF11CACCFA801B401CBCF41
:102120008F929F92AF92BF92CF92DF92EF92FF92E7
:102130000F931F93CF93DF9300D000D000D01F9256
:10214000CDB7DEB76C015B01FC01808D883010F4E7
:102150000E94E30A80918703811117C088E0F6018D
:10216000808F80E02A960FB6F894DEBF0FBECDBFF9
:10217000DF91CF911F910F91FF90EF90DF90CF9063
:10218000BF90AF909F908F90089508E0833309F43B
:1021900004E080E591E00E94CD019E012F5F3F4F5A
:1021A0004901790110E063E070E0812F0E94B60AD6
:1021B000F70181937F018823C1F01F5F0113F3CFE3
:1021C000F12CF40181914F018D3149F0883139F0C2
:1021D0008A51823020F0F3941F11F3CFBFCF60E11A
:1021E00070E08F2D0E94D30A1F2DE12EF12C83EE7B
:1021F00093E00197F1F742E070E060E0812F0E94E8
:1022000097054FEF62E070E0812F0E949705B501BE
:10221000A114B10489F48091000290910102019609
:102220008115F0EC9F07D0F190930102809300029A
:102230006091000270910102812F0E94810561E08E
:1022400070E0812F0E94D30A27E02E9DC0012F9DB0
:10225000900D11249C01255B3C4F7901F9011182FD
:10226000108222E030E0AE01475F5F4F68E270E02D
:10227000812F0E94440D89859A8598278927982760
:10228000F70193838283168215821482F601108FE0
:10229000B586A486128E118E81E064CF80E090EC2A
:1022A000C3CFDF92EF92FF920F931F93CF93DF93F1
:1022B00000D000D01F921F92CDB7DEB78C01D8019D
:1022C00059964D915C915A974115510551F0ED91F8
:1022D000FC91048CF58DE02D70E060E0C80119954B
:1022E000EECFF801D08CF7E0DF9EC00111249C01F5
:1022F000255B3C4F7901D9018D919C91892B59F136
:1023000048E050E0BE016F5F7F4FF801808D0E9472
:10231000B10E1816190694F5D801509684E0FE0106
:10232000319601900D928A95E1F78D8190E0982F7A
:1023300088272E81820F911DF801958B848B8F81C8
:10234000282F30E0322F22278885820F932F911D6E
:10235000928F818F13C080E591E00E94CD018D2D79
:102360000E947C0ED70116962C911697821B91091C
:102370008D939C93892B21F690E080E028960FB6F0
:10238000F894DEBF0FBECDBFDF91CF911F910F91AB
:10239000FF90EF90DF9008956F927F928F929F92BF
:1023A000AF92BF92CF92DF92EF92FF920F931F9363
:1023B000CF93DF93CDB7DEB7EC970FB6F894DEBFBF
:1023C0000FBECDBF4C018B013A0180E692E09A83AB
:1023D00089831C861B8648EE53E060E070E04D87E1
:1023E0005E876F87788B26E332E03A872987988F5C
:1023F0008F8B198E1A8E1B8E1C8E28E029A399AB09
:1024000088AB1AAA1BAA1CAA1DAA8091AA039091A4
:10241000AB03A091AC03B091AD038EA39FA3A8A77B
:10242000B9A78B839C83AD83BE8318861F82F80176
:1024300020E090E080E06AE03191332309F47AC033
:1024400040ED430F4A3008F064C0689FA001699FC7
:10245000500D1124CA01C097830F911D37FD9A9525
:102460008F3F910549F340F34B815C816D817E8103
:102470008091B6039091B703A091B803B091B903CE
:10248000481759076A077B0709F428C20E94E2022D
:102490006F7077277C5FCE0109960E949010813083
:1024A00009F01FC280E692E09DA38CA38B819C81E2
:1024B000AD81BE818EA39FA3A8A7B9A745E350E035
:1024C000BE016C5D7F4FCE0109960E94D005892B1D
:1024D00009F04EC010E000E0CE0109960E94EF0A1C
:1024E0000130110559F1C801EC960FB6F894DEBF22
:1024F0000FBECDBFDF91CF911F910F91FF90EF9055
:10250000DF90CF90BF90AF909F908F907F906F9013
:1025100008953E3209F0A8CF233009F4A5CFA2E3F5
:10252000B0E0AC0FBD1FA20FB11D8C932F5F90E0E8
:1025300080E082CF233009F097CF8DABD401ED91AD
:10254000FC910488F589E02D80E692E09DA38CA3A0
:102550008AA99BA9ACA9BDA98EA39FA3A8A7B9A727
:10256000A301BE016C5D7F4FC40119958C01BBCFE7
:102570000E94E20278876F8342E050E0BE01695F0B
:102580007F4FCE0109960E94CB0F81E090E09DA382
:102590008CA342E050E0BE016C5D7F4FCE010996F6
:1025A0000E94CB0F80E091E09DA38CA342E050E01D
:1025B000BE016C5D7F4FCE0109960E94CB0F1DA21C
:1025C0001CA242E050E0BE016C5D7F4FCE01099637
:1025D0000E94CB0F42E050E0BE016C5D7F4FCE0108
:1025E00009960E94CB0F42E050E0BE016C5D7F4F28
:1025F000CE0109960E94CB0F7801D8018C918823D7
:1026000011F18701F80181916F01882311F08E3259
:10261000C1F45801AE18BF081A141B0484F4AEAA02
:1026200041E050E0BE016A5C7F4FCE0109960E94F6
:10263000CB0FA501B701CE0109960E94CB0F760101
:10264000DCCF8601DFCF1EAA41E050E0BE016A5C0C
:102650007F4FCE0109960E94CB0F00E011E01DA331
:102660000CA342E050E0BE016C5D7F4FCE010996A5
:102670000E94CB0F1DA30CA342E050E0BE016C5D95
:102680007F4FCE0109960E94CB0FCE0109960E9482
:10269000FC0A892B09F41ECF83E0E82EF12CD7C069
:1026A0004B815C816D817E81898D9A8DAB8DBC8DD6
:1026B000481759076A077B0709F00AC18D8D9E8D5F
:1026C000C59709F005C18AA19BA10DEF1FEF0C97DB
:1026D0000CF4B4C04CE050E0BE016C5D7F4FCE0105
:1026E00009960E94820F8EA19FA19827892798277B
:1026F0009BAF8AAF4F8158852CA13DA1421753074C
:1027000009F0E9C097FFE7C08F7092700BEF1FEFE1
:10271000892B09F093C0AAA4BBA4BA24AB24BA2481
:102720000AEF1FEFA114B10409F488C010E000E023
:1027300088A599A59827892798270817190708F5C4
:1027400041E050E0BE016A5C7F4FCE0109960E94D5
:10275000820F4EA9442339F050E070E060E0CE01D2
:1027600009960E94820F8EA98111EACF44E050E0C1
:1027700070E060E0CE0109960E94820F0F5F1F4F4C
:10278000D7CFD12CC12C41E050E0BE01645C7F4F1B
:10279000CE0109960E94820F4CAD842F807C09F0F7
:1027A00074C0442339F050E070E060E0CE01099637
:1027B0000E94820F8CAD8111E6CF42E050E0BE0155
:1027C000685C7F4FCE0109960E94820F42E050E084
:1027D000BE016A5C7F4FCE0109960E94820F44E0E1
:1027E00050E070E060E0CE0109960E94820F42E066
:1027F00050E0BE01665C7F4FCE0109960E94820FB9
:1028000088AD99AD4AAD5BAD8115914009F047C0E7
:102810000EA91FA91027012710270130110509F063
:102820003EC04115544009F04DC044E050E0BE01A7
:102830006E5C7F4FCE0109960E94820FF1E0EF1A85
:10284000F10809F449CE0F3F100709F045CE0E9468
:10285000E2025B016C01CE0109960E94511118162B
:1028600019060CF41DCF0E94E2026A197B098C093B
:102870009D09693873418105910538F562E370E07F
:1028800080E090E00E94B002E6CF41E050E070E0CE
:1028900060E0CE0109960E94820F1CAE8BCF5427B8
:1028A0004527542770E060E0CE0109960E94820F10
:1028B000EFEFCE1ADE0AAC14BD0409F064CF06EFC8
:1028C0001FEFBCCF07EF1FEFB9CF0FEF1FEFB6CF52
:1028D0000EEF1FEFB3CF0CEF1FEFB0CF0EEF1FEFD8
:1028E00002CE10E000E0FFCD1F920F920FB60F92C4
:1028F00011242F933F938F939F93AF93BF93809116
:102900009A0290919B02A0919C02B0919D023091FD
:10291000990223E0230F2D3758F50196A11DB11D13
:102920002093990280939A0290939B02A0939C0219
:10293000B0939D0280919E0290919F02A091A0026F
:10294000B091A1020196A11DB11D80939E029093AA
:102950009F02A093A002B093A102BF91AF919F915B
:102960008F913F912F910F900FBE0F901F90189550
:1029700026E8230F0296A11DB11DD2CF1F920F9200
:102980000FB60F9211240BB60F922F933F934F93D4
:102990005F936F937F938F939F93AF93BF93EF93C7
:1029A000FF9348E251E064E271E090E080E00E9431
:1029B0000307FF91EF91BF91AF919F918F917F910D
:1029C0006F915F914F913F912F910F900BBE0F90A0
:1029D0000FBE0F901F9018951F920F920FB60F9277
:1029E00011240BB60F922F933F934F935F936F93E6
:1029F0007F938F939F93AF93BF93EF93FF9348EA97
:102A000050E064EA70E083E090E00E940307FF91E9
:102A1000EF91BF91AF919F918F917F916F915F9156
:102A20004F913F912F910F900BBE0F900FBE0F90C3
:102A30001F9018951F920F920FB60F9211240BB68C
:102A40000F922F933F934F935F936F937F938F9347
:102A50009F93AF93BF93EF93FF9348E950E064E9EE
:102A600070E082E090E00E940307FF91EF91BF9138
:102A7000AF919F918F917F916F915F914F913F9116
:102A80002F910F900BBE0F900FBE0F901F901895B7
:102A90001F920F920FB60F9211240BB60F922F9325
:102AA0003F934F935F936F937F938F939F93AF93D6
:102AB000BF93EF93FF9348E850E064E870E081E053
:102AC00090E00E940307FF91EF91BF91AF919F911A
:102AD0008F917F916F915F914F913F912F910F90C7
:102AE0000BBE0F900FBE0F901F9018951F920F9264
:102AF0000FB60F9211240BB60F929F92AF92BF9216
:102B0000CF92DF92EF92FF920F931F932F933F93F9
:102B10004F935F936F937F938F939F93AF93BF93E5
:102B2000EF93FF93CF93DF931F92CDB7DEB78091E2
:102B3000C60089838981E091CC05F0E0EE57FA4F19
:102B400082878091CC058F5F8093CC058F738093B3
:102B5000CC058091CF05811117C081E08093CF050E
:102B600084E0C82E96E0B92E25E0D22EEE24E39420
:102B700032E0A32E43E0942E9091CD058091CC05B8
:102B8000981321C01092CF050F90DF91CF91FF9144
:102B9000EF91BF91AF919F918F917F916F915F91D5
:102BA0004F913F912F911F910F91FF90EF90DF90E8
:102BB000CF90BF90AF909F900F900BBE0F900FBE25
:102BC0000F901F901895E091CD05F0E0EE57FA4F69
:102BD000F2848091CD058F5F8093CD058F738093B4
:102BE000CD05789480918205833009F480C000F58A
:102BF000813009F45DC0823009F463C0B5E5FB1291
:102C0000E1C0809189058F5F809389058091890556
:102C1000843009F0B1CFE09282051092890580914D
:102C200032039091330390938B0580938A05A4CF50
:102C3000853009F471C008F463C08630F9F68091DC
:102C40008705909188059F29909388058093870533
:102C500080918505909186050197909386058093D4
:102C6000850500918A0510918B050115110509F460
:102C700096C08091830590918405D80114962D917A
:102C80003C9115972817390708F058C0ED91FC9131
:102C90000280F381E02DC8011995E0918A05F09139
:102CA0008B058681978190938B0580938A05D9CF78
:102CB0008F2D90E09093840580938305A0928205E8
:102CC0009DCF80918305909184059F2990938405E1
:102CD0008093830580918305909184058535954582
:102CE00019F0909282058ACF1092820587CF8F2D9E
:102CF00090E09093860580938505C09282057ECFF3
:102D000080918505909186059F29909386058093F3
:102D10008505D092820572CF8F2D90E09093880523
:102D20008093870580918505909186050197909302
:102D3000860580938505B092820560CFF801828177
:102D4000938120918305309184052817390738F144
:102D5000209183053091840528173907C8F08091A8
:102D6000830590918405248135812817390780F0E7
:102D70004091870550918805609183057091840585
:102D80000190F081E02D0190F081E02DC8011995AE
:102D9000D80116960D911C910115110579F68091B7
:102DA0008305909184050296909384058093830512
:102DB0008091850590918605892B09F0AACFE09234
:102DC00082051CCF1092890521CF0F931F93CF93BB
:102DD000DF93EC01862F1B861A86198218821E8AC1
:102DE0001F8A188E198EE0EDF2E0FF83EE836C8768
:102DF0007D875F874E87398B288B1B8B0A8B0E94C0
:102E0000AE018E850E94AE0188890E94AE018A893A
:102E10000E94AE011D8A1C8A84E090E09987888711
:102E2000DF91CF911F910F910895FC01909198022D
:102E3000903398F481E0890F809398029083892FD2
:102E400090E0FC01EE0FFF1FE80FF91FEE55FD4F5C
:102E500088EB9BE09283818308958FEF80830895B0
:102E6000CF93DF93FC0188E192E0918380837383A9
:102E7000628375836483A0913203B0913303C2E30C
:102E8000D3E0109771F4F0933303E0933203178289
:102E9000168282E292E0918380831286DF91CF9145
:102EA000089514968D919C9115978617970750F069
:102EB0006817790779F412968D919C91139786176C
:102EC000970740F4ED01269616960D90BC91A02D23
:102ED000109739F7B783A683F983E883DACF8F9207
:102EE0009F92AF92BF92CF92DF92EF92FF920F9399
:102EF0001F93CF93DF93EAE8F3E0C0E6D2E0D183FB
:102F0000C0831282138214821582E0E9F3E0D18338
:102F1000C0831282138214821582E6E9F3E0D18322
:102F2000C0831282138214821582ECE9F3E0D1830C
:102F3000C0831282138214821582E2EAF3E0D18305
:102F4000C0831282138214821582EEEAF3E0D183E9
:102F5000C0831282138214821582E8EAF3E0D183DF
:102F6000C0831282138214821582E4EBF3E0D183D2
:102F7000C0831282138214821582EAEBF3E0D183BC
:102F8000C083128213821482158262E972E080ED9E
:102F900095E00E94F209E2E8F5E01092CC0510926B
:102FA000CD051092CE051092CF0510821782ECE766
:102FB000F5E0D183C0831282138214821582E6E782
:102FC000F5E0D183C0838CEAF82EF28200E103831E
:102FD00011E0148389E685836CE672E080E795E072
:102FE0000E94F209EAE6F5E0D183C083F28203830E
:102FF00014838AE085836CE672E084E695E00E94A3
:10300000F209E9E4F5E01382128288EE93E0A0E091
:10301000B0E084839583A683B78386E392E09183AF
:103020008083D787C687108A118A128A138A98E00C
:10303000F92EF08E0BE210E029E230E04FE250E092
:103040006DE270E08FE295E00E94E51606E210E086
:1030500024E230E040E250E062E270E085E195E099
:103060000E94E51601E210E023E230E045E250E084
:1030700067E270E08BEF94E00E94E5166AE175E785
:103080008BEE94E00E943017EBEEF4E0C6E6D2E05F
:10309000D183C0830FEF1FEF14870387158680E16C
:1030A00098E09787868764E175E78BED94E00E944E
:1030B0003017EBEDF4E0D183C083148703871586C6
:1030C0008CEF97E09787868766E075E78BEC94E056
:1030D0000E943017EBECF4E0D183C08314870387A0
:1030E00015868CEE97E09787868788EC94E00E949F
:1030F000151785EC94E00E94151782EC94E00E946D
:1031000015178FEB94E00E9415178CEB94E00E944A
:10311000151789EB94E00E9415176CE175E784EAB6
:1031200094E00E94301704EA14E02CE2C22E22E060
:10313000D22EF801D182C0828FEA94E00E94151746
:103140008BE0F80186878AE194E0908B87878CE892
:1031500095E0928B818B148A138A6EE175E78FE874
:1031600094E00E9430170FE814E0F801D182C08289
:103170008AE994E00E94151787E0F801868738E510
:10318000832E32E0932E908A878644E2A42E49E073
:10319000B42EB28AA18A148A138A60E275E78AE79C
:1031A00094E00E9430170AE714E0F801D182C0824F
:1031B00085E894E00E94151786E0F8018687908ADA
:1031C0008786B28AA18A148A138A6EE375E785E638
:1031D00094E00E94301705E614E0F801D182C08225
:1031E00080E794E00E94151759E0E52EF801E68685
:1031F00088E097E0908B878784EB90E0928B818BBF
:10320000148A138A6CE375E780E594E00E94301716
:1032100000E514E0F801D182C0828BE594E00E94C1
:103220001517F801F68680E991E0908B87878CE688
:1032300097E0928B818B148A138A60E874E780E4AC
:1032400094E00E943017E0E4F4E0D183C08300E012
:1032500010E2148703876DE0962E95868CE592E048
:103260009787868760E874E780E394E00E943017D0
:10327000E0E3F4E0D183C083C12C70E4D72ED48680
:10328000C386AEE08A2E858680E692E097878687A1
:1032900062EC74E780E294E00E943017E0E2F4E030
:1032A000D183C083A12CBB24B394B486A386F586B6
:1032B00084E692E09787868762EC74E780E194E089
:1032C0000E943017E0E1F4E0D183C08380E096E013
:1032D00094878387E58688E692E09787868764EB04
:1032E00074E780E094E00E943017E0E0F4E0D183DE
:1032F000C083B486A386F5868FE692E0978786879B
:1033000068EC74E780EF93E00E943017E0EFF3E0A1
:10331000D183C083B486A386F58683E792E097873E
:10332000868768EC74E780EE93E00E943017E0EE49
:10333000F3E0D183C083D486C386858687E792E095
:10334000978786876EEC74E780ED93E00E943017D4
:10335000E0EDF3E0D183C08380E093E0948783873E
:10336000F5868BE792E09787868764EB74E780ECBD
:1033700093E00E943017E0ECF3E0D183C083148720
:10338000038795868DEB97E097878687DF91CF91AE
:103390001F910F91FF90EF90DF90CF90BF90AF9073
:1033A0009F908F900895CF93DF93CDB7DEB7A79707
:1033B0000FB6F894DEBF0FBECDBF789484B582609F
:1033C00084BD84B5816084BD85B5826085BD85B5C9
:1033D000816085BD80916E00816080936E00109247
:1033E00081008091810082608093810080918100C2
:1033F0008160809381008091800081608093800053
:103400008091B10084608093B1008091B0008160B0
:103410008093B000809191008260809391008091B0
:1034200091008160809391008091900081608093F1
:1034300090008091A10082608093A1008091A10002
:1034400081608093A1008091A00081608093A000A2
:10345000809121018260809321018091210181600E
:1034600080932101809120018160809320018091CF
:103470007A00846080937A0080917A0082608093E1
:103480007A0080917A00816080937A0080917A003E
:10349000806880937A001092C10085E00E94AE019E
:1034A0008DE00E94AE0161E085E00E94D00161E004
:1034B0008DE00E94D00168EE73E080E090E00E9411
:1034C000B00260E085E00E94D00160E08DE00E94E3
:1034D000D00168EE73E080E090E00E94B0028EE1DF
:1034E0000E94AE018FE10E94AE018DE10E94AE010B
:1034F0008CE10E94AE018BE10E94AE0186E10E9448
:10350000AE0187E10E94AE0188E10E94AE0189E12F
:103510000E94AE0160E08EE10E94D00160E08FE188
:103520000E94D00160E08DE10E94D00160E08CE15A
:103530000E94D00160E08BE10E94D00160E086E152
:103540000E94D00160E087E10E94D00160E088E144
:103550000E94D00160E089E10E94D00160E08EE12C
:103560000E94D00160E08FE10E94D00160E08DE117
:103570000E94D00160E08CE10E94D00160E08BE10C
:103580000E94D0016BE070E088EC94E00E94FD06A0
:1035900067E070E085EC94E00E94FD0666E070E074
:1035A00082EC94E00E94FD0668E070E08FEB94E00E
:1035B0000E94FD0669E070E08CEB94E00E94FD063D
:1035C0006CE070E089EB94E00E94FD066CE875E029
:1035D00088EC94E00E941C0664E279E085EC94E0BB
:1035E0000E941C0664E279E082EC94E00E941C06D2
:1035F0006CE677E08FEB94E00E941C0664EB70E0D1
:103600008CEB94E00E941C066CE474E089EB94E07F
:103610000E941C0668EE73E080E090E00E94B00219
:103620006AE174E088EC94E00E941C0668E572E0B0
:1036300085EC94E00E941C0668E572E082EC94E060
:103640000E941C0660E971E08FEB94E00E941C066A
:1036500068E077E08CEB94E00E941C0660E273E087
:1036600089EB94E00E941C0664EF71E080E090E03A
:103670000E94B002E091C8048E2F90E0FC01EE0F92
:10368000FF1FE80FF91FEE55FD4F80818F7B808370
:10369000E091C2048E2F90E0FC01EE0FFF1FE80FB7
:1036A000F91FEE55FD4F80818F7B8083E091C5042B
:1036B0008E2F90E0FC01EE0FFF1FE80FF91FEE5573
:1036C000FD4F80818F7B8083E091BF048E2F90E03F
:1036D000FC01EE0FFF1FE80FF91FEE55FD4F808133
:1036E0008F7B8083E091BC048E2F90E0FC01EE0F75
:1036F000FF1FE80FF91FEE55FD4F80818F7B808300
:10370000E091B9048E2F90E0FC01EE0FFF1FE80F4F
:10371000F91FEE55FD4F80818F7B80832091350509
:1037200030913605032E000C440B550BC12CE7E8F5
:10373000DE2EE3E9EE2EE3E0FE2EC701B6010E9485
:10374000491ECA01B90122E330E040E050E00E9486
:10375000491E209331053093320540933305509331
:10376000340560ED72E08FE295E00E94E20360E3D1
:103770007DEF8FE295E00E94E203109241031092E8
:10378000400380ED92E090934503809344032091A1
:103790001B0530911C05032E000C440B550BC70173
:1037A000B6010E94491EFCE38F2E912CA12CB12C56
:1037B000CA01B901A50194010E94491E2093170571
:1037C000309318054093190550931A056CEB72E07D
:1037D00085E195E00E94E20360E37DEF85E195E0FD
:1037E0000E94E2036EE170E085E195E00E94E20351
:1037F00010923B0310923A0388E290E090933F03CB
:1038000080933E032091010530910205032E000CA8
:10381000440B550BC701B6010E94491ECA01B901EC
:10382000A50194010E94491E2093FD043093FE04DB
:103830004093FF045093000566E970E08BEF94E03D
:103840000E94E20368EE73E080E090E00E94B00224
:1038500066E07FEF8BEF94E00E94E2031092350365
:10386000109234031092390310923803809164004F
:103870008D7F809364001092C50083E08093C40024
:103880001092C00086E08093C20088E98093C10056
:1038900064EF71E080E090E00E94B002A0E6EA2EC2
:1038A000A2E0FA2EFA82E98280917805909179055A
:1038B000A0917A05B0917B058B839C83AD83BE83F9
:1038C0008E010F5F1F4FC8010E94560B6FE67EE10D
:1038D00089E495E00E949010FA82E98280916C055B
:1038E00090916D05A0916E05B0916F058B839C83BF
:1038F000AD83BE8348E759E6B80189E495E00E94AC
:10390000D0050E94E2021BA21AA21DA21CA21FA2A5
:103910001EA22AE0A8010E94171EF80101900020B3
:10392000E9F731977F01E01AF10AB701CE018296DB
:103930000E948C09811160C1CE0182960E94E0092B
:1039400064E772E0C8010E94F20940917405509149
:1039500075056091700570917105C8010E94B409E8
:10396000811103C0C8010E94E00941E050E06EE708
:1039700072E0C8010E94B409811103C0C8010E940D
:10398000E0094EA15FA16AA17BA1C8010E94B40910
:10399000811103C0C8010E94E0094FE050E060E8D7
:1039A00072E0C8010E94B409811103C0C8010E94DD
:1039B000E0094D815E8169817A8189E495E00E9408
:1039C000CB0F42E050E060E972E089E495E00E94AC
:1039D000CB0FC8010E94230ACE0182960E94230ABF
:1039E00089E495E00E94FC0A0E94E2020E94E20241
:1039F00068517C4F8F4F9F4F6093470370934803EC
:103A00008093490390934A03DD24D39480E0E82E09
:103A100080E0F82E0E94E2020091470310914803D3
:103A20002091490330914A030617170728073907E1
:103A3000B0F4609146036D25609346038DE00E94CB
:103A4000D0010E94E20268517C4F8F4F9F4F6093DC
:103A50004703709348038093490390934A0300916E
:103A60004403109145031093430300934203A09035
:103A70004003B0904103C8018A199B099C0197FF3C
:103A800004C022273327281B390B233031052CF1A2
:103A9000181619066CF46FEF7FEF8FE295E00E9425
:103AA000E2038FEFA81AB80AB0924103A092400334
:103AB000A0904003B09041030A191B0917FF0DC0E5
:103AC00061E070E08FE295E00E94E203A1E0AA1AB3
:103AD000B108B0924103A092400300913E031091BF
:103AE0003F0310933D0300933C03A0903A03B09032
:103AF0003B03C8018A199B099C0197FF04C0222738
:103B00003327281B390B233031052CF118161906E1
:103B10006CF461E070E085E195E00E94E203BFEFA4
:103B2000AB1ABB0AB0923B03A0923A03A0903A03AF
:103B3000B0903B030A191B0917FF0DC06FEF7FEF11
:103B400085E195E00E94E203E1E0AE1AB108B0928F
:103B50003B03A0923A03009138031091390310936C
:103B6000370300933603A0903403B0903503C801A7
:103B70008A199B099C0197FF04C022273327281B21
:103B8000390B233031052CF1181619066CF461E05D
:103B900070E08BEF94E00E94E203FFEFAF1ABF0AE0
:103BA000B0923503A0923403A0903403B090350353
:103BB0000A191B0917FF0DC06FEF7FEF8BEF94E021
:103BC0000E94E20381E0A81AB108B0923503A092E6
:103BD0003403009132031091330301151105A1F054
:103BE000D801ED91FC910480F581E02DC801199573
:103BF000F80106811781F1CFFFA2EEA2B8018AA1D8
:103C00009BA10E94F6209CCEE114F10409F402CF9E
:103C10000E940000FFCE84E695E00E94230A80E720
:103C200095E00E94230A80ED95E00C94230ABB27BF
:103C3000FA01A62F6217710581059105330B30FB40
:103C400066F0AA27660F771F881F991FAA1FA21761
:103C500010F0A21B63953850A9F7A05DAA3308F0B5
:103C6000A95DA19336F7B111B1931082CA010C94EA
:103C7000391EDC01FC01672F71917723E1F7329740
:103C800004C07C916D9370836291AE17BF07C8F337
:103C90000895052E97FB1EF400940E94601E57FDA8
:103CA00007D00E94731E07FC03D04EF40C94601ED4
:103CB00050954095309521953F4F4F4F5F4F089558
:103CC00090958095709561957F4F8F4F9F4F089588
:103CD0000E94951EA59F900DB49F900DA49F800DEE
:103CE000911D11240895A1E21A2EAA1BBB1BFD01F0
:103CF0000DC0AA1FBB1FEE1FFF1FA217B307E407CB
:103D0000F50720F0A21BB30BE40BF50B661F771F22
:103D1000881F991F1A9469F7609570958095909502
:103D20009B01AC01BD01CF010895A29FB001B39FDB
:103D3000C001A39F700D811D1124911DB29F700DB4
:103D4000811D1124911D0895991B79E004C0991FCC
:103D5000961708F0961B881F7A95C9F780950895E5
:103D600097FB072E16F4009407D077FD09D00E9428
:103D7000CC1E07FC05D03EF4909581959F4F089589
:103D8000709561957F4F0895EE0FFF1F881F8BBFC1
:103D90000790F691E02D1994AA1BBB1B51E107C0B7
:103DA000AA1FBB1FA617B70710F0A61BB70B881FCB
:103DB000991F5A95A9F780959095BC01CD0108955A
:103DC0000F931F93CF93DF938230910510F482E01D
:103DD00090E0E091D805F091D90530E020E0B0E026
:103DE000A0E0309799F42115310509F44AC0281B49
:103DF000390B24303105D8F58A819B816115710515
:103E000089F1FB0193838283FE0111C040815181BE
:103E10000281138148175907E0F04817590799F4B0
:103E2000109761F012960C93129713961C9332968A
:103E3000CF01DF91CF911F910F9108950093D80585
:103E40001093D905F4CF2115310551F042175307CE
:103E500038F0A901DB019A01BD01DF01F801C1CFF2
:103E6000EF01F9CF9093D9058093D805CDCFFE010E
:103E7000E20FF31F819391932250310939832883F4
:103E8000D7CF2091D6053091D705232B41F420912F
:103E90000A0230910B023093D7052093D60520916A
:103EA0000802309109022115310541F42DB73EB7C2
:103EB00040910C0250910D02241B350BE091D60568
:103EC000F091D705E217F307A0F42E1B3F0B28173C
:103ED000390778F0AC014E5F5F4F2417350748F083
:103EE0004E0F5F1F5093D7054093D6058193919352
:103EF0009FCFF0E0E0E09CCFCF93DF930097E9F015
:103F0000FC01329713821282A091D805B091D90595
:103F1000ED0130E020E01097A1F420813181820F83
:103F2000931F2091D6053091D7052817390709F03E
:103F300061C0F093D705E093D605DF91CF91089546
:103F4000EA01CE17DF07E8F54A815B819E01411542
:103F50005105B1F7E901FB83EA8349915991C40FF7
:103F6000D51FEC17FD0761F4808191810296840FC3
:103F7000951FE90199838883828193819B838A833A
:103F8000F0E0E0E012968D919C9113970097B9F5BF
:103F90002D913C911197CD010296820F931F209194
:103FA000D6053091D7052817390739F6309751F5DE
:103FB0001092D9051092D805B093D705A093D605D5
:103FC000BCCFD383C28340815181840F951FC81712
:103FD000D90761F44E5F5F4F88819981480F591F5F
:103FE000518340838A819B8193838283211531058C
:103FF00009F0B0CFF093D905E093D8059ECFFD012D
:10400000DC01C0CF13821282D7CF4F925F926F92A2
:104010007F928F929F92AF92BF92CF92DF92EF9258
:10402000FF920F931F93CF93DF938C01009799F426
:10403000CB01DF91CF911F910F91FF90EF90DF9017
:10404000CF90BF90AF909F908F907F906F905F9038
:104050004F900C94E01EFC01E60FF71F9C012250CC
:104060003109E217F30708F4AEC0D901CD91DC9114
:104070001197C617D70720F1C530D10578F0CE01CA
:1040800004978617970750F0C61BD70B2297C1934A
:10409000D1936D937C93CF010E947C1FC801DF9167
:1040A000CF911F910F91FF90EF90DF90CF90BF9035
:1040B000AF909F908F907F906F905F904F900895FA
:1040C0005B01AC1ABD0A4C018C0E9D1EA091D80557
:1040D000B091D905512C412CF12CE12C109731F5E0
:1040E0008091D6059091D7058815990509F05CC097
:1040F0004616570608F058C08091080290910902B0
:10410000009741F48DB79EB740910C0250910D027B
:10411000841B950BE817F90708F055C0F093D705F5
:10412000E093D605F90171836083B8CF8D919C919E
:10413000119712966C90129713967C901397A8156E
:10414000B90559F56C0142E0C40ED11CCA14DB0458
:1041500020F1AC014A195B09DA011296159780F03B
:104160006282738251834083D9016D937C93E11401
:10417000F10471F0D7011396FC93EE9312978ECF52
:1041800022968C0F9D1FF90191838083F301EFCF5D
:10419000F093D905E093D80581CF4816590608F465
:1041A0002C017D01D3019ACFCB010E94E01E7C013E
:1041B000009749F0AE01B8010E94E620C8010E94B4
:1041C0007C1F87016BCF10E000E068CFFB01DC01B2
:1041D00002C001900D9241505040D8F70895DC0183
:1041E00001C06D9341505040E0F70895FB01DC01A0
:1041F00001900D920020E1F7089511E0CAE7D1E0A7
:1042000000E006C0802FFE010E94C41E2196011D01
:0E421000CB37D10780E00807A9F7F894FFCF5D
:10421E0000C0A8610A9E83050000DA058000010037
:10422E005E00000000000000E508E408E40800005D
:10423E000000D508E408E40800000000D508E408F2
:10424E00450800000000B505CB0FE608B405CB0508
:10425E00A10F130D90103B0EEF0AD005CC11FC0AE6
:10426E005111820F3E082E082A0826080000000071
:10427E00420900000000D508E408AD08582E582E5B
:10428E00582E5800496E697420554450202D200038
:10429E006D532073696E63652072657365742E00AD
:0442AE000D0A0000F5
:00000001FF
