:020000040000FA
:100000000C9466020C9497020C9497020C9497023D
:100010000C9497020C9497020C9497020C949702FC
:100020000C9497020C94D4270C94D4270C94D427C6
:100030000C9497020C9497020C9497020C949702DC
:100040000C9497020C94DA280C9497020C94970263
:100050000C9497020C9497020C9497020C948A27A4
:100060000C9497020C9408290C9497020C94970214
:100070000C9497020C9497020C9497020C9497029C
:100080000C94AC280C9497020C9497020C94970251
:100090000C9497020C9497020C9497020C9497027C
:1000A0000C9497020C9497020C947E280C9497025F
:1000B0000C9497020C9497020C9497020C9450287D
:1000C0000C9497020C9497020C9497020C9497024C
:1000D0000C9497020C9497020C9497020C9497023C
:1000E0000C9497020C94C4100C946B070C949D0212
:1000F0000C94D4170C94B11A0C94CF0C0C94FA02F3
:100100000C9415030C9438030C9452080C9450175B
:100110000C943F090C94EA170C943F0C0C942003A8
:100120000C94F6070C94B30D0C94370B0C94E70C5D
:100130000C9462080C9434030C9493090C949B0D5A
:100140000C9487090C949E060C947C270C946D15D6
:100150000C9458210C949C180C94A8170C94071418
:100160000C9492170C94631A0C94EA030C940D0BE4
:100170000C94670B0C943E2B0C94F7080C94690FAD
:100180000C94FF020C94AF0B0C944E270C94170D9B
:100190000C94F70B0C94E30A0C94D81C0C949F0954
:1001A0000C948F240C94B7100C94870C0C945C1650
:1001B0000C945D1E0C944E080C944C030C943E035E
:1001C0000C94FB0D0C944D060C9402040C94621DCF
:1001D0000C94130E0C94EF0D0C94AF060C94770452
:1001E0000C946F0C0C94EC070C94270F0C946F0973
:1001F0000C9411080C94270C0C946B0A0C94E207D5
:100200000C94A70D0C949B0A0C94BF0D0C946908D8
:100210000C94B30A0C94070E0C94AF0E0C94710D51
:100220000C947F0E0C94932A0C94570C0C9442035C
:100230000C940F090C94A9070C9446030C94971581
:100240000C945F040C9430030C9448080C944908F7
:100250000C94970E0C947F0B0C948A0F0C942D0722
:100260000C94AB090C94C7180C94CB0D0C9414246B
:100270000C94670E0C9465270C9447210C94230A68
:100280000C94F3090C94E51A0C94B7090C94EF063E
:100290000C9419030C94971A0C94341D0C94480F69
:1002A0000C94F01D0C944F0B0C94CB1A0C940B0A6D
:1002B0000C9411030C947D1A0C94061D0C94B41D1F
:1002C0000C941D030C9403040C940A080C94DF0B8B
:1002D0000C94FF1A0C944E150C9466170C94331B57
:1002E0000C94CB0A0C944D1B0C94830A0C944F0E67
:1002F0000C945B0E0C9437270C942F0D0C941C0758
:100300000C94470D0C94C71B0C940F0C0C944A08CA
:100310000C94730E0C9457190C9427090C943B0AF7
:100320000C94530A0C94970B0C947C170C94E30DCB
:100330000C9400180C94B70C0C94191B0C942A0301
:100340000C945A070C94190F0C94691B0C94DB093C
:100350000C94FF0C0C9457090C94C70B0C942B0EA7
:100360000C94C3090C948B1E0C9437060C949807BC
:100370000C9450030C9499020C94430E0C94161890
:100380000C94DE060C94DF120C9452060C941F0E93
:100390000C9439080C94BE170C949F0C0C942603F3
:1003A0000C94BB060C94F61F00000A0B02090C0DFE
:1003B0000E08070304010000000000000000000018
:1003C000000000000000000000000000000000002D
:1003D00000000000121110000000000000000000EA
:1003E000000000000000000000000000000000000D
:1003F0002100240027002A002D00300033000101D5
:100400000000040107010A0100002000230026006B
:1004100029002C002F00320000010000030106011A
:10042000090100002200250028002B002E003100C9
:10043000340002010000050108010B010505050556
:10044000070508080808020202020A0A080804044C
:10045000040401010101010101010303030303037A
:100460000303040707070C0C0C0C0C0C0C0C020209
:10047000020206060606060606060B0B0B0B0B0B06
:100480000B0B010210202008081020401020408093
:100490000201020108040201010204081020408048
:1004A00080402010080402018004020180402010D6
:1004B000080402010804020101020408102040801F
:1004C00001020408102040803E2B932A11241FBEF5
:1004D000CFEFD1E2DEBFCDBF00E00CBF1AE0A0E05D
:1004E000B2E0E2ECFAE700E00BBF02C007900D9229
:1004F000A636B107D9F728E1A6E6BAE001C01D92F9
:10050000A433B207E1F712E0C5E6D2E000E006C08E
:1005100021970109802FFE010E940D3BC436D107AF
:1005200080E00807A9F70E94DF350C944F3D0C943A
:10053000000008958CBD9DBD0895AF92BF92CF92EB
:10054000DF92EF92FF920F931F93CF93DF936C0193
:100550007B018B01040F151FEB015E01AE18BF0874
:10056000C017D10759F06991D601ED91FC91019026
:10057000F081E02DC6011995892B79F7C501DF912E
:10058000CF911F910F91FF90EF90DF90CF90BF9090
:10059000AF900895282F30E0F901E855FC4F949171
:1005A000F901EE57FB4F4491245C3B4FF901249134
:1005B000222309F435C0992311F191509231F8F4B6
:1005C000E92FF0E08827E851FD4F8F4F0C940D3B49
:1005D00019031D03FA0211031503FF02200326036A
:1005E0002A033003340338033E034203FF02460369
:1005F0004C035003809180008F7780938000E22F1E
:10060000F0E0EE0FFF1FEE5DFB4FA591B4918FB7A9
:10061000F894EC91611148C040954E234C938FBFE4
:100620000895809180008F7DE8CF80918000877F42
:10063000E4CF84B58F7784BDE2CF84B58F7DFBCFC7
:100640008091B0008F778093B000D9CF8091B000B7
:100650008F7DF9CF809190008F7780939000CFCFDE
:10066000809190008F7DF9CF80919000877FF5CFAA
:100670008091A0008F778093A000C1CF8091A000CF
:100680008F7DF9CF8091A000877FF5CF80912001E9
:100690008F7780932001B3CF809120018F7DF9CF98
:1006A00080912001877FF5CF4E2BB8CFCF93DF937A
:1006B00090E0FC01EE57FB4F2491845C9B4FFC01C2
:1006C00084918823D1F090E0880F991FFC01E251BA
:1006D000FC4FA591B491FC01EE5DFB4FC591D49107
:1006E00061110EC09FB7F8948C91E22FE0958E2394
:1006F0008C932881E223E8839FBFDF91CF910895F7
:100700008FB7F894EC91E22BEC938FBFF6CF3FB705
:10071000F8948091570B9091580BA091590BB09180
:100720005A0B26B5A89B05C02F3F19F00196A11DB5
:10073000B11D3FBFBA2FA92F982F8827BC01CD012B
:10074000620F711D811D911D42E0660F771F881F8A
:10075000991F4A95D1F708958F929F92AF92BF92B9
:10076000CF92DF92EF92FF924B015C010E948703D0
:100770006B017C010E9487036C197D098E099F091A
:10078000683E734081059105A8F321E0821A910823
:10079000A108B10888EEC80E83E0D81EE11CF11C48
:1007A00081149104A104B10429F7FF90EF90DF9028
:1007B000CF90BF90AF909F908F9008952FB7F894EF
:1007C0006091530B7091540B8091550B9091560B87
:1007D0002FBF08952091810F3091820F281739077C
:1007E00071F490915B0B80915C0B981741F0E09154
:1007F0005B0BF0E0EE5EF44F808190E008958FEFA8
:100800009FEF08950895EF92FF920F931F93CF9358
:10081000DF93DC015C96ED90FC905D97E114F104B0
:1008200079F481E090E013969C938E93129790E078
:1008300080E0DF91CF911F910F91FF90EF9008958D
:100840005196ED91FC91529750968C915097982F1C
:1008500090950FB75E962C915E97122F127021FD26
:100860006095F8942081112319F1282B2083E7014A
:100870002197F1F728E0462F50E0308160FF1AC041
:10088000382B3083E7012197F1F7BA017595679509
:10089000215089F7112381F08081892380830FBF44
:1008A0005C968D919C910197F1F781E090E0C1CF2A
:1008B0002923DCCF3923E5CF9081892BEFCF2091FD
:1008C000810F3091820F2817390771F480915C0BEA
:1008D00020915B0B90E0805C9F4F821B910960E44C
:1008E00070E00E94F93A089590E080E00895209128
:1008F000810F3091820F28173907B9F490915B0B63
:1009000080915C0B981789F0E0915B0BF0E0EE5E54
:10091000F44F808120915B0B30E02F5F3F4F2F73AE
:10092000332720935B0B90E008958FEF9FEF08959E
:10093000CF93DF93DB01EA01FC01E25FF44F4081DA
:100940005CE0589F9001599F300D112447FF1CC057
:1009500011961C921E9280818F5F80838081A901F5
:10096000480F511D87FD5A9557FF03C080818C3079
:10097000ACF08D919C911197049680349C4938F18C
:100980008D919C91049625C08081A901480F511D2D
:1009900087FD5A9557FFDFCF8081DDCF8D919C91E8
:1009A0004081240F311D47FD3A95D901AA0FBB1F85
:1009B000A20FB31FA258B54F11962D913C91820FF3
:1009C000931F998388838081DF91CF91089580E47C
:1009D0009CE9998388838FEF8083F6CFFC01208187
:1009E0002EBD9B012150310941F051810DB407FE0C
:1009F000FDCF4EB55EBD4193F5CF61507109860FB5
:100A0000971F0DB407FEFDCF2EB5FC01208308957E
:100A1000E091840FF091850F80819091830F892B55
:100A200080830895E091840FF091850F90818091EB
:100A3000830F80958923808308958EBD00000DB4B7
:100A400007FEFDCF8EB50895AF92BF92CF92DF9291
:100A5000EF92FF920F931F93CF93DF9300D000D0BC
:100A60001F921F92CDB7DEB78C017B016A01809186
:100A7000870F8333E1F45801A40EB51EA016B1060A
:100A800009F46FC00E94120580EF0E941D05812F9E
:100A90000E941D05802F0E941D050F5F1F4FF7014B
:100AA00081917F010E941D050E940805E7CF5B012F
:100AB000A40EB51E8433C1F40E94120519830A8363
:100AC0008D2D80688B83CC8264E070E0CE0101962E
:100AD0000E94EE04AE14BF0409F441C0F7018191F5
:100AE0007F010E941D05F6CF0E9412050F3F1105E0
:100AF00009F028F419820A8384E08B830CC017FD67
:100B000017C019820A8333E0169507953A95E1F7E5
:100B1000007E0C600B8386E0C816D104A0F5F701B7
:100B2000DE011496EA15FB0599F081918D93FACFB9
:100B3000C80126E0969587952A95E1F7807E19836E
:100B40000A830115104C10F48461D7CF8C61D5CF86
:100B5000B6016D5F7F4FCE0101960E94EE040E94A8
:100B60000805C60128960FB6F894DEBF0FBECDBFAC
:100B7000DF91CF911F910F91FF90EF90DF90CF9079
:100B8000BF90AF90089563E070E0CE0101960E949F
:100B9000EE04F70181917F010E941D05AE14BF0490
:100BA000C1F7DDCFCF93DF931F92CDB7DEB7898337
:100BB00041E050E0BE016F5F7F4F90E080E00E9417
:100BC00024050F90DF91CF91089590E02091870F39
:100BD000233339F40C96982F990F990F990F80E0D1
:100BE00008954896F8CFDA01E091880FF0E0FE2FE3
:100BF000EE27E60FF71F90E0982F8827A901BD0187
:100C00008E0F9F1F0C942405CF93DF931F921F928A
:100C1000CDB7DEB779836A8322E030E0AE014F5F63
:100C20005F4F64E070E00E94F3050F900F90DF913A
:100C3000CF910895CF93DF931F92CDB7DEB7209168
:100C4000880F30E0322F2227260F371F90E0982F91
:100C50008827498341E050E0BE016F5F7F4F820FDC
:100C6000931F0E9424050F90DF91CF910895CF9399
:100C7000DF931F92CDB7DEB76983DC01ED91FC9164
:100C80000280F381E02D41E050E0BE016F5F7F4FB5
:100C900019950F90DF91CF910895FC01818D928D70
:100CA00008950895DF92EF92FF920F931F93CF93D1
:100CB000DF931F921F92CDB7DEB7FB01DC01579681
:100CC0001C921E9256972281211109C02381211165
:100CD00006C02481211103C02581222369F1411519
:100CE000510551F17A018F01FC01D08C80E591E032
:100CF0000E949A02A8014E5F5F4F24E030E06CE052
:100D000070E08D2D0E94F305F982EA8222E030E046
:100D1000AE014F5F5F4F60E170E08D2D0E94F305E3
:100D200081E090E00F900F90DF91CF911F910F9194
:100D3000FF90EF90DF90089580E0F3CFDC011D96E7
:100D40002C911D97222351F01E96ED91FC911F9737
:100D5000309721F01D961C920A9619940895FC0173
:100D60008485882339F0F89480858287148681E011
:100D7000858778940895FC0182819381681B790BA3
:100D8000DF01A60FB71F18968C911897082E000C3C
:100D9000990B4817190621F018964C9381E0848727
:100DA0006F3F7F4F51F48085082E000C990B581728
:100DB000190619F0508781E084870895DC01519667
:100DC0002C915197222351F05296ED91FC9153971B
:100DD000309721F051961C920C9619940895CF9358
:100DE000DF93DC0112968D919C911397FB01E81B18
:100DF000F90BED01CE0FDF1F8885082E000C990B33
:100E00004817190629F0488781E050968C9350972F
:100E10003196E330F10568F4EA0FFB1F8085082E58
:100E2000000C990B5817190621F0508781E0509655
:100E30008C93DF91CF910895DC0157962C915797B1
:100E4000222351F05896ED91FC915997309721F05B
:100E500057961C920F9619940895CF93DF93DC0157
:100E600012968D919C911397FB01E81BF90BED01F4
:100E7000CE0FDF1F8885082E000C990B4817190626
:100E800029F0488781E056968C9356973196E63044
:100E9000F10568F4EA0FFB1F8085082E000C990B02
:100EA0005817190621F0508781E056968C93DF91F0
:100EB000CF910895DC0155962C915597222351F03E
:100EC0005696ED91FC915797309721F055961C92CC
:100ED0000E9619940895CF93DF93DC0112968D91AD
:100EE0009C911397FB01E81BF90BED01CE0FDF1F5F
:100EF0008885082E000C990B4817190629F0488799
:100F000081E054968C9354973196E530F10568F45E
:100F1000EA0FFB1F8085082E000C990B5817190645
:100F200021F0508781E054968C93DF91CF91089502
:100F3000DC011F962C911F97222351F05096ED91C2
:100F4000FC915197309721F01F961C920B961994A3
:100F50000895CF93DF93DC0112968D919C911397A6
:100F6000FB01E81BF90BED01CE0FDF1F8885082E72
:100F7000000C990B4817190629F0488781E01E9646
:100F80008C931E973196E230F10568F4EA0FFB1F4F
:100F90008085082E000C990B5817190621F05087F0
:100FA00081E01E968C93DF91CF9108958091040289
:100FB000811104C08091030260E0811161E087E14A
:100FC0000C94CA02892B29F081E0809304020C94CE
:100FD000D60710920402FBCF019729F081E080939D
:100FE00003020C94D60710920302FBCF892B79F0F1
:100FF00081E08093020280910202811104C08091FD
:10100000030260E0811161E088E10C94CA02109251
:101010000202F1CF61E0892B09F460E086E10C94D3
:10102000CA02DC011A968C911A9780FF21C01E9685
:10103000ED91FC911F973097D9F0F89418968D9107
:101040009C9119971A962C911A972E7F1A962C9389
:101050001A9778941B962D913C911C978223932389
:101060001D962C9102C0969587952A95E2F71994C2
:101070000895FC018285811105C05187408785E074
:10108000828705C08085918584179507B1F70895FB
:1010900008950895FC01848595850895FC0184894F
:1010A0009589089523EA32E0FC0131832083FB0116
:1010B0004089518962897389FC0142835383648327
:1010C00075830895DC01ED91FC91048CF58DE02D84
:1010D000199490E080E00895CF92DF92EF92FF9212
:1010E0000F931F93CF93DF931F921F92CDB7DEB75D
:1010F00069834A83880F991F0091A5171091A6173D
:10110000000F111FEFE4F7E19F012F543741201723
:10111000310714F41192F8CF2981FC01E15BF84EFC
:1011200021838A81808360E08091A3170E94CA0294
:101130001016110604F501501109F801E15BF84E93
:10114000E080D090A117C0909F1788E0F82E6E2DF8
:10115000661F6627661F8C2D0E94CA02EE0C61E096
:101160008D2D0E94CA0260E08D2D0E94CA02FA9461
:10117000F110EDCFDDCF61E08091A3170F900F90BC
:10118000DF91CF911F910F91FF90EF90DF90CF9063
:101190000C94CA02E091A517F091A6178E179F072D
:1011A0002CF56830710511F148305105F9F0E0E88F
:1011B000F0E0DF0102C0B595A7954A95E2F7AD01D1
:1011C000FC0133E0EE0FFF1F3A95E1F7E60FF71F42
:1011D000E15BF84E3089222331F0432B408B6F5F67
:1011E00040890C946C0840954323F8CF0895CF9321
:1011F000C1E0892B09F4C0E02C2F50E040E064E00E
:1012000070E082E090E00E94CA082C2F41E050E09C
:1012100064E070E082E090E0CF910C94CA08CF9334
:10122000C1E0892B09F4C0E02C2F50E040E063E0DE
:1012300070E082E090E00E94CA082C2F41E050E06C
:1012400063E070E082E090E0CF910C94CA08CF9305
:10125000C1E0892B09F4C0E02C2F41E050E062E0AE
:1012600070E082E090E00E94CA082C2F42E050E03B
:1012700061E070E082E090E0CF910C94CA08CF93D7
:10128000C1E0892B09F4C0E02C2F42E050E070E06F
:1012900060E082E090E00E94CA082C2F42E050E01B
:1012A00062E070E082E090E0CF910C94CA08CF93A6
:1012B000C1E0892B09F4C0E02C2F50E040E065E04C
:1012C00070E082E090E00E94CA082C2F41E050E0DC
:1012D00065E070E082E090E0CF910C94CA08CF9373
:1012E000C1E0892B09F4C0E02C2F42E050E063E01C
:1012F00070E082E090E00E94CA082C2F42E050E0AB
:1013000064E070E082E090E0CF910C94CA0821E0A4
:10131000892B09F420E050E040E062E070E082E0D8
:1013200090E00C94CA0821E0892B09F420E050E0F9
:1013300040E061E070E082E090E00C94CA0821E0B7
:10134000892B09F420E041E050E061E070E082E0A8
:1013500090E00C94CA0821E0892B09F420E041E0D8
:1013600050E070E060E082E090E00C94CA0821E078
:10137000892B09F420E050E040E070E060E082E07A
:1013800090E00C94CA08CF93C1E0892B09F4C0E027
:101390002C2F42E050E070E060E083E090E00E949B
:1013A000CA082C2F43E050E070E060E083E090E05A
:1013B000CF910C94CA08CF93C1E0892B09F4C0E007
:1013C0002C2F44E050E070E060E083E090E00E9469
:1013D000CA082C2F45E050E070E060E083E090E028
:1013E000CF910C94CA08CF93C1E0892B09F4C0E0D7
:1013F0002C2F50E040E070E060E083E090E00E943D
:10140000CA082C2F41E050E070E060E083E090E0FB
:10141000CF910C94CA08CF93C1E0892B09F4C0E0A6
:101420002C2F42E050E062E070E083E090E00E9408
:10143000CA082C2F43E050E062E070E083E090E0C7
:10144000CF910C94CA08CF93C1E0892B09F4C0E076
:101450002C2F50E040E061E070E083E090E00E94DB
:10146000CA082C2F41E050E061E070E083E090E09A
:10147000CF910C94CA08CF93C1E0892B09F4C0E046
:101480002C2F50E040E062E070E083E090E00E94AA
:10149000CA082C2F41E050E062E070E083E090E069
:1014A000CF910C94CA08CF93C1E0892B09F4C0E016
:1014B0002C2F42E050E061E070E083E090E00E9479
:1014C000CA082C2F43E050E061E070E083E090E038
:1014D000CF910C94CA08CF93C1E0892B09F4C0E0E6
:1014E0002C2F50E040E063E070E083E090E00E9449
:1014F000CA082C2F41E050E063E070E083E090E008
:10150000CF910C94CA08CF93C1E0892B09F4C0E0B5
:101510002C2F42E050E063E070E083E090E00E9416
:10152000CA082C2F43E050E063E070E083E090E0D5
:10153000CF910C94CA08CF93C1E0892B09F4C0E085
:101540002C2F44E050E061E070E083E090E00E94E6
:10155000CA082C2F45E050E061E070E083E090E0A5
:10156000CF910C94CA08CF93C1E0892B09F4C0E055
:101570002C2F44E050E062E070E083E090E00E94B5
:10158000CA082C2F45E050E062E070E083E090E074
:10159000CF910C94CA08CF93C1E0892B09F4C0E025
:1015A0002C2F44E050E063E070E083E090E00E9484
:1015B000CA082C2F45E050E063E070E083E090E043
:1015C000CF910C94CA08CF93C1E0892B09F4C0E0F5
:1015D0002C2F46E050E061E070E090E080E00E9457
:1015E000CA082C2F46E050E062E070E090E080E016
:1015F0000E94CA082C2F47E050E061E070E090E0C4
:1016000080E00E94CA082C2F47E050E062E070E0C2
:1016100090E080E0CF910C94CA08CF93C1E0892B71
:1016200009F4C0E02C2F44E050E061E070E090E06D
:1016300080E00E94CA082C2F44E050E062E070E095
:1016400090E080E00E94CA082C2F45E050E061E065
:1016500070E090E080E00E94CA082C2F45E050E046
:1016600062E070E090E080E0CF910C94CA08CF93E4
:10167000C1E0892B09F4C0E02C2F42E050E070E07B
:1016800060E090E080E00E94CA082C2F43E050E028
:1016900070E060E090E080E0CF910C94CA08CF93B6
:1016A000C1E0892B09F4C0E02C2F50E040E070E04D
:1016B00060E090E080E00E94CA082C2F41E050E0FA
:1016C00070E060E090E080E0CF910C94CA08CF9386
:1016D000C1E0892B09F4C0E02C2F42E050E061E02A
:1016E00070E090E080E00E94CA082C2F43E050E0B8
:1016F00061E070E090E080E0CF910C94CA08CF9355
:10170000C1E0892B09F4C0E02C2F50E040E061E0FB
:1017100070E090E080E00E94CA082C2F41E050E089
:1017200061E070E090E080E0CF910C94CA08CF9324
:10173000C1E0892B09F4C0E02C2F42E050E062E0C8
:1017400070E090E080E00E94CA082C2F43E050E057
:1017500062E070E090E080E0CF910C94CA08CF93F3
:10176000C1E0892B09F4C0E02C2F50E040E062E09A
:1017700070E090E080E00E94CA082C2F41E050E029
:1017800062E070E090E080E0CF910C94CA08CF93C3
:10179000C1E0892B09F4C0E02C2F42E050E063E067
:1017A00070E090E080E00E94CA082C2F43E050E0F7
:1017B00063E070E090E080E0CF910C94CA08CF9392
:1017C000C1E0892B09F4C0E02C2F50E040E063E039
:1017D00070E090E080E00E94CA082C2F41E050E0C9
:1017E00063E070E090E080E0CF910C94CA08CF9362
:1017F000C1E0892B09F4C0E02C2F42E050E064E006
:1018000070E090E080E00E94CA082C2F43E050E096
:1018100064E070E090E080E0CF910C94CA08CF9330
:10182000C1E0892B09F4C0E02C2F50E040E064E0D7
:1018300070E090E080E00E94CA082C2F41E050E068
:1018400064E070E090E080E0CF910C94CA08CF9300
:10185000C1E0892B09F4C0E02C2F50E040E065E0A6
:1018600070E090E080E00E94CA082C2F41E050E038
:1018700065E070E090E080E0CF910C94CA08CF93CF
:10188000C1E0892B09F4C0E02C2F42E050E070E069
:1018900060E081E090E00E94CA082C2F43E050E015
:1018A00070E060E081E090E0CF910C94CA08CF93A3
:1018B000C1E0892B09F4C0E02C2F50E040E070E03B
:1018C00060E081E090E00E94CA082C2F41E050E0E7
:1018D00070E060E081E090E0CF910C94CA08CF9373
:1018E000C1E0892B09F4C0E02C2F50E040E061E01A
:1018F00070E081E090E00E94CA082C2F41E050E0A7
:1019000061E070E081E090E0CF910C94CA08CF9341
:10191000C1E0892B09F4C0E02C2F42E050E061E0E7
:1019200070E081E090E00E94CA082C2F43E050E074
:1019300061E070E081E090E0CF910C94CA08CF9311
:10194000C1E0892B09F4C0E02C2F50E040E062E0B8
:1019500070E081E090E00E94CA082C2F41E050E046
:1019600062E070E081E090E0CF910C94CA08CF93E0
:10197000C1E0892B09F4C0E02C2F42E050E062E086
:1019800070E081E090E00E94CA082C2F43E050E014
:1019900062E070E081E090E0CF910C94CA08CF93B0
:1019A000C1E0892B09F4C0E02C2F42E050E063E055
:1019B00070E081E090E00E94CA082C2F43E050E0E4
:1019C00063E070E081E090E0CF910C94CA08CF937F
:1019D000C1E0892B09F4C0E02C2F50E040E063E027
:1019E00070E081E090E00E94CA082C2F41E050E0B6
:1019F00063E070E081E090E0CF910C94CA08CF934F
:101A0000C1E0892B09F4C0E02C2F50E040E064E0F5
:101A100070E081E090E00E94CA082C2F41E050E085
:101A200064E070E081E090E0CF910C94CA08CF931D
:101A3000C1E0892B09F4C0E02C2F42E050E064E0C3
:101A400070E081E090E00E94CA082C2F43E050E053
:101A500064E070E081E090E0CF910C94CA08CF93ED
:101A6000C1E0892B09F4C0E02C2F50E040E065E094
:101A700070E081E090E00E94CA082C2F41E050E025
:101A800065E070E081E090E0CF910C94CA08CF93BC
:101A9000C1E0892B09F4C0E02C2F44E050E061E064
:101AA00070E081E090E00E94CA082C2F44E050E0F2
:101AB00062E070E081E090E00E94CA082C2F45E0CF
:101AC00050E061E070E081E090E00E94CA082C2FB5
:101AD00045E050E062E070E081E090E0CF910C944E
:101AE000CA08CF93C1E0892B09F4C0E02C2F46E04F
:101AF00050E061E070E081E090E00E94CA082C2F85
:101B000046E050E062E070E081E090E00E94CA08A8
:101B10002C2F47E050E061E070E081E090E00E940F
:101B2000CA082C2F47E050E062E070E081E090E0CE
:101B3000CF910C94CA0821E0892B09F420E050E0F1
:101B400040E070E060E085E090E00C94CA0821E09D
:101B5000892B09F420E041E050E070E060E085E08E
:101B600090E00C94CA0821E0892B09F420E042E0BF
:101B700050E070E060E085E090E00C94CA0821E05D
:101B8000892B09F420E043E050E070E060E085E05C
:101B900090E00C94CA08CF93C1E0892B09F4C0E00F
:101BA0002C2F44E050E070E060E085E090E00E947F
:101BB000CA082C2F44E050E061E070E085E090E03E
:101BC000CF910C94CA0821E0892B09F420E050E061
:101BD00040E061E070E085E090E00C94CA0821E00C
:101BE000892B09F420E041E050E061E070E085E0FD
:101BF00090E00C94CA0821E0892B09F420E042E02F
:101C000050E061E070E085E090E00C94CA0821E0CB
:101C1000892B09F420E043E050E061E070E085E0CA
:101C200090E00C94CA0821E0892B09F420E043E0FD
:101C300050E065E070E090E080E00C94CA0821E09C
:101C4000892B09F420E042E050E065E070E090E08C
:101C500080E00C94CA08CF93C1E0892B09F4C0E05E
:101C60002C2F41E050E065E070E083E090E00E94BE
:101C7000CA082C2F50E040E065E070E083E090E07F
:101C8000CF910C94CA0821E0892B09F420E050E0A0
:101C900040E066E070E083E090E00C94CA0821E048
:101CA000892B09F420E041E050E066E070E083E039
:101CB00090E00C94CA0821E0892B09F420E041E06F
:101CC00050E070E060E084E090E00C94CA0821E00D
:101CD000892B09F420E041E050E061E070E084E00D
:101CE00090E00C94CA0821E0892B09F420E050E030
:101CF00040E061E070E084E090E00C94CA08CF938B
:101D0000C1E0892B09F4C0E02C2F42E050E065E0EF
:101D100070E083E090E00E94CA082C2F44E050E07D
:101D200065E070E083E090E0CF910C94CA08CF9317
:101D3000C1E0892B09F4C0E02C2F43E050E066E0BD
:101D400070E083E090E00E94CA082C2F44E050E04D
:101D500066E070E083E090E0CF910C94CA08CF93E6
:101D6000C1E0892B09F4C0E02C2F43E050E065E08E
:101D700070E083E090E00E94CA082C2F42E050E01F
:101D800066E070E083E090E0CF910C94CA08EF9297
:101D9000FF920F931F93CF93DF93D0E0C0E010E04A
:101DA00000E0F12CE12C20E0A701B801CE010E9457
:101DB000CA088FEFE81AF80A88E0E816F10499F7E4
:101DC0000F5F1F4F0830110561F72196C930D1050B
:101DD00031F7DF91CF911F910F91FF90EF90089510
:101DE000EF92FF920F931F93CF93DF93D0E0C0E069
:101DF00010E000E0F12CE12C21E0A701B801CE01B8
:101E00000E94CA088FEFE81AF80A88E0E816F10481
:101E100099F70F5F1F4F0830110561F72196C93000
:101E2000D10531F7DF91CF911F910F91FF90EF9086
:101E30000895FC01808121E08A3309F020E044E02C
:101E400050E065E070E090E080E00C94CA08FC018E
:101E500080818A3391F421E047E050E063E070E054
:101E600090E080E00E94CA0821E047E050E064E092
:101E700070E090E080E00C94CA0820E047E050E079
:101E800063E070E090E080E00E94CA0820E0EDCFBF
:101E9000FC0180818A3391F421E046E050E064E067
:101EA00070E090E080E00E94CA0821E046E050E047
:101EB00063E070E090E080E00C94CA0820E046E027
:101EC00050E064E070E090E080E00E94CA0820E00A
:101ED000EDCFFC0180818A3391F421E045E050E0B0
:101EE00064E070E090E080E00E94CA0821E045E0F4
:101EF00050E063E070E090E080E00C94CA0820E0DD
:101F000045E050E064E070E090E080E00E94CA08A4
:101F100020E0EDCFFC0180818A3391F421E044E0A0
:101F200050E064E070E090E080E00E94CA0821E0A8
:101F300044E050E063E070E090E080E00C94CA0878
:101F400020E044E050E064E070E090E080E00E9437
:101F5000CA0820E0EDCF2091A5173091A61782176F
:101F600093073CF46031710520F4462F6AE00C942D
:101F70006C0808950F931F93CF93DF938C01D0E0EB
:101F8000C0E080910F0290911002C817D90734F475
:101F9000B801CE010E94AB0F2196F3CFDF91CF9114
:101FA0001F910F910895EF92FF920F931F93CF937C
:101FB0007C018C0183E0000F111F8A95E1F7015A23
:101FC000184EC1E0F80111928F0140E06C2FC7015B
:101FD0000E946C08CF5FC930A9F7CF911F910F9174
:101FE000FF90EF900895AF92BF92CF92DF92EF9261
:101FF000FF920F931F93CF93DF9300D01F92CDB723
:10200000DEB78C016B017A018091870F8333E9F48D
:102010005B016801C40ED51EC016D106A9F10E944D
:1020200012058FE00E941D05812F0E941D05802F43
:102030000E941D050F5F1F4F80E00E941D05F501E6
:1020400081935F010E940805E7CF843369F50E9400
:10205000120519830A838F2D8F778B83EC8264E0BE
:1020600070E0CE0101960E94EE04A70170E060E0EE
:10207000C6010E94383DE114F10421F0B701C60108
:102080000E94EE040E940805C7010F900F900F9068
:102090000F90DF91CF911F910F91FF90EF90DF9004
:1020A000CF90BF90AF9008950E9412050F3F110589
:1020B00009F030F419820A831B8263E070E0D1CF0B
:1020C00017FD0BC019820A8333E0169507953A95E0
:1020D000E1F7007E08600B83F0CFC80126E09695FB
:1020E00087952A95E1F7807E19830A830115104CA4
:1020F00018F480618B83E1CF8861FCCFCF93DF93AD
:102100001F92CDB7DEB72091880F30E0322F222703
:10211000260F371F90E0982F882741E050E0BE013E
:102120006F5F7F4F820F931F0E94F30F89810F9083
:10213000DF91CF910895CF93C82F462F61E070E0D3
:102140000E941A0661E070E08C2F0E947E108111BF
:10215000F9CFCF910895CF93C82F80E591E00E94E9
:102160009A0260E170E08C2FCF910C949B10CF937A
:10217000DF93EC01888D883020F40E94AB1088E05A
:10218000888FDF91CF910895CF93FC01C08D80E5BA
:1021900091E00E949A0260E270E08C2F0E949B10F6
:1021A00062E070E08C2F0E947E1084FD16C062E019
:1021B00070E08C2F0E947E1083FF0AC048E162E02D
:1021C00070E08C2F0E941A0680E090E0CF91089575
:1021D00080E591E00E949A02E3CF40E162E070E086
:1021E0008C2F0E941A0681E0F0CFCF93DF931F92CD
:1021F000CDB7DEB741E050E0BE016F5F7F4F90E0AA
:1022000080E00E94F30F89810F90DF91CF910895B4
:10221000CF93DF93C4E1D0E00E94F510882361F0F2
:1022200061E070E080E090E00E94AC032197A1F7AC
:1022300080E0DF91CF91089581E0FBCFCF92DF92D4
:10224000EF92FF920F931F93CF93DF93CDB7DEB73B
:10225000C454D1090FB6F894DEBF0FBECDBFFC0148
:1022600082819381A481B58123968CAF9DAFAEAF5F
:10227000BFAF239721E023962FAF239723964CAD32
:102280005DAD6EAD7FAD23974BAB5CAB6DAB7EAB05
:1022900089AF9AAFABAFBCAF8DA79EA7AFA7B8ABC6
:1022A00028AB4DA55EA56FA578A94FA358A769A730
:1022B0007AA72EAB4BA95CA96DA97EA949A35AA305
:1022C0006BA37CA38B8F9C8FAD8FBE8F43EA52E0B4
:1022D0005C8B4B8B3FEF3D8B3E8B3F8B188E5E872D
:1022E0004D872AA7CFA0D8A4E9A4FAA4CF86D88A7C
:1022F000E98AFA8A2CA309A11AA12BA13CA109877A
:102300001A872B873C875A8349838B839C83AD83B1
:10231000BE838091890F81119DC060E372E080E0EF
:1023200090E00E94AC031FB7F8948091860F811152
:1023300027C0E1E7F4E08491E7EBF4E09491E82F23
:10234000F0E0EE0FFF1FE251FC4FA591B491EC912C
:10235000E92321F461E085E30E94CA0261E085E39C
:102360000E9456038CB580618CBD8CB580648CBD99
:1023700061E084E30E94560361E083E30E94560318
:102380008091860F8F5F8093860F1FBFE6E4F4E095
:10239000E491F0E0EE0FFF1FEE5DFB4F859194910D
:1023A0009093850F8093840FECE8F4E0E491E09340
:1023B000830F61E08AE00E9456030E94080580E5D1
:1023C00091E00E949A0284E38093870F80E80E9444
:1023D000D2050E940811882309F472C088E00E9487
:1023E000D2050E94F510883009F06AC080E10E9491
:1023F000D2050E94F510803109F062C080E00E9491
:10240000D2050E94F510182F81115AC041E050E00A
:10241000BE016D5B7F4F8FE190E00E94F30F249629
:102420008FAD2497833009F04BC080E48093880FF0
:1024300042E06EE170E0812F0E941A0642E06FE1F7
:1024400070E0812F0E941A061F5F183089F781E023
:102450008093890F80E591E00E949A0246E050E067
:1024600069E072E089E090E00E94240544E050E0D9
:10247000BE016D5F7F4F8FE090E00E94240544E035
:1024800050E0BE01615F7F4F81E090E00E94240533
:1024900044E050E0BE016B5E7F4F85E090E00E941B
:1024A000240581E08C8789859A85AB85BC858093DE
:1024B000AA0F9093AB0FA093AC0FB093AD0F6FC06A
:1024C00087E38093870F80E80E94D2050E9408115D
:1024D000882339F188E00E94D2050E94F5108830E7
:1024E00001F580E10E94D2050E94F510182F80317D
:1024F000C1F480E00E94D2050E94F510811111C044
:1025000041E050E0BE016D5B7F4F89E390E00E94A7
:10251000F30F24968FAD2497843019F41093880F0D
:1025200096CF83E38093870F80E80E94D2050E94B4
:102530000811882391F180E10E94D2050E94F510D4
:10254000803159F582E10E94D2050E94F510823156
:1025500021F580E00E94D2050E94F51081111DC076
:1025600084E08093880F15E525961FAF259741E0FD
:1025700050E0BE016C5B7F4F8BE190E00E94240530
:1025800024961FAF249741E050E0BE016D5B7F4F62
:102590008AE190E00E9424055ACF1092870FCC5B0D
:1025A000DF4F0FB6F894DEBF0FBECDBFDF91CF91E6
:1025B0001F910F91FF90EF90DF90CF9008951F93A0
:1025C000CF93DF931F92CDB7DEB7FC01108D18308B
:1025D00020F5818D928D892B01F180E591E00E949B
:1025E0009A02812F0E94E50527E0129FF001112435
:1025F000E75BF04F22813381377041E050E0BE014C
:102600006F5F7F4F820F931F0E94F30F898190E0CD
:102610000F90DF91CF911F9108958FEF9FEFF8CF2B
:10262000DA01E091880FF0E0FE2FEE27E60FF71FAA
:1026300090E0982F8827A901BD018E0F9F1F0C9451
:10264000F30F8F929F92AF92BF92CF92DF92EF9251
:10265000FF920F931F93CF93DF93CDB7DEB76097B1
:102660000FB6F894DEBF0FBECDBF7C019091870FEF
:10267000911115C018E0812F60960FB6F894DEBF57
:102680000FBECDBFDF91CF911F910F91FF90EF90C3
:10269000DF90CF90BF90AF909F908F90089508E00B
:1026A000933309F404E06B0180E591E00E949A0203
:1026B0009E012F5F3F4F5901490110E063E070E038
:1026C000812F0E947E10F40181934F018823C1F075
:1026D0001F5F0113F3CF00E0F50181915F018D31A0
:1026E00049F0883139F08A51823020F00F5F1013A1
:1026F000F3CFC0CF60E170E0802F0E949B10102FBD
:10270000A12EB12C83EE93E00197F1F742E870E03F
:1027100060E0812F0E941A064FEF62E070E0812F87
:102720000E941A06B601C114D10491F480910702E7
:102730009091080201968115F0EC9F0708F464C09F
:10274000909308028093070260910702709108023B
:10275000812F0E94040686E0E7E1F2E0DE0119968F
:1027600001900D928A95E1F7F70183818F778C872D
:1027700084818D8785818E87A7014E5F5F4F24E01E
:1027800030E06CE070E0812F0E94F305DF86C88A9C
:1027900022E030E0AE01415F5F4F60E170E0812FE9
:1027A0000E94F30526E030E0AE01475F5F4F66E030
:1027B00070E0812F0E94F30561E070E0812F0E949C
:1027C0009B1027E02A9DC0012B9D900D11249C0198
:1027D000275B304F7901F9011182108222E030E04D
:1027E000AE01415F5F4F68E270E0812F0E941013DD
:1027F0008F859889982789279827F7019383828363
:1028000016821582148237CF80E090EC99CFCF9258
:10281000DF92EF92FF920F931F93CF93DF9300D03D
:1028200000D0CDB7DEB78C016B017A01FC01808D41
:10283000883010F40E94AB1083EA92E09A83898377
:10284000F60182819381A481B5818B839C83AD83C2
:10285000BE83B701CE0101960E942113F801808F3B
:102860008830A0F4F586E486128E118E81E02696DB
:102870000FB6F894DEBF0FBECDBFDF91CF911F9191
:102880000F91FF90EF90DF90CF90089580E0EFCF11
:10289000FF920F931F93CF93DF931F921F92CDB799
:1028A000DEB7F82E22E030E0AE014F5F5F4F66E208
:1028B00070E00E94101309811A8110270127102748
:1028C00022E030E0AE014F5F5F4F66E270E08F2D97
:1028D0000E94101389819A819827892798270817C1
:1028E000190749F4C8010F900F90DF91CF911F9104
:1028F0000F91FF9008958C01E3CF4F925F927F92EA
:102900008F929F92AF92BF92CF92DF92EF92FF92FF
:102910000F931F93CF93DF931F921F92CDB7DEB714
:10292000782E6B014A01A82EB12C27E0829FC001AE
:102930001124FC01E75BF04F7F010081118180E5EC
:1029400091E00E949A020815190554F4872D0E94FF
:102950004814F70126818C01021B110911830083A1
:102960000115110529F563E070E0872D0E947E10A6
:10297000843159F0882349F001E010E08C3111F4E2
:1029800010E000E0119501951109C8010F900F901A
:10299000DF91CF911F910F91FF90EF90DF90CF903B
:1029A000BF90AF909F908F907F905F904F900895D1
:1029B000801691060CF4840187E08A9DF0018B9DBE
:1029C000F00D1124E75BF04FE280F380C114D104D5
:1029D00051F12701F7E05F22872D0E94E505840D64
:1029E000951D2091870F273309F453C09801240DBA
:1029F000351D2130384008F44CC020E038E0490152
:102A000084189508A401B6010E94F30F2601480C12
:102A1000591C6801C818D908872D0E94E505A60130
:102A2000B2010E94F30FE00EF11E87E08A9DF001D3
:102A30008B9DF00D1124E75BF04FF382E282208141
:102A40003181201B310B318320838681800F912FB0
:102A5000911D8A3F910510F4232BF1F487E08A9DA4
:102A6000F0018B9DF00D1124E75BF04F1682F98287
:102A7000EA8222E030E0AE014F5F5F4F68E270E033
:102A8000872D0E94F30560E470E0872D0E949B1063
:102A90007CCFA801B601C5CF868377CFCF93DF93D4
:102AA000FC01218D328D2115310529F48FEF9FEF27
:102AB000DF91CF910895EC01808D4217530708F004
:102AC000A9010E947D141816190684F7298D3A8DE4
:102AD000281B390B3A8F298FEBCF0F931F93CF937E
:102AE000DF931F92CDB7DEB7FC01218D328D232BF2
:102AF00041F48FEF9FEF0F90DF91CF911F910F91D6
:102B000008958C0141E050E0BE016F5F7F4FFC01F2
:102B1000808D0E947D14181619065CF7F801818DCE
:102B2000928D0197928F818F898190E0E4CF3F92BF
:102B30004F925F926F927F928F929F92AF92BF92CD
:102B4000CF92DF92EF92FF920F931F93CF93DF9379
:102B50001F921F92CDB7DEB75C014B01342E452E7C
:102B6000FC0166887788508C80E591E00E949A028B
:102B700022E030E0AE014F5F5F4F60E270E0852DF4
:102B80000E941013C980DA80DC24CD24DC2422E0EA
:102B900030E0AE014F5F5F4F60E270E0852D0E9434
:102BA000101389819A81982789279827C816D906F2
:102BB00009F079C0E52CF12C67E0569EF001112454
:102BC000E75BF04FD582C482032D142DC016D106C9
:102BD00008F4860122E030E0AE014F5F5F4F64E20F
:102BE00070E0852D0E94101389819A81982789278A
:102BF0009827680E791E930137704091870F4333F1
:102C000009F053C088E0E80EF11CFE2CEE24FF0C06
:102C1000FF0CFF0CC9018E0D9F1D473309F449C0FD
:102C2000A901400F511F4130584008F442C060E0F4
:102C300078E06B01C21AD30AA601B4010E942405F0
:102C4000A8014C195D09B4016C0D7D1DC7010E94DE
:102C50002405600E711E79826A8222E030E0AE01A6
:102C60004F5F5F4F64E270E0852D0E94F305F50130
:102C700086899789800F911F978B868BC8010F904B
:102C80000F90DF91CF911F910F91FF90EF90DF9008
:102C9000CF90BF90AF909F908F907F906F905F90FC
:102CA0004F903F9008956C0172CFE0E1EE0EF11C61
:102CB000ACCFA801B401CBCF8F929F92AF92BF92BD
:102CC000CF92DF92EF92FF920F931F93CF93DF93F8
:102CD00000D000D000D01F92CDB7DEB76C015B01F1
:102CE000FC01808D883010F40E94AB108091870F1A
:102CF000811117C088E0F601808F80E02A960FB618
:102D0000F894DEBF0FBECDBFDF91CF911F910F9121
:102D1000FF90EF90DF90CF90BF90AF909F908F90FB
:102D2000089508E0833309F404E080E591E00E940F
:102D30009A029E012F5F3F4F4901790110E063E045
:102D400070E0812F0E947E10F70181937F0188231C
:102D5000C1F01F5F0113F3CFF12CF40181914F01FA
:102D60008D3149F0883139F08A51823020F0F39466
:102D70001F11F3CFBFCF60E170E08F2D0E949B1039
:102D80001F2DE12EF12C83EE93E00197F1F742E045
:102D900070E060E0812F0E941A064FEF62E070E061
:102DA000812F0E941A06B501A114B10489F4809103
:102DB00007029091080201968115F0EC9F07D0F16F
:102DC00090930802809307026091070270910802B5
:102DD000812F0E94040661E070E0812F0E949B1009
:102DE00027E02E9DC0012F9D900D11249C01275B93
:102DF000304F7901F9011182108222E030E0AE01FA
:102E0000475F5F4F68E270E0812F0E941013898551
:102E10009A85982789279827F701938382831682BA
:102E200015821482F601108FB586A486128E118E3B
:102E300081E064CF80E090ECC3CFFB0101900020E3
:102E4000E9F73197AF01461B570BDC01ED91FC917F
:102E50000280F381E02D1994CF93DF93FC0144812C
:102E600055816081718185EF97E10E949715EC0192
:102E70006FEA72E085EF97E10E941D178C0F9D1F8E
:102E8000DF91CF9108956115710511F00C941D1714
:102E900090E080E00895BC0180E792E10C94431734
:102EA000CF93DF93EC0182EB92E00E944B17CE01AF
:102EB0000E944B178BE395E00E944B176CEB72E07E
:102EC00080E792E1DF91CF910C944317CF93DF938A
:102ED000EC0180EC92E00E944B17CE010E944B1750
:102EE0008BE395E00E944B176CEB72E080E792E178
:102EF000DF91CF910C944317CF93DF93EC018AECD1
:102F000092E00E944B17CE010E944B178BE395E095
:102F10000E944B176CEB72E080E792E1DF91CF915A
:102F20000C944317CF93DF93EC0184ED92E00E9461
:102F30004B17CE010E944B178BE395E00E944B1775
:102F40006CEB72E080E792E1DF91CF910C94431734
:102F5000CF93DF93EC018EED92E00E944B17CE01F0
:102F60000E944B178BE395E00E944B176CEB72E0CD
:102F700080E792E1DF91CF910C944317CF93DF93D9
:102F8000EC0188EE92E00E944B17CE010E944B1795
:102F90008BE395E00E944B176CEB72E080E792E1C7
:102FA000DF91CF910C944317CF93DF93EC0182EF25
:102FB00092E00E944B17CE010E944B178BE395E0E5
:102FC0000E944B176CEB72E080E792E1DF91CF91AA
:102FD0000C944317CF93DF93EC018CEF92E00E94A7
:102FE0004B17CE010E944B178BE395E00E944B17C5
:102FF0006CEB72E080E792E1DF91CF910C94431784
:10300000CF93DF93EC0186E093E00E944B17CE0153
:103010000E944B178BE395E00E944B176CEB72E01C
:1030200080E792E1DF91CF910C944317CF93DF9328
:10303000EC0163E37AE00E943F3D892BC1F580E11A
:1030400093E00E944B178AE193E00E944B178BE3B9
:1030500095E00E944B176CEB72E080E792E10E94D2
:10306000431780E293E00E944B1789E393E00E94AC
:103070004B178BE395E00E944B176CEB72E080E7F7
:1030800092E10E9443178AE293E00E944B1789E382
:1030900093E00E944B178BE395E00E944B176CEB7B
:1030A00072E080E792E1DF91CF910C94431760EBDF
:1030B00075E0CE010E943F3D892BD9F58091780AB9
:1030C0009091790A8130910539F480E193E00E9472
:1030D0004B1784E393E0B9CF892B59F580E193E056
:1030E0000E944B1784E393E00E944B178BE395E01B
:1030F0000E944B176CEB72E080E792E10E9443174D
:1031000080E293E00E944B178EE895E00E944B17F7
:103110008BE395E00E944B176CEB72E080E792E145
:103120000E9443178AE293E00E944B178BE393E0DF
:10313000B0CFDF91CF910895CF93DF93EC018881D9
:10314000803201F18DE393E00E944B17CE010E9483
:103150004B178BE395E00E944B176CEB72E080E716
:1031600092E10E944317CE010E944B178BE395E03A
:103170000E944B176CEB72E080E792E1DF91CF91F8
:103180000C9443178DE393E00E944B17ECCF9C0106
:10319000A4E6B0E00E94EA3A2FEF3FEF40E050E0B3
:1031A0000E94A93A80917C0A90917D0A029709F4C5
:1031B00042C02C333105ECF483E793E02233310530
:1031C00094F52E3131056CF488E593E02431310516
:1031D00054F58FE493E02A3031052CF586E493E032
:1031E00022C08AE693E028323105ECF481E693E0D0
:1031F0001AC02A3531056CF48EE893E0203531058C
:1032000094F485E893E0263431056CF48CE793E080
:103210000AC087E993E0203631052CF080EA93E07C
:1032200025363105DCF60E944B176CEB72E080E727
:1032300092E10C9443172C333105ECF48CED93E0C0
:103240002233310584F72E3131056CF48EEB93E097
:103250002431310544F784EB93E02A3031051CF723
:103260008AEA93E0E0CF82ED93E028323105DCF684
:1032700088EC93E0D8CF2A3531056CF48AEF93E0DF
:103280002035310584F680EF93E0263431055CF675
:1032900086EE93E0C8CF84E094E0203631051CF23E
:1032A0008EE094E0253631050CF4BDCFD9CF9C01DA
:1032B000A4E6B0E00E94EA3A2FEF3FEF40E050E092
:1032C0000E94A93A80917C0A90917D0A029709F4A4
:1032D00042C02C333105ECF48AE494E0223331050A
:1032E00094F52E3131056CF48CE294E024313105F3
:1032F00054F582E294E02A3031052CF588E194E01F
:1033000022C080E494E028323105ECF486E394E0B6
:103310001AC02A3531056CF488E694E02035310571
:1033200094F48EE594E0263431056CF484E594E061
:103330000AC082E794E0203631052CF08CE794E057
:1033400025363105DCF60E944B176CEB72E080E706
:1033500092E10C9443172C333105ECF488EB94E0A4
:103360002233310584F72E3131056CF48AE994E07B
:103370002431310544F780E994E02A3031051CF707
:1033800086E894E0E0CF8EEA94E028323105DCF65E
:1033900084EA94E0D8CF2A3531056CF486ED94E0C8
:1033A0002035310584F68CEC94E0263431055CF64A
:1033B00082EC94E0C8CF80EE94E0203631051CF218
:1033C0008AEE94E0253631050CF4BDCFD9CF8F922B
:1033D0009F92AF92BF92EF92FF920F931F93CF9362
:1033E000DF93CDB7DEB7A1970FB6F894DEBF0FBE5F
:1033F000CDBF7C01FA01CB0119A2223008F42AE0EA
:103400008E010F5D1F4F822E912CB12CA12CBF017C
:10341000A50194010E94C83AF901CA016A30ECF48E
:10342000605DD8016E938D01232B242B252B79F71A
:10343000BD01C7010E944317A1960FB6F894DEBFE5
:103440000FBECDBFDF91CF911F910F91FF90EF90F5
:10345000BF90AF909F908F900895695CE2CFCF921C
:10346000DF92EF92FF92CF93DF936C01990FEE08FA
:10347000FF08F7FE1BC06DE280E792E10E940304A3
:10348000EC0144275527BA014C195D096E097F09E3
:103490002AE080E792E10E94E7198C0F9D1FDF91DF
:1034A000CF91FF90EF90DF90CF9008952AE0B70181
:1034B000A60180E792E1DF91CF91FF90EF90DF903E
:1034C000CF900C94E7190E94EB397093670A6093D0
:1034D000660A84EF94E00E944B178091660A9091EF
:1034E000670A0E942F1A8BE395E00E944B176CEB42
:1034F00072E080E792E10C9443170E94EB397093DD
:10350000690A6093680A8DEF94E00E944B178091DE
:10351000680A9091690A0E942F1A8BE395E00E9435
:103520004B176CEB72E080E792E10C9443170E941A
:10353000EB3970936B0A60936A0A86E095E00E940B
:103540004B1780916A0A90916B0A0E942F1A8BE3A5
:1035500095E00E944B176CEB72E080E792E10C94CF
:1035600043170E94EB3970936D0A60936C0A8DE3E8
:1035700093E00E944B1780916C0A90916D0A0E9413
:103580002F1A8BE395E00E944B176CEB72E080E7FB
:1035900092E10C9443170E94EB3970936F0A609389
:1035A0006E0A8FE095E00E944B1780916E0A909111
:1035B0006F0A0E942F1A8BE395E00E944B176CEB69
:1035C00072E080E792E10C9443170E94EB3970930C
:1035D000710A6093700A88E195E00E944B17809110
:1035E000700A9091710A0E942F1A8BE395E00E9455
:1035F0004B176CEB72E080E792E10C9443170E944A
:10360000EB397093730A6093720A81E295E00E942D
:103610004B178091720A9091730A0E942F1A8BE3C4
:1036200095E00E944B176CEB72E080E792E10C94FE
:1036300043170E94EB397093750A6093740A8AE20B
:1036400095E00E944B178091740A9091750A0E9430
:103650002F1A8BE395E00E944B176CEB72E080E72A
:1036600092E10C9443170E94EB397093770A6093B0
:10367000760A83E395E00E944B178091760A909139
:10368000770A0E942F1A8BE395E00E944B176CEB90
:1036900072E080E792E10C944317CF92DF92EF92B1
:1036A000FF920E94EB396B018DE395E00E944B176E
:1036B000C6010E942F1A8BE395E00E944B176CEB1A
:1036C00072E080E792E1FF90EF90DF90CF900C9452
:1036D00043178F929F92AF92BF92CF92DF92EF9259
:1036E000FF920F931F93CF93DF937C01EB016C014B
:1036F00082E0C80ED11C4701E5E08E0E911C10E05F
:1037000000E0F60141916F0150E070E060E02AE0D6
:10371000CE010E94E7195C01E881F9810190F081F6
:10372000E02D6EE2CE0119958A0D9B1D080F191F21
:10373000C814D90431F7F701458150E070E060E02A
:103740002AE0CE010E94E719800F911FDF91CF91EF
:103750001F910F91FF90EF90DF90CF90BF90AF90AF
:103760009F908F9008950F931F93CF93DF93EC0159
:103770000E9443178C016FEA72E0CE010E941D1770
:10378000800F911FDF91CF911F910F91089563E3F7
:103790007AE00E943F3D892BA1F486E493E00E94E9
:1037A0004B176CEB72E080E792E10E94431788E1CF
:1037B00094E00E944B176CEB72E080E792E10C946E
:1037C000431787E495E00E944B176CEB72E080E7AB
:1037D00092E10E94431781E595E00E944B176CEB44
:1037E00072E080E792E10E94431784EF94E00E9428
:1037F0004B1781EB92E00E944B178BE395E00E9400
:103800004B176CEB72E080E792E10E9443178DEF5B
:1038100094E00E944B1781EB92E00E944B178BE3E0
:1038200095E00E944B176CEB72E080E792E10E94FA
:1038300043178DE393E00E944B1781EB92E00E94C7
:103840004B178BE395E00E944B176CEB72E080E71F
:1038500092E10E94431786E095E00E944B1781EBAE
:1038600092E00E944B178BE395E00E944B176CEBA4
:1038700072E080E792E10E9443178FE095E00E949A
:103880004B1781EB92E00E944B178BE395E00E946F
:103890004B176CEB72E080E792E10E94431788E1DE
:1038A00095E00E944B1781EB92E00E944B178BE34F
:1038B00095E00E944B176CEB72E080E792E10E946A
:1038C00043178AE295E00E944B1781EB92E00E9439
:1038D0004B178BE395E00E944B176CEB72E080E78F
:1038E00092E10E94431781E295E00E944B1781EB21
:1038F00092E00E944B178BE395E00E944B176CEB14
:1039000072E080E792E10E94431781E295E00E9415
:103910004B1781EB92E00E944B178BE395E00E94DE
:103920004B176CEB72E080E792E10E94431783E350
:1039300095E00E944B1781EB92E00E944B178BE3BE
:1039400095E00E944B176CEB72E080E792E10E94D9
:1039500043178DE395E00E944B1781EB92E00E94A4
:103960004B178BE395E00E944B176CEB72E080E7FE
:1039700092E10E94431780E293E00E944B1781EB93
:1039800092E00E944B178BE395E00E944B176CEB83
:1039900072E080E792E10E9443178AE293E00E947E
:1039A0004B1781EB92E00E944B178BE395E001CF20
:1039B000CF93DF93EC0163E37AE00E943F3D892BD4
:1039C000A1F48BE595E00E944B178CE995E00E94ED
:1039D0004B178BE395E00E944B176CEB72E080E78E
:1039E00092E1DF91CF910C94431760EB75E0CE012B
:1039F0000E943F3D892B39F48BE595E00E944B17DF
:103A000089E393E0E4CFDF91CF910895CF93DF93E3
:103A1000EC0163E37AE00E943F3D892BA1F485E647
:103A200095E00E944B178FE695E00E944B178BE3C1
:103A300095E00E944B176CEB72E080E792E1DF911A
:103A4000CF910C94431760EB75E0CE010E943F3D8F
:103A5000892B39F485E695E00E944B1784E393E0C7
:103A6000E4CFDF91CF910895CF93DF93EC0163E32F
:103A70007AE00E943F3D892BA1F484E795E00E9403
:103A80004B178EE795E00E944B178BE395E00E9461
:103A90004B176CEB72E080E792E1DF91CF910C94D1
:103AA000431760EB75E0CE010E943F3D892B39F44E
:103AB00084E795E00E944B1784E393E0E4CFDF9125
:103AC000CF910895CF93DF93EC0163E37AE00E94F6
:103AD0003F3D892B31F582E895E00E944B178CE839
:103AE00095E00E944B178BE395E00E944B176CEB1F
:103AF00072E080E792E10E94431780E995E00E941E
:103B00004B178AE995E00E944B178BE395E00E94E2
:103B10004B176CEB72E080E792E1DF91CF910C9450
:103B2000431760EB75E0CE010E943F3D892BC9F43D
:103B300082E895E00E944B1786E393E00E944B17C2
:103B40008BE395E00E944B176CEB72E080E792E10B
:103B50000E94431780E995E00E944B1786E393E0AB
:103B6000D2CFDF91CF910895CF93DF93EC0163E340
:103B70007AE00E943F3D892BE1F48EE995E00E94B6
:103B80004B1768EA75E080E792E10E94B31B6DEA8B
:103B900075E080E792E10E94B31B8BE395E00E9401
:103BA0004B176CEB72E080E792E1DF91CF910C94C0
:103BB000431760EB75E0CE010E943F3D892B69F40D
:103BC0008EE995E00E944B1769E373E080E792E18C
:103BD0000E94B31B69E373E0DCCFDF91CF910895BE
:103BE000CF93DF93EC018881833509F050C086E0E4
:103BF00095E00E944B17CE010E944B178BE395E096
:103C00000E944B176CEB72E080E792E10E94431731
:103C10008FE095E00E944B1789E393E00E944B17D9
:103C20008BE395E00E944B176CEB72E080E792E12A
:103C30000E94431788E195E00E944B1789E393E0C7
:103C40000E944B178BE395E00E944B176CEB72E0E0
:103C500080E792E10E94431783E395E00E944B17AF
:103C600089E393E00E944B178BE395E00E944B178A
:103C70006CEB72E080E792E10E94431781E090E0F4
:103C80009093790A8093780ADF91CF91089586E026
:103C900095E00E944B17CE010E944B178BE395E0F5
:103CA0000E944B176CEB72E080E792E10E94431791
:103CB0001092790A1092780AE7CFCF93DF93EC0144
:103CC0008A81803299F482EB95E00E944B17CE01F5
:103CD0000E944B178BE395E00E944B176CEB72E050
:103CE00080E792E1DF91CF910C9443178B81803272
:103CF00019F48FEB95E0E9CF8C81803219F48BECCD
:103D000095E0E3CF8D81803219F486ED95E0DDCF2B
:103D100080EE95E0DACFCF93DF93EC018A81803299
:103D200099F489EE95E00E944B17CE010E944B1743
:103D30008BE395E00E944B176CEB72E080E792E119
:103D4000DF91CF910C9443178B81803219F486EF69
:103D500095E0E9CF8C81803219F482E096E0E3CFE0
:103D60008D81803219F48DE096E0DDCF87E196E019
:103D7000DACF0F931F93CF93DF93EC018881998162
:103D8000009759F02A813B812617370730F081E0F0
:103D9000DF91CF911F910F9108958B016F5F7F4F3E
:103DA0000E944E3C009759F0998388831B830A83B5
:103DB0002C813D81232B59F7FC011082E8CF80E054
:103DC000E7CFEF92FF920F931F93CF93DF9361158D
:103DD000710541F480E0DF91CF911F910F91FF9029
:103DE000EF90089541155105B1F07B01EC010C8174
:103DF0001D81040F151FB8010E94B91E882351F3BD
:103E0000288139818C819D81B701820F931F0E9487
:103E1000483D1D830C8381E0DECFCF93DF93EC011F
:103E200088819981009711F00E94C53B1982188200
:103E30001D821C821B821A82DF91CF910895CF933D
:103E4000DF93EC01FB0101900020E9F73197AF010E
:103E5000461B570B0E94E11E811103C0CE010E9438
:103E60000D1FCE01DF91CF910895CF93DF93EC0129
:103E7000FB0144815581608171810E94E11E8111A5
:103E800003C0CE010E940D1FCE01DF91CF91089596
:103E9000EF92FF920F931F93CF93DF93EC017B017F
:103EA0008A01BA010E94B91E81110BC0CE010E9485
:103EB0000D1FCE01DF91CF911F910F91FF90EF90D9
:103EC00008951D830C83B701888199810E94483D24
:103ED000F0CFEF92FF920F931F93CF93DF93CDB765
:103EE000DEB7A1970FB6F894DEBF0FBECDBF8C0131
:103EF000CB01BA01F801118210821382128215825D
:103F000014822AE0AE014F5F5F4F7A010E945D3A52
:103F1000F70101900020E9F73197AF014E195F09D1
:103F2000B701C8010E94481FA1960FB6F894DEBFE2
:103F30000FBECDBFDF91CF911F910F91FF90EF90FA
:103F40000895EF92FF920F931F93CF93DF93CDB716
:103F5000DEB762970FB6F894DEBF0FBECDBF8C01FF
:103F6000CB01F80111821082138212821582148211
:103F70004AE09E012F5F3F4F7901B9010E943D3A0F
:103F8000F70101900020E9F73197AF014E195F0961
:103F9000B701C8010E94481F62960FB6F894DEBFB1
:103FA0000FBECDBFDF91CF911F910F91FF90EF908A
:103FB0000895FC01118210821382128215821482EC
:103FC0006115710551F0FB0101900020E9F731976F
:103FD000AF01461B570B0C94481F0895FC018081CC
:103FE0009181009711F00C94C53B08950F931F9396
:103FF000CF93DF93CDB7DEB762970FB6F894DEBFED
:104000000FBECDBF9C01A4E6B0E00E94EA3A2CEDC1
:104010003FEF40E050E00E94A93AB901CE01079677
:104020000E94A11F60E276E0CE0101960E94D91F96
:10403000BE01695F7F4FCE0101960E94351F1E862B
:104040001D86188A1F861A8A198A8E01035F1F4FE0
:104050008017910759F0FC0160817181611571052C
:1040600029F044815581C8010E94481FCE01019664
:104070000E94EE1FCE0107960E94EE1F8D859E8541
:104080000E944B176CEB72E080E792E10E944317AD
:10409000C8010E94EE1F62960FB6F894DEBF0FBEF5
:1040A000CDBFDF91CF911F910F9108950F931F9373
:1040B000CF93DF93CDB7DEB72C970FB6F894DEBF62
:1040C0000FBECDBF03EA12E01A830983809118184E
:1040D00090911918A0911A18B0911B188B839C838A
:1040E000AD83BE8348E759E6BE016F5F7F4F85EF22
:1040F00097E10E94520665E276E085EF97E10E9423
:10410000B31B85EF97E10E94C4101A830983809145
:10411000181890911918A0911A18B0911B188B8338
:104120009C83AD83BE8348E759E6BE016F5F7F4F36
:1041300085EF97E10E945206609105027091060298
:10414000CE0107960E94A11F60E476E0CE010196A1
:104150000E94D91FBE01695F7F4FCE0101960E9468
:10416000351F0E942C17CE0101960E94EE1FCE0132
:1041700007960E94EE1F85EF97E10E94C4101A83F4
:1041800009838091181890911918A0911A18B0916C
:104190001B188B839C83AD83BE8348E759E6BE0121
:1041A0006F5F7F4F85EF97E10E945206609100029A
:1041B00070910102CE0107960E94A11F6AE576E088
:1041C000CE0101960E94D91FBE01695F7F4FCE01CB
:1041D00001960E94351F0E942C17CE0101960E9465
:1041E000EE1FCE0107960E94EE1F609105027091AE
:1041F0000602CE0107960E94A11F64E676E0CE017A
:1042000001960E94D91FBE01695F7F4FCE010196C2
:104210000E94351F0E942C17CE0101960E94EE1FAE
:10422000CE0107960E94EE1F85EF97E10E94C41011
:1042300010E000E080910F0290911002081719071A
:10424000DCF4609105027091060284E090E0043095
:10425000110569F080917A0A90917B0A6FE070E015
:10426000892B21F06091000270910102C8010E9427
:10427000AB0F0F5F1F4FDECF2C960FB6F894DEBF4B
:104280000FBECDBFDF91CF911F910F9108959C017B
:10429000AFE0B0E00E94EA3A28EE3DEF40E050E0A7
:1042A0000E94A93A30930102209300020C945620F8
:1042B000CF93DF93EC018230910509F0AAC2D0932D
:1042C0007B0AC0937A0A0E945620D0937D0AC0933D
:1042D0007C0A229709F04AC18EE696E00E944B17AD
:1042E0006CEB72E080E792E10E9443178AE796E068
:1042F0000E944B176CEB72E080E792E10E9443173B
:1043000086E896E00E944B176CEB72E080E792E142
:104310000E94431782E996E00E944B176CEB72E013
:1043200080E792E10E9443178EE996E00E944B17C6
:104330006CEB72E080E792E10E9443178AEA96E014
:104340000E944B176CEB72E080E792E10E944317EA
:1043500086EB96E00E944B176CEB72E080E792E1EF
:104360000E94431782EC96E00E944B176CEB72E0C0
:1043700080E792E10E9443178EEC96E00E944B1773
:104380006CEB72E080E792E10E9443178AED96E0C1
:104390000E944B176CEB72E080E792E10E9443179A
:1043A00086EE96E00E944B176CEB72E080E792E19C
:1043B0000E94431783EF96E00E944B176CEB72E06C
:1043C00080E792E10E94431780E097E00E944B173C
:1043D0006CEB72E080E792E10E9443178DE097E07A
:1043E0000E944B176CEB72E080E792E10E9443174A
:1043F0008AE197E00E944B176CEB72E080E792E154
:104400000E94431787E297E00E944B176CEB72E023
:1044100080E792E10E94431784E397E00E944B17E4
:104420006CEB72E080E792E10E94431781E497E031
:104430000E944B176CEB72E080E792E10E944317F9
:104440008EE497E00E944B176CEB72E080E792E1FC
:104450000E9443178BE597E00E944B176CEB72E0CC
:1044600080E792E10E94431788E697E00E944B178D
:104470006CEB72E080E792E10E94431785E797E0DA
:104480000E944B176CEB72E080E792E10E944317A9
:1044900082E897E00E944B176CEB72E080E792E1B4
:1044A0000E9443178FE897E00E944B176CEB72E075
:1044B00080E792E10E9443178CE997E00E944B1736
:1044C0006CEB72E080E792E10E94431789EA97E083
:1044D0000E944B176CEB72E080E792E10E94431759
:1044E00086EB97E00E944B176CEB72E080E792E15D
:1044F0000E94431783EC97E00E944B176CEB72E02D
:1045000080E792E10E94431780ED97E00E944B17ED
:104510006CEB72E080E792E10E9443178DED97E02B
:104520000E944B176CEB72E080E792E10E94431708
:104530008AEE97E00E944B176CEB72E080E792E105
:104540000E94431787EF97E00E944B176CEB72E0D5
:1045500080E792E10E94431784E098E00E944B17A5
:104560006CEB72E080E792E10E94431780917C0A35
:1045700090917D0A029709F454C181E198E00E946C
:104580004B176CEB72E080E792E10E9443178EE1DB
:1045900098E00E944B176CEB72E080E792E10E947A
:1045A00043178BE298E00E944B176CEB72E080E7B8
:1045B00092E10E94431788E398E00E944B176CEB4E
:1045C00072E080E792E10E94431785E498E00E9440
:1045D0004B176CEB72E080E792E10E94431782E593
:1045E00098E00E944B176CEB72E080E792E10E942A
:1045F00043178FE598E00E944B176CEB72E080E761
:1046000092E10E9443178CE698E00E944B176CEBF6
:1046100072E080E792E10E94431789E798E00E94E8
:104620004B176CEB72E080E792E10E94431786E83B
:1046300098E00E944B176CEB72E080E792E10E94D9
:10464000431783E998E00E944B176CEB72E080E718
:1046500092E10E94431781EA98E00E944B176CEBAD
:1046600072E080E792E10E9443178FEA98E00E948F
:104670004B176CEB72E080E792E10E9443178DEBE1
:1046800098E00E944B176CEB72E080E792E10E9489
:1046900043178BEC98E00E944B176CEB72E080E7BD
:1046A00092E10E94431789ED98E00E944B176CEB52
:1046B00072E080E792E10E94431787EE98E00E9443
:1046C0004B176CEB72E080E792E10E94431785EF95
:1046D00098E00E944B176CEB72E080E792E10E9439
:1046E000431783E099E00E944B176CEB72E080E780
:1046F00092E10E94431781E199E00E944B176CEB15
:1047000072E080E792E10E9443178FE199E00E94F6
:104710004B176CEB72E080E792E10E9443178DE249
:1047200099E00E944B176CEB72E080E792E10E94E7
:1047300043178BE399E00E944B176CEB72E080E724
:1047400092E10E94431789E499E00E944B176CEBB9
:1047500072E080E792E10E94431787E599E00E94AA
:104760004B176CEB72E080E792E10E94431785E6FD
:1047700099E00E944B176CEB72E080E792E10E9497
:10478000431783E799E00E944B176CEB72E080E7D8
:1047900092E10E94431781E899E00E944B176CEB6D
:1047A00072E080E792E10E9443178FE899E00E944F
:1047B0004B176CEB72E080E792E10E9443178DE9A2
:1047C00099E00E944B176CEB72E080E792E10E9447
:1047D00043178BEA99E00E944B176CEB72E080E77D
:1047E00092E10E94431789EB99E00E944B176CEB12
:1047F00072E080E792E10E94431787EC99E00E9403
:104800004B176CEB72E080E792E1DF91CF910C9453
:104810004317019709F453CD10927B0A10927A0A3C
:1048200052CDDF91CF910895DF92EF92FF920F93D7
:104830001F93CF93DF9300D000D01F921F92CDB76C
:10484000DEB78C01D80159964D915C915A9741156C
:10485000510551F0ED91FC91048CF58DE02D70E047
:1048600060E0C8011995EECFF801D08CF7E0DF9E2B
:10487000C00111249C01275B304F7901D9018D9132
:104880009C91892B59F148E050E0BE016F5F7F4F4A
:10489000F801808D0E947D141816190694F5D80130
:1048A000509684E0FE01319601900D928A95E1F7D1
:1048B0008D8190E0982F88272E81820F911DF8011D
:1048C000958B848B8F81282F30E0322F222788858B
:1048D000820F932F911D928F818F13C080E591E0FD
:1048E0000E949A028D2D0E944814D70116962C9191
:1048F0001697821B91098D939C93892B21F690E04A
:1049000080E028960FB6F894DEBF0FBECDBFDF91D2
:10491000CF911F910F91FF90EF90DF9008956F92CC
:104920007F928F929F92AF92BF92CF92DF92EF923F
:10493000FF920F931F93CF93DF93CDB7DEB7EC9722
:104940000FB6F894DEBF0FBECDBF4C018B013A010C
:1049500083EA92E09A8389831C861B8648EE53E0A3
:1049600060E070E04D875E876F87788B29E732E0E3
:104970003A872987988F8F8B198E1A8E1B8E1C8EE3
:1049800028E029A399AB88AB1AAA1BAA1CAA1DAAC6
:104990008091AA0F9091AB0FA091AC0FB091AD0F89
:1049A0008EA39FA3A8A7B9A78B839C83AD83BE8347
:1049B00018861F82F80120E090E080E06AE03191E3
:1049C000332309F47AC040ED430F4A3008F064C045
:1049D000689FA001699F500D1124CA01C097830FE1
:1049E000911D37FD9A958F3F910549F340F34B8117
:1049F0005C816D817E818091B60F9091B70FA091FF
:104A0000B80FB091B90F481759076A077B0709F427
:104A100028C20E94DE036F7077277C5FCE01099663
:104A20000E945C16813009F01FC283EA92E09DA3C8
:104A30008CA38B819C81AD81BE818EA39FA3A8A7EF
:104A4000B9A745E350E0BE016C5D7F4FCE010996EA
:104A50000E945206892B09F04EC010E000E0CE0102
:104A600009960E94B7100130110559F1C801EC9662
:104A70000FB6F894DEBF0FBECDBFDF91CF911F916F
:104A80000F91FF90EF90DF90CF90BF90AF909F90ED
:104A90008F907F906F9008953E3209F0A8CF233019
:104AA00009F4A5CFA2E3B0E0AC0FBD1FA20FB11D6A
:104AB0008C932F5F90E080E082CF233009F097CF76
:104AC0008DABD401ED91FC910488F589E02D83EA4A
:104AD00092E09DA38CA38AA99BA9ACA9BDA98EA392
:104AE0009FA3A8A7B9A7A301BE016C5D7F4FC40116
:104AF00019958C01BBCF0E94DE0378876F8342E05B
:104B000050E0BE01695F7F4FCE0109960E94971564
:104B100081E090E09DA38CA342E050E0BE016C5D7B
:104B20007F4FCE0109960E94971580E091E09DA3EA
:104B30008CA342E050E0BE016C5D7F4FCE01099630
:104B40000E9497151DA21CA242E050E0BE016C5DC0
:104B50007F4FCE0109960E94971542E050E0BE01BA
:104B60006C5D7F4FCE0109960E94971542E050E0A0
:104B7000BE016C5D7F4FCE0109960E9497157801AA
:104B8000D8018C91882311F18701F80181916F017F
:104B9000882311F08E32C1F45801AE18BF081A14E0
:104BA0001B0484F4AEAA41E050E0BE016A5C7F4F72
:104BB000CE0109960E949715A501B701CE0109966D
:104BC0000E9497157601DCCF8601DFCF1EAA41E057
:104BD00050E0BE016A5C7F4FCE0109960E94971596
:104BE00000E011E01DA30CA342E050E0BE016C5DAB
:104BF0007F4FCE0109960E9497151DA30CA342E09A
:104C000050E0BE016C5D7F4FCE0109960E94971562
:104C1000CE0109960E94C410892B09F41ECF83E0AF
:104C2000E82EF12CD7C04B815C816D817E81898D0E
:104C30009A8DAB8DBC8D481759076A077B0709F021
:104C40000AC18D8D9E8DC59709F005C18AA19BA1D2
:104C50000DEF1FEF0C970CF4B4C04CE050E0BE0118
:104C60006C5D7F4FCE0109960E944E158EA19FA1CB
:104C70009827892798279BAF8AAF4F8158852CA109
:104C80003DA14217530709F0E9C097FFE7C08F70B5
:104C900092700BEF1FEF892B09F093C0AAA4BBA45D
:104CA000BA24AB24BA240AEF1FEFA114B10409F40B
:104CB00088C010E000E088A599A598278927982743
:104CC0000817190708F541E050E0BE016A5C7F4F04
:104CD000CE0109960E944E154EA9442339F050E0AA
:104CE00070E060E0CE0109960E944E158EA98111F8
:104CF000EACF44E050E070E060E0CE0109960E9407
:104D00004E150F5F1F4FD7CFD12CC12C41E050E083
:104D1000BE01645C7F4FCE0109960E944E154CADDA
:104D2000842F807C09F074C0442339F050E070E097
:104D300060E0CE0109960E944E158CAD8111E6CF40
:104D400042E050E0BE01685C7F4FCE0109960E94B0
:104D50004E1542E050E0BE016A5C7F4FCE010996DD
:104D60000E944E1544E050E070E060E0CE010996EC
:104D70000E944E1542E050E0BE01665C7F4FCE01BE
:104D800009960E944E1588AD99AD4AAD5BAD81156F
:104D9000914009F047C00EA91FA91027012710272D
:104DA0000130110509F03EC04115544009F04DC0D5
:104DB00044E050E0BE016E5C7F4FCE0109960E9438
:104DC0004E15F1E0EF1AF10809F449CE0F3F100734
:104DD00009F045CE0E94DE035B016C01CE0109960D
:104DE0000E941424181619060CF41DCF0E94DE032D
:104DF0006A197B098C099D09693873418105910500
:104E000038F562E370E080E090E00E94AC03E6CF0A
:104E100041E050E070E060E0CE0109960E944E153E
:104E20001CAE8BCF54274527542770E060E0CE019D
:104E300009960E944E15EFEFCE1ADE0AAC14BD049F
:104E400009F064CF06EF1FEFBCCF07EF1FEFB9CF1C
:104E50000FEF1FEFB6CF0EEF1FEFB3CF0CEF1FEF2B
:104E6000B0CF0EEF1FEF02CE10E000E0FFCDCF93EA
:104E7000DF93EC018889882371F0F894DE011C9699
:104E8000FE01389683E001900D928A95E1F7188A29
:104E900081E0898B7894DF91CF910895CF93DF9350
:104EA000EC018E89882371F0F894DE011F96FE01D3
:104EB000389686E001900D928A95E1F71E8A81E08E
:104EC0008F8B7894DF91CF910895CF93DF93EC018E
:104ED0008C89882371F0F894DE011E96FE013896C5
:104EE00085E001900D928A95E1F71C8A81E08D8B17
:104EF0007894DF91CF910895FC018685882349F04D
:104F0000F8948085918594878387168681E08787CA
:104F1000789408951F920F920FB60F9211242F9339
:104F20003F938F939F93AF93BF938091530B909137
:104F3000540BA091550BB091560B3091520B23E0BE
:104F4000230F2D3758F50196A11DB11D2093520B4B
:104F50008093530B9093540BA093550BB093560B27
:104F60008091570B9091580BA091590BB0915A0B0F
:104F70000196A11DB11D8093570B9093580BA093E0
:104F8000590BB0935A0BBF91AF919F918F913F9165
:104F90002F910F900FBE0F901F90189526E8230FAA
:104FA0000296A11DB11DD2CF1F920F920FB60F9284
:104FB00011240BB60F922F933F934F935F936F93F0
:104FC0007F938F939F93AF93BF93EF93FF93E09162
:104FD000810FF091820F309749F0A685B7858585BE
:104FE000968D91FF16C09C918923B1F4FF91EF91AA
:104FF000BF91AF919F918F917F916F915F914F91F1
:105000003F912F910F900BBE0F900FBE0F901F90EE
:1050100018959C91892351F7A389B4899C9185891E
:10502000809589238C93868997890197F1F7608D04
:10503000718DA685B785558538E020E0CB010197B5
:10504000F1F7822F90E095958795282F4C91452375
:1050500009F02068315091F7868D81FD209580916F
:105060005C0B90E001968F73992730915B0B38179A
:1050700099F0A0915C0BB0E0AE5EB44F2C9380939E
:105080005C0B828D938D0197F1F7A389B4898C9184
:105090009589892B8C93AACF868D8160868FF1CFDD
:1050A0001F920F920FB60F9211240BB60F922F93EF
:1050B0003F934F935F936F937F938F939F93AF93A0
:1050C000BF93EF93FF9348E251E064E271E090E018
:1050D00080E00E949804FF91EF91BF91AF919F9162
:1050E0008F917F916F915F914F913F912F910F9091
:1050F0000BBE0F900FBE0F901F9018951F920F922E
:105100000FB60F9211240BB60F922F933F934F932C
:105110005F936F937F938F939F93AF93BF93EF931F
:10512000FF9348EA50E064EA70E083E090E00E9478
:105130009804FF91EF91BF91AF919F918F917F91D3
:105140006F915F914F913F912F910F900BBE0F90F8
:105150000FBE0F901F9018951F920F920FB60F92CF
:1051600011240BB60F922F933F934F935F936F933E
:105170007F938F939F93AF93BF93EF93FF9348E9F0
:1051800050E064E970E082E090E00E949804FF91B2
:10519000EF91BF91AF919F918F917F916F915F91AF
:1051A0004F913F912F910F900BBE0F900FBE0F901C
:1051B0001F9018951F920F920FB60F9211240BB6E5
:1051C0000F922F933F934F935F936F937F938F93A0
:1051D0009F93AF93BF93EF93FF9348E850E064E849
:1051E00070E081E090E00E949804FF91EF91BF9100
:1051F000AF919F918F917F916F915F914F913F916F
:105200002F910F900BBE0F900FBE0F901F9018950F
:105210001F920F920FB60F9211240BB60F929F920E
:10522000AF92BF92CF92DF92EF92FF920F931F93B4
:105230002F933F934F935F936F937F938F939F939E
:10524000AF93BF93EF93FF93CF93DF931F92CDB7AD
:10525000DEB78091C60089838981E091F117F0E083
:10526000E955F84E82878091F1178F5F8093F1178F
:105270008F738093F1178091F417811117C081E02B
:105280008093F41784E0C82E96E0B92E25E0D22E44
:10529000EE24E39432E0A32E43E0942E9091F21793
:1052A0008091F117981321C01092F4170F90DF919D
:1052B000CF91FF91EF91BF91AF919F918F917F918E
:1052C0006F915F914F913F912F911F910F91FF909F
:1052D000EF90DF90CF90BF90AF909F900F900BBE5C
:1052E0000F900FBE0F901F901895E091F217F0E00D
:1052F000E955F84EF2848091F2178F5F8093F21790
:105300008F738093F21778948091A717833009F4F4
:1053100080C000F5813009F45DC0823009F463C0BB
:10532000B5E5FB12E1C08091AE178F5F8093AE1799
:105330008091AE17843009F0B1CFE092A717109298
:10534000AE1780915D0B90915E0B9093B017809398
:10535000AF17A4CF853009F471C008F463C086305C
:10536000F9F68091AC179091AD179F299093AD17E6
:105370008093AC178091AA179091AB1701979093E7
:10538000AB178093AA170091AF171091B0170115B2
:10539000110509F496C08091A8179091A917D8011A
:1053A00014962D913C9115972817390708F058C08D
:1053B000ED91FC910280F381E02DC8011995E091F7
:1053C000AF17F091B017868197819093B0178093B3
:1053D000AF17D9CF8F2D90E09093A9178093A8177E
:1053E000A092A7179DCF8091A8179091A9179F29E8
:1053F0009093A9178093A8178091A8179091A91747
:105400008535954519F09092A7178ACF1092A71766
:1054100087CF8F2D90E09093AB178093AA17C092FF
:10542000A7177ECF8091AA179091AB179F299093D1
:10543000AB178093AA17D092A71772CF8F2D90E049
:105440009093AD178093AC178091AA179091AB17EA
:1054500001979093AB178093AA17B092A71760CFCC
:10546000F801828193812091A8173091A9172817FC
:10547000390738F12091A8173091A9172817390753
:10548000C8F08091A8179091A91724813581281719
:10549000390780F04091AC175091AD176091A81773
:1054A0007091A9170190F081E02D0190F081E02D1D
:1054B000C8011995D80116960D911C910115110579
:1054C00079F68091A8179091A91702969093A91741
:1054D0008093A8178091AA179091AB17892B09F098
:1054E000AACFE092A7171CCF1092AE1721CF87E664
:1054F00092E090937112809370128091810F90913D
:10550000820F8057924171F4E0918312F0918412DE
:105510009081809185128095892380831092820FDB
:105520001092810F08950E94772A80E198E10E94ED
:10553000EE1F8CE198E10C94EE1FCF93DF93DC011A
:1055400081E292E011969C938E9313967C936E93D6
:1055500012974E7F15965C934E931497E0915D0BD6
:10556000F0915E0BCDE5DBE0309759F4B0935E0B24
:10557000A0935D0B17961C921E921697DF91CF9108
:105580000895848195818417950740F0481759073D
:1055900061F4828193818617970738F4EF0126968C
:1055A0000680F781E02D309761F71796FC93EE9314
:1055B0001697B983A883E2CF0F931F93CF93DF93FE
:1055C000EC018A01AB014F5F5F4F0E949D2A85E38A
:1055D00092E09983888319861B861C861D861F8707
:1055E0000E87DF91CF911F910F910895CF93DF9395
:1055F000EC01AB010E949D2A8BE292E099838883A3
:105600001A86DF91CF9108950F931F93CF93DF9365
:10561000EC018A01AB014E5F5F4F0E949D2A89E435
:1056200092E09983888380E288871A861D861E8689
:105630001F86198B088BDF91CF911F910F910895D1
:105640000F931F93CF93DF93EC018A01AB014D5F62
:105650005F4F0E949D2A8FE392E09983888380E2C6
:1056600090E2998788871B861F86188A198A1B8B68
:105670000A8BDF91CF911F910F9108952F923F9246
:105680004F925F926F927F928F929F92AF92BF9252
:10569000CF92DF92EF92FF920F931F93CF93DF93FE
:1056A000C3EAD2E0D0938B0FC0938A0F10928C0F75
:1056B00010928D0F10928E0F10928F0FD093910F2A
:1056C000C093900F1092920F1092930F1092940F1C
:1056D0001092950FD093970FC093960F1092980F3A
:1056E0001092990F10929A0F10929B0FD0939D0FCA
:1056F000C0939C0F10929E0F10929F0F1092A00FBC
:105700001092A10FD093A30FC093A20F1092A40FD9
:105710001092A50F1092A60F1092A70FD093AF0F63
:10572000C093AE0F1092B00F1092B10F1092B20F43
:105730001092B30FD093A90FC093A80F1092AA0F85
:105740001092AB0F1092AC0F1092AD0FD093B50F1B
:10575000C093B40F1092B60F1092B70F1092B80FFB
:105760001092B90FD093BB0FC093BA0F1092BC0F19
:105770001092BD0F1092BE0F1092BF0FD093291838
:10578000C093281810922A1810922B1810922C18D7
:1057900010922D18D0932318C0932218BCEAFB2E28
:1057A000F092241800E10093251811E010932618B8
:1057B0008AE68093271865ED79E08CE198E10E94F4
:1057C000D91FD0931718C0931618F0921818009389
:1057D000191810931A188AE080931B1862EE79E06A
:1057E00080E198E10E94D91F1092F8171092F717E4
:1057F00088EE93E0A0E0B0E08093F9179093FA1759
:10580000A093FB17B093FC1789E792E09093F617EB
:105810008093F517D0930418C093031810920518BD
:1058200010920618109207181092081888E08093BA
:105830000D181092F1171092F2171092F3171092A0
:10584000F4171092A7171092AE1780910F02909143
:10585000100220E130E03093A01720939F172EE034
:1058600030E03093A2172093A1172FE030E030935F
:10587000A4172093A3179C0121503109283031052A
:1058800010F088E090E09093A6178093A51761E050
:1058900080E10E94560361E08091A1170E945603A7
:1058A00061E08091A3170E94560361E08091A317E5
:1058B0000E94CA0280E190E09093A01780939F1706
:1058C000EFE5F7E18FE997E111928E179F07E1F776
:1058D000D0E0C0E08091A5179091A617C817D9070E
:1058E00074F540E06FE0CE010E946C088091A5172E
:1058F0009091A617C817D9072CF447E06BE0CE01AA
:105900000E946C0840E069E0CE010E946C08809122
:10591000A5179091A617C817D9071CF4CE010E94AD
:10592000D30F8091A5179091A617C817D9072CF40B
:1059300040E06CE0CE010E946C082196CBCF60E382
:1059400074E78FE397E10E94F62AC9EAD2E0D09388
:105950004017C0933F1780E090E290934B178093DD
:105960004A179DE090934C1787EF98E090934E175D
:1059700080934D1760E374E78FE297E10E94F62A67
:10598000D0933017C0932F17612C98E0792E709226
:105990003B1760923A170BE000933C178FE099E0B9
:1059A00090933E1780933D1760E374E78FE197E192
:1059B0000E94F62AD0932017C0931F17812C20E154
:1059C000922E90922B1780922A178CE080932C179E
:1059D00087E299E090932E1780932D1760E374E788
:1059E0008FE097E10E94F62AD0931017C0930F170B
:1059F000C12C30E4D32ED0921B17C0921A179EE010
:105A000090931C178FE399E090931E1780931D17B6
:105A100060E374E78FEF96E10E94F62AD0930017B7
:105A2000C093FF16E12C40E8F42EF0920B17E092A1
:105A30000A171FE010930C1787E599E090930E1753
:105A400080930D1766E674E78FEE96E10E94F62AC2
:105A5000D093F016C093EF1681E090E09093FB1680
:105A60008093FA161092FC168FE699E09093FE163A
:105A70008093FD1660E374E78FED96E10E94F62AAD
:105A8000D093E016C093DF16412C54E0552E50926F
:105A9000EB164092EA169AE09093EC1687E899E0AC
:105AA0009093EE168093ED1660E374E78FEC96E129
:105AB0000E94F62AD093D016C093CF16A12C62E094
:105AC000B62EB092DB16A092DA1689E08093DC162F
:105AD00083E999E09093DE168093DD1660E374E726
