:020000040000FA
:100000000C9404020C9435020C9435020C943502C5
:100010000C9435020C9435020C9435020C94350284
:100020000C9435020C9435020C9435020C94350274
:100030000C9435020C9435020C9435020C94350264
:100040000C9435020C9408150C9435020C9435026E
:100050000C9435020C9435020C9435020C94341433
:100060000C9435020C9436150C9435020C94350220
:100070000C9435020C9435020C9435020C94350224
:100080000C94DA140C9435020C9435020C9435025D
:100090000C9435020C9435020C9435020C94350204
:1000A0000C9435020C9435020C94AC140C9435026B
:1000B0000C9435020C9435020C9435020C947E1489
:1000C0000C9435020C9435020C9435020C943502D4
:1000D0000C9435020C9435020C9435020C943502C4
:1000E0000C9435020C94DF050C94611D0C944D06A4
:1000F0000C94051D0C94421D0C948F020C94DB058E
:100100000C94DD1C0C94951C0C94861D0C94D70546
:100110000C94B51D0C949D020C94D4040C94EF0522
:100120000C94351D0C94E41D0C942C1D0C948F1311
:100130000C9477020C946A0D0C948B1D0C9499020C
:100140000C94D3080C94521D0C94011E0C94291D80
:100150000C94AB0F0C9462020C94C51C0C94A41D5F
:100160000C94021D0C94E71D0C94951D0C94F71D26
:100170000C94CB1C0C9499050C94B81D0C945E0245
:100180000C94791D0C94251D0C94B91C0C94F61C30
:100190000C94B30D0C94D11C0C94F11D0C94451DC2
:1001A0000C94AC1C0C94901C0C949C050C94920523
:1001B0000C943A1D0C945E1D0C94551D0C943F1D1F
:1001C0000C94DC1D0C94D71C0C94811D0C9498028B
:1001D0000C9473020C945B1D0C94701D0C94D5044C
:1001E0000C94230C0C94321D0C94E7100C949F1F5C
:1001F0000C94FB0A0C94E0080C94731D0C94C81C1E
:100200000C946C100C9466020C940A1D0C94AC1D9A
:100210000C94FE0E0C94AB060C94FC1C0C9416066D
:100220000C946D020C94901D0C948B1C0C943E0647
:100230000C9481020C94AF1D0C94FD160C94C01C00
:100240000C94A91C0C946A1D0C946D1D0C94BB1D80
:100250000C94DA1C0C944E060C9493020C949A1C89
:100260000C947C1D0C94CE1C0C944A1D0C946A02B8
:100270000C94FF1C0C94B41C0C9458020C944F0664
:100280000C9485020C94F41D0C94EB040C94E11D69
:100290000C94641D0C94890D0C944D1D0C94761DCA
:1002A0000C948B020C94E21C0C949F1D0C94A91DC1
:1002B0000C94EC1D0C94671D0C94F0040C94D41C4D
:1002C0000C94581D0C94D71D0C94B21D0C94FC1D5D
:1002D0000C940F1D0C947D020C94F91C0C94AF1C13
:1002E0000C942F1D000020002300260029002C0064
:1002F0002F00320000010000030106010901000087
:100300000A0B02090C0D0E0807030401000000008F
:1003100000000000000000000000000000000000DD
:10032000000000000000000000001211100000009A
:1003300000000000000000000000000000000000BD
:100340000000000000002200250028002B002E00E5
:100350003100340002010000050108010B0100001A
:100360002100240027002A002D0030003300010165
:100370000000040107010A010102102020080810F2
:100380002040102040800201020108040201010205
:1003900004081020408080402010080402018004DE
:1003A0000201804020100804020108040201010239
:1003B0000408102040800102040810204080050538
:1003C0000505070508080808020202020A0A0808CB
:1003D00004040404010101010101010103030303F9
:1003E00003030303040707070C0C0C0C0C0C0C0C88
:1003F0000202020206060606060606060B0B0B0B99
:100400000B0B0B0BFD169F1F11241FBECFEFD1E26C
:10041000DEBFCDBF00E00CBF15E0A0E0B2E0ECE332
:10042000FEE400E00BBF02C007900D92A235B107B9
:10043000D9F72FE0A2E5B5E001C01D92AE3FB207AB
:10044000E1F712E0C3E0D2E000E006C02197010925
:10045000802FFE010E940522C230D10780E00807EC
:10046000A9F70E9495180C940C270C9400008CBDE1
:100470009DBD08958150823108F05AC0E82FF0E008
:100480008827EA5BFD4F8F4F0C94052266026A02B3
:1004900058025E02620298026D02730277027D02C8
:1004A000810285028B028F029802930299029D02BB
:1004B000809180008F7780938000089580918000E4
:1004C0008F7DF9CF80918000877FF5CF84B58F77BE
:1004D00084BD089584B58F7DFBCF8091B0008F7768
:1004E0008093B00008958091B0008F7DF9CF809106
:1004F00090008F77809390000895809190008F7D79
:10050000F9CF80919000877FF5CF8091A0008F7701
:100510008093A00008958091A0008F7DF9CF8091F5
:10052000A000877FF5CF809120018F7780932001F5
:100530000895809120018F7DF9CF80912001877FE0
:10054000F5CF1F93CF93DF93282F30E0F901E250CE
:10055000FD4F8491F901E858FC4FD491F901E25420
:10056000FC4FC491CC23A9F0162F81110E943A02AE
:10057000EC2FF0E0EE0FFF1FEC5BFC4FA591B49168
:100580008FB7F894EC91111108C0D095DE23DC935D
:100590008FBFDF91CF911F910895DE2BF8CFCF93BE
:1005A000DF9390E0FC01E858FC4F249182549C4F6B
:1005B000FC0184918823C9F090E0880F991FFC0109
:1005C000E25AFC4FA591B491FC01EC5BFC4FC59144
:1005D000D49161110DC09FB7F8948C91209582231E
:1005E0008C938881282328839FBFDF91CF91089522
:1005F000623051F49FB7F8943C91822F8095832309
:100600008C93E8812E2BEFCF8FB7F894EC912E2BA3
:100610002C938FBFEACF863308F0865320917B005E
:10062000982F9870277F922B90937B00877080641F
:1006300080937C0080917A00806480937A0080911E
:100640007A0086FDFCCF8091780090917900089522
:100650003FB7F8948091EB059091EC05A091ED05E2
:10066000B091EE0526B5A89B05C02F3F19F0019665
:10067000A11DB11D3FBFBA2FA92F982F8827BC01FC
:10068000CD01620F711D811D911D42E0660F771F24
:10069000881F991F4A95D1F708958F929F92AF9224
:1006A000BF92CF92DF92EF92FF924B015C010E94CA
:1006B00028036B017C010E9428036C197D098E09B7
:1006C0009F09683E734081059105A8F321E0821AD5
:1006D0009108A108B10888EEC80E83E0D81EE11C7D
:1006E000F11C81149104A104B10429F7FF90EF904B
:1006F000DF90CF90BF90AF909F908F9008952FB7CD
:10070000F8946091E7057091E8058091E905909172
:10071000EA052FBF0895FC0120812EBD9B012150C9
:10072000310941F051810DB407FEFDCF4EB55EBDDC
:100730004193F5CF61507109860F971F0DB407FEE5
:10074000FDCF2EB5FC0120830895E0913B0EF09182
:100750003C0E808190913A0E892B80830895E09120
:100760003B0EF0913C0E908180913A0E809589234A
:10077000808308958EBD00000DB407FEFDCF8EB5B9
:100780000895AF92BF92CF92DF92EF92FF920F93B4
:100790001F93CF93DF9300D000D01F921F92CDB74D
:1007A000DEB78C017B016A0180913E0E8333E1F458
:1007B0005801A40EB51EA016B10609F46FC00E9420
:1007C000AF0380EF0E94BA03812F0E94BA03802FEB
:1007D0000E94BA030F5F1F4FF70181917F010E94B2
:1007E000BA030E94A503E7CF5B01A40EB51E8433B4
:1007F000C1F40E94AF0319830A838D2D80688B8317
:10080000CC8264E070E0CE0101960E948B03AE14AE
:10081000BF0409F441C0F70181917F010E94BA032E
:10082000F6CF0E94AF030F3F110509F028F419829B
:100830000A8384E08B830CC017FD17C019820A83DA
:1008400033E0169507953A95E1F7007E0C600B832F
:1008500086E0C816D104A0F5F701DE011496EA156A
:10086000FB0599F081918D93FACFC80126E096950A
:1008700087952A95E1F7807E19830A830115104C2C
:1008800010F48461D7CF8C61D5CFB6016D5F7F4FF7
:10089000CE0101960E948B030E94A503C6012896F3
:1008A0000FB6F894DEBF0FBECDBFDF91CF911F9181
:1008B0000F91FF90EF90DF90CF90BF90AF90089591
:1008C00063E070E0CE0101960E948B03F7018191F5
:1008D0007F010E94BA03AE14BF04C1F7DDCFCF93EE
:1008E000DF931F92CDB7DEB7898341E050E0BE01B0
:1008F0006F5F7F4F90E080E00E94C1030F90DF9117
:10090000CF91089590E020913E0E233339F40C9658
:10091000982F990F990F990F80E008954896F8CF76
:10092000DA01E0913F0EF0E0FE2FEE27E60FF71F11
:1009300090E0982F8827A901BD018E0F9F1F0C946E
:10094000C103CF93DF931F921F92CDB7DEB7798398
:100950006A8322E030E0AE014F5F5F4F64E070E0F9
:100960000E9490040F900F90DF91CF910895CF9344
:10097000DF931F92CDB7DEB720913F0E30E0322FCC
:100980002227260F371F90E0982F8827498341E0C0
:1009900050E0BE016F5F7F4F820F931F0E94C10323
:1009A0000F90DF91CF9108950895CF93DF931F9219
:1009B000CDB7DEB76983DC01ED91FC910280F38154
:1009C000E02D41E050E0BE016F5F7F4F19950F9021
:1009D000DF91CF910895FC01818D928D0895089546
:1009E000DF92EF92FF920F931F93CF93DF931F92AB
:1009F0001F92CDB7DEB7FB01DC0157961C921E9209
:100A000056972281211109C02381211106C024811A
:100A1000211103C02581222369F14115510551F1AE
:100A20007A018F01FC01D08C80E591E00E943702B1
:100A3000A8014E5F5F4F24E030E06CE070E08D2D48
:100A40000E949004F982EA8222E030E0AE014F5F1A
:100A50005F4F60E170E08D2D0E94900481E090E096
:100A60000F900F90DF91CF911F910F91FF90EF901A
:100A7000DF90089580E0F3CFCF93DF93DB01EA01AD
:100A8000FC01EE51FA4F40815CE0589F9001599F64
:100A9000300D112447FF1CC011961C921E928081BC
:100AA0008F5F80838081A901480F511D87FD5A9572
:100AB00057FF03C080818C30ACF08D919C911197D1
:100AC000049680349C4938F18D919C91049625C000
:100AD0008081A901480F511D87FD5A9557FFDFCF2F
:100AE0008081DDCF8D919C914081240F311D47FD88
:100AF0003A95D901AA0FBB1FA20FB31FAE5ABA4F26
:100B000011962D913C91820F931F99838883808148
:100B1000DF91CF91089580E49CE9998388838FEFDA
:100B20008083F6CFDC01ED91FC910190F081E02D06
:100B300019940C970C94920521E030E0FC01418956
:100B40005289452B11F030E020E031952195310993
:100B5000FC01328B218B08958091FB0B811126C003
:100B60000E947F03AB01BC018091F70B9091F80BC1
:100B7000A091F90BB091FA0B8C599F4FAF4FBF4F1B
:100B8000481759076A077B0788F061E086E00E94F2
:100B9000A10281E08093FB0B0E947F036093F70B1F
:100BA0007093F80B8093F90B9093FA0B0895FC0166
:100BB000848595850895FC018489958908952EE59D
:100BC00032E0FC0131832083FB0140895189628935
:100BD0007389FC0142835383648375830895DC0128
:100BE000ED91FC91048CF58DE02D1994FC0191910F
:100BF000992339F08091C00085FFFCCF9093C60007
:100C0000F6CF0895CF93DF93EB010E94F6058BE1B9
:100C100093E00E94F605CE010E94F6058EE293E075
:100C20000E94F60581E0DF91CF910895DC011A96CC
:100C30008C911A9780FF21C01E96ED91FC911F9711
:100C40003097D9F0F89418968D919C9119971A962F
:100C50002C911A972E7F1A962C931A9778941B969C
:100C60002D913C911C97822393231D962C9102C0B9
:100C7000969587952A95E2F719940895FC01828547
:100C8000811105C05187408785E0828705C0808536
:100C9000918584179507B1F708950895089590E018
:100CA00080E008958F929F92AF92BF92EF92FF9251
:100CB0000F931F93CF93DF93CDB7DEB7A1970FB6F6
:100CC000F894DEBF0FBECDBF7C01FA01CB0119A2A3
:100CD000223008F42AE08E010F5D1F4F822E912CE6
:100CE000B12CA12CBF01A50194010E94C620F901DD
:100CF000CA016A3074F5605DD8016E938D01232BB3
:100D0000242B252B79F790E080E0109789F0FD01E6
:100D100001900020E9F73197AF014A1B5B0BD70127
:100D2000ED91FC910280F381E02DB801C701199586
:100D3000A1960FB6F894DEBF0FBECDBFDF91CF9165
:100D40001F910F91FF90EF90BF90AF909F908F9069
:100D50000895695CD1CF8F929F92AF92BF92CF924C
:100D6000DF92EF92FF920F931F93CF93DF937C015B
:100D7000EB016C0182E0C80ED11C4701E5E08E0E4C
:100D8000911C10E000E0F60141916F0150E070E02D
:100D900060E02AE0CE010E9452065C01E881F98100
:100DA0000190F081E02D6EE2CE0119958A0D9B1D18
:100DB000080F191FC814D90431F7F701458150E015
:100DC00070E060E02AE0CE010E945206800F911F81
:100DD000DF91CF911F910F91FF90EF90DF90CF9017
:100DE000BF90AF909F908F9008950E941A240F9308
:100DF0001F93CF93DF93EC0188819981009759F07D
:100E00002A813B812617370730F081E0DF91CF91AF
:100E10001F910F9108958B016F5F7F4F0E943923BF
:100E2000009759F0998388831B830A832C813D8125
:100E3000232B59F7FC011082E8CF80E0E7CFEF9237
:100E4000FF920F931F93CF93DF936115710541F4C8
:100E500080E0DF91CF911F910F91FF90EF90089567
:100E600041155105B1F07B01EC010C811D81040F8E
:100E7000151FB8010E94F706882351F32881398194
:100E80008C819D81B701820F931F0E942F241D83A7
:100E90000C8381E0DECFCF93DF93EC0188819981D1
:100EA000009711F00E94B022198218821D821C82C4
:100EB0001B821A82DF91CF910895CF93DF93EC01CB
:100EC000FB0101900020E9F73197AF01461B570B5A
:100ED0000E941F07811103C0CE010E944B07CE0163
:100EE000DF91CF910895CF93DF93EC01FB01448113
:100EF0005581608171810E941F07811103C0CE015D
:100F00000E944B07CE01DF91CF910895EF92FF929F
:100F10000F931F93CF93DF93EC017B018A01BA01FA
:100F20000E94F70681110BC0CE010E944B07CE0133
:100F3000DF91CF911F910F91FF90EF9008951D8346
:100F40000C83B701888199810E942F24F0CFEF9202
:100F5000FF920F931F93CF93DF93CDB7DEB76297C6
:100F60000FB6F894DEBF0FBECDBF8C01CB01F801E8
:100F70001182108213821282158214824AE09E012D
:100F80002F5F3F4F7901B9010E94AF1FF701019018
:100F90000020E9F73197AF014E195F09B701C80189
:100FA0000E94860762960FB6F894DEBF0FBECDBFD3
:100FB000DF91CF911F910F91FF90EF900895CF9304
:100FC000DF93EC01FB018617970749F0608171817F
:100FD0006115710541F0448155810E948607CE015B
:100FE000DF91CF9108950E944B07F9CFFC01118248
:100FF00010821382128215821482FB01019000205C
:10100000E9F73197AF01461B570B0C948607FC019B
:1010100080819181009711F00C94B0220895AF92D5
:10102000BF92CF92DF92EF92FF920F931F93CF93D5
:10103000DF9300D01F92CDB7DEB78C016B017A0130
:1010400080913E0E8333E9F45B016801C40ED51E26
:10105000C016D106A9F10E94AF038FE00E94BA0327
:10106000812F0E94BA03802F0E94BA030F5F1F4F87
:1010700080E00E94BA03F50181935F010E94A503FD
:10108000E7CF843369F50E94AF0319830A838F2D5C
:101090008F778B83EC8264E070E0CE0101960E9432
:1010A0008B03A70170E060E0C6010E942824E114D0
:1010B000F10421F0B701C6010E948B030E94A50331
:1010C000C7010F900F900F900F90DF91CF911F915C
:1010D0000F91FF90EF90DF90CF90BF90AF90089569
:1010E0000E94AF030F3F110509F030F419820A8303
:1010F0001B8263E070E0D1CF17FD0BC019820A8319
:1011000033E0169507953A95E1F7007E08600B836A
:10111000F0CFC80126E0969587952A95E1F7807E65
:1011200019830A830115104C18F480618B83E1CF79
:101130008861FCCFCF93DF931F92CDB7DEB72091AC
:101140003F0E30E0322F2227260F371F90E0982FD6
:10115000882741E050E0BE016F5F7F4F820F931FF1
:101160000E940F0889810F90DF91CF910895CF934E
:10117000C82F462F61E070E00E94B70461E070E084
:101180008C2F0E949A088111F9CFCF910895CF93A7
:10119000C82F80E591E00E94370260E170E08C2F5B
:1011A000CF910C94B708CF93DF93EC01888D8830F2
:1011B00020F40E94C70888E0888FDF91CF910895BE
:1011C000CF93FC01C08D80E591E00E94370260E280
:1011D00070E08C2F0E94B70862E070E08C2F0E94B4
:1011E0009A0884FD16C062E070E08C2F0E949A0875
:1011F00083FF0AC048E162E070E08C2F0E94B704D0
:1012000080E090E0CF91089580E591E00E94370260
:10121000E3CF40E162E070E08C2F0E94B70481E0F0
:10122000F0CFCF93DF931F92CDB7DEB741E050E010
:10123000BE016F5F7F4F90E080E00E940F088981C0
:101240000F90DF91CF910895CF93DF93C4E1D0E069
:101250000E941109882361F061E070E080E090E075
:101260000E944D032197A1F780E0DF91CF9108956F
:1012700081E0FBCFCF92DF92EF92FF920F931F930B
:10128000CF93DF93CDB7DEB7C454D1090FB6F8942E
:10129000DEBF0FBECDBFFC0182819381A481B581E9
:1012A00023968CAF9DAFAEAFBFAF239721E02396BF
:1012B0002FAF239723964CAD5DAD6EAD7FAD2397D9
:1012C0004BAB5CAB6DAB7EAB89AF9AAFABAFBCAF9A
:1012D0008DA79EA7AFA7B8AB28AB4DA55EA56FA500
:1012E00078A94FA358A769A77AA72EAB4BA95CA9E9
:1012F0006DA97EA949A35AA36BA37CA38B8F9C8F56
:10130000AD8FBE8F4EE552E05C8B4B8B3FEF3D8B3C
:101310003E8B3F8B188E5E874D872AA7CFA0D8A41F
:10132000E9A4FAA4CF86D88AE98AFA8A2CA309A16B
:101330001AA12BA13CA109871A872B873C875A83C6
:1013400049838B839C83AD83BE838091400E811142
:101350009DC060E372E080E090E00E944D031FB703
:10136000F89480913D0E811127C0E3EFF3E0849162
:10137000EDEAF3E09491E82FF0E0EE0FFF1FE25A60
:10138000FC4FA591B491EC91E92321F461E085E350
:101390000E94A10261E085E30E94CF028CB58061CA
:1013A0008CBD8CB580648CBD61E084E30E94CF026B
:1013B00061E083E30E94CF0280913D0E8F5F8093B6
:1013C0003D0E1FBFE8ECF3E0E491F0E0EE0FFF1FED
:1013D000EC5BFC4F8591949190933C0E80933B0E77
:1013E000E2E8F3E0E491E0933A0E61E08AE00E94E3
:1013F000CF020E94A50380E591E00E94370284E3BA
:1014000080933E0E80E80E946F040E942409882386
:1014100009F472C088E00E946F040E9411098830AC
:1014200009F06AC080E10E946F040E9411098031B6
:1014300009F062C080E00E946F040E941109182F19
:1014400081115AC041E050E0BE016D5B7F4F8FE1DA
:1014500090E00E940F0824968FAD2497833009F006
:101460004BC080E480933F0E42E06EE170E0812F3C
:101470000E94B70442E06FE170E0812F0E94B70440
:101480001F5F183089F781E08093400E80E591E07E
:101490000E94370246E050E064E072E089E090E0AC
:1014A0000E94C10344E050E0BE016D5F7F4F8FE0BA
:1014B00090E00E94C10344E050E0BE01615F7F4FB5
:1014C00081E090E00E94C10344E050E0BE016B5E09
:1014D0007F4F85E090E00E94C10381E08C87898581
:1014E0009A85AB85BC858093610E9093620EA09324
:1014F000630EB093640E6FC087E380933E0E80E866
:101500000E946F040E942409882339F188E00E9418
:101510006F040E941109883001F580E10E946F0478
:101520000E941109182F8031C1F480E00E946F04DD
:101530000E941109811111C041E050E0BE016D5BB4
:101540007F4F89E390E00E940F0824968FAD249787
:10155000843019F410933F0E96CF83E380933E0EB0
:1015600080E80E946F040E942409882391F180E1A1
:101570000E946F040E941109803159F582E10E9496
:101580006F040E941109823121F580E00E946F04EE
:101590000E94110981111DC084E080933F0E15E562
:1015A00025961FAF259741E050E0BE016C5B7F4F51
:1015B0008BE190E00E94C10324961FAF249741E085
:1015C00050E0BE016D5B7F4F8AE190E00E94C10355
:1015D0005ACF10923E0ECC5BDF4F0FB6F894DEBFB1
:1015E0000FBECDBFDF91CF911F910F91FF90EF9074
:1015F000DF90CF9008951F93CF93DF931F92CDB7C5
:10160000DEB7FC01108D183020F5818D928D892B6D
:1016100001F180E591E00E943702812F0E9482044F
:1016200027E0129FF0011124EE5FF14F22813381F8
:10163000377041E050E0BE016F5F7F4F820F931F14
:101640000E940F08898190E00F90DF91CF911F9148
:1016500008958FEF9FEFF8CFDA01E0913F0EF0E0B1
:10166000FE2FEE27E60FF71F90E0982F8827A9019D
:10167000BD018E0F9F1F0C940F088F929F92AF9207
:10168000BF92CF92DF92EF92FF920F931F93CF936F
:10169000DF93CDB7DEB760970FB6F894DEBF0FBE0D
:1016A000CDBF7C0190913E0E911115C018E0812FA5
:1016B00060960FB6F894DEBF0FBECDBFDF91CF911D
:1016C0001F910F91FF90EF90DF90CF90BF90AF9060
:1016D0009F908F90089508E0933309F404E06B0124
:1016E00080E591E00E9437029E012F5F3F4F590134
:1016F000490110E063E070E0812F0E949A08F40134
:1017000081934F018823C1F01F5F0113F3CF00E0E5
:10171000F50181915F018D3149F0883139F08A51AD
:10172000823020F00F5F1013F3CFC0CF60E170E084
:10173000802F0E94B708102FA12EB12C83EE93E0CA
:101740000197F1F742E870E060E0812F0E94B70452
:101750004FEF62E070E0812F0E94B704B601C11420
:10176000D10491F4809102029091030201968115B7
:10177000F0EC9F0708F464C0909303028093020288
:101780006091020270910302812F0E94A10486E001
:10179000E0E1F2E0DE01199601900D928A95E1F701
:1017A000F70183818F778C8784818D8785818E87F0
:1017B000A7014E5F5F4F24E030E06CE070E0812FC6
:1017C0000E949004DF86C88A22E030E0AE01415FCB
:1017D0005F4F60E170E0812F0E94900426E030E0CE
:1017E000AE01475F5F4F66E070E0812F0E9490047A
:1017F00061E070E0812F0E94B70827E02A9DC001B8
:101800002B9D900D11249C012E5F314F7901F90120
:101810001182108222E030E0AE01415F5F4F68E24A
:1018200070E0812F0E942C0B8F859889982789273B
:101830009827F7019383828316821582148237CF0B
:1018400080E090EC99CFCF92DF92EF92FF920F93CE
:101850001F93CF93DF9300D000D0CDB7DEB78C01BC
:101860006B017A01FC01808D883010F40E94C7085A
:101870008EE592E09A838983F60182819381A48127
:10188000B5818B839C83AD83BE83B701CE01019666
:101890000E943D0BF801808F8830A0F4F586E48625
:1018A000128E118E81E026960FB6F894DEBF0FBE21
:1018B000CDBFDF91CF911F910F91FF90EF90DF90FF
:1018C000CF90089580E0EFCFFF920F931F93CF93B7
:1018D000DF931F921F92CDB7DEB7F82E22E030E0E3
:1018E000AE014F5F5F4F66E270E00E942C0B0981F2
:1018F0001A8110270127102722E030E0AE014F5F48
:101900005F4F66E270E08F2D0E942C0B89819A81D7
:101910009827892798270817190749F4C8010F90B5
:101920000F90DF91CF911F910F91FF9008958C013F
:10193000E3CF4F925F927F928F929F92AF92BF922E
:10194000CF92DF92EF92FF920F931F93CF93DF938B
:101950001F921F92CDB7DEB7782E6B014A01A82ED9
:10196000B12C27E0829FC0011124FC01EE5FF14FF2
:101970007F010081118180E591E00E943702081506
:10198000190554F4872D0E94640CF70126818C01FF
:10199000021B1109118300830115110529F563E06C
:1019A00070E0872D0E949A08843159F0882349F00D
:1019B00001E010E08C3111F410E000E01195019588
:1019C0001109C8010F900F90DF91CF911F910F91D6
:1019D000FF90EF90DF90CF90BF90AF909F908F904F
:1019E0007F905F904F900895801691060CF48401CB
:1019F00087E08A9DF0018B9DF00D1124EE5FF14F81
:101A0000E280F380C114D10451F12701F7E05F2295
:101A1000872D0E948204840D951D20913E0E273350
:101A200009F453C09801240D351D2130384008F4C5
:101A30004CC020E038E0490184189508A401B601A3
:101A40000E940F082601480C591C6801C818D908C3
:101A5000872D0E948204A601B2010E940F08E00EA9
:101A6000F11E87E08A9DF0018B9DF00D1124EE5F41
:101A7000F14FF382E28220813181201B310B3183CF
:101A800020838681800F912F911D8A3F910510F44C
:101A9000232BF1F487E08A9DF0018B9DF00D11243A
:101AA000EE5FF14F1682F982EA8222E030E0AE0169
:101AB0004F5F5F4F68E270E0872D0E94900460E402
:101AC00070E0872D0E94B7087CCFA801B601C5CF72
:101AD000868377CFCF93DF93FC01218D328D211543
:101AE000310529F48FEF9FEFDF91CF910895EC013D
:101AF000808D4217530708F0A9010E94990C18160F
:101B0000190684F7298D3A8D281B390B3A8F298FB6
:101B1000EBCF0F931F93CF93DF931F92CDB7DEB719
:101B2000FC01218D328D232B41F48FEF9FEF0F901D
:101B3000DF91CF911F910F9108958C0141E050E00A
:101B4000BE016F5F7F4FFC01808D0E94990C1816BB
:101B500019065CF7F801818D928D0197928F818F24
:101B6000898190E0E4CF3F924F925F926F927F9293
:101B70008F929F92AF92BF92CF92DF92EF92FF929D
:101B80000F931F93CF93DF931F921F92CDB7DEB7B2
:101B90005C014B01342E452EFC0166887788508C01
:101BA00080E591E00E94370222E030E0AE014F5F15
:101BB0005F4F60E270E0852D0E942C0BC980DA80B7
:101BC000DC24CD24DC2422E030E0AE014F5F5F4F07
:101BD00060E270E0852D0E942C0B89819A81982704
:101BE00089279827C816D90609F079C0E52CF12C69
:101BF00067E0569EF0011124EE5FF14FD582C4825A
:101C0000032D142DC016D10608F4860122E030E021
:101C1000AE014F5F5F4F64E270E0852D0E942C0B98
:101C200089819A81982789279827680E791E9301C0
:101C3000377040913E0E433309F053C088E0E80E00
:101C4000F11CFE2CEE24FF0CFF0CFF0CC9018E0DC5
:101C50009F1D473309F449C0A901400F511F41306E
:101C6000584008F442C060E078E06B01C21AD30A21
:101C7000A601B4010E94C103A8014C195D09B40179
:101C80006C0D7D1DC7010E94C103600E711E79821B
:101C90006A8222E030E0AE014F5F5F4F64E270E0A5
:101CA000852D0E949004F50186899789800F911FE8
:101CB000978B868BC8010F900F90DF91CF911F916A
:101CC0000F91FF90EF90DF90CF90BF90AF909F90DB
:101CD0008F907F906F905F904F903F9008956C0130
:101CE00072CFE0E1EE0EF11CACCFA801B401CBCF76
:101CF000FC01448155816081718187E69FE00C94ED
:101D0000B30DEF92FF920F931F93CF93DF93CDB755
:101D1000DEB768970FB6F894DEBF0FBECDBF8C015B
:101D20007B016FE273E0CE0143960E94F607B70194
:101D3000CE0101960E94A707B801CE010D960E9420
:101D4000A70718861F821A8619861C861B86BE0165
:101D5000635F7F4FCE0107960E94DF076AE672E05D
:101D6000CE0107960E945D07BE016F5F7F4F0E9404
:101D70007307BC01CE0143960E94DF07CE01079690
:101D80000E940708CE010D960E940708CE01019619
:101D90000E9407088EE592E09A8389838091960FCE
:101DA0009091970FA091980FB091990F8B839C837E
:101DB000AD83BE8348E759E6BE016F5F7F4F87E67C
:101DC0009FE00E94F004CE0143960E94780E87E6C1
:101DD0009FE00E94E0080E94AC05CE0143960E945D
:101DE000070868960FB6F894DEBF0FBECDBFDF912F
:101DF000CF911F910F91FF90EF900895CF93DF93B4
:101E0000CDB7DEB768970FB6F894DEBF0FBECDBF73
:101E10009C01AFEFB0E00E94E8202EEF3FEF40E0E2
:101E200050E00E949420B901CE010D960E94A707B0
:101E30006CE672E0CE0107960E94F607BE01635F72
:101E40007F4FCE0107960E9473071C8A1B8A1E8A49
:101E50001D8A188E1F8ABC01CE0143960E94DF079F
:101E60008091000290910102019719F58EE592E0B0
:101E70009A83898380918A0F90918B0FA0918C0F08
:101E8000B0918D0F8B839C83AD83BE834DE65EE165
:101E9000BE016F5F7F4F87E69FE00E94F004CE0196
:101EA00043960E94780E87E69FE00E94E0080E9419
:101EB000AC05CE0143960E940708CE0107960E940A
:101EC0000708CE010D960E94070868960FB6F89491
:101ED000DEBF0FBECDBFDF91CF9108950F931F934B
:101EE000CF93DF9300D000D0CDB7DEB720910002B2
:101EF000309101022130310519F58C018EE592E017
:101F00009A83898380918A0F90918B0FA0918C0F77
:101F1000B0918D0F8B839C83AD83BE834CE65EE1D5
:101F2000BE016F5F7F4F87E69FE00E94F004C8010B
:101F30000E94780E87E69FE00E94E0080E94AC05B0
:101F400026960FB6F894DEBF0FBECDBFDF91CF91BE
:101F50001F910F9108958F929F92AF92BF92CF924F
:101F6000DF92EF92FF920F931F93CF93DF9300D0F6
:101F700000D000D01F92CDB7DEB76C015B01FC0131
:101F8000808D883010F40E94C70880913E0E811128
:101F900017C088E0F601808F80E02A960FB6F8948B
:101FA000DEBF0FBECDBFDF91CF911F910F91FF908C
:101FB000EF90DF90CF90BF90AF909F908F9008955B
:101FC00008E0833309F404E080E591E00E943702E1
:101FD0009E012F5F3F4F4901790110E063E070E0FF
:101FE000812F0E949A08F70181937F018823C1F015
:101FF0001F5F0113F3CFF12CF40181914F018D315B
:1020000049F0883139F08A51823020F0F3941F1161
:10201000F3CFBFCF60E170E08F2D0E94B7081F2D76
:10202000E12EF12C83EE93E00197F1F742E070E0AE
:1020300060E0812F0E94B7044FEF62E070E0812FD3
:102040000E94B704B501A114B10489F48091020281
:102050009091030201968115F0EC9F07D0F19093C7
:102060000302809302026091020270910302812FA9
:102070000E94A10461E070E0812F0E94B70827E070
:102080002E9DC0012F9D900D11249C012E5F314F7C
:102090007901F9011182108222E030E0AE01475F40
:1020A0005F4F68E270E0812F0E942C0B89859A8532
:1020B000982789279827F7019383828316821582B0
:1020C0001482F601108FB586A486128E118E81E0DF
:1020D00064CF80E090ECC3CFDF92EF92FF920F933A
:1020E0001F93CF93DF9300D000D01F921F92CDB7E4
:1020F000DEB78C01D80159964D915C915A974115E4
:10210000510551F0ED91FC91048CF58DE02D70E0BE
:1021100060E0C8011995EECFF801D08CF7E0DF9EA2
:10212000C00111249C012E5F314F7901D9018D919D
:102130009C91892B59F148E050E0BE016F5F7F4FC1
:10214000F801808D0E94990C1816190694F5D80193
:10215000509684E0FE01319601900D928A95E1F748
:102160008D8190E0982F88272E81820F911DF80194
:10217000958B848B8F81282F30E0322F2227888502
:10218000820F932F911D928F818F13C080E591E074
:102190000E9437028D2D0E94640CD70116962C9157
:1021A0001697821B91098D939C93892B21F690E0C1
:1021B00080E028960FB6F894DEBF0FBECDBFDF914A
:1021C000CF911F910F91FF90EF90DF9008956F9244
:1021D0007F928F929F92AF92BF92CF92DF92EF92B7
:1021E000FF920F931F93CF93DF93CDB7DEB7EC979A
:1021F0000FB6F894DEBF0FBECDBF4C018B013A0184
:102200008EE592E09A8389831C861B8648EE53E014
:1022100060E070E04D875E876F87788B24E332E063
:102220003A872987988F8F8B198E1A8E1B8E1C8E5A
:1022300028E029A399AB88AB1AAA1BAA1CAA1DAA3D
:102240008091610E9091620EA091630EB091640E28
:102250008EA39FA3A8A7B9A78B839C83AD83BE83BE
:1022600018861F82F80120E090E080E06AE031915A
:10227000332309F47AC040ED430F4A3008F064C0BC
:10228000689FA001699F500D1124CA01C097830F58
:10229000911D37FD9A958F3F910549F340F34B818E
:1022A0005C816D817E8180916D0E90916E0EA0910A
:1022B0006F0EB091700E481759076A077B0709F433
:1022C00028C20E947F036F7077277C5FCE0109963A
:1022D0000E94AB0F813009F01FC28EE592E09DA3F2
:1022E0008CA38B819C81AD81BE818EA39FA3A8A767
:1022F000B9A745E350E0BE016C5D7F4FCE01099662
:102300000E94F004892B09F04EC010E000E0CE01DD
:1023100009960E94D3080130110559F1C801EC96C5
:102320000FB6F894DEBF0FBECDBFDF91CF911F91E6
:102330000F91FF90EF90DF90CF90BF90AF909F9064
:102340008F907F906F9008953E3209F0A8CF233090
:1023500009F4A5CFA2E3B0E0AC0FBD1FA20FB11DE1
:102360008C932F5F90E080E082CF233009F097CFED
:102370008DABD401ED91FC910488F589E02D8EE5BB
:1023800092E09DA38CA38AA99BA9ACA9BDA98EA309
:102390009FA3A8A7B9A7A301BE016C5D7F4FC4018D
:1023A00019958C01BBCF0E947F0378876F8342E031
:1023B00050E0BE01695F7F4FCE0109960E94B30DC8
:1023C00081E090E09DA38CA342E050E0BE016C5DF3
:1023D0007F4FCE0109960E94B30D80E091E09DA34E
:1023E0008CA342E050E0BE016C5D7F4FCE010996A8
:1023F0000E94B30D1DA21CA242E050E0BE016C5D24
:102400007F4FCE0109960E94B30D42E050E0BE011D
:102410006C5D7F4FCE0109960E94B30D42E050E003
:10242000BE016C5D7F4FCE0109960E94B30D78010D
:10243000D8018C91882311F18701F80181916F01F6
:10244000882311F08E32C1F45801AE18BF081A1457
:102450001B0484F4AEAA41E050E0BE016A5C7F4FE9
:10246000CE0109960E94B30DA501B701CE010996D0
:102470000E94B30D7601DCCF8601DFCF1EAA41E0BA
:1024800050E0BE016A5C7F4FCE0109960E94B30DF9
:1024900000E011E01DA30CA342E050E0BE016C5D22
:1024A0007F4FCE0109960E94B30D1DA30CA342E0FD
:1024B00050E0BE016C5D7F4FCE0109960E94B30DC6
:1024C000CE0109960E94E008892B09F41ECF83E013
:1024D000E82EF12CD7C04B815C816D817E81898D86
:1024E0009A8DAB8DBC8D481759076A077B0709F099
:1024F0000AC18D8D9E8DC59709F005C18AA19BA14A
:102500000DEF1FEF0C970CF4B4C04CE050E0BE018F
:102510006C5D7F4FCE0109960E946A0D8EA19FA12E
:102520009827892798279BAF8AAF4F8158852CA180
:102530003DA14217530709F0E9C097FFE7C08F702C
:1025400092700BEF1FEF892B09F093C0AAA4BBA4D4
:10255000BA24AB24BA240AEF1FEFA114B10409F482
:1025600088C010E000E088A599A5982789279827BA
:102570000817190708F541E050E0BE016A5C7F4F7B
:10258000CE0109960E946A0D4EA9442339F050E00D
:1025900070E060E0CE0109960E946A0D8EA981115B
:1025A000EACF44E050E070E060E0CE0109960E947E
:1025B0006A0D0F5F1F4FD7CFD12CC12C41E050E0E7
:1025C000BE01645C7F4FCE0109960E946A0D4CAD3E
:1025D000842F807C09F074C0442339F050E070E00F
:1025E00060E0CE0109960E946A0D8CAD8111E6CFA4
:1025F00042E050E0BE01685C7F4FCE0109960E9428
:102600006A0D42E050E0BE016A5C7F4FCE01099640
:102610000E946A0D44E050E070E060E0CE0109964F
:102620000E946A0D42E050E0BE01665C7F4FCE0121
:1026300009960E946A0D88AD99AD4AAD5BAD8115D2
:10264000914009F047C00EA91FA9102701271027A4
:102650000130110509F03EC04115544009F04DC04C
:1026600044E050E0BE016E5C7F4FCE0109960E94AF
:102670006A0DF1E0EF1AF10809F449CE0F3F100797
:1026800009F045CE0E947F035B016C01CE010996E3
:102690000E946C10181619060CF41DCF0E947F03BF
:1026A0006A197B098C099D09693873418105910577
:1026B00038F562E370E080E090E00E944D03E6CFE1
:1026C00041E050E070E060E0CE0109960E946A0DA2
:1026D0001CAE8BCF54274527542770E060E0CE0115
:1026E00009960E946A0DEFEFCE1ADE0AAC14BD0403
:1026F00009F064CF06EF1FEFBCCF07EF1FEFB9CF94
:102700000FEF1FEFB6CF0EEF1FEFB3CF0CEF1FEFA2
:10271000B0CF0EEF1FEF02CE10E000E0FFCDCF9262
:10272000DF92EF92FF920F931F93CF93DF9300D02E
:1027300000D0CDB7DEB78C01FC0180899789992341
:1027400009F47EC00E940B03DC0121E030E04FEF72
:102750005FEF0E94BE202FEF33E040E050E00E9488
:102760009420215031094F4F5F4FF801C388D4881E
:10277000E588F688B90190E080E00E940620A70174
:1027800096010E94F72020E030E040EA50E40E94E9
:102790006421A70196010E94F820F801638B748BD5
:1027A000858B968B0E94D6216B01CB01F801218984
:1027B00032896217730730F4A9014C195D09413859
:1027C0005105A0F42817390708F048C0A601421B9C
:1027D000530B4138510550F48038FFEF9F0730F418
:1027E00080389105F0F482179307D8F44AE0BE01CF
:1027F0006F5F7F4FC6010E94DC1FF80186859785B9
:102800000E94F6058BE193E00E94F605CE01019649
:102810000E94F6058EE293E00E94F605F801D28A46
:10282000C18A26960FB6F894DEBF0FBECDBFDF91EA
:10283000CF911F910F91FF90EF90DF90CF9008956F
:102840000E940B032FEF3FEFDC010E940D222FEFC0
:1028500033E040E050E00E94942087CF80384FEF73
:10286000940708F4BDCFDDCF1F920F920FB60F92E1
:1028700011242F933F938F939F93AF93BF93809196
:10288000E7059091E805A091E905B091EA0530913E
:10289000E60523E0230F2D3758F50196A11DB11D44
:1028A0002093E6058093E7059093E805A093E9055A
:1028B000B093EA058091EB059091EC05A091ED05B0
:1028C000B091EE050196A11DB11D8093EB0590938B
:1028D000EC05A093ED05B093EE05BF91AF919F91EC
:1028E0008F913F912F910F900FBE0F901F901895D1
:1028F00026E8230F0296A11DB11DD2CF1F920F9281
:102900000FB60F9211240BB60F922F933F934F9354
:102910005F936F937F938F939F93AF93BF93EF9347
:10292000FF9348E251E064E271E090E080E00E94B1
:102930003C05FF91EF91BF91AF919F918F917F9156
:102940006F915F914F913F912F910F900BBE0F9020
:102950000FBE0F901F9018951F920F920FB60F92F7
:1029600011240BB60F922F933F934F935F936F9366
:102970007F938F939F93AF93BF93EF93FF9348EA17
:1029800050E064EA70E083E090E00E943C05FF9133
:10299000EF91BF91AF919F918F917F916F915F91D7
:1029A0004F913F912F910F900BBE0F900FBE0F9044
:1029B0001F9018951F920F920FB60F9211240BB60D
:1029C0000F922F933F934F935F936F937F938F93C8
:1029D0009F93AF93BF93EF93FF9348E950E064E96F
:1029E00070E082E090E00E943C05FF91EF91BF9182
:1029F000AF919F918F917F916F915F914F913F9197
:102A00002F910F900BBE0F900FBE0F901F90189537
:102A10001F920F920FB60F9211240BB60F922F93A5
:102A20003F934F935F936F937F938F939F93AF9356
:102A3000BF93EF93FF9348E850E064E870E081E0D3
:102A400090E00E943C05FF91EF91BF91AF919F9163
:102A50008F917F916F915F914F913F912F910F9047
:102A60000BBE0F900FBE0F901F9018951F920F92E4
:102A70000FB60F9211240BB60F929F92AF92BF9296
:102A8000CF92DF92EF92FF920F931F932F933F937A
:102A90004F935F936F937F938F939F93AF93BF9366
:102AA000EF93FF93CF93DF931F92CDB7DEB7809163
:102AB000C60089838981E091F60FF0E0E455F04F7C
:102AC00082878091F60F8F5F8093F60F8F738093CC
:102AD000F60F8091F90F811117C081E08093F90FF3
:102AE00084E0C82E96E0B92E25E0D22EEE24E394A1
:102AF00032E0A32E43E0942E9091F70F8091F60FD1
:102B0000981321C01092F90F0F90DF91CF91FF9190
:102B1000EF91BF91AF919F918F917F916F915F9155
:102B20004F913F912F911F910F91FF90EF90DF9068
:102B3000CF90BF90AF909F900F900BBE0F900FBEA5
:102B40000F901F901895E091F70FF0E0E455F04FCB
:102B5000F2848091F70F8F5F8093F70F8F738093CC
:102B6000F70F78948091AC0F833009F480C000F5A2
:102B7000813009F45DC0823009F463C0B5E5FB1211
:102B8000E1C08091B30F8F5F8093B30F8091B30F3B
:102B9000843009F0B1CFE092AC0F1092B30F809166
:102BA000770E9091780E9093B50F8093B40FA4CFC9
:102BB000853009F471C008F463C08630F9F680915D
:102BC000B10F9091B20F9F299093B20F8093B10FE4
:102BD0008091AF0F9091B00F01979093B00F8093B9
:102BE000AF0F0091B40F1091B50F0115110509F445
:102BF00096C08091AD0F9091AE0FD80114962D9193
:102C00003C9115972817390708F058C0ED91FC91B1
:102C10000280F381E02DC8011995E091B40FF09185
:102C2000B50F868197819093B50F8093B40FD9CF5C
:102C30008F2D90E09093AE0F8093AD0FA092AC0FCC
:102C40009DCF8091AD0F9091AE0F9F299093AE0FC5
:102C50008093AD0F8091AD0F9091AE0F8535954566
:102C600019F09092AC0F8ACF1092AC0F87CF8F2DB6
:102C700090E09093B00F8093AF0FC092AC0F7ECFD7
:102C80008091AF0F9091B00F9F299093B00F8093D8
:102C9000AF0FD092AC0F72CF8F2D90E09093B20F08
:102CA0008093B10F8091AF0F9091B00F01979093E7
:102CB000B00F8093AF0FB092AC0F60CFF80182815C
:102CC00093812091AD0F3091AE0F2817390738F15D
:102CD0002091AD0F3091AE0F28173907C8F08091C1
:102CE000AD0F9091AE0F248135812817390780F000
:102CF0004091B10F5091B20F6091AD0F7091AE0F36
:102D00000190F081E02D0190F081E02DC80119952E
:102D1000D80116960D911C910115110579F6809137
:102D2000AD0F9091AE0F02969093AE0F8093AD0FC2
:102D30008091AF0F9091B00F892B09F0AACFE0924C
:102D4000AC0F1CCF1092B30F21CF0F931F93CF93D3
:102D5000DF93EC01842F2091EF053091F0053B8744
:102D60002A87D093F005C093EF051E821F82188634
:102D7000198605E010E020E030E00A831B832C83F5
:102D80003D832AE132E03983288324E232E03D8723
:102D90002C877F876E87488B1F8A60E00E94CF0256
:102DA0008F898823D9F088890E940B03DC0121E0F8
:102DB00030E04FEF5FEF0E94BE202FEF33E040E0A6
:102DC00050E00E949420215031094F4F5F4F3A8BC1
:102DD000298BDF91CF911F910F91089588890E94CF
:102DE0000B032FEF3FEFDC010E940D222FEF33E0AA
:102DF00040E050E00E949420EACFFF920F931F938F
:102E0000CF93DF93CEE5D2E0D093420EC093410E34
:102E10001092430E1092440E1092450E1092460EE0
:102E2000D093480EC093470E1092490E10924A0E4E
:102E300010924B0E10924C0ED0934E0EC0934D0E2E
:102E400010924F0E1092500E1092510E1092520E80
:102E5000D093540EC093530E1092550E1092560EEE
:102E60001092570E1092580ED0935A0EC093590ECE
:102E700010925B0E10925C0E10925D0E10925E0E20
:102E8000D093660EC093650E1092670E1092680E76
:102E90001092690E10926A0ED093600EC0935F0E6E
:102EA0001092610E1092620E1092630E1092640ED8
:102EB000D0936C0EC0936B0E10926D0E10926E0E2E
:102EC00010926F0E1092700ED093720EC093710E0E
:102ED0001092730E1092740E1092750E1092760E60
:102EE0001092F60F1092F70F1092F80F1092F90F40
:102EF0001092AC0F1092B30FD093A70FC093A60FF0
:102F00001092A80F1092A90F1092AA0F1092AB0F57
:102F1000D093A10FC093A00F8CEAF82EF092A20FCD
:102F200000E10093A30F11E01093A40F87E68093B4
:102F3000A50F68E772E08AE99FE00E94F607D09348
:102F4000950FC093940FF092960F0093970F1093E4
:102F5000980F8AE08093990F65E872E08EE89FE011
:102F60000E94F607D093890FC093880FF0928A0FC2
:102F700000938B0F10938C0F8EE680938D0F65E876
:102F800072E082E89FE00E94F60710926A0F1092AA
:102F9000690F88EE93E0A0E0B0E080936B0F909310
:102FA0006C0FA0936D0FB0936E0F84E392E090933B
:102FB000680F8093670FD093760FC093750F1092B0
:102FC000770F1092780F1092790F10927A0F88E095
:102FD00080937F0F0E947F036FE273E081E69FE0A2
:102FE0000E94F60720E048E06DE872E089E49FE087
:102FF0000E94A51620E049E068E972E081E39FE0C5
:103000000E94A51620E043E062EA72E089E19FE0B9
:103010000E94A51620E040E06FEA72E081E09FE0A8
:103020000E94A51620E042E06FEB72E089EE9EE080
:103030000E94A51620E041E06CEC72E081ED9EE07C
:103040000E94A51620E044E06CED72E089EB9EE062
:103050000E94A5168AE292E09093AA0E8093A90E90
:1030600084E495E79093AC0E8093AB0E9093AE0EF4
:103070008093AD0EE091770EF091780EA7E7BEE059
:103080003097A9F589EA9EE09093780E8093770EA9
:103090001092B00E1092AF0E1092B30E84E692E032
:1030A0009093AA0E8093A90E8FEF9FEF9093B50E89
:1030B0008093B40E1092B60E8EEF9EE09093B80EF1
:1030C0008093B70E20E045E060EF72E081E99EE07A
:1030D0000E94A51620E04AE06DEF72E089E79EE0CD
:1030E000DF91CF911F910F91FF900C94A5168481D1
:1030F0009581843425E7920740F08434954761F444
:10310000828193818434954738F4DF0116960680D6
:10311000F781E02D309759F7F093B00EE093AF0EA2
:1031200089EA9EE08D939C93B7CFCF93DF93CDB781
:10313000DEB7A7970FB6F894DEBF0FBECDBF789469
:1031400084B5826084BD84B5816084BD85B58260AC
:1031500085BD85B5816085BD80916E00816080935D
:103160006E001092810080918100826080938100C6
:1031700080918100816080938100809180008160D6
:10318000809380008091B10084608093B100809131
:10319000B00081608093B000809191008260809344
:1031A00091008091910081608093910080919000C6
:1031B0008160809390008091A10082608093A10043
:1031C0008091A10081608093A1008091A000816026
:1031D0008093A000809121018260809321018091E1
:1031E0002101816080932101809120018160809381
:1031F000200180917A00846080937A0080917A0027
:10320000826080937A0080917A00816080937A0056
:1032100080917A00806880937A001092C10016E154
:1032200061E0812F0E94CF021F5F1632C9F762E072
:10323000812F0E94CF021F5F1233C9F746EF55E07E
:1032400022E03EE086EF99E0E2E0FCE0119211928C
:10325000DC011D921D92CD01DA011D921D921D927D
:103260001D92AD012E173F0789F7809164008D7F75
:10327000809364001092C50083E08093C400109294
:10328000C00086E08093C20088E98093C10062E0BC
:1032900082E00E94CF0261E085E00E94CF0261E0FF
:1032A00086E00E94CF0261E085E00E94A10261E019
:1032B00086E00E94A10264E670E080E090E00E9457
:1032C0004D0360E085E00E94A10260E086E00E947C
:1032D000A10264E670E080E090E00E944D03E0E02F
:1032E000F3E08491EAE7F3E00491E0ECF3E0149179
:1032F0001111E4C0109201021092000261E086E018
:103300000E94A1028091000290910102019709F0B0
:1033100078C0FEE5EF2EF2E0FF2EFA82E98280917E
:10332000A20F9091A30FA091A40FB091A50F8B8332
:103330009C83AD83BE838E010F5F1F4FC8010E9427
:103340003A096CE67EE187E69FE00E94AB0FFA82C5
:10335000E9828091960F9091970FA091980FB0916C
:10336000990F8B839C83AD83BE8348E759E6B801F0
:1033700087E69FE00E94F0040E947F031BA21AA22E
:103380001DA21CA21FA21EA22AE0A8010E94BA1F11
:10339000F80101900020E9F73197AF01401B510B74
:1033A000B801CE0182960E94860769E073E0C801E9
:1033B0000E94F6076AE97FE0C8010E9473076BE18B
:1033C00073E00E945D07BE016E5D7F4F0E94730730
:1033D0006DE173E00E945D070E94780E42E050E0CC
:1033E0006DE273E087E69FE00E94B30DC8010E9482
:1033F0000708CE0182960E94070887E69FE00E9498
:10340000E00844244394512C77247A94AA24A3946A
:10341000B12C662463940091EF051091F00501151D
:103420001105C9F10E947F036B017C01F8018681BF
:103430009781A085B185B701A601481B590B6A0B7E
:103440007B0B82819381A481B58184179507A607A0
:10345000B70778F40190F081E02D0280F381E02D30
:10346000C8011995D8011696CD92DD92ED92FC9285
:1034700019978091EF059091F005F8012285338529
:10348000232B11F493878287D8011A960D911C91F2
:103490008017910759F60091770E1091780E01155B
:1034A0001105E1F0D801ED91FC910480F581E02D4A
:1034B000C8011995F80106811781F1CF81110E9489
:1034C0003A02E12FF0E0EE0FFF1FEC51FD4FA59106
:1034D000B491EC91E02309F40DCF14CF42E05CE00D
:1034E00090E080E0009709F00AC178B89201082EB8
:1034F00001C0220F0A94EAF7209522B9EBE3F1E02C
:103500003197F1F729B1022E000C330B232F221F24
:103510002227221F29831A8222B322FB222720F985
:103520002B831C8222B3269521702D831E8222B309
:1035300021702F83188620910901022E000C330B75
:10354000232F221F2227221F29871A862091090153
:1035500026FB222720F92B871C862091090125FBB9
:10356000222720F92D871E8620910901229521709E
:103570002F87188A2091090123FB222720F9298B04
:103580001A8A2091090122FB222720F92B8B1C8A01
:1035900020910901269521702D8B1E8AB88EAF8A45
:1035A000BA8EA98EBC8EAB8EBE8EAD8EB8A2AF8EFB
:1035B000FE01319630E020E01E2F0F2F61917191B6
:1035C000DA01A20FB31F672B09F0B0C04D925C92D5
:1035D0002E5F3F4F2032310589F701964A5E5F4FDB
:1035E0008031910509F07ECF56EFC52E59E0D52EDA
:1035F00062E0262E6CE0362EF12CE12CD1018D916B
:103600009D911D012091F60B222309F492C0109286
:10361000F60BF60191838083BFEFEB1AFB0AE2E021
:10362000CE0ED11CE114F1E0FF0641F78091010CB0
:103630008823B9F00E947F030091FD0B1091FE0BCF
:103640002091FF0B3091000C6017710782079307E0
:1036500040F063E872E08DE393E00E94020610926E
:10366000010C8091FC0B8823B9F00E947F0300912C
:10367000FD0B1091FE0B2091FF0B3091000C601799
:1036800071078207930740F064EB74E08DE393E0E9
:103690000E9402061092FC0B8091FB0B882329F1FB
:1036A0000E947F03AB01BC018091F70B9091F80B56
:1036B000A091F90BB091FA0B8C599F4FAF4FBF4FB0
:1036C000481759076A077B0780F060E086E00E9490
:1036D000A1021092FB0B0E947F036093F70B709383
:1036E000F80B8093F90B9093FA0B0E947F0380E014
:1036F00090E0892B09F48FCE0E9400008ACE88309A
:10370000910579F472B82FE030E0281B390BB20133
:1037100002C0660F771F2A95E2F79B01209528B912
:10372000EDCE883091050CF4E1CEEDCF1D921C92C8
:103730004FCFD6012D913C912817390709F46CCF52
:103740000E947F039701220F331F220F331FF901BD
:10375000EA50FA4F4F01208131814281538126176F
:1037600037074807590708F057CF0E947F03645C6A
:103770007F4F8F4F9F4FD4016D937D938D939C937B
:103780001397FF92EF92E0E3F3E0FF93EF9341EFA3
:1037900055E05F934F930E9436240F900F900F9047
:1037A0000F900F900F90D6018D919C911A821982E3
:1037B0001C821B821E821D8261E67FE0892B09F03C
:1037C00025C2812F902F0E94DF0760E575E0812FD1
:1037D000902F0E945D07BC0181E69FE00E94DF07F9
:1037E000812F902F0E940708809000029090010284
:1037F000B7E8EB16F10408F028C1F7018827EC5F61
:10380000F34E8F4F0C9405228B1C901C951C9A1C18
:10381000A91CAC1C251DAF1CB41CB91CC01CC51CAC
:10382000C81CCB1CCE1CD11C251D251DD41CD71C8F
:10383000DA1CDD1CE21CF61CF91C251DFC1C251DD8
:10384000251DFF1C021D051D251D0A1D0F1D291DFF
:10385000251D2C1D251D251D2F1D321D351D3A1D15
:10386000251D251D3F1D251D421D251D251D451DF1
:103870004A1D4D1D521D251D251D551D581D5B1D25
:10388000251D251D5E1D611D251D251D251D251DB3
:10389000641D251D671D251D251D6A1D6D1D251D0A
:1038A000251D251D251D701D731D761D251D251D1E
:1038B000251D791D251D251D7C1D811D861D8B1D2A
:1038C000901D951D9F1DA41D251D251D251D251D14
:1038D000A91DAC1DAF1DB21D251DB51D251DB81D93
:1038E000251D251DBB1DD71D251DDC1D251D251DC9
:1038F000E11D251DE41D251D251DE71DEC1D251DB4
:10390000F11D251D251DF41D251D251D251D251D0C
:10391000F71DFC1D011E64EB74E085E393E02DC0F0
:1039200066E474E08DE393E028C066E474E086E426
:1039300093E023C06DE473E0812F902F0E94F6077F
:10394000812F902F0E946E0F812F902F0E940708C9
:103950007CC06CE573E0F0CF64E673E0EDCF66E425
:1039600074E08CE693E009C065E474E08DE793E0D1
:1039700004C066E474E08EE893E00E94020665C02D
:1039800064EB74E089E993E0F8CF66E474E0C5CFB6
:1039900060E575E0C7CF60E575E0C9CF6AEA73E01E
:1039A000CBCF64E474E0C8CF60E575E0DACF66E4BD
:1039B00074E0DCCF66E474E0E5CF66E474E08EEAA0
:1039C00093E0DBCF69EB73E08A94892809F4DDC0CA
:1039D00066E474E089EC93E00E940206F1013297FC
:1039E00080819181D6018D939C9316CE64EB74E017
:1039F00099CF64EB74E09BCF6FE475E09DCF64EBEF
:103A000074E0AFCF60E575E0B1CF66E474E082EDBD
:103A100093E0B3CF60E575E081EE93E0AECF60E573
:103A200075E08DEE93E00E9402066092010C0E9408
:103A30007F03645D7E4F8F4F9F4F6093FD0B7093AC
:103A4000FE0B8093FF0B9093000C8A94892831F62B
:103A5000A8C063E872E06BCF6BEF73E06DCF63E8F3
:103A600072E07FCF64EB74E081CF66E474E084E0C1
:103A700094E083CF64EB74E08DE094E07ECF62E06D
:103A800074E055CF63EB74E057CF66E474E088E1EF
:103A900094E073CF63E872E069CF66E474E08AE291
:103AA00094E06BCF66E474E0E7CF6FE474E03FCF5F
:103AB00063E374E041CF66EC73E03ECF60E575E010
:103AC000E6CF62E074E052CF69E374E030CF68E3A0
:103AD00074E032CF64EB74E0DACF6FE474E046CF89
:103AE0006BE374E024CF6DE374E026CF68E474E008
:103AF00023CF69E374E03ACF60E575E081E594E0B7
:103B00003CCF64EB74E080E694E037CF64EB74E084
:103B100087E794E032CF64EB74E08BE894E02DCF3C
:103B200066E474E087E994E028CF66EA74E08A945A
:103B3000892859F160E575E086EB94E04DCF63E8A4
:103B400072E084EC94E019CF60E575E083ED94E0D9
:103B500014CF66E474E0D7CF66E474E0D9CF66E4AE
:103B600074E0DBCF64EB74E0DDCF64EB74E0E9CFAD
:103B70006BE374E0FBCE64EB74E082EF94E08A9434
:103B8000892809F029CF62EE74E0812F902F0E94DE
:103B9000F607812F902F0E946E0F812F902F0E9489
:103BA000070861E070E0C7010E94810E17CF66E44C
:103BB00074E08CEF94E0E1CE64EB74E085E095E096
:103BC000DCCE60E575E0BDCF64E175E0CFCE66E4A4
:103BD00074E082EF94E0D1CE66E474E086E195E093
:103BE000CCCE66E474E0EACF66E474E0AACF66E483
:103BF00074E083E295E0C1CE60E575E080E395E096
:103C0000BCCE66E474E08BE395E0B7CE812F902FB5
:103C10000E94DF0766E474E0812F902F0E945D0709
:103C2000BC0181E69FE00E94DF07812F902F0E9458
:103C300007085AE3E516F10409F45BC10CF0A0C0D3
:103C400075E1E716F10409F43BC10CF046C099E0B8
:103C5000E916F10409F42CC164F5B3E0EB16F104A4
:103C600009F420C174F4E114F10409F416C180913F
:103C7000000290910102019709F0B0CE70E060E07F
:103C800092CFF4E0EF16F10409F40FC161E475E09E
:103C900025E0E216F10459F7812F902F0E94F607D4
:103CA000812F902F0E946E0F812F902F0E94070866
:103CB000DECF4BE0E416F10409F4EFC04CF06EE007
:103CC000E616F10409F4F9C074E1E716F10479F697
:103CD00060E575E089E993E015C08AE2E816F10431
:103CE00009F4FDC09CF5AFE1EA16F10409F4EDC05A
:103CF00064F464EB74E089EC93E0E6E1EE16F10421
:103D000009F0B5CF0E940206B2CFF1E2EF16F1043E
:103D100009F4E0C022E2E216F10409F0A8CF60E560
:103D200075E08DEE93E00E9402060E947F03645DC1
:103D30007E4F8F4F9F4F6093FD0B7093FE0B8093D0
:103D4000FF0B9093000C6092FC0B91CF4FE2E416B6
:103D5000F10409F4CEC054F46BE2E616F10409F064
:103D600086CF60E575E08DE094E0CCCF75E3E71693
:103D7000F10409F4B9C086E3E816F10491F377CFB2
:103D800096E6E916F10409F10CF043C0BCE5EB1628
:103D9000F10409F44FC0F4F4F9E5EF16F10409F465
:103DA000ABC054F466E474E081E594E048E5E416C1
:103DB000F10409F4A7CF5BCF5AE5E516F10421F130
:103DC0006BE5E616F10409F052CF60E575E08BE88B
:103DD00094E098CF7FE5E716F10409F492C054F41B
:103DE0009DE5E916F10409F042CF66E474E086EB44
:103DF00094E088CFA4E6EA16F10409F47DC0B5E6A4
:103E0000EB16F10409F033CF60E575E087E794E045
:103E100079CFE9E7EE16F10409F478C0FCF42EE658
:103E2000E216F10409F472C054F457E6E516F10401
:103E300009F01DCF60E575E087E994E063CF6FE698
:103E4000E616F10409F467C071E7E716F10409F01A
:103E50000ECF60E575E085E095E054CF84E8E81684
:103E6000F10409F462C054F4AAE7EA16F10409F473
:103E700057C0BCE7EB16F10461F3F9CEE5E8EE16A6
:103E8000F10409F457C060E575E08BE395E0F6E8CE
:103E9000EF16F10409F436CFEACE60E575E085E36C
:103EA00093E030CF6DE473E0F7CE6CE573E0F4CED1
:103EB00060E575E08EE893E025CF6AEA73E0ECCE2A
:103EC00060E575E08EEA93E01DCF60E575E082ED78
:103ED00093E018CF66E474E081EE93E013CF60E5E1
:103EE00075E084E094E00ECF60E575E08AE294E04E
:103EF00009CF6AE475E0D0CE60E575E080E694E035
:103F000001CF66E474E083ED94E0FCCE60E575E0FB
:103F100082EF94E0F7CE60E575E08CEF94E0F2CEAE
:103F200060E575E086E195E0EDCE60E575E083E261
:103F300095E0E8CE66E474E080E395E0E3CE81E6C8
:103F40009FE00E94070882E89FE00E9407088EE831
:103F50009FE00E9407088AE99FE00C940708BB27AE
:103F60004A3031F4992322F4BDE2909581959F4F18
:103F70000C94DD1FBB27FA01A62F6217710581057E
:103F80009105330B30FB66F0AA27660F771F881F59
:103F9000991FAA1FA21710F0A21B63953850A9F70A
:103FA000A05DAA3308F0A95DA19336F7B111B193D2
:103FB0001082CA010C94F61FBB27FB015527AA27C4
:103FC000880F991FAA1FA41710F0A41B83955051A6
:103FD000B9F7A05DAA3308F0A95DA193009779F71E
:103FE000B111B1931192CB010C94F61FDC01FC01CD
:103FF000672F71917723E1F7329704C07C916D931D
:1040000070836291AE17BF07C8F30895E89409C0A2
:1040100097FB3EF490958095709561957F4F8F4FFB
:104020009F4F9923A9F0F92F96E9BB279395F69511
:10403000879577956795B795F111F8CFFAF4BB0F8F
:1040400011F460FF1BC06F5F7F4F8F4F9F4F16C0F3
:10405000882311F096E911C0772321F09EE8872F7D
:10406000762F05C0662371F096E8862F70E060E039
:104070002AF09A95660F771F881FDAF7880F9695B2
:10408000879597F9089597F99F6780E870E060E059
:1040900008959FEF80EC089500240A9416161706E1
:1040A00018060906089500240A9412161306140629
:1040B00005060895092E0394000C11F4882352F08C
:1040C000BB0F40F4BF2B11F460FF04C06F5F7F4F44
:1040D0008F4F9F4F089557FD9058440F551F59F02B
:1040E0005F3F71F04795880F97FB991F61F09F3FE5
:1040F00079F087950895121613061406551FF2CF0E
:104100004695F1DF08C0161617061806991FF1CF5D
:1041100086957105610508940895E894BB27662784
:104120007727CB0197F90895052E97FB1EF400948D
:104130000E94AB2057FD07D00E94C62007FC03D089
:104140004EF40C94AB2050954095309521953F4FFF
:104150004F4F5F4F089590958095709561957F4F73
:104160008F4F9F4F08950E94E820A59F900DB49F08
:10417000900DA49F800D911D11240895B7FF0C94FC
:10418000B3200E94B320821B930B0895A1E21A2E44
:10419000AA1BBB1BFD010DC0AA1FBB1FEE1FFF1FEB
:1041A000A217B307E407F50720F0A21BB30BE40B3B
:1041B000F50B661F771F881F991F1A9469F7609582
:1041C0007095809590959B01AC01BD01CF0108953C
:1041D000A29FB001B39FC001A39F700D811D112448
:1041E000911DB29F700D811D1124911D089550588D
:1041F000BB27AA270E940F210C945A200E944C2012
:1042000038F00E94532020F039F49F3F19F426F42F
:104210000C9449200EF4E095E7FB0C944320E92F21
:104220000E946B2058F3BA1762077307840795073B
:1042300020F079F4A6F50C948D200EF4E0950B2E69
:10424000BA2FA02D0B01B90190010C01CA01A001E8
:104250001124FF27591B99F0593F50F4503E68F143
:104260001A16F040A22F232F342F4427585FF3CF84
:10427000469537952795A795F0405395C9F77EF455
:104280001F16BA0B620B730B840BBAF09150A1F09E
:10429000FF0FBB1F661F771F881FC2F70EC0BA0F24
:1042A000621F731F841F48F4879577956795B795AC
:1042B000F7959E3F08F0B0CF9395880F08F09927A7
:1042C000EE0F9795879508950E9478210C945A20B7
:1042D0000E94532058F00E944C2040F029F45F3F88
:1042E00029F00C94432051110C948E200C944920F9
:1042F0000E946B2068F39923B1F3552391F3951B2A
:10430000550BBB27AA2762177307840738F09F5FF6
:104310005F4F220F331F441FAA1FA9F335D00E2E63
:104320003AF0E0E832D091505040E695001CCAF7D0
:104330002BD0FE2F29D0660F771F881FBB1F261793
:1043400037074807AB07B0E809F0BB0B802DBF016A
:10435000FF2793585F4F3AF09E3F510578F00C9439
:1043600043200C948E205F3FE4F3983ED4F386956F
:1043700077956795B795F7959F5FC9F7880F911D5A
:104380009695879597F90895E1E0660F771F881F46
:10439000BB1F621773078407BA0720F0621B730BF9
:1043A000840BBA0BEE1F88F7E09508950E947320E6
:1043B00088F09F5798F0B92F9927B751B0F0E1F0E6
:1043C000660F771F881F991F1AF0BA95C9F714C096
:1043D000B13091F00E948D20B1E008950C948D20B1
:1043E000672F782F8827B85F39F0B93FCCF38695CF
:1043F00077956795B395D9F73EF49095809570952C
:1044000061957F4F8F4F9F4F0895EE0FFF1F881FBD
:104410008BBF0790F691E02D19940E94E820B7FF1A
:104420000895821B930B08950F931F93CF93DF93EF
:104430008230910510F482E090E0E091FC0FF09161
:10444000FD0F30E020E0B0E0A0E0309799F42115B6
:10445000310509F44AC0281B390B24303105D8F541
:104460008A819B816115710589F1FB0193838283A8
:10447000FE0111C040815181028113814817590703
:10448000E0F04817590799F4109761F012960C93D1
:10449000129713961C933296CF01DF91CF911F9103
:1044A0000F9108950093FC0F1093FD0FF4CF211589
:1044B000310551F04217530738F0A901DB019A0189
:1044C000BD01DF01F801C1CFEF01F9CF9093FD0FDE
:1044D0008093FC0FCDCFFE01E20FF31F81939193E8
:1044E0002250310939832883D7CF2091FA0F309198
:1044F000FB0F232B41F420910C0230910D023093DD
:10450000FB0F2093FA0F20910A0230910B02211524
:10451000310541F42DB73EB740910E0250910F0284
:10452000241B350BE091FA0FF091FB0FE217F30714
:10453000A0F42E1B3F0B2817390778F0AC014E5F13
:104540005F4F2417350748F04E0F5F1F5093FB0F46
:104550004093FA0F819391939FCFF0E0E0E09CCFDE
:10456000CF93DF930097E9F0FC0132971382128218
:10457000A091FC0FB091FD0FED0130E020E010970D
:10458000A1F420813181820F931F2091FA0F309185
:10459000FB0F2817390709F061C0F093FB0FE09378
:1045A000FA0FDF91CF910895EA01CE17DF07E8F502
:1045B0004A815B819E0141155105B1F7E901FB83F9
:1045C000EA8349915991C40FD51FEC17FD0761F497
:1045D000808191810296840F951FE90199838883D8
:1045E000828193819B838A83F0E0E0E012968D9133
:1045F0009C9113970097B9F52D913C911197CD019E
:104600000296820F931F2091FA0F3091FB0F28170B
:10461000390739F6309751F51092FD0F1092FC0FC3
:10462000B093FB0FA093FA0FBCCFD383C28340811A
:104630005181840F951FC817D90761F44E5F5F4FF2
:1046400088819981480F591F518340838A819B81BA
:10465000938382832115310509F0B0CFF093FD0FCC
:10466000E093FC0F9ECFFD01DC01C0CF13821282CC
:10467000D7CF4F925F926F927F928F929F92AF921D
:10468000BF92CF92DF92EF92FF920F931F93CF933F
:10469000DF938C01009799F4CB01DF91CF911F91AB
:1046A0000F91FF90EF90DF90CF90BF90AF909F90D1
:1046B0008F907F906F905F904F900C941422FC012C
:1046C000E60FF71F9C0122503109E217F30708F4A7
:1046D000AEC0D901CD91DC911197C617D70720F153
:1046E000C530D10578F0CE0104978617970750F0B2
:1046F000C61BD70B2297C193D1936D937C93CF01A7
:104700000E94B022C801DF91CF911F910F91FF90BD
:10471000EF90DF90CF90BF90AF909F908F907F9061
:104720006F905F904F9008955B01AC1ABD0A4C01E9
:104730008C0E9D1EA091FC0FB091FD0F512C412CB1
:10474000F12CE12C109731F58091FA0F9091FB0F2D
:104750008815990509F05CC04616570608F058C040
:1047600080910A0290910B02009741F48DB79EB799
:1047700040910E0250910F02841B950BE817F90728
:1047800008F055C0F093FB0FE093FA0FF901718325
:104790006083B8CF8D919C91119712966C9012976F
:1047A00013967C901397A815B90559F56C0142E052
:1047B000C40ED11CCA14DB0420F1AC014A195B09F8
:1047C000DA011296159780F06282738251834083DA
:1047D000D9016D937C93E114F10471F0D701139624
:1047E000FC93EE9312978ECF22968C0F9D1FF901AA
:1047F00091838083F301EFCFF093FD0FE093FC0FE3
:1048000081CF4816590608F42C017D01D3019ACFB7
:10481000CB010E9414227C01009749F0AE01B8013F
:104820000E941F24C8010E94B02287016BCF10E0B4
:1048300000E068CF81E090E0F8940C940C27FB0135
:10484000DC0102C001900D9241505040D8F708950C
:10485000DC0101C06D9341505040E0F70895FB0129
:10486000DC0101900D920020E1F708950F931F9352
:10487000CF93DF93CDB7DEB72E970FB6F894DEBF98
:104880000FBECDBF0E891F8986E08C831A830983F2
:104890008FEF9FE79E838D83AE01465E5F4F688DED
:1048A000798DCE0101960E9466242F813885020FF2
:1048B000131FF80110822E960FB6F894DEBF0FBEBC
:1048C000CDBFDF91CF911F910F9108952F923F920D
:1048D0004F925F926F927F928F929F92AF92BF9210
:1048E000CF92DF92EF92FF920F931F93CF93DF93BC
:1048F00000D000D000D01F921F92CDB7DEB77C0150
:104900003B018A01FC0117821682838181FFDDC190
:10491000CE0101965C01F7019381F30193FD85912E
:1049200093FF81913F01882309F453C1853239F403
:1049300093FD859193FF81913F01853229F4B70161
:1049400090E00E947E26E7CF912C212C312CFFE1B4
:10495000F31538F08B3211F190F4803209F1833283
:1049600029F137FC3CC020ED280F2A3050F536FEE7
:1049700020C08AE0989E200D1124922E06C08D3210
:1049800091F0803371F7689430F8F30193FD8591CD
:1049900093FF81913F018111DACF21C0689431F8F2
:1049A000689432F8F2CF689433F8EFCF689434F813
:1049B000ECCFEAE02E9E200D1124222E689435F8CB
:1049C000E4CF8E3229F436FC04C1689436F8DDCF8A
:1049D0008C3619F4689437F8D8CF8836B1F2982F0E
:1049E0009F7D95549330E0F08336A1F18337C1F178
:1049F000833509F063C02801F2E04F0E511CF80125
:104A0000C080D180692D70E036FC02C06FEF7FEF6F
:104A1000C6010E9468264C01689437F882010AC0DA
:104A20000C5F1F4FFFE3F98388248394912C650169
:104A3000E89437F833FE2DC0522C8114910471F59F
:104A4000552009F468CFB70180E290E00E947E26ED
:104A50005A94F6CFF801808189830E5F1F4FE4CF0F
:104A60002801F2E04F0E511CF801C080D180692D61
:104A700070E036FC02C06FEF7FEFC6010E94732624
:104A80004C018201D5CFB70180E290E00E947E26E2
:104A90002A942814190409F0B0F7CECFF60137FC98
:104AA000859137FE81916F01B70190E00E947E26CB
:104AB00051105A94F1E08F1A9108BFCF843619F043
:104AC000893609F077C0F80137FE6BC060817181CB
:104AD000828193810C5F1F4FF32DFF763F2E97FF4E
:104AE00009C090958095709561957F4F8F4F9F4F2E
:104AF000689437F82AE030E0A5010E94AE26C82E5F
:104B0000CA188C2C432C36FE0CC0E89440F8C9140B
:104B100040F434FE05C032FC03C0F32DFE7E4F2E60
:104B2000892C44FEAAC0FE01EC0DF11D808180336A
:104B300009F09CC0242D297E422E842D8870582E89
:104B400043FCAAC040FEA4C09C2C821418F42C0C78
:104B5000922C981844FEA6C0B70180E390E00E9412
:104B60007E2642FE09C088E790E041FE02C088E54B
:104B700090E0B7010E947E26C91408F49FC0CA9431
:104B8000D12C9FEFC91AD90ACA0CDB1CF6018291FD
:104B90006F01B70190E00E947E26AC14BD04B1F70E
:104BA0004FCF60817181072E000C880B990B0E5F2F
:104BB0001F4F92CFD32CE894D4F82AE030E0853709
:104BC000E1F1232D297FD22E8F36A9F1F0F488351B
:104BD00051F1F701868197812B960FB6F894DEBFCD
:104BE0000FBECDBFDF91CF911F910F91FF90EF903E
:104BF000DF90CF90BF90AF909F908F907F906F90FD
:104C00005F904F903F902F900895803749F08837FC
:104C100001F7D4FE02C06894D2F820E130E00DC064
:104C20006894D4F8F6CF34FE03C0822F8660D82E65
:104C300020E132E002C028E030E0F801D7FE0FC0EA
:104C400060817181828193810C5F1F4FA5010E9459
:104C5000AE26C82ECA183D2CE89437F852CF608192
:104C6000718190E080E00E5F1F4FF0CF42FC02C0E8
:104C7000839463CF8394839460CF842D867809F4E2
:104C80005CCFF6CFB70180E290E00E947E2683944D
:104C90008214C0F3512C5ECF522C5818821408F4A1
:104CA00059CFF8CF842D867809F466CF8BE241FE88
:104CB00080E247FC8DE2B70190E05CCFB70180E372
:104CC00090E00E947E269A9457CF8FEF9FEF84CF7B
:104CD000FC010590615070400110D8F780959095C7
:104CE0008E0F9F1F0895FC016150704001900110CC
:104CF000D8F7809590958E0F9F1F08950F931F935F
:104D0000CF93DF93182F092FEB018B8181FD09C011
:104D10001FEF0FEF812F902FDF91CF911F910F91F8
:104D2000089582FF14C02E813F818C819D812817B8
:104D300039073CF4E881F981CF0101969983888392
:104D400010838E819F8101969F838E83E3CFE885B8
:104D5000F985812F1995892BA1F3DACFFA01AA27BA
:104D6000283051F1203181F1E8946F936E7F6E5FAE
:104D70007F4F8F4F9F4FAF4FB1E03ED0B4E03CD05C
:104D8000670F781F891F9A1FA11D680F791F8A1F3F
:104D9000911DA11D6A0F711D811D911DA11D20D0A6
:104DA00009F468943F912AE0269F11243019305D60
:104DB0003193DEF6CF010895462F4770405D419351
:104DC000B3E00FD0C9F7F6CF462F4F70405D4A339E
:104DD00018F0495D31FD4052419302D0A9F7EACF66
:104DE000B4E0A6959795879577956795BA95C9F795
:104DF00000976105710508959B01AC010A2E069488
:104E00005795479537952795BA95C9F7620F731F40
:104E1000841F951FA01D089512E0C3E0D2E000E0BA
:104E200006C0802FFE010E9405222196011DC4307C
:104E3000D10780E00807A9F7F894FFCF010000C070
:104E4000A8610A9E83030000FE0F800001005E003F
:104E50000000000000009C058F139205F4FF000085
:104E60009905000000004E064D064D0600000000AA
:104E7000D504B30D4F06D404EB04890DFB0AAB0F28
:104E8000230CD308F004E710E0086C106A0DEF055E
:104E9000DF05DB05D70500000000AB0600000000C1
:104EA0003E064D0616063A004272696768746E65E2
:104EB00073733D003137322E31362E312E3130337F
:104EC00000582E582E582E5800434142494E5F54E8
:104ED000454D5000535549545F54454D500043488B
:104EE0004152545F44494D4D455200434F4E534F3C
:104EF0004C45535F44494D4D455200464C4F4F443D
:104F00005F44494D4D455200494E53545F504E4CFD
:104F10005F44494D4D4552005741524E5F43415504
:104F200054494F4E5F44494D4D4552004445464F0C
:104F3000475F48414E444C45004B5935385F564F0A
:104F40004C554D4500494E4954205249474854203C
:104F5000494E505554202D20006D532073696E63C7
:104F6000652072657365742E000D0A002530336468
:104F700000464C49525F53570052414441525F53DF
:104F80005700494E535F5357004C4354524C204CEA
:104F900053484946542050004C414C54204631005F
:104FA0004C4354524C205A004B5935385F4D4F44B6
:104FB000455F53454C454354004B5935385F46498E
:104FC0004C4C5F53454C45435400484F4F4B5F4C4E
:104FD000455645520057494E475F464F4C445F5235
:104FE0004F54415445004553430041565F434F4F92
:104FF0004C5F5357004C4354524C204C5348494645
:1050000054204633004C54445F525F535700574975
:105010004E475F464F4C445F50554C4C004C5354E8
:105020005F4E464C525F53570052414441525F53CA
:10503000575F50554C4C004C4354524C2046340062
:105040004C5F47454E5F53570042415454455259B7
:105050005F5357004B5935385F504F5745525F5398
:10506000454C45435400525F47454E5F5357004EF1
:10507000554D350046360037004C534849465420BC
:10508000463130004C4354524C204635004C494781
:105090004854535F544553545F535700434F434B59
:1050A0004B5049545F4C494748545F4D4F44455F0E
:1050B00053570057534849454C445F414E54495F4C
:1050C0004943455F5357004543535F4D4F44455F48
:1050D000535700434142494E5F50524553535F532B
:1050E00057004C4354524C204C5348494654204698
:1050F00032005049544F545F484541545F53570064
:10510000424C4545445F4149525F4B4E4F4200522D
:105110004144414C545F544553545F5357004C43F2
:1051200054524C204C534849465420463900434180
:105130004E4F50595F53570043425F484F4F4F4BBC
:1051400000454E475F414E54494943455F53570020
:10515000380043425F4643535F4348414E34004367
:10516000425F4643535F4348414E33004643535FDB
:105170004249545F53570043425F4C47004C5348E9
:0E518000494654205A004C57494E20463100F3
:10E000000D9489F10D94B2F10D94B2F10D94B2F129
:10E010000D94B2F10D94B2F10D94B2F10D94B2F1F0
:10E020000D94B2F10D94B2F10D94B2F10D94B2F1E0
:10E030000D94B2F10D94B2F10D94B2F10D94B2F1D0
:10E040000D94B2F10D94B2F10D94B2F10D94B2F1C0
:10E050000D94B2F10D94B2F10D94B2F10D94B2F1B0
:10E060000D94B2F10D94B2F10D94B2F10D94B2F1A0
:10E070000D94B2F10D94B2F10D94B2F10D94B2F190
:10E080000D94B2F10D94B2F10D94B2F10D94B2F180
:10E090000D94B2F10D94B2F10D94B2F10D94B2F170
:10E0A0000D94B2F10D94B2F10D94B2F10D94B2F160
:10E0B0000D94B2F10D94B2F10D94B2F10D94B2F150
:10E0C0000D94B2F10D94B2F10D94B2F10D94B2F140
:10E0D0000D94B2F10D94B2F10D94B2F10D94B2F130
:10E0E0000D94B2F141546D656761323536300041AF
:10E0F000726475696E6F206578706C6F72657220DE
:10E1000073746B3530305632206279204D4C530099
:10E11000426F6F746C6F616465723E004875683F52
:10E1200000436F6D70696C6564206F6E203D200048
:10E130004350552054797065202020203D20005FF9
:10E140005F4156525F415243485F5F3D2000415658
:10E1500052204C696243205665723D20004743437C
:10E160002056657273696F6E203D20004350552024
:10E1700049442020202020203D20004C6F7720663D
:10E18000757365202020203D20004869676820665F
:10E190007573652020203D200045787420667573D6
:10E1A00065202020203D20004C6F636B2066757336
:10E1B000652020203D20004D617220203720323024
:10E1C000313300312E362E3800342E332E350056A2
:10E1D00023202020414444522020206F7020636F70
:10E1E00064652020202020696E73747275637469E1
:10E1F0006F6E2061646472202020496E74657272B3
:10E20000757074006E6F20766563746F7200726A49
:10E210006D702020006A6D70200057686174207056
:10E220006F72743A00506F7274206E6F7420737541
:10E2300070706F72746564004D7573742062652030
:10E2400061206C6574746572002000577269747483
:10E25000696E672045450052656164696E672045B7
:10E26000450045452065727220636E743D00504F35
:10E27000525400303D5A65726F2061646472003FF1
:10E280003D43505520737461747300403D454550C3
:10E29000524F4D207465737400423D426C696E6B41
:10E2A000204C454400453D44756D70204545505215
:10E2B0004F4D00463D44756D7020464C415348001B
:10E2C000483D48656C70004C3D4C69737420492F83
:10E2D0004F20506F72747300513D51756974005234
:10E2E0003D44756D702052414D00563D73686F7707
:10E2F00020696E7465727275707420566563746FF0
:10E30000727300593D506F727420626C696E6B00BD
:10E310002A0011241FBECFEFD1E2DEBFCDBF01E046
:10E320000CBF12E0A0E0B2E0EEE1FDEF03E00BBFB6
:10E3300002C007900D92A030B107D9F712E0A0E01B
:10E34000B2E001C01D92AE30B107E1F70F9460F367
:10E350000D948DFE01E20EBF0FEF0DBF11241FBE05
:10E360000D9460F30D9400F020E030E040ED57E0B4
:10E3700005C0FA013197F1F72F5F3F4F2817390792
:10E38000C0F308959C01260F311DC901A0E0B0E043
:10E390002F5F3F4FABBFFC018791882361F08093D3
:10E3A000C6008091C00086FFFCCF8091C0008064D1
:10E3B0008093C000EACF08958DE08093C6008091DD
:10E3C000C00086FFFCCF8091C00080648093C000B5
:10E3D0008AE08093C6008091C00086FFFCCF8091C8
:10E3E000C00080648093C00008950F94C2F10F9420
:10E3F000DCF10895FC019081992359F09093C600B7
:10E400008091C00086FFFCCF8091C0008064809323
:10E41000C0003196992379F70895282F982F929567
:10E420009F70892F805D8A3308F0895F8093C600D2
:10E430008091C00086FFFCCF8091C00080648093F3
:10E44000C000822F8F70982F905D9A3308F0995FEB
:10E450009093C6008091C00086FFFCCF8091C000E1
:10E4600080648093C00008959C01FB01853691056E
:10E470001CF46330710594F0C90164E670E00F94F8
:10E480002EFE605D7F4F6093C6008091C00086FFC6
:10E49000FCCF8091C00080648093C0002B30310598
:10E4A00014F43297B4F0C90164E670E00F942EFEC4
:10E4B0006AE070E00F942EFE605D7F4F6093C600AF
:10E4C0008091C00086FFFCCF8091C0008064809363
:10E4D000C000C9016AE070E00F942EFEC0968093E0
:10E4E000C6008091C00086FFFCCF8091C000806490
:10E4F0008093C00008951F93182F8EE692EE60E07F
:10E500000F94C2F11093C6008091C00086FFFCCF2B
:10E510008091C00080648093C0000F94DCF11F9153
:10E5200008952F923F924F925F926F927F928F92B7
:10E530009F92AF92BF92CF92DF92EF92FF920F9392
:10E540001F93DF93CF93CDB7DEB762970FB6F894E2
:10E55000DEBF0FBECDBF382E622ECA01DB015C01CB
:10E560006D01772420E2222E2E010894411C511CBB
:10E570008BC081E0A81680E0B80681E0C80680E084
:10E58000D80628F0C601AA27BB270F940DF2BB2797
:10E59000AD2D9C2D8B2D0F940DF28A2D0F940DF225
:10E5A0002092C6008091C00086FFFCCF8091C00001
:10E5B00080648093C0009DE29093C6008091C0006B
:10E5C00086FFFCCF8091C00080648093C0002092C1
:10E5D000C6008091C00086FFFCCF8091C00080649F
:10E5E0008093C00019828601750188249924A1E0D6
:10E5F0003A1651F03A1620F0B2E03B1661F409C029
:10E600000BBFF701779007C0C7010F9477FE782EF4
:10E6100002C0F7017080872D0F940DF22092C60082
:10E620008091C00086FFFCCF8091C0008064809301
:10E63000C000872D8052F401EF70F0708F3520F408
:10E64000E40DF51D708204C0E40DF51D8EE280839B
:10E650000894E11CF11C011D111D0894811C911CE2
:10E6600090E18916910409F0C2CF80E190E0A0E02A
:10E67000B0E0A80EB91ECA1EDB1E198AC2010F9493
:10E68000FAF10F94DCF16A94662009F072CF629679
:10E690000FB6F894DEBF0FBECDBFCF91DF911F91B3
:10E6A0000F91FF90EF90DF90CF90BF90AF909F9031
:10E6B0008F907F906F905F904F903F902F90089534
:10E6C0002F923F924F925F926F927F928F929F9282
:10E6D000AF92BF92CF92DF92EF92FF920F931F9370
:10E6E000DF93CF93CDB7DEB7CD53D1400FB6F894BB
:10E6F000DEBF0FBECDBF01E20EBF0FEF0DBF94B75F
:10E70000F894A89514BE80916000886180936000A1
:10E7100010926000789493FF05C0E0910002F091A0
:10E7200001021995279A2F9A8091C00082608093E8
:10E73000C00080E18093C40088E18093C1000000A4
:10E74000EE24FF24870144E0A42EB12CCC24DD2448
:10E7500024C0C5010197F1F70894E11CF11C011DCB
:10E76000111D21E2E2162EE4F20620E0020720E06D
:10E77000120718F031E0C32ED12CC801B70127ECE5
:10E780003BE140E050E00F9441FE611571058105C9
:10E79000910519F485B1805885B98091C00087FD35
:10E7A00003C0C114D104A9F2A6014F5F5F4FC25E3E
:10E7B000DE4F59834883CE51D140C25EDE4F8881FF
:10E7C0009981CE51D140019711F00D9410FEC05D9A
:10E7D000DE4F19821882C053D14060E0C15DDE4F28
:10E7E0001882CF52D14088249924C35DDE4F19820C
:10E7F0001882CD52D140C05EDE4F188219821A8233
:10E800001B82C052D140CE5CDE4F188219821A8220
:10E810001B82C253D140EE24FF2487010BBFF701B6
:10E8200007911691C45CDE4F19830883CC53D14005
:10E830000D940BFEC25EDE4F28813981CE51D1404E
:10E840002130310509F52091C600C25EDE4F1982E4
:10E850001882CE51D14022C02F5F3F4F4F4F5F4FA4
:10E86000213082E138078AE7480780E0580780F0C6
:10E87000C45CDE4FE881F981CC53D140EF5FFF4F9C
:10E8800019F0EE27FF27099420E030E040E050E047
:10E890008091C00087FFE0CF2091C600C35DDE4FAE
:10E8A00048815981CD52D1404F5F5F4FC35DDE4FEC
:10E8B00059834883CD52D140213209F063C64A3092
:10E8C000510508F05FC60894811C911C53E0851621
:10E8D000910409F059C600E010E018C081E280936D
:10E8E000C6008091C00086FFFCCF8091C00080648C
:10E8F0008093C0002F5F3F4F2931310579F70F9486
:10E90000DCF10F5F1F4F0530110519F020E030E0FA
:10E91000E5CF10920A0210920B0210920C02109294
:10E920000D02109206021092070210920802109235
:10E930000902109202021092030210920402109235
:10E9400005028FEE90EE60E00F94F5F180E191EE1C
