:020000040000FA
:100000000C948B010C94BC010C94BC010C94BC01AD
:100010000C94BC010C94BC010C94BC010C94BC016C
:100020000C94BC010C94BC010C94BC010C94BC015C
:100030000C94BC010C94BC010C94BC010C94BC014C
:100040000C94BC010C94C2170C94BC010C94BC0120
:100050000C94BC010C94BC010C94BC010C94EE16E5
:100060000C94BC010C94F0170C94BC010C94BC01D2
:100070000C94BC010C94BC010C94BC010C94BC010C
:100080000C9494170C94BC010C94BC010C94BC010E
:100090000C94BC010C94BC010C94BC010C94BC01EC
:1000A0000C94BC010C94BC010C9466170C94BC011C
:1000B0000C94BC010C94BC010C94BC010C9438173A
:1000C0000C94BC010C94BC010C94BC010C94BC01BC
:1000D0000C94BC010C94BC010C94BC010C94BC01AC
:1000E0000C94BC010C94CD030C94E9120C94DB0528
:1000F0000C94BD080C94EB030C94D7030C941502DC
:100100000C9462020C9459100C945C020C943A0802
:100110000C9466020C944A020C94FF110C94830315
:100120000C9465120C942B020C94CD070C941002C5
:100130000C94BA110C948A0B0C9478210C947402D0
:100140000C9486120C942F020C94E5030C94E00599
:100150000C9444120C944E020C947F020C94C5052E
:100160000C9478020C9446020C94A7120C94360856
:100170000C9483020C949B030C948B020C946C02E1
:100180000C9433020C948D030C940A130C941010ED
:100190000C94CB130C943C020C94E9190C94360289
:1001A0000C9446140C9470020C94C5030C94A10D8D
:1001B0000C943E080C9455080C94C90E0C94F60847
:1001C0000C947D0B0C9454020C94F4080C9458027B
:1001D0000C9440020C94E5080C9487020C942F10A8
:1001E0000C9427020C94C7030C940C080C944E0832
:1001F0000C94F5080C9420080C94C8120C94FC077D
:100200000C94AD030C94C4050C94540900000A0B23
:1002100002090C0D0E080703040100000000000095
:1002200000000000000000000000000000000000CE
:10023000000000000000000012111000000000008B
:1002400000000000000000000000000000000000AE
:10025000000000002200250028002B002E003100A5
:10026000340002010000050108010B01000021001B
:10027000240027002A002D00300033000101000077
:10028000040107010A010505050507050808080816
:10029000020202020A0A080804040404010101011E
:1002A0000101010103030303030303030407070719
:1002B0000C0C0C0C0C0C0C0C0202020206060606BE
:1002C000060606060B0B0B0B0B0B0B0B010210208B
:1002D000200808102040102040800201020108047C
:1002E0000201010204081020408080402010080410
:1002F0000201800402018040201008040201080469
:1003000002010102040810204080010204081020AC
:100310004080E919782111241FBECFEFD1E2DEBF62
:10032000CDBF00E00CBF13E0A0E0B2E0EAE4F9E4E6
:1003300000E00BBF02C007900D92A63CB107D9F7B1
:1003400027E0A6ECB3E001C01D92A83BB207E1F79D
:1003500011E0CAE8D1E000E006C021970109802F32
:10036000FE010E945A22C938D10780E00807A9F788
:100370000E94151D0C9493240C94000090E0FC0145
:10038000E453FD4F24918A579D4FFC0184918823AB
:1003900099F090E0880F991FFC01E459FD4FA59159
:1003A000B491FC01EE5AFD4F859194918FB7F8946A
:1003B000EC91E22BEC938FBF08958CBD9DBD089509
:1003C000282F30E0F901E45FFD4F9491F901E453E7
:1003D000FD4F44912A573D4FF9012491222309F4FE
:1003E00035C0992311F191509231F8F4E92FF0E0E2
:1003F0008827E250FE4F8F4F0C945A222F0233026F
:10040000100227022B02150236023C02400246026D
:100410004A024E025402580215025C02620266024F
:10042000809180008F7780938000E22FF0E0EE0FC4
:10043000FF1FEE5AFD4FA591B4918FB7F894EC9140
:10044000611148C040954E234C938FBF0895809111
:1004500080008F7DE8CF80918000877FE4CF84B5D6
:100460008F7784BDE2CF84B58F7DFBCF8091B000C4
:100470008F778093B000D9CF8091B0008F7DF9CF76
:10048000809190008F7780939000CFCF80919000E3
:100490008F7DF9CF80919000877FF5CF8091A0006C
:1004A0008F778093A000C1CF8091A0008F7DF9CF7E
:1004B0008091A000877FF5CF809120018F77809376
:1004C0002001B3CF809120018F7DF9CF8091200151
:1004D000877FF5CF4E2BB8CF682F8BE10C94E001CE
:1004E000682F8CE10C94E001682F8EE10C94E00100
:1004F00061E0019709F460E08FE10C94E001682F5E
:100500008DE10C94E001682F87E10C94E001682FE5
:1005100088E10C94E001CF93DF93EC0161E0029756
:1005200009F060E089E10E94E0016C2F85E0DF9135
:10053000CF910C94E0013FB7F8948091D003909153
:10054000D103A091D203B091D30326B5A89B05C0D7
:100550002F3F19F00196A11DB11D3FBFBA2FA92F42
:10056000982F8827BC01CD01620F711D811D911D3F
:1005700042E0660F771F881F991F4A95D1F70895AB
:100580008F929F92AF92BF92CF92DF92EF92FF92A3
:100590004B015C010E949B026B017C010E949B024B
:1005A0006C197D098E099F09683E7340810591058C
:1005B000A8F321E0821A9108A108B10888EEC80EBC
:1005C00083E0D81EE11CF11C81149104A104B10444
:1005D00029F7FF90EF90DF90CF90BF90AF909F9062
:1005E0008F9008952FB7F8946091CC037091CD034C
:1005F0008091CE039091CF032FBF08950F931F9347
:10060000CF93DF93EC018B0188859985029751F494
:100610006130710509F43AC06CF560E0011511050F
:1006200009F435C088859985049751F40130110586
:1006300009F455C00CF035C00115110509F43EC090
:1006400088859985059709F0C8C00A30110508F01A
:10065000C4C0F8018827E05DFC4F8F4F0C945A22EC
:1006600083038D039B03AD03C503C703CD03D703EA
:10067000E503EB036230710591F060E00330110592
:1006800089F68C850E94E00160E005C061E08C8500
:100690000E94E00161E08E850E94E001C3CF61E02D
:1006A000F0CF0230110509F10330110509F0C8CF70
:1006B00061E08C850E94E00160E01CC061E08C85F7
:1006C0000E94E00160E08E850E94E00161E088897F
:1006D0000E94E00160E08A890E94E001B1CF60E001
:1006E0008C850E94E00161E0EECF60E08C850E9485
:1006F000E00161E08E850E94E00160E088890E944F
:10070000E00161E0E8CF60E08C850E94E00161E0FB
:100710008E850E94E00161E009C060E08C850E9446
:10072000E00161E08E850E94E00160E088890E941E
:10073000E00160E00DC060E08C850E94E00161E0B6
:100740008E850E94E00160E088890E94E00161E0FE
:100750008A890E94E00161E011C060E08C850E94FE
:10076000E00161E08E850E94E00160E088890E94DE
:10077000E00161E08A890E94E00160E08C89DF91FC
:10078000CF911F910F910C94E00161E0E7CF61E000
:100790008C850E94E00160E0E5CF61E08C850E94DD
:1007A000E00160E08E850E94E00161E0DFCF61E062
:1007B0008C850E94E00160E08E850E94E00161E08E
:1007C00088890E94E00160E0D5CF61E08C850E94BD
:1007D000E00160E09DCF60E0F9CFDF91CF911F9104
:1007E0000F9108954F925F926F927F928F929F9296
:1007F000AF92BF92CF92DF92EF92FF920F931F932F
:10080000CF93DF93EC018B0177FF04C00027112702
:10081000061B170B161617060CF04AC081E090E075
:100820009983888384E0E82EF12C9AE0C92ED12C9C
:100830000115110509F44EC00E949B028E889F8805
:10084000A88CB98C2B013C01481859086A087B0810
:100850008A809B80AC80BD80481459046A047B0464
:1008600038F36E8B7F8B888F998F8A859B85288143
:1008700039812130310511F501969B878A872E81B8
:100880003F818217930711F41B861A8601501109C4
:100890008A859B8528853985B6012530310509F083
:1008A000B7010E944622BC01CE010E94FE02C0CFC9
:1008B000672B09F4B7CF19821882B4CF892B21F4A2
:1008C0008E819F819B878A878A859B8501979B87DD
:1008D0008A87DCCFDF91CF911F910F91FF90EF902E
:1008E000DF90CF90BF90AF909F908F907F906F9050
:1008F0005F904F900895FC0120812EBD9B012150F7
:10090000310941F051810DB407FEFDCF4EB55EBDFA
:100910004193F5CF61507109860F971F0DB407FE03
:10092000FDCF2EB5FC0120830895E091BB04F0912A
:10093000BC0480819091BA04892B80830895E09152
:10094000BB04F091BC0490818091BA048095892306
:10095000808308958EBD00000DB407FEFDCF8EB5D7
:100960000895AF92BF92CF92DF92EF92FF920F93D2
:100970001F93CF93DF9300D000D01F921F92CDB76B
:10098000DEB78C017B016A018091BE048333E1F400
:100990005801A40EB51EA016B10609F46FC00E943E
:1009A0009F0480EF0E94AA04812F0E94AA04802F36
:1009B0000E94AA040F5F1F4FF70181917F010E94DF
:1009C000AA040E949504E7CF5B01A40EB51E8433F0
:1009D000C1F40E949F0419830A838D2D80688B8344
:1009E000CC8264E070E0CE0101960E947B04AE14DC
:1009F000BF0409F441C0F70181917F010E94AA045C
:100A0000F6CF0E949F040F3F110509F028F41982C8
:100A10000A8384E08B830CC017FD17C019820A83F8
:100A200033E0169507953A95E1F7007E0C600B834D
:100A300086E0C816D104A0F5F701DE011496EA1588
:100A4000FB0599F081918D93FACFC80126E0969528
:100A500087952A95E1F7807E19830A830115104C4A
:100A600010F48461D7CF8C61D5CFB6016D5F7F4F15
:100A7000CE0101960E947B040E949504C60128962F
:100A80000FB6F894DEBF0FBECDBFDF91CF911F919F
:100A90000F91FF90EF90DF90CF90BF90AF900895AF
:100AA00063E070E0CE0101960E947B04F701819122
:100AB0007F010E94AA04AE14BF04C1F7DDCFCF931B
:100AC000DF931F92CDB7DEB7898341E050E0BE01CE
:100AD0006F5F7F4F90E080E00E94B1040F90DF9144
:100AE000CF91089590E02091BE04233339F40C9601
:100AF000982F990F990F990F80E008954896F8CF95
:100B0000DA01E091BF04F0E0FE2FEE27E60FF71FB9
:100B100090E0982F8827A901BD018E0F9F1F0C948C
:100B2000B104CF93DF931F921F92CDB7DEB77983C5
:100B30006A8322E030E0AE014F5F5F4F64E070E017
:100B40000E9480050F900F90DF91CF910895CF9371
:100B5000DF931F92CDB7DEB72091BF0430E0322F74
:100B60002227260F371F90E0982F8827498341E0DE
:100B700050E0BE016F5F7F4F820F931F0E94B10450
:100B80000F90DF91CF9108950895CF93DF931F9237
:100B9000CDB7DEB76983DC01ED91FC910280F38172
:100BA000E02D41E050E0BE016F5F7F4F19950F903F
:100BB000DF91CF910895FC01818D928D0895089564
:100BC000DF92EF92FF920F931F93CF93DF931F92C9
:100BD0001F92CDB7DEB7FB01DC0157961C921E9227
:100BE00056972281211109C02381211106C0248139
:100BF000211103C02581222369F14115510551F1CD
:100C00007A018F01FC01D08C80E591E00E94DD012A
:100C1000A8014E5F5F4F24E030E06CE070E08D2D66
:100C20000E948005F982EA8222E030E0AE014F5F47
:100C30005F4F60E170E08D2D0E94800581E090E0C3
:100C40000F900F90DF91CF911F910F91FF90EF9038
:100C5000DF90089580E0F3CFDC01EC91E03390F574
:100C600011968C91119728E830E0281B310987FDF7
:100C70003395220F331F220F331F6217730784F03F
:100C800012968C9128E532E0281B310987FD3395B7
:100C9000220F331F220F331F621773070CF49B01BF
:100CA00022503109220F331F4FB7F8948E2F90E056
:100CB000FC01EE0FFF1FE80FF91FEC52FC4F3283CF
:100CC00021834FBF0895DF92EF92FF920F931F93FE
:100CD000CF93DF93EC01D62E7A018901888180338E
:100CE00008F066C0862F0E94BE018881282F30E060
:100CF000F901EE0FFF1FE20FF31FEC52FC4F9D2D89
:100D00009F736081607C692B608320E232E02E1942
:100D10003F0937FF02C02D5F3F4F35952795359529
:100D20002795298320E639E0201B310B37FF02C0CD
:100D30002D5F3F4F35952795359527952A832CE0D4
:100D4000622F0E943A22829FB001112430E020E0FD
:100D5000AB01420F531FFA01EE0FFF1FE40FF51F07
:100D6000EC52FC4F908196FD16C02F5F3F4F2C3008
:100D7000310571F7813029F51092800082E080936F
:100D800081001092850010928400B19A80916F00CA
:100D9000826080936F00E8818E2F90E0FC01EE0F5F
:100DA000FF1FE80FF91FEC52FC4F808180648083A5
:100DB0008881DF91CF911F910F91FF90EF90DF908D
:100DC0000895823061F41092900080939100109207
:100DD00095001092940088BB80937100DCCF833023
:100DE00069F41092A00082E08093A1001092A50007
:100DF0001092A40089BB80937200CDCF8111CBCF1C
:100E00001092200182E0809321011092250110921E
:100E100024018ABB80937300BECF20E639E040E214
:100E200052E00C946306AF92BF92CF92DF92EF92A2
:100E3000FF920F931F93CF93DF936B017A01EC0125
:100E4000CA53DC4F28813CE0389F8001399F100D48
:100E50001124A090CA03B12C27FF1FC0FB011182EF
:100E6000108288818F5F888388819801280F311DC7
:100E700087FD3A95F6012A153B051CF488818C30D4
:100E8000C4F180819181049680349C4908F473C038
:100E9000F60180819181049670C088819801280FA5
:100EA000311D87FD3A952A153B05DCF68881A8019E
:100EB000480F511D87FD5A95FA01EE0FFF1FE40FF1
:100EC000F51FEC52FC4F808186FFCBCF8881F80163
:100ED000E80FF11D87FDFA95CF01EE0FFF1FE80F18
:100EE000F91FEC52FC4F808160E08F730E94E0019B
:100EF000B8CF808191812881A801420F511D27FD23
:100F00005A959A01FA01EE0FFF1FE20FF31FEC5200
:100F1000FC4F21813281820F931FF70191838083DF
:100F200088819801280F311D87FD3A95F901EE0F50
:100F3000FF1FE20FF31FEC52FC4F808186FF22C09F
:100F40008881080F111D87FD1A95F801EE0FFF1F0C
:100F5000E00FF11FEC52FC4F808161E08F73DF9155
:100F6000CF911F910F91FF90EF90DF90CF90BF90A6
:100F7000AF900C94E00180E49CE9F70191838083B9
:100F80008FEF8883DF91CF911F910F91FF90EF90AA
:100F9000DF90CF90BF90AF900895019761F56CE01E
:100FA00070E080E796E00E940D076CE474E080E753
:100FB00096E00E942C066AE070E080E090E00E94DB
:100FC000C00260E273E080E796E00E942C066CE2CB
:100FD00071E080E090E00E94C002E09170068E2FE8
:100FE00090E0FC01EE0FFF1FE80FF91FEC52FC4FE1
:100FF00080818F7B808308959C01A6E9B0E00E94E8
:101000002B2228EE3DEF40E050E00E94DF2130939C
:101010006B0420936A0408959C01A3EAB2E00E9445
:101020002B2228EE3DEF40E050E00E94DF21235DBF
:101030003F4F4F4F5F4F30937104209370040895DA
:10104000DC012AE33DEF4FEF5FEF0E94FE2128EE27
:101050003DEF40E050E00E94DF2120533D4F4F4FD5
:101060005F4F30937704209376040895FC018485C4
:1010700095850895FC0184899589089520E632E0DC
:10108000FC0131832083FB01408951896289738986
:10109000FC0142835383648375830895DC01ED91E1
:1010A000FC91048CF58DE02D1994CF92DF92EF9294
:1010B000FF920F931F93CF93DF93EC018C01055F99
:1010C0001F4FEB858E2F90E0FC01EE0FFF1FE80F06
:1010D000F91FEC52FC4F808186FD0BC029893A89AB
:1010E0004F8558896E85062E000C770BC8010E942B
:1010F00063068A8580FF38C0F894888599852A859B
:101100002E7F2A877894EB89FC89309769F01995AE
:10111000BC01C801DF91CF911F910F91FF90EF901B
:10112000DF90CF900C942C06CF84D8880D2C000C27
:10113000EE08FF0829893A89032E000C440B550B51
:101140002C193D094E095F09DC010E94FE212FEF99
:101150003FEF40E050E00E94DF21DA01C9018C0D31
:101160009D1DAE1DBF1DD4CFDF91CF911F910F915B
:10117000FF90EF90DF90CF900895DC011A968C914C
:101180001A9780FF21C01E96ED91FC911F97309712
:10119000D9F0F89418968D919C9119971A962C91E4
:1011A0001A972E7F1A962C931A9778941B962D9146
:1011B0003C911C97822393231D962C9102C09695F7
:1011C00087952A95E2F719940895FC01828581118B
:1011D00005C05187408785E0828705C0808591855D
:1011E00084179507B1F708950895089590E080E079
:1011F0000895FB0101900020E9F73197AF01461BEC
:10120000570BDC01ED91FC910280F381E02D1994E4
:101210008F929F92AF92BF92EF92FF920F931F9384
:10122000CF93DF93CDB7DEB7A1970FB6F894DEBFAB
:101230000FBECDBF7C01FA01CB0119A2223008F408
:101240002AE08E010F5D1F4F822E912CB12CA12C14
:10125000BF01A50194010E940922F901CA016A3067
:101260000CF5605DD8016E938D01232B242B252B6B
:1012700079F790E080E0109721F0BD01C7010E944E
:10128000F908A1960FB6F894DEBF0FBECDBFDF916F
:10129000CF911F910F91FF90EF90BF90AF909F90D3
:1012A0008F900895695CDECF8F929F92AF92BF922C
:1012B000CF92DF92EF92FF920F931F93CF93DF9322
:1012C0007C01EB016C0182E0C80ED11C4701E5E016
:1012D0008E0E911C10E000E0F60141916F0150E08C
:1012E00070E060E02AE0CE010E9408095C01E8811C
:1012F000F9810190F081E02D6EE2CE0119958A0D01
:101300009B1D080F191FC814D90431F7F701458137
:1013100050E070E060E02AE0CE010E940809800FF2
:10132000911FDF91CF911F910F91FF90EF90DF9070
:10133000CF90BF90AF909F908F9008950F931F9381
:10134000CF93DF93EC0188819981009759F02A812E
:101350003B812617370730F081E0DF91CF911F9155
:101360000F9108958B016F5F7F4F0E949B23009721
:1013700059F0998388831B830A832C813D81232B19
:1013800059F7FC011082E8CF80E0E7CFEF92FF929F
:101390000F931F93CF93DF936115710541F480E0A4
:1013A000DF91CF911F910F91FF90EF90089541151C
:1013B0005105B1F07B01EC010C811D81040F151F5B
:1013C000B8010E949E09882351F3288139818C81BC
:1013D0009D81B701820F931F0E948C241D830C8373
:1013E00081E0DECFCF93DF93EC0188819981009774
:1013F00011F00E941223198218821D821C821B8206
:101400001A82DF91CF910895CF93DF93EC01FB0116
:1014100001900020E9F73197AF01461B570B0E945E
:10142000C609811103C0CE010E94F209CE01DF91ED
:10143000CF910895CF93DF93EC01FB014481558157
:10144000608171810E94C609811103C0CE010E9492
:10145000F209CE01DF91CF910895EF92FF920F93A1
:101460001F93CF93DF93EC017B018A01BA010E94A5
:101470009E0981110BC0CE010E94F209CE01DF91BD
:10148000CF911F910F91FF90EF9008951D830C83D2
:10149000B701888199810E948C24F0CFEF92FF924E
:1014A0000F931F93CF93DF93CDB7DEB762970FB63D
:1014B000F894DEBF0FBECDBF8C01CB01F8011182C5
:1014C000108213821282158214824AE09E012F5FDD
:1014D0003F4F7901B9010E948821F7010190002056
:1014E000E9F73197AF014E195F09B701C8010E94B2
:1014F0002D0A62960FB6F894DEBF0FBECDBFDF9106
:10150000CF911F910F91FF90EF900895FB01DC01A7
:1015100011961C921E9213961C921E92129715966B
:101520001C921E9214978617970749F0608171816B
:101530006115710521F0448155810C942D0A08959F
:10154000FC01118210821382128215821482FB0127
:1015500001900020E9F73197AF01461B570B0C941F
:101560002D0AFC0180819181009711F00C941223C7
:101570000895AF92BF92CF92DF92EF92FF920F93B6
:101580001F93CF93DF9300D01F92CDB7DEB78C01AE
:101590006B017A018091BE048333E9F45B01680139
:1015A000C40ED51EC016D106A9F10E949F048FE07B
:1015B0000E94AA04812F0E94AA04802F0E94AA04DC
:1015C0000F5F1F4F80E00E94AA04F50181935F0125
:1015D0000E949504E7CF843369F50E949F04198324
:1015E0000A838F2D8F778B83EC8264E070E0CE01CD
:1015F00001960E947B04A70170E060E0C6010E9492
:101600008524E114F10421F0B701C6010E947B0496
:101610000E949504C7010F900F900F900F90DF91DB
:10162000CF911F910F91FF90EF90DF90CF90BF90DF
:10163000AF9008950E949F040F3F110509F030F408
:1016400019820A831B8263E070E0D1CF17FD0BC0C3
:1016500019820A8333E0169507953A95E1F7007EE3
:1016600008600B83F0CFC80126E0969587952A95F0
:10167000E1F7807E19830A830115104C18F480610C
:101680008B83E1CF8861FCCFCF93DF931F92CDB7DF
:10169000DEB72091BF0430E0322F2227260F371FFC
:1016A00090E0982F882741E050E0BE016F5F7F4FA8
:1016B000820F931F0E94B90A89810F90DF91CF9109
:1016C0000895CF93C82F462F61E070E00E94A705D0
:1016D00061E070E08C2F0E94440B8111F9CFCF9113
:1016E0000895CF93C82F80E591E00E94DD0160E16D
:1016F00070E08C2FCF910C94610BCF93DF93EC01B2
:10170000888D883020F40E94710B88E0888FDF91EB
:10171000CF910895CF93FC01C08D80E591E00E94A8
:10172000DD0160E270E08C2F0E94610B62E070E0EE
:101730008C2F0E94440B84FD16C062E070E08C2F59
:101740000E94440B83FF0AC048E162E070E08C2FE6
:101750000E94A70580E090E0CF91089580E591E098
:101760000E94DD01E3CF40E162E070E08C2F0E9437
:10177000A70581E0F0CFCF93DF931F92CDB7DEB7FF
:1017800041E050E0BE016F5F7F4F90E080E00E943B
:10179000B90A89810F90DF91CF910895CF93DF939C
:1017A000C4E1D0E00E94BB0B882361F061E070E0EF
:1017B00080E090E00E94C0022197A1F780E0DF91D5
:1017C000CF91089581E0FBCFCF92DF92EF92FF920D
:1017D0000F931F93CF93DF93CDB7DEB7C454D109D6
:1017E0000FB6F894DEBF0FBECDBFFC01828193819E
:1017F000A481B58123968CAF9DAFAEAFBFAF2397C9
:1018000021E023962FAF239723964CAD5DAD6EADAF
:101810007FAD23974BAB5CAB6DAB7EAB89AF9AAF23
:10182000ABAFBCAF8DA79EA7AFA7B8AB28AB4DA5FC
:101830005EA56FA578A94FA358A769A77AA72EAB75
:101840004BA95CA96DA97EA949A35AA36BA37CA34C
:101850008B8F9C8FAD8FBE8F40E652E05C8B4B8BA5
:101860003FEF3D8B3E8B3F8B188E5E874D872AA7BF
:10187000CFA0D8A4E9A4FAA4CF86D88AE98AFA8AA4
:101880002CA309A11AA12BA13CA109871A872B8798
:101890003C875A8349838B839C83AD83BE8380912D
:1018A000C004811199C060E372E080E090E00E9482
:1018B000C0021FB7F8948091BD04811124C0EBEBE6
:1018C000F2E08491E1E0F3E09491E82FF0E0EE0F94
:1018D000FF1FE459FD4FA591B491EC91E92321F448
:1018E00061E085E30E94E00185E30E94BE018CB5C2
:1018F00080618CBD8CB580648CBD84E30E94BE0188
:1019000083E30E94BE018091BD048F5F8093BD047C
:101910001FBFE0E9F2E0E491F0E0EE0FFF1FEE5AA6
:10192000FD4F859194919093BC048093BB04E6EDA8
:10193000F2E0E491E093BA048AE00E94BE010E94C2
:10194000950480E591E00E94DD0184E38093BE046C
:1019500080E80E945F050E94CE0B882309F472C0C4
:1019600088E00E945F050E94BB0B883009F06AC0C6
:1019700080E10E945F050E94BB0B803109F062C0CC
:1019800080E00E945F050E94BB0B182F81115AC096
:1019900041E050E0BE016D5B7F4F8FE190E00E941F
:1019A000B90A24968FAD2497833009F04BC080E4A8
:1019B0008093BF0442E06EE170E0812F0E94A70592
:1019C00042E06FE170E0812F0E94A7051F5F183091
:1019D00089F781E08093C00480E591E00E94DD01F9
:1019E00046E050E062E072E089E090E00E94B104DD
:1019F00044E050E0BE016D5F7F4F8FE090E00E94B9
:101A0000B10444E050E0BE01615F7F4F81E090E0AF
:101A10000E94B10444E050E0BE016B5E7F4F85E060
:101A200090E00E94B10481E08C8789859A85AB851E
:101A3000BC858093E1049093E204A093E304B09307
:101A4000E4046FC087E38093BE0480E80E945F05D2
:101A50000E94CE0B882339F188E00E945F050E9426
:101A6000BB0B883001F580E10E945F050E94BB0B33
:101A7000182F8031C1F480E00E945F050E94BB0BEB
:101A8000811111C041E050E0BE016D5B7F4F89E3E1
:101A900090E00E94B90A24968FAD2497843019F4FF
:101AA0001093BF0496CF83E38093BE0480E80E9426
:101AB0005F050E94CE0B882391F180E10E945F05B3
:101AC0000E94BB0B803159F582E10E945F050E94A4
:101AD000BB0B823121F580E00E945F050E94BB0BA9
:101AE00081111DC084E08093BF0415E525961FAFCA
:101AF000259741E050E0BE016C5B7F4F8BE190E0A9
:101B00000E94B10424961FAF249741E050E0BE012B
:101B10006D5B7F4F8AE190E00E94B1045ACF109232
:101B2000BE04CC5BDF4F0FB6F894DEBF0FBECDBF57
:101B3000DF91CF911F910F91FF90EF90DF90CF90A9
:101B400008951F93CF93DF931F92CDB7DEB7FC01AB
:101B5000108D183020F5818D928D892B01F180E553
:101B600091E00E94DD01812F0E94720527E0129F03
:101B7000F0011124EE57FB4F22813381377041E091
:101B800050E0BE016F5F7F4F820F931F0E94B90A22
:101B9000898190E00F90DF91CF911F9108958FEF91
:101BA0009FEFF8CFDA01E091BF04F0E0FE2FEE27BF
:101BB000E60FF71F90E0982F8827A901BD018E0F2F
:101BC0009F1F0C94B90A8F929F92AF92BF92CF92AF
:101BD000DF92EF92FF920F931F93CF93DF93CDB7D6
:101BE000DEB760970FB6F894DEBF0FBECDBF7C01A5
:101BF0009091BE04911115C018E0812F60960FB628
:101C0000F894DEBF0FBECDBFDF91CF911F910F9132
:101C1000FF90EF90DF90CF90BF90AF909F908F900C
:101C2000089508E0933309F404E06B0180E591E046
:101C30000E94DD019E012F5F3F4F5901490110E0D5
:101C400063E070E0812F0E94440BF40181934F0107
:101C50008823C1F01F5F0113F3CF00E0F5018191EC
:101C60005F018D3149F0883139F08A51823020F09E
:101C70000F5F1013F3CFC0CF60E170E0802F0E94A0
:101C8000610B102FA12EB12C83EE93E00197F1F799
:101C900042E870E060E0812F0E94A7054FEF62E00C
:101CA00070E0812F0E94A705B601C114D10491F400
:101CB000809100029091010201968115F0EC9F073E
:101CC00008F464C0909301028093000260910002C6
:101CD00070910102812F0E94910586E0EEE0F2E012
:101CE000DE01199601900D928A95E1F7F701838143
:101CF0008F778C8784818D8785818E87A7014E5F42
:101D00005F4F24E030E06CE070E0812F0E9480059E
:101D1000DF86C88A22E030E0AE01415F5F4F60E1BC
:101D200070E0812F0E94800526E030E0AE01475F21
:101D30005F4F66E070E0812F0E94800561E070E0F7
:101D4000812F0E94610B27E02A9DC0012B9D900DE1
:101D500011249C012E573B4F7901F9011182108209
:101D600022E030E0AE01415F5F4F68E270E0812F1A
:101D70000E94D20D8F859889982789279827F70187
:101D80009383828316821582148237CF80E090EC91
:101D900099CFCF92DF92EF92FF920F931F93CF9341
:101DA000DF9300D000D0CDB7DEB78C016B017A0194
:101DB000FC01808D883010F40E94710B80E692E067
:101DC0009A838983F60182819381A481B5818B8373
:101DD0009C83AD83BE83B701CE0101960E94E30DC3
:101DE000F801808F8830A0F4F586E486128E118E7B
:101DF00081E026960FB6F894DEBF0FBECDBFDF910F
:101E0000CF911F910F91FF90EF90DF90CF900895A9
:101E100080E0EFCFFF920F931F93CF93DF931F923A
:101E20001F92CDB7DEB7F82E22E030E0AE014F5F53
:101E30005F4F66E270E00E94D20D09811A8110277F
:101E40000127102722E030E0AE014F5F5F4F66E2CE
:101E500070E08F2D0E94D20D89819A819827892761
:101E600098270817190749F4C8010F900F90DF91C0
:101E7000CF911F910F91FF9008958C01E3CF4F9266
:101E80005F927F928F929F92AF92BF92CF92DF929A
:101E9000EF92FF920F931F93CF93DF931F921F92A6
:101EA000CDB7DEB7782E6B014A01A82EB12C27E002
:101EB000829FC0011124FC01EE57FB4F7F0100817E
:101EC000118180E591E00E94DD010815190554F4A7
:101ED000872D0E940A0FF70126818C01021B110930
:101EE000118300830115110529F563E070E0872D4A
:101EF0000E94440B843159F0882349F001E010E03E
:101F00008C3111F410E000E0119501951109C80120
:101F10000F900F90DF91CF911F910F91FF90EF9055
:101F2000DF90CF90BF90AF909F908F907F905F9009
:101F30004F900895801691060CF4840187E08A9DE5
:101F4000F0018B9DF00D1124EE57FB4FE280F380E2
:101F5000C114D10451F12701F7E05F22872D0E94BF
:101F60007205840D951D2091BE04273309F453C0DA
:101F70009801240D351D2130384008F44CC020E074
:101F800038E0490184189508A401B6010E94B90AF5
:101F90002601480C591C6801C818D908872D0E94D1
:101FA0007205A601B2010E94B90AE00EF11E87E097
:101FB0008A9DF0018B9DF00D1124EE57FB4FF382AB
:101FC000E28220813181201B310B31832083868185
:101FD000800F912F911D8A3F910510F4232BF1F46E
:101FE00087E08A9DF0018B9DF00D1124EE57FB4F89
:101FF0001682F982EA8222E030E0AE014F5F5F4F45
:1020000068E270E0872D0E94800560E470E0872D13
:102010000E94610B7CCFA801B601C5CF868377CF24
:10202000CF93DF93FC01218D328D2115310529F4E9
:102030008FEF9FEFDF91CF910895EC01808D4217D4
:10204000530708F0A9010E943F0F1816190684F7DC
:10205000298D3A8D281B390B3A8F298FEBCF0F939F
:102060001F93CF93DF931F92CDB7DEB7FC01218D75
:10207000328D232B41F48FEF9FEF0F90DF91CF91A3
:102080001F910F9108958C0141E050E0BE016F5FF8
:102090007F4FFC01808D0E943F0F181619065CF7D8
:1020A000F801818D928D0197928F818F898190E0C7
:1020B000E4CF3F924F925F926F927F928F929F9266
:1020C000AF92BF92CF92DF92EF92FF920F931F9346
:1020D000CF93DF931F921F92CDB7DEB75C014B0108
:1020E000342E452EFC0166887788508C80E591E07F
:1020F0000E94DD0122E030E0AE014F5F5F4F60E201
:1021000070E0852D0E94D20DC980DA80DC24CD24B8
:10211000DC2422E030E0AE014F5F5F4F60E270E010
:10212000852D0E94D20D89819A8198278927982729
:10213000C816D90609F079C0E52CF12C67E0569E47
:10214000F0011124EE57FB4FD582C482032D142DCC
:10215000C016D10608F4860122E030E0AE014F5FE0
:102160005F4F64E270E0852D0E94D20D89819A81D3
:10217000982789279827680E791E93013770409118
:10218000BE04433309F053C088E0E80EF11CFE2C76
:10219000EE24FF0CFF0CFF0CC9018E0D9F1D473371
:1021A00009F449C0A901400F511F4130584008F4BB
:1021B00042C060E078E06B01C21AD30AA601B40104
:1021C0000E94B104A8014C195D09B4016C0D7D1D7C
:1021D000C7010E94B104600E711E79826A8222E0FA
:1021E00030E0AE014F5F5F4F64E270E0852D0E94EA
:1021F0008005F50186899789800F911F978B868BC3
:10220000C8010F900F90DF91CF911F910F91FF9018
:10221000EF90DF90CF90BF90AF909F908F907F9086
:102220006F905F904F903F9008956C0172CFE0E106
:10223000EE0EF11CACCFA801B401CBCFFB01448161
:102240005581608171810C945910EF92FF920F9328
:102250001F93CF93DF9300D000D0CDB7DEB78C01B2
:1022600080E6E82E82E0F82EFA82E98280914A0721
:1022700090914B07A0914C07B0914D078B839C83A5
:10228000AD83BE8348E759E6BE016F5F7F4F8BE1A8
:1022900097E00E94E0056CE672E0CE0101960E9494
:1022A000A00AB801CE0101960E941A0ABC018BE176
:1022B00097E00E941E11CE0101960E94B10A8BE1A7
:1022C00097E00E948A0BFA82E98280913E07909102
:1022D0003F07A0914007B09141078B839C83AD835A
:1022E000BE834DE65EE1BE016F5F7F4F8BE197E0FD
:1022F0000E94E005B8018BE197E00E941E118BE17E
:1023000097E00E948A0B80917C04811126C00E9474
:10231000F202AB01BC018091780490917904A09104
:102320007A04B0917B0488519C4FAF4FBF4F481740
:1023300059076A077B0788F061E085E00E94E001A9
:1023400081E080937C040E94F20260937804709391
:10235000790480937A0490937B0426960FB6F894C0
:10236000DEBF0FBECDBFDF91CF911F910F91FF90C8
:10237000EF900895CF93DF93CDB7DEB762970FB696
:10238000F894DEBF0FBECDBF9C01A4E6B0E00E9472
:102390002B2228EE3DEF40E050E00E94DF21B90102
:1023A000CE0107960E944E0A6EE772E0CE010196BA
:1023B0000E94A00ABE01695F7F4FCE0101960E9474
:1023C0001A0ABC01CE010D960E94860ACE010D9616
:1023D0000E942511CE010D960E94B10ACE010196F0
:1023E0000E94B10ACE0107960E94B10A62960FB60A
:1023F000F894DEBF0FBECDBFDF91CF910895CF938C
:10240000DF93CDB7DEB762970FB6F894DEBF0FBE8D
:10241000CDBF9C01AFEFB0E00E942B2228EE3DEF34
:1024200040E050E00E94DF21B901CE0107960E94F2
:102430004E0A61E972E0CE0101960E94A00ABE0137
:10244000695F7F4FCE0101960E941A0ABC01CE013E
:102450000D960E94860ACE010D960E942511CE018E
:102460000D960E94B10ACE0101960E94B10ACE01DA
:1024700007960E94B10A62960FB6F894DEBF0FBEAF
:10248000CDBFDF91CF910895CF93DF9300D000D0DF
:10249000CDB7DEB764EA72E0019711F06EEA72E040
:1024A000CE0101960E94A00ACE0101960E9425113C
:1024B000CE0101960E94B10A26960FB6F894DEBFAF
:1024C0000FBECDBFDF91CF910895CF93DF9300D0A2
:1024D00000D0CDB7DEB768EB72E0019711F06FEB7B
:1024E00072E0CE0101960E94A00ACE0101960E94E0
:1024F0002511CE0101960E94B10A26960FB6F894D6
:10250000DEBF0FBECDBFDF91CF910895CF93DF9394
:1025100000D000D0CDB7DEB766EC72E0019711F0C5
:1025200066ED72E0CE0101960E94A00ACE010196EE
:102530000E942511CE0101960E94B10A26960FB67F
:10254000F894DEBF0FBECDBFDF91CF910895CF933A
:10255000DF9300D000D0CDB7DEB766EE72E0019712
:1025600011F066EF72E0CE0101960E94A00ACE0142
:1025700001960E942511CE0101960E94B10A26966D
:102580000FB6F894DEBF0FBECDBFDF91CF91089597
:10259000CF93DF9300D000D0CDB7DEB766E073E015
:1025A000019711F069E173E0CE0101960E94A00A43
:1025B000CE0101960E942511CE0101960E94B10A1A
:1025C00026960FB6F894DEBF0FBECDBFDF91CF9138
:1025D0000895CF93DF9300D000D0CDB7DEB76CE283
:1025E00073E0019711F065E473E0CE0101960E945B
:1025F000A00ACE0101960E942511CE0101960E94EB
:10260000B10A26960FB6F894DEBF0FBECDBFDF919C
:10261000CF9108958F929F92AF92BF92CF92DF9207
:10262000EF92FF920F931F93CF93DF9300D000D0D0
:1026300000D01F92CDB7DEB76C015B01FC01808D2D
:10264000883010F40E94710B8091BE04811117C074
:1026500088E0F601808F80E02A960FB6F894DEBFFE
:102660000FBECDBFDF91CF911F910F91FF90EF90E3
:10267000DF90CF90BF90AF909F908F90089508E02B
:10268000833309F404E080E591E00E94DD019E01BE
:102690002F5F3F4F4901790110E063E070E0812F27
:1026A0000E94440BF70181937F018823C1F01F5FD3
:1026B0000113F3CFF12CF40181914F018D3149F0D9
:1026C000883139F08A51823020F0F3941F11F3CF12
:1026D000BFCF60E170E08F2D0E94610B1F2DE12EB6
:1026E000F12C83EE93E00197F1F742E070E060E0B7
:1026F000812F0E94A7054FEF62E070E0812F0E94BA
:10270000A705B501A114B10489F48091000290914C
:10271000010201968115F0EC9F07D0F19093010220
:10272000809300026091000270910102812F0E944B
:10273000910561E070E0812F0E94610B27E02E9DE2
:10274000C0012F9D900D11249C012E573B4F790104
:10275000F9011182108222E030E0AE01475F5F4F45
:1027600068E270E0812F0E94D20D89859A859827B2
:1027700089279827F7019383828316821582148212
:10278000F601108FB586A486128E118E81E064CF7B
:1027900080E090ECC3CFDF92EF92FF920F931F93F4
:1027A000CF93DF9300D000D01F921F92CDB7DEB73A
:1027B0008C01D80159964D915C915A97411551055C
:1027C00051F0ED91FC91048CF58DE02D70E060E00E
:1027D000C8011995EECFF801D08CF7E0DF9EC0015B
:1027E00011249C012E573B4F7901D9018D919C9169
:1027F000892B59F148E050E0BE016F5F7F4FF8012F
:10280000808D0E943F0F1816190694F5D801509636
:1028100084E0FE01319601900D928A95E1F78D8159
:1028200090E0982F88272E81820F911DF801958BBB
:10283000848B8F81282F30E0322F22278885820FCA
:10284000932F911D928F818F13C080E591E00E949C
:10285000DD018D2D0E940A0FD70116962C91169737
:10286000821B91098D939C93892B21F690E080E047
:1028700028960FB6F894DEBF0FBECDBFDF91CF9183
:102880001F910F91FF90EF90DF9008956F927F92CC
:102890008F929F92AF92BF92CF92DF92EF92FF9270
:1028A0000F931F93CF93DF93CDB7DEB7EC970FB69F
:1028B000F894DEBF0FBECDBF4C018B013A0180E61C
:1028C00092E09A8389831C861B8648EE53E060E081
:1028D00070E04D875E876F87788B26E332E03A871A
:1028E0002987988F8F8B198E1A8E1B8E1C8E28E04D
:1028F00029A399AB88AB1AAA1BAA1CAA1DAA80916E
:10290000E1049091E204A091E304B091E4048EA369
:102910009FA3A8A7B9A78B839C83AD83BE8318868A
:102920001F82F80120E090E080E06AE031913323DB
:1029300009F47AC040ED430F4A3008F064C0689F44
:10294000A001699F500D1124CA01C097830F911DEA
:1029500037FD9A958F3F910549F340F34B815C8198
:102960006D817E818091ED049091EE04A091EF0441
:10297000B091F004481759076A077B0709F428C289
:102980000E94F2026F7077277C5FCE0109960E9449
:102990000A13813009F01FC280E692E09DA38CA348
:1029A0008B819C81AD81BE818EA39FA3A8A7B9A76F
:1029B00045E350E0BE016C5D7F4FCE0109960E9459
:1029C000E005892B09F04EC010E000E0CE01099629
:1029D0000E947D0B0130110559F1C801EC960FB62C
:1029E000F894DEBF0FBECDBFDF91CF911F910F9145
:1029F000FF90EF90DF90CF90BF90AF909F908F901F
:102A00007F906F9008953E3209F0A8CF233009F4EB
:102A1000A5CFA2E3B0E0AC0FBD1FA20FB11D8C93F8
:102A20002F5F90E080E082CF233009F097CF8DAB0D
:102A3000D401ED91FC910488F589E02D80E692E0C7
:102A40009DA38CA38AA99BA9ACA9BDA98EA39FA372
:102A5000A8A7B9A7A301BE016C5D7F4FC40119955A
:102A60008C01BBCF0E94F20278876F8342E050E076
:102A7000BE01695F7F4FCE0109960E94591081E027
:102A800090E09DA38CA342E050E0BE016C5D7F4FBF
:102A9000CE0109960E94591080E091E09DA38CA37D
:102AA00042E050E0BE016C5D7F4FCE0109960E946E
:102AB00059101DA21CA242E050E0BE016C5D7F4F88
:102AC000CE0109960E94591042E050E0BE016C5DB3
:102AD0007F4FCE0109960E94591042E050E0BE019E
:102AE0006C5D7F4FCE0109960E9459107801D80184
:102AF0008C91882311F18701F80181916F0188235E
:102B000011F08E32C1F45801AE18BF081A141B041C
:102B100084F4AEAA41E050E0BE016A5C7F4FCE0172
:102B200009960E945910A501B701CE0109960E948D
:102B300059107601DCCF8601DFCF1EAA41E050E0BC
:102B4000BE016A5C7F4FCE0109960E94591000E0D9
:102B500011E01DA30CA342E050E0BE016C5D7F4F6D
:102B6000CE0109960E9459101DA30CA342E050E02B
:102B7000BE016C5D7F4FCE0109960E945910CE01B7
:102B800009960E948A0B892B09F41ECF83E0E82E58
:102B9000F12CD7C04B815C816D817E81898D9A8DAE
:102BA000AB8DBC8D481759076A077B0709F00AC12E
:102BB0008D8D9E8DC59709F005C18AA19BA10DEF52
:102BC0001FEF0C970CF4B4C04CE050E0BE016C5DFC
:102BD0007F4FCE0109960E9410108EA19FA19827C9
:102BE000892798279BAF8AAF4F8158852CA13DA19B
:102BF0004217530709F0E9C097FFE7C08F70927042
:102C00000BEF1FEF892B09F093C0AAA4BBA4BA2431
:102C1000AB24BA240AEF1FEFA114B10409F488C051
:102C200010E000E088A599A598278927982708171C
:102C3000190708F541E050E0BE016A5C7F4FCE0104
:102C400009960E9410104EA9442339F050E070E01C
:102C500060E0CE0109960E9410108EA98111EACF82
:102C600044E050E070E060E0CE0109960E94101050
:102C70000F5F1F4FD7CFD12CC12C41E050E0BE01D8
:102C8000645C7F4FCE0109960E9410104CAD842FDA
:102C9000807C09F074C0442339F050E070E060E0BB
:102CA000CE0109960E9410108CAD8111E6CF42E052
:102CB00050E0BE01685C7F4FCE0109960E94101063
:102CC00042E050E0BE016A5C7F4FCE0109960E944F
:102CD000101044E050E070E060E0CE0109960E94E0
:102CE000101042E050E0BE01665C7F4FCE010996B5
:102CF0000E94101088AD99AD4AAD5BAD8115914031
:102D000009F047C00EA91FA910270127102701307D
:102D1000110509F03EC04115544009F04DC044E092
:102D200050E0BE016E5C7F4FCE0109960E941010EC
:102D3000F1E0EF1AF10809F449CE0F3F100709F04E
:102D400045CE0E94F2025B016C01CE0109960E9401
:102D5000CB13181619060CF41DCF0E94F2026A1943
:102D60007B098C099D09693873418105910538F506
:102D700062E370E080E090E00E94C002E6CF41E0B4
:102D800050E070E060E0CE0109960E9410101CAE89
:102D90008BCF54274527542770E060E0CE01099679
:102DA0000E941010EFEFCE1ADE0AAC14BD0409F039
:102DB00064CF06EF1FEFBCCF07EF1FEFB9CF0FEFC8
:102DC0001FEFB6CF0EEF1FEFB3CF0CEF1FEFB0CF5B
:102DD0000EEF1FEF02CE10E000E0FFCD1F920F922A
:102DE0000FB60F9211242F933F938F939F93AF931E
:102DF000BF938091CC039091CD03A091CE03B0916D
:102E0000CF033091CB0323E0230F2D3758F50196E4
:102E1000A11DB11D2093CB038093CC039093CD03D0
:102E2000A093CE03B093CF038091D0039091D103B0
:102E3000A091D203B091D3030196A11DB11D80933F
:102E4000D0039093D103A093D203B093D303BF9147
:102E5000AF919F918F913F912F910F900FBE0F9047
:102E60001F90189526E8230F0296A11DB11DD2CF01
:102E70001F920F920FB60F9211240BB60F922F9341
:102E80003F934F935F936F937F938F939F93AF93F2
:102E9000BF93EF93FF9348E251E064E271E090E06A
:102EA00080E00E941307FF91EF91BF91AF919F9136
:102EB0008F917F916F915F914F913F912F910F90E3
:102EC0000BBE0F900FBE0F901F9018951F920F9280
:102ED0000FB60F9211240BB60F922F933F934F937F
:102EE0005F936F937F938F939F93AF93BF93EF9372
:102EF000FF9348EA50E064EA70E083E090E00E94CB
:102F00001307FF91EF91BF91AF919F918F917F91A7
:102F10006F915F914F913F912F910F900BBE0F904A
:102F20000FBE0F901F9018951F920F920FB60F9221
:102F300011240BB60F922F933F934F935F936F9390
:102F40007F938F939F93AF93BF93EF93FF9348E942
:102F500050E064E970E082E090E00E941307FF9186
:102F6000EF91BF91AF919F918F917F916F915F9101
:102F70004F913F912F910F900BBE0F900FBE0F906E
:102F80001F9018951F920F920FB60F9211240BB637
:102F90000F922F933F934F935F936F937F938F93F2
:102FA0009F93AF93BF93EF93FF9348E850E064E89B
:102FB00070E081E090E00E941307FF91EF91BF91D4
:102FC000AF919F918F917F916F915F914F913F91C1
:102FD0002F910F900BBE0F900FBE0F901F90189562
:102FE0001F920F920FB60F9211240BB60F929F9261
:102FF000AF92BF92CF92DF92EF92FF920F931F9307
:103000002F933F934F935F936F937F938F939F93F0
:10301000AF93BF93EF93FF93CF93DF931F92CDB7FF
:10302000DEB78091C60089838981E091AA07F0E02C
:10303000E05AF84F82878091AA078F5F8093AA0792
:103040008F738093AA078091AD07811117C081E02B
:103050008093AD0784E0C82E96E0B92E25E0D22EED
:10306000EE24E39432E0A32E43E0942E9091AB073C
:103070008091AA07981321C01092AD070F90DF919D
:10308000CF91FF91EF91BF91AF919F918F917F91E0
:103090006F915F914F913F912F911F910F91FF90F1
:1030A000EF90DF90CF90BF90AF909F900F900BBEAE
:1030B0000F900FBE0F901F901895E091AB07F0E0B6
:1030C000E05AF84FF2848091AB078F5F8093AB0793
:1030D0008F738093AB07789480916007833009F4F5
:1030E00080C000F5813009F45DC0823009F463C00E
:1030F000B5E5FB12E1C0809167078F5F809367079A
:1031000080916707843009F0B1CFE0926007109298
:103110006707809164049091650490936907809398
:103120006807A4CF853009F471C008F463C0863005
:10313000F9F680916507909166079F29909366073D
:10314000809365078091630790916407019790933E
:103150006407809363070091680710916907011560
:10316000110509F496C08091610790916207D8011A
:1031700014962D913C9115972817390708F058C0DF
:10318000ED91FC910280F381E02DC8011995E09149
:103190006807F0916907868197819093690780930A
:1031A0006807D9CF8F2D90E09093620780936107D5
:1031B000A09260079DCF80916107909162079F293F
:1031C00090936207809361078091610790916207F5
:1031D0008535954519F0909260078ACF1092600767
:1031E00087CF8F2D90E09093640780936307C09200
:1031F00060077ECF80916307909164079F29909329
:10320000640780936307D092600772CF8F2D90E0A0
:103210009093660780936507809163079091640798
:1032200001979093640780936307B092600760CF23
:10323000F8018281938120916107309162072817FC
:10324000390738F120916107309162072817390753
:10325000C8F0809161079091620724813581281719
:10326000390780F0409165075091660760916107CA
:10327000709162070190F081E02D0190F081E02DC6
:10328000C8011995D80116960D911C9101151105CB
:1032900079F6809161079091620702969093620798
:1032A000809361078091630790916407892B09F0EF
:1032B000AACFE09260071CCF1092670721CF0F932F
:1032C0001F93CF93DF93EC01862F1B861A861982FA
:1032D00018821E8A1F8A188E198EE0EDF2E0FF8395
:1032E000EE836C877D875F874E87398B288B1B8B9E
:1032F0000A8B0E94BE018E850E94BE0188890E94B1
:10330000BE018A890E94BE011D8A1C8A84E090E069
:1033100099878887DF91CF911F910F910895FC01C4
:103320009091CA03903398F481E0890F8093CA0387
:103330009083892F90E0FC01EE0FFF1FE80FF91F2B
:10334000EC52FC4F88EB9BE09283818308958FEFD2
:1033500080830895CF93DF93FC0188E192E091830D
:1033600080837383628375836483A0916404B091C6
:103370006504C4E6D4E0109771F4F0936504E0931B
:1033800064041782168282E292E09183808312861F
:10339000DF91CF91089514968D919C911597861782
:1033A000970750F06817790779F412968D919C91E0
:1033B00013978617970740F4ED01269616960D9001
:1033C000BC91A02D109739F7B783A683F983E883C2
:1033D000DACF4F925F926F927F928F929F92AF92CD
:1033E000BF92CF92DF92EF92FF920F931F93CF93F2
:1033F000DF93E1ECF4E0C0E6D2E0D183C083128237
:10340000138214821582E7ECF4E0D183C083128228
:10341000138214821582EDECF4E0D183C083128212
:10342000138214821582E3EDF4E0D183C08312820B
:10343000138214821582E9EDF4E0D183C0831282F5
:10344000138214821582E5EEF4E0D183C0831282E8
:10345000138214821582EFEDF4E0D183C0831282CF
:10346000138214821582EBEEF4E0D183C0831282C2
:10347000138214821582E1EFF4E0D183C0831282BB
:1034800013821482158267EB73E08EEA97E00E9444
:10349000A00AE0E6F7E01092AA071092AB0710929C
:1034A000AC071092AD0710821782EAE5F7E0D183EE
:1034B000C0831282138214821582E4E5F7E0D1837F
:1034C000C0838CEAF82EF28200E1038311E01483BA
:1034D0008FE685836EE573E08EE497E00E94A00A94
:1034E000E8E4F7E0D183C083F282038314839AE097
:1034F000692E65826DE673E082E497E00E94A00A7F
:10350000ECE3F7E0D183C083F2820383148389E67E
:10351000858369E773E086E397E00E94A00AEBE108
:10352000F7E01382128248EE53E060E070E04483DB
:1035300055836683778386E392E091838083D78780
:10354000C687108A118A128A138A28E0722E708E1A
:10355000E0E0F7E013821282448355836683778329
:1035600091838083D787C687108A118A128A138A2B
:10357000708E0BE210E029E230E04FE250E06DE2A5
:1035800070E086EE96E00E945F1906E210E024E209
:1035900030E040E250E062E270E08CEC96E00E94A5
:1035A0005F1901E210E023E230E045E250E067E21B
:1035B00070E082EB96E00E945F196AE175E782EAAB
:1035C00096E00E94AA19E2EAF6E0C6E6D2E0D183CC
:1035D000C0830FEF1FEF14870387158680E298E002
:1035E0009787868764E175E782E996E00E94AA19C9
:1035F000E2E9F6E0D183C0831487038715868CE067
:1036000098E09787868766E075E782E896E00E94F3
:10361000AA19E2E8F6E0D183C083148703871586F0
:103620008CEF97E0978786878FE796E00E948F1947
:103630008CE796E00E948F1989E796E00E948F1927
:1036400086E796E00E948F1983E796E00E948F1923
:1036500080E796E00E948F196CE175E78BE596E0B4
:103660000E94AA193BE5C32E36E0D32E4CE2E42E8D
:1036700042E0F42EF601F182E08286E696E00E94B6
:103680008F195BE0552EF60156868AE194E0908B07
:1036900087878CE895E0928B818B148A138A6EE180
:1036A00075E786E496E00E94AA1966E4C62E66E0F5
:1036B000D62EF601F182E08281E596E00E948F1914
:1036C00087E0F601868778E5872E72E0972E908A4C
:1036D0008786A4E2AA2EA9E0BA2EB28AA18A148A09
:1036E000138A60E275E781E396E00E94AA19B1E3CC
:1036F000CB2EB6E0DB2EF601F182E0828CE396E081
:103700000E948F1986E0F6018687908A8786B28AA2
:10371000A18A148A138A6EE375E78CE196E00E9411
:10372000AA198CE1C82E86E0D82EF601F182E0823B
:1037300087E296E00E948F1999E0992EF60196860D
:1037400088E097E0908B878784EB90E0928B818B69
:10375000148A138A6CE375E787E096E00E94AA1941
:1037600027E0C22E26E0D22EF601F182E08282E12D
:1037700096E00E948F19F601768680E991E0908BA1
:1037800087878CE697E0928B818B148A138A60E896
:1037900074E787EF95E00E94AA19E7EFF5E0D1837F
:1037A000C083A12C30E2B32EB486A3864DE0442E14
:1037B00045868CE692E09787868760E874E787EE17
:1037C00095E00E94AA19E7EEF5E0D183C083E12CD1
:1037D00050E4F52EF486E3866EE0862E858680E73B
:1037E00092E09787868762EC74E787ED95E00E9408
:1037F000AA19E7EDF5E0D183C083C12CDD24D39471
:10380000D486C386758684E792E09787868762ECC4
:1038100074E787EC95E00E94AA19E7ECF5E0D18304
:10382000C08380E096E094878387958688E792E05E
:103830009787868764EB74E787EB95E00E94AA1967
:10384000E7EBF5E0D183C083D486C38675868FE726
:1038500092E09787868768EC74E787EA95E00E9494
:10386000AA19E7EAF5E0D183C083D486C3867586BA
:1038700083E892E09787868768EC74E787E995E0AC
:103880000E94AA19E7E9F5E0D183C083F486E386B4
:10389000858687E892E0978786876EEC74E787E8ED
:1038A00095E00E94AA19E7E8F5E0D183C08380E0A3
:1038B00093E09487838775868BE892E09787868765
:1038C00064EB74E787E795E00E94AA19E7E7F5E063
:1038D000D183C083B486A38645868DEC97E0978715
:1038E00086876CE074E787E695E00E94AA19E7E610
:1038F000F5E0D183C083C12CA0E8DA2ED486C3863C
:10390000BFE0BB2EB58689EE92E1978786876CE093
:1039100074E787E595E00E94AA19E7E5F5E0D18311
:10392000C083F486E386858688EC92E19787868754
:103930006CE074E787E495E00E94AA19E7E4F5E0FB
:10394000D183C08380E092E094878387958687EA5D
:1039500092E1978786876CE074E787E395E00E94A1
:10396000AA19E7E3F5E0D183C08380E094E094876F
:103970008387658686E892E1978786876AE274E79F
:1039800087E295E00E94AA19E7E2F5E0D183C083BF
:1039900080E098E094878387558685E692E1978753
:1039A000868764ED74E787E195E00E94AA19E7E154
:1039B000F5E0D183C083D486C386B58684E492E1E2
:1039C0009787868768E575E787E095E00E94AA19E2
:1039D000E7E0F5E0D183C0831487038715868AEB7F
:1039E00091E1978786876CE475E787EF94E00E9402
:1039F000AA19E7EFF4E0D183C08314870387158603
:103A00008FEF91E197878687DF91CF911F910F917B
:103A1000FF90EF90DF90CF90BF90AF909F908F90EE
:103A20007F906F905F904F900895CF93DF93CDB7C5
:103A3000DEB7AD970FB6F894DEBF0FBECDBF78945A
:103A400084B5826084BD84B5816084BD85B58260A3
:103A500085BD85B5816085BD80916E008160809354
:103A60006E001092810080918100826080938100BD
:103A700080918100816080938100809180008160CD
:103A8000809380008091B10084608093B100809128
:103A9000B00081608093B00080919100826080933B
:103AA00091008091910081608093910080919000BD
:103AB0008160809390008091A10082608093A1003A
:103AC0008091A10081608093A1008091A00081601D
:103AD0008093A000809121018260809321018091D8
:103AE0002101816080932101809120018160809378
:103AF000200180917A00846080937A0080917A001E
:103B0000826080937A0080917A00816080937A004D
:103B100080917A00806880937A001092C10085E0DD
:103B20000E94BE018DE00E94BE0161E085E00E941E
:103B3000E00161E08DE00E94E00168EE73E080E06A
:103B400090E00E94C00260E085E00E94E00160E039
:103B50008DE00E94E00168EE73E080E090E00E945A
:103B6000C0028EE10E94BE018FE10E94BE018DE184
:103B70000E94BE018CE10E94BE018BE10E94BE0149
:103B800086E10E94BE0187E10E94BE0188E10E9499
:103B9000BE0189E10E94BE0160E08EE10E94E00169
:103BA00060E08FE10E94E00160E08DE10E94E001B1
:103BB00060E08CE10E94E00160E08BE10E94E001A6
:103BC00060E086E10E94E00160E087E10E94E001A0
:103BD00060E088E10E94E00160E089E10E94E0018C
:103BE00060E08EE10E94E00160E08FE10E94E00170
:103BF00060E08DE10E94E00160E08CE10E94E00164
:103C000060E08BE10E94E0016BE070E08FE796E0FE
:103C10000E940D0767E070E08CE796E00E940D07B8
:103C200066E070E089E796E00E940D0768E070E0CA
:103C300086E796E00E940D0769E070E083E796E072
:103C40000E940D076CE070E080E796E00E940D078F
:103C50006CE875E08FE796E00E942C0664E279E05C
:103C60008CE796E00E942C0664E279E089E796E012
:103C70000E942C066CE677E086E796E00E942C0610
:103C800064EB70E083E796E00E942C0660E273E04C
:103C900080E796E00E942C0668EE73E080E090E0FA
:103CA0000E94C0026AE174E08FE796E00E942C0651
:103CB00068E572E08CE796E00E942C0668E572E009
:103CC00089E796E00E942C0660E971E086E796E0BD
:103CD0000E942C0668E077E083E796E00E942C06BD
:103CE0006AEA75E080E796E00E942C0664EF71E0D6
:103CF00080E090E00E94C002E0917F068E2F90E06D
:103D0000FC01EE0FFF1FE80FF91FEC52FC4F808102
:103D10008F7B8083E09179068E2F90E0FC01EE0F7F
:103D2000FF1FE80FF91FEC52FC4F80818F7B8083CF
:103D3000E0917C068E2F90E0FC01EE0FFF1FE80F54
:103D4000F91FEC52FC4F80818F7B8083E0917606D7
:103D50008E2F90E0FC01EE0FFF1FE80FF91FEC52D1
:103D6000FC4F80818F7B8083E09173068E2F90E0E3
:103D7000FC01EE0FFF1FE80FF91FEC52FC4F808192
:103D80008F7B8083E09170068E2F90E0FC01EE0F18
:103D9000FF1FE80FF91FEC52FC4F80818F7B80835F
:103DA0002091EC063091ED06032E000C440B550BD0
:103DB000C12CE7E8DE2EE3E9EE2EE3E0FE2EC7019C
:103DC000B6010E94DF21CA01B90122E330E040E0E0
:103DD00050E00E94DF212093E8063093E9064093EB
:103DE000EA065093EB0660ED72E086EE96E00E94E4
:103DF000F20360E37DEF86EE96E00E94F2031092FC
:103E000073041092720480ED92E090937704809393
:103E100076042091D2063091D306032E000C440B79
:103E2000550BC701B6010E94DF21FCE38F2E912CB8
:103E3000A12CB12CCA01B901A50194010E94DF2176
:103E40002093CE063093CF064093D0065093D106F0
:103E50006CEB72E08CEC96E00E94F20360E37DEF85
:103E60008CEC96E00E94F2036EE170E08CEC96E040
:103E70000E94F20310926D0410926C0488E290E0AC
:103E800090937104809370042091B8063091B90624
:103E9000032E000C440B550BC701B6010E94DF2115
:103EA000CA01B901A50194010E94DF212093B40643
:103EB0003093B5064093B6065093B70666E970E0B6
:103EC00082EB96E00E94F20368EE73E080E090E0FF
:103ED0000E94C00266E07FEF82EB96E00E94F20350
:103EE000109267041092660410926B0410926A0498
:103EF000A0E6EA2EA2E0FA2EFA82E9828091560725
:103F000090915707A0915807B09159078B839C83D4
:103F1000AD83BE838E010F5F1F4FC8010E94E40B6B
:103F20006CE67EE180E097E00E940A136DE67EE198
:103F30008BE197E00E940A13FA82E98280914A0796
:103F400090914B07A0914C07B0914D078B839C83B8
:103F5000AD83BE8348E759E6B80180E097E00E9450
:103F6000E0050E94F2021BA21AA21DA21CA21FA21F
:103F70001EA22AE0A8010E949321F80101900020CE
:103F8000E9F73197AF01401B510BB801CE01829682
:103F90000E942D0A6AE070E0C8010E944E0A66E89D
:103FA00073E0CE0188960E94A00AB801CE018896DF
:103FB0000E941A0A6BE673E00E94040A6EE477E03E
:103FC0000E941A0A6BE673E00E94040ABE016E5D4D
:103FD0007F4F0E941A0A65EA73E00E94040ABC013E
:103FE00080E097E00E941E1165EB73E080E097E0AF
:103FF0000E94F908CE0188960E94B10AC8010E9469
:10400000B10ACE0182960E94B10A80E097E00E9438
:104010008A0B0E94F2020E94F20268517C4F8F4F7D
:104020009F4F60937E0470937F04809380049093ED
:104030008104809164008D7F809364001092C5009C
:1040400083E08093C4001092C00086E08093C20099
:1040500088E98093C100FA82E98280914A079091B1
:104060004B07A0914C07B0914D078B839C83AD8388
:10407000BE8348E759E6B80180E097E00E94E0057A
:1040800068EB73E080E097E00E94F90865EB73E06D
:1040900080E097E00E94F90880E097E00E948A0B98
:1040A000DD24D394B0E0EB2EB0E0FB2E0E94F202B0
:1040B00000917E0410917F0420918004309181044E
:1040C0006017710782079307B0F060917D046D253A
:1040D00060937D048DE00E94E0010E94F20268512D
:1040E0007C4F8F4F9F4F60937E0470937F0480932B
:1040F00080049093810480917C04882329F10E949C
:10410000F202AB01BC018091780490917904A091F6
:104110007A04B0917B0488519C4FAF4FBF4F481732
:1041200059076A077B0780F060E085E00E94E001A4
:1041300010927C040E94F2026093780470937904D8
:1041400080937A0490937B04009176041091770415
:104150001093750400937404A0907204B0907304DB
:10416000C8018A199B099C0197FF04C022273327A5
:10417000281B390B233031052CF1181619066CF465
:104180006FEF7FEF86EE96E00E94F2038FEFA81AA2
:10419000B80AB0927304A0927204A0907204B09016
:1041A00073040A191B0917FF0DC061E070E086EE69
:1041B00096E00E94F203A1E0AA1AB108B09273043B
:1041C000A0927204009170041091710410936F0416
:1041D00000936E04A0906C04B0906D04C8018A191D
:1041E0009B099C0197FF04C022273327281B390B0A
:1041F000233031052CF1181619066CF461E070E0DB
:104200008CEC96E00E94F203BFEFAB1ABB0AB092AF
:104210006D04A0926C04A0906C04B0906D040A1917
:104220001B0917FF0DC06FEF7FEF8CEC96E00E942B
:10423000F203E1E0AE1AB108B0926D04A0926C04F2
:1042400000916A0410916B04109369040093680450
:10425000A0906604B0906704C8018A199B099C016C
:1042600097FF04C022273327281B390B2330310541
:104270002CF1181619066CF461E070E082EB96E000
:104280000E94F203FFEFAF1ABF0AB0926704A09238
:104290006604A0906604B09067040A191B0917FF12
:1042A0000DC06FEF7FEF82EB96E00E94F20381E09A
:1042B000A81AB108B0926704A09266040091640441
:1042C000109165040115110561F0D801ED91FC9183
:1042D0000480F581E02DC8011995F8010681178148
:1042E000F1CFE114F10409F4E1CE0E940000DECE2A
:1042F00086E397E00E94B10A82E497E00E94B10A47
:104300008EE497E00E94B10A8EEA97E00C94B10A1D
:10431000BB274A3031F4992322F4BDE29095819570
:104320009F4F0C94B621BB27FA01A62F6217710587
:1043300081059105330B30FB66F0AA27660F771FC6
:10434000881F991FAA1FA21710F0A21B639538504F
:10435000A9F7A05DAA3308F0A95DA19336F7B111C2
:10436000B1931082CA010C94CF21BB27FB015527C2
:10437000AA27880F991FAA1FA41710F0A41B8395C2
:104380005051B9F7A05DAA3308F0A95DA193009739
:1043900079F7B111B1931192CB010C94CF21DC01CB
:1043A000FC01672F71917723E1F7329704C07C916C
:1043B0006D9370836291AE17BF07C8F30895052E01
:1043C00097FB1EF400940E94F62157FD07D00E942F
:1043D000092207FC03D04EF40C94F6215095409529
:1043E000309521953F4F4F4F5F4F089590958095A1
:1043F000709561957F4F8F4F9F4F08950E942B229C
:10440000A59F900DB49F900DA49F800D911D112428
:104410000895A1E21A2EAA1BBB1BFD010DC0AA1F05
:10442000BB1FEE1FFF1FA217B307E407F50720F01D
:10443000A21BB30BE40BF50B661F771F881F991F98
:104440001A9469F760957095809590959B01AC01E1
:10445000BD01CF010895A29FB001B39FC001A39FEA
:10446000700D811D1124911DB29F700D811D1124AD
:10447000911D0895991B79E004C0991F961708F0C3
:10448000961B881F7A95C9F78095089597FB072E8C
:1044900016F4009407D077FD09D00E94622207FC31
:1044A00005D03EF4909581959F4F08957095619544
:1044B0007F4F0895EE0FFF1F881F8BBF0790F69167
:1044C000E02D1994AA1BBB1B51E107C0AA1FBB1FFB
:1044D000A617B70710F0A61BB70B881F991F5A9590
:1044E000A9F780959095BC01CD0108950F931F9376
:1044F000CF93DF938230910510F482E090E0E09159
:10450000B607F091B70730E020E0B0E0A0E03097C8
:1045100099F42115310509F44AC0281B390B2430C0
:104520003105D8F58A819B816115710589F1FB01FF
:1045300093838283FE0111C04081518102811381E6
:1045400048175907E0F04817590799F4109761F098
:1045500012960C93129713961C933296CF01DF910B
:10456000CF911F910F9108950093B6071093B7074D
:10457000F4CF2115310551F04217530738F0A90146
:10458000DB019A01BD01DF01F801C1CFEF01F9CFD5
:104590009093B7078093B607CDCFFE01E20FF31FCC
:1045A000819391932250310939832883D7CF209169
:1045B000B4073091B507232B41F420910A023091C2
:1045C0000B023093B5072093B40720910802309175
:1045D00009022115310541F42DB73EB740910C0277
:1045E00050910D02241B350BE091B407F091B507F3
:1045F000E217F307A0F42E1B3F0B2817390778F0BA
:10460000AC014E5F5F4F2417350748F04E0F5F1F18
:104610005093B5074093B407819391939FCFF0E0F7
:10462000E0E09CCFCF93DF930097E9F0FC01329755
:1046300013821282A091B607B091B707ED0130E066
:1046400020E01097A1F420813181820F931F2091E7
:10465000B4073091B5072817390709F061C0F09306
:10466000B507E093B407DF91CF910895EA01CE1723
:10467000DF07E8F54A815B819E0141155105B1F7DD
:10468000E901FB83EA8349915991C40FD51FEC17C7
:10469000FD0761F4808191810296840F951FE901E5
:1046A00099838883828193819B838A83F0E0E0E011
:1046B00012968D919C9113970097B9F52D913C918D
:1046C0001197CD010296820F931F2091B40730916C
:1046D000B5072817390739F6309751F51092B70703
:1046E0001092B607B093B507A093B407BCCFD3839D
:1046F000C28340815181840F951FC817D90761F487
:104700004E5F5F4F88819981480F591F51834083C5
:104710008A819B81938382832115310509F0B0CF73
:10472000F093B707E093B6079ECFFD01DC01C0CF41
:1047300013821282D7CF4F925F926F927F928F92A5
:104740009F92AF92BF92CF92DF92EF92FF920F9320
:104750001F93CF93DF938C01009799F4CB01DF91E6
:10476000CF911F910F91FF90EF90DF90CF90BF906E
:10477000AF909F908F907F906F905F904F900C9430
:104780007622FC01E60FF71F9C0122503109E21747
:10479000F30708F4AEC0D901CD91DC911197C6178B
:1047A000D70720F1C530D10578F0CE0104978617E0
:1047B000970750F0C61BD70B2297C193D1936D93E7
:1047C0007C93CF010E941223C801DF91CF911F91EA
:1047D0000F91FF90EF90DF90CF90BF90AF909F90A0
:1047E0008F907F906F905F904F9008955B01AC1A0F
:1047F000BD0A4C018C0E9D1EA091B607B091B70763
:10480000512C412CF12CE12C109731F58091B407FB
:104810009091B5078815990509F05CC046165706B2
:1048200008F058C08091080290910902009741F465
:104830008DB79EB740910C0250910D02841B950BD1
:10484000E817F90708F055C0F093B507E093B407EF
:10485000F90171836083B8CF8D919C911197129665
:104860006C90129713967C901397A815B90559F57B
:104870006C0142E0C40ED11CCA14DB0420F1AC016F
:104880004A195B09DA011296159780F062827382E9
:1048900051834083D9016D937C93E114F10471F04D
:1048A000D7011396FC93EE9312978ECF22968C0F1E
:1048B0009D1FF90191838083F301EFCFF093B70738
:1048C000E093B60781CF4816590608F42C017D0104
:1048D000D3019ACFCB010E9476227C01009749F048
:1048E000AE01B8010E947C24C8010E9412238701F6
:1048F0006BCF10E000E068CFFB01DC0102C001904B
:104900000D9241505040D8F70895DC0101C06D93DD
:1049100041505040E0F70895FB01DC0101900D92F9
:104920000020E1F7089511E0CAE8D1E000E006C0F8
:10493000802FFE010E945A222196011DCB38D107FB
:1049400080E00807A9F7F894FFCF00C0A8610A9E8D
:10495000836F0000B807800001005E0000000000C7
:104960000000F508F408F40800000000E508F40869
:10497000F40800000000E508F408550800000000F5
:10498000C5055910F608C405DB052F10A10D0A1343
:10499000C90E7D0BE00546148A0BCB1310104E0890
:1049A0003E083A08360800000000540900000000E4
:1049B000E508F408BD084C454420696E73747275AF
:1049C0006374696F6E732000436F6E736F6C654222
:1049D00072696768746E6573733D005761726E69C2
:1049E0006E674272696768746E6573733D00454314
:1049F0004D5F4A45543D310045434D5F4A45543D66
:104A000030005350494E3D31005350494E3D300027
:104A10004D41535445525F41524D5F41473D310036
:104A20004D41535445525F41524D5F41473D300027
:104A30004D41535445525F41524D5F41413D31001C
:104A40004D41535445525F41524D5F41413D30000D
:104A50004D41535445525F41524D5F444953434881
:104A60003D31004D41535445525F41524D5F4449E1
:104A70005343483D30004D41535445525F41524DE0
:104A80005F44495343485F52454144593D31004DCD
:104A900041535445525F41524D5F44495343485F2F
:104AA00052454144593D30003137322E31362E3196
:104AB0002E3131312020003137322E31362E312E39
:104AC0003130003137322E31362E312E3130350033
:104AD000496E6974204469676974616C204F75740C
:104AE000707574202D2076657273696F6E3A006D53
:104AF000532073696E63652072657365742E000DB3
:104B00000A0045786974696E672053657475700092
:10E000000D9489F10D94B2F10D94B2F10D94B2F129
:10E010000D94B2F10D94B2F10D94B2F10D94B2F1F0
:10E020000D94B2F10D94B2F10D94B2F10D94B2F1E0
:10E030000D94B2F10D94B2F10D94B2F10D94B2F1D0
:10E040000D94B2F10D94B2F10D94B2F10D94B2F1C0
:10E050000D94B2F10D94B2F10D94B2F10D94B2F1B0
:10E060000D94B2F10D94B2F10D94B2F10D94B2F1A0
:10E070000D94B2F10D94B2F10D94B2F10D94B2F190
:10E080000D94B2F10D94B2F10D94B2F10D94B2F180
:10E090000D94B2F10D94B2F10D94B2F10D94B2F170
:10E0A0000D94B2F10D94B2F10D94B2F10D94B2F160
:10E0B0000D94B2F10D94B2F10D94B2F10D94B2F150
:10E0C0000D94B2F10D94B2F10D94B2F10D94B2F140
:10E0D0000D94B2F10D94B2F10D94B2F10D94B2F130
:10E0E0000D94B2F141546D656761323536300041AF
:10E0F000726475696E6F206578706C6F72657220DE
:10E1000073746B3530305632206279204D4C530099
:10E11000426F6F746C6F616465723E004875683F52
:10E1200000436F6D70696C6564206F6E203D200048
:10E130004350552054797065202020203D20005FF9
:10E140005F4156525F415243485F5F3D2000415658
:10E1500052204C696243205665723D20004743437C
:10E160002056657273696F6E203D20004350552024
:10E1700049442020202020203D20004C6F7720663D
:10E18000757365202020203D20004869676820665F
:10E190007573652020203D200045787420667573D6
:10E1A00065202020203D20004C6F636B2066757336
:10E1B000652020203D20004D617220203720323024
:10E1C000313300312E362E3800342E332E350056A2
:10E1D00023202020414444522020206F7020636F70
:10E1E00064652020202020696E73747275637469E1
:10E1F0006F6E2061646472202020496E74657272B3
:10E20000757074006E6F20766563746F7200726A49
:10E210006D702020006A6D70200057686174207056
:10E220006F72743A00506F7274206E6F7420737541
:10E2300070706F72746564004D7573742062652030
:10E2400061206C6574746572002000577269747483
:10E25000696E672045450052656164696E672045B7
:10E26000450045452065727220636E743D00504F35
:10E27000525400303D5A65726F2061646472003FF1
:10E280003D43505520737461747300403D454550C3
:10E29000524F4D207465737400423D426C696E6B41
:10E2A000204C454400453D44756D70204545505215
:10E2B0004F4D00463D44756D7020464C415348001B
:10E2C000483D48656C70004C3D4C69737420492F83
:10E2D0004F20506F72747300513D51756974005234
:10E2E0003D44756D702052414D00563D73686F7707
:10E2F00020696E7465727275707420566563746FF0
:10E30000727300593D506F727420626C696E6B00BD
:10E310002A0011241FBECFEFD1E2DEBFCDBF01E046
:10E320000CBF12E0A0E0B2E0EEE1FDEF03E00BBFB6
:10E3300002C007900D92A030B107D9F712E0A0E01B
:10E34000B2E001C01D92AE30B107E1F70F9460F367
:10E350000D948DFE01E20EBF0FEF0DBF11241FBE05
:10E360000D9460F30D9400F020E030E040ED57E0B4
:10E3700005C0FA013197F1F72F5F3F4F2817390792
:10E38000C0F308959C01260F311DC901A0E0B0E043
:10E390002F5F3F4FABBFFC018791882361F08093D3
:10E3A000C6008091C00086FFFCCF8091C0008064D1
:10E3B0008093C000EACF08958DE08093C6008091DD
:10E3C000C00086FFFCCF8091C00080648093C000B5
:10E3D0008AE08093C6008091C00086FFFCCF8091C8
:10E3E000C00080648093C00008950F94C2F10F9420
:10E3F000DCF10895FC019081992359F09093C600B7
:10E400008091C00086FFFCCF8091C0008064809323
:10E41000C0003196992379F70895282F982F929567
:10E420009F70892F805D8A3308F0895F8093C600D2
:10E430008091C00086FFFCCF8091C00080648093F3
:10E44000C000822F8F70982F905D9A3308F0995FEB
:10E450009093C6008091C00086FFFCCF8091C000E1
:10E4600080648093C00008959C01FB01853691056E
:10E470001CF46330710594F0C90164E670E00F94F8
:10E480002EFE605D7F4F6093C6008091C00086FFC6
:10E49000FCCF8091C00080648093C0002B30310598
:10E4A00014F43297B4F0C90164E670E00F942EFEC4
:10E4B0006AE070E00F942EFE605D7F4F6093C600AF
:10E4C0008091C00086FFFCCF8091C0008064809363
:10E4D000C000C9016AE070E00F942EFEC0968093E0
:10E4E000C6008091C00086FFFCCF8091C000806490
:10E4F0008093C00008951F93182F8EE692EE60E07F
:10E500000F94C2F11093C6008091C00086FFFCCF2B
:10E510008091C00080648093C0000F94DCF11F9153
:10E5200008952F923F924F925F926F927F928F92B7
:10E530009F92AF92BF92CF92DF92EF92FF920F9392
:10E540001F93DF93CF93CDB7DEB762970FB6F894E2
:10E55000DEBF0FBECDBF382E622ECA01DB015C01CB
:10E560006D01772420E2222E2E010894411C511CBB
:10E570008BC081E0A81680E0B80681E0C80680E084
:10E58000D80628F0C601AA27BB270F940DF2BB2797
:10E59000AD2D9C2D8B2D0F940DF28A2D0F940DF225
:10E5A0002092C6008091C00086FFFCCF8091C00001
:10E5B00080648093C0009DE29093C6008091C0006B
:10E5C00086FFFCCF8091C00080648093C0002092C1
:10E5D000C6008091C00086FFFCCF8091C00080649F
:10E5E0008093C00019828601750188249924A1E0D6
:10E5F0003A1651F03A1620F0B2E03B1661F409C029
:10E600000BBFF701779007C0C7010F9477FE782EF4
:10E6100002C0F7017080872D0F940DF22092C60082
:10E620008091C00086FFFCCF8091C0008064809301
:10E63000C000872D8052F401EF70F0708F3520F408
:10E64000E40DF51D708204C0E40DF51D8EE280839B
:10E650000894E11CF11C011D111D0894811C911CE2
:10E6600090E18916910409F0C2CF80E190E0A0E02A
:10E67000B0E0A80EB91ECA1EDB1E198AC2010F9493
:10E68000FAF10F94DCF16A94662009F072CF629679
:10E690000FB6F894DEBF0FBECDBFCF91DF911F91B3
:10E6A0000F91FF90EF90DF90CF90BF90AF909F9031
:10E6B0008F907F906F905F904F903F902F90089534
:10E6C0002F923F924F925F926F927F928F929F9282
:10E6D000AF92BF92CF92DF92EF92FF920F931F9370
:10E6E000DF93CF93CDB7DEB7CD53D1400FB6F894BB
:10E6F000DEBF0FBECDBF01E20EBF0FEF0DBF94B75F
:10E70000F894A89514BE80916000886180936000A1
:10E7100010926000789493FF05C0E0910002F091A0
:10E7200001021995279A2F9A8091C00082608093E8
:10E73000C00080E18093C40088E18093C1000000A4
:10E74000EE24FF24870144E0A42EB12CCC24DD2448
:10E7500024C0C5010197F1F70894E11CF11C011DCB
:10E76000111D21E2E2162EE4F20620E0020720E06D
:10E77000120718F031E0C32ED12CC801B70127ECE5
:10E780003BE140E050E00F9441FE611571058105C9
:10E79000910519F485B1805885B98091C00087FD35
:10E7A00003C0C114D104A9F2A6014F5F5F4FC25E3E
:10E7B000DE4F59834883CE51D140C25EDE4F8881FF
:10E7C0009981CE51D140019711F00D9410FEC05D9A
:10E7D000DE4F19821882C053D14060E0C15DDE4F28
:10E7E0001882CF52D14088249924C35DDE4F19820C
:10E7F0001882CD52D140C05EDE4F188219821A8233
:10E800001B82C052D140CE5CDE4F188219821A8220
:10E810001B82C253D140EE24FF2487010BBFF701B6
:10E8200007911691C45CDE4F19830883CC53D14005
:10E830000D940BFEC25EDE4F28813981CE51D1404E
:10E840002130310509F52091C600C25EDE4F1982E4
:10E850001882CE51D14022C02F5F3F4F4F4F5F4FA4
:10E86000213082E138078AE7480780E0580780F0C6
:10E87000C45CDE4FE881F981CC53D140EF5FFF4F9C
:10E8800019F0EE27FF27099420E030E040E050E047
:10E890008091C00087FFE0CF2091C600C35DDE4FAE
:10E8A00048815981CD52D1404F5F5F4FC35DDE4FEC
:10E8B00059834883CD52D140213209F063C64A3092
:10E8C000510508F05FC60894811C911C53E0851621
:10E8D000910409F059C600E010E018C081E280936D
:10E8E000C6008091C00086FFFCCF8091C00080648C
:10E8F0008093C0002F5F3F4F2931310579F70F9486
:10E90000DCF10F5F1F4F0530110519F020E030E0FA
:10E91000E5CF10920A0210920B0210920C02109294
:10E920000D02109206021092070210920802109235
:10E930000902109202021092030210920402109235
:10E9400005028FEE90EE60E00F94F5F180E191EE1C
:10E9500060E00F94C2F18091C00087FFFCCF9091DE
:10E96000C600903608F09F759032B8F09093C600BC
:10E970008091C00086FFFCCF8091C00080648093AE
:10E98000C000A0E2A093C6008091C00086FFFCCF2B
:10E990008091C00080648093C000983409F4D7C18E
:10E9A0009934B8F4923409F459C1933458F490333B
:10E9B00019F1903308F4E3C59F33A1F1903409F0C5
:10E9C000DEC5BDC0953409F470C1963409F0D7C5D1
:10E9D00098C1923509F42BC2933538F49C3409F46C
:10E9E000F5C1913509F0CBC518C2963509F445C279
:10E9F000993509F0C4C567C483E792EE62E00F94CD
:10EA0000F5F110920602109207021092080210927D
:10EA1000090210920A0210920B0210920C0210923C
:10EA20000D0213C18FE792EE62E00F94F5F18FEEC5
:10EA300090EE60E00F94F5F181E291EE60E00F94CA
:10EA4000C2F187EB91EE60E00F94F5F180E391EE77
:10EA500060E00F94C2F184EE90EE60E00F94F5F167
:10EA60008FE391EE60E00F94C2F186E090E061E008
:10EA700070E00F9434F20F94DCF18DE591EE60E0DC
:10EA80000F94C2F189EC91EE60E00F94F5F18EE401
:10EA900091EE60E00F94C2F183EC91EE60E00F9490
:10EAA000F5F18CE691EE60E00F94C2F18EE10F94E7
:10EAB0000DF288E90F940DF281E00F940DF20F949E
:10EAC000DCF18BE791EE60E00F94C2F119E0E0E039
:10EAD000F0E010935700E4918E2F0F940DF20F94F5
:10EAE000DCF18AE891EE60E00F94C2F1E3E0F0E03F
:10EAF00010935700E4918E2F0F940DF20F94DCF1D8
:10EB000089E991EE60E00F94C2F1E2E0F0E0109349
:10EB10005700E4918E2F0F940DF20F94DCF188EAE8
:10EB200091EE60E00F94C2F1E1E0F0E01093570045
:10EB30001491812F0F940DF20F94DCF107CF8BE825
:10EB400092EE62E00F94F5F18BE492EE60E00F94A8
:10EB5000F5F10F94DCF100E010E019C0C8016F2D51
:10EB60000F947FFEFF2031F489E492EE60E00F9471
:10EB7000C2F10BC0F092C6008091C00086FFFCCFAE
:10EB80008091C00080648093C0000F5F1F4FC80158
:10EB900081519F41A0E0B0E0ABBFFC01F790BAE229
:10EBA000FB1621F0E2E000301E07C1F60F94DCF105
:10EBB0000F94DCF187E592EE60E00F94F5F10F948D
:10EBC000DCF1CC24DD2400E010E01EC0C8010F946D
:10EBD00077FEF82E882331F489E492EE60E00F94FA
:10EBE000C2F10BC08093C6008091C00086FFFCCFAD
:10EBF0008091C00080648093C000FE1419F00894D6
:10EC0000C11CD11C0F5F1F4FC80181519F41A0E063
:10EC1000B0E0ABBFFC01E790FAE2EF1621F022E092
:10EC20000030120799F60F94DCF10F94DCF182E6C4
:10EC300092EE60E00F94C2F1C60161E070E00F94C3
:10EC400034F20F94DCF10F94DCF110920202109276
:10EC50000302109204021092050278CE89E992EE26
:10EC600062E00F94F5F1279A2F9A16C02F9880E052
:10EC700090E0E0EDF7E03197F1F7019684369105E9
:10EC8000C1F72F9A80E090E0E0EDF7E03197F1F7DF
:10EC9000019684369105C1F78091C00087FFE6CFC9
:10ECA0008091C00087FFFCCF64C485EA92EE62E0E9
:10ECB0000F94F5F140910202509103026091040219
:10ECC0007091050281E020E10F9491F2809102029F
:10ECD00090910302A0910402B091050280509F4FD1
:10ECE000AF4FBF4F8093020290930302A0930402A0
:10ECF000B093050280509041A040B04008F426CE69
:10ED0000A4CF83EB92EE62E00F94F5F140910602FE
:10ED100050910702609108027091090280E020E1A1
:10ED20000F9491F28091060290910702A09108023F
:10ED3000B091090280509F4FAF4FBF4F80930602A2
:10ED400090930702A0930802B0930902FFCD80ECD4
:10ED500092EE62E00F94F5F183E792EE60E00F949B
:10ED6000F5F18FE792EE60E00F94F5F18BE892EE0B
:10ED700060E00F94F5F189E992EE60E00F94F5F10F
:10ED800085EA92EE60E00F94F5F183EB92EE60E09D
:10ED90000F94F5F180EC92EE60E00F94F5F187ECC2
:10EDA00092EE60E00F94F5F188ED92EE60E00F9442
:10EDB000F5F18FED92EE60E00F94F5F18AEE92EEB0
:10EDC00060E00F94F5F183E093EEBDCD87EC92EE19
:10EDD00062E00F94F5F181E40F947BF282E40F94EA
:10EDE0007BF283E40F947BF284E40F947BF285E45E
:10EDF0000F947BF286E40F947BF287E40F947BF20E
:10EE000088E40F947BF28AE40F947BF28BE40F94F6
:10EE10007BF28CE40F947BF299CD88ED92EE62E068
:10EE20000F94F5F1772473948824992409C48FED05
:10EE300092EE62E00F94F5F140910A0250910B02BC
:10EE400060910C0270910D0282E020E10F9491F22A
:10EE500080910A0290910B02A0910C02B0910D02D8
:10EE600080509F4FAF4FBF4F80930A0290930B0289
:10EE7000A0930C02B0930D0269CD8AEE92EE62E08F
:10EE80000F94F5F184EE90EE60E00F94F5F18FECC5
:10EE900091EE60E00F94F5F1662477244301CC5D98
:10EEA000DE4F19821882C452D140D401C301B695F5
:10EEB000A79597958795CA5DDE4F88839983AA8326
:10EEC000BB83C652D140CC5DDE4FA881B981C4520C
:10EED000D1401196CC5DDE4FB983A883C452D14096
:10EEE000CD0162E070E00F9434F2B0E2B093C6005E
:10EEF0008091C00086FFFCCF8091C0008064809329
:10EF0000C000EDE2E093C6008091C00086FFFCCF18
:10EF10008091C00080648093C000F0E2F093C6004E
:10EF20008091C00086FFFCCF8091C00080648093F8
:10EF3000C000CA5DDE4FE880F9800A811B81C6529D
:10EF4000D140BB27A12F902F8F2D0F940DF2CA5DBA
:10EF5000DE4F8881C652D1400F940DF2B0E2FB2EF5
:10EF6000F092C6008091C00086FFFCCF8091C00067
:10EF700080648093C0000DE30093C6008091C000C0
:10EF800086FFFCCF8091C00080648093C00010E2B7
:10EF90001093C6008091C00086FFFCCF8091C00016
:10EFA00080648093C0008BBEF3012791C65DDE4F65
:10EFB0002883CA52D140A22EBB24CC24DD2408943D
:10EFC000611C711C811C911C8BBEF3018791282E42
