:020000040000FA
:100000000C9450020C9481020C9481020C94810295
:100010000C9481020C9481020C9481020C94810254
:100020000C9481020C9481020C9481020C94810244
:100030000C9481020C9481020C9481020C94810234
:100040000C9481020C94D5140C9481020C948102BE
:100050000C9481020C9481020C9481020C94011482
:100060000C9481020C9403150C9481020C9481026F
:100070000C9481020C9481020C9481020C948102F4
:100080000C94A7140C9481020C9481020C948102AC
:100090000C9481020C9481020C9481020C948102D4
:1000A0000C9481020C9481020C9479140C948102BA
:1000B0000C9481020C9481020C9481020C944B14D8
:1000C0000C9481020C9481020C9481020C948102A4
:1000D0000C9481020C9481020C9481020C94810294
:1000E0000C9481020C94371E0C94EA1D0C94E01FB2
:1000F0000C94A3200C942D1D0C9448200C942C20BF
:100100000C948B1E0C945A1E0C94E5050C94961DB1
:100110000C94F81D0C94CB1F0C94451E0C94A71C3A
:100120000C94360D0C94AB1D0C948D1F0C94D91FA0
:100130000C94BC1E0C940A060C94EE1F0C94E40262
:100140000C94651D0C949D1D0C941B1C0C947D1E21
:100150000C94291E0C941A060C94B61F0C940206DB
:100160000C94A01E0C9421100C94811D0C943C1C2A
:100170000C940D1E0C94CD020C9416170C943A207E
:100180000C94AA020C949A1F0C94081D0C944A1CFF
:100190000C94ED1C0C94E71F0C94550D0C94061E4A
:1001A0000C949C200C94201C0C9464200C94B2029F
:1001B0000C940F1D0C94AE020C947D1C0C94861FA5
:1001C0000C94A41D0C94301E0C9472200C94A71E49
:1001D0000C94D7020C94341D0C94FB1F0C947920C2
:1001E0000C944C1E0C94761C0C94431C0C94781F9D
:1001F0000C9421050C9480200C945D200C94C41F59
:100200000C94DB020C94491D0C94DE050C94172011
:100210000C9487200C94DF020C94FA1C0C94BC1CE8
:100220000C94011D0C9433200C94AE1C0C94BF0252
:100230000C94A60F0C94DC1D0C94F8050C94E50EA0
:100240000C94AC080C94AF1F0C9441200C94991C96
:100250000C94EF0B0C94351C0C9456200C94B51C8C
:100260000C943B1D0C94841E0C94C3020C94421DF0
:100270000C94991E0C94D21F0C94AF060C94E902B6
:100280000C9402200C94921E0C94CA1C0C947F0DAA
:100290000C941B1E0C94C9020C944F200C94581CF7
:1002A0000C94A81F0C9420050C94C31E0C946F1C76
:1002B0000C94141E0C94511C0C947F1F0C94CE1D96
:1002C0000C9409200C94921C0C94D1020C94B90249
:1002D0000C94A11F0C946B200C94271C0C949F0869
:1002E0000C94AE1E0C94B6020C94A4020C94FF0560
:1002F0000C94E5020C9465130C943E1E0C948E2015
:100300000C94FF1D0C942E1C0C94611E0C94151C57
:100310000C94881D0C9495200C94E8050C94261DD3
:100320000C94C31C0C94D51D0C9453060C94D11C36
:100330000C94841C0C94C9120C94B21D0C94E31DF3
:100340000C94531E0C9410200C94221E0C94370510
:100350000C9406060C94F11D0C94C70A0C942520ED
:100360000C941E200C94BD1F0C94B51E0C94A01C64
:100370000C948F1D0C948B1C0C943C0500002000E9
:100380002300260029002C002F003200000100006D
:1003900003010601090100000A0B02090C0D0E08F9
:1003A000070304010000000000000000000000003E
:1003B000000000000000000000000000000000003D
:1003C00000001211100000000000000000000000FA
:1003D00000000000000000000000000000002200FB
:1003E000250028002B002E003100340002010000FF
:1003F000050108010B0100002100240027002A004C
:100400002D003000330001010000040107010A0142
:100410000102102020080810204010204080020116
:1004200002010804020101020408102040808040FB
:1004300020100804020180040201804020100804FA
:100440000201080402010102040810204080010298
:100450000408102040800505050507050808080860
:10046000020202020A0A080804040404010101014C
:100470000101010103030303030303030407070747
:100480000C0C0C0C0C0C0C0C0202020206060606EC
:10049000060606060B0B0B0B0B0B0B0B1617A320FC
:1004A00011241FBECFEFD1E2DEBFCDBF00E00CBFF5
:1004B00016E0A0E0B2E0EEE2F0E500E00BBF02C023
:1004C00007900D92A236B107D9F721E1A2E6B6E076
:1004D00001C01D92A033B207E1F712E0CFE4D2E0F1
:1004E00000E006C021970109802FFE010E94FE2234
:1004F000CE34D10780E00807A9F70E9427180C9492
:1005000005280C9400008CBD9DBD0895815082315A
:1005100008F05AC0E82FF0E08827EE56FD4F8F4FC5
:100520000C94FE22B202B602A402AA02AE02E402B7
:10053000B902BF02C302C902CD02D102D702DB0257
:10054000E402DF02E502E902809180008F77809368
:1005500080000895809180008F7DF9CF8091800088
:10056000877FF5CF84B58F7784BD089584B58F7D5F
:10057000FBCF8091B0008F778093B0000895809179
:10058000B0008F7DF9CF809190008F77809390009D
:100590000895809190008F7DF9CF80919000877FA2
:1005A000F5CF8091A0008F778093A000089580916F
:1005B000A0008F7DF9CF8091A000877FF5CF80913B
:1005C00020018F77809320010895809120018F7DF5
:1005D000F9CF80912001877FF5CF1F93CF93DF93D1
:1005E000282F30E0F901EA56FC4F8491F901E05FD1
:1005F000FB4FD491F901EA5AFB4FC491CC23A9F0E7
:10060000162F81110E948602EC2FF0E0EE0FFF1FE3
:10061000E452FC4FA591B4918FB7F894EC9111116D
:1006200008C0D095DE23DC938FBFDF91CF911F915F
:100630000895DE2BF8CFCF93DF9390E0FC01E05FCD
:10064000FB4F24918A5A9B4FFC0184918823C9F067
:1006500090E0880F991FFC01EA50FC4FA591B491DE
:10066000FC01E452FC4FC591D49161110DC09FB7BC
:10067000F8948C91209582238C9388812823288359
:100680009FBFDF91CF910895623051F49FB7F894E6
:100690003C91822F809583238C93E8812E2BEFCF82
:1006A0008FB7F894EC912E2B2C938FBFEACF863323
:1006B00008F0865320917B00982F9870277F922B0B
:1006C00090937B008770806480937C0080917A0097
:1006D000806480937A0080917A0086FDFCCF8091BF
:1006E00078009091790008953FB7F8948091FB06C7
:1006F0009091FC06A091FD06B091FE0626B5A89B40
:1007000005C02F3F19F00196A11DB11D3FBFBA2FA3
:10071000A92F982F8827BC01CD01620F711D811D63
:10072000911D42E0660F771F881F991F4A95D1F7E8
:1007300008958F929F92AF92BF92CF92DF92EF92E5
:10074000FF924B015C010E9474036B017C010E94CB
:1007500074036C197D098E099F09683E73408105F9
:100760009105A8F321E0821A9108A108B10888EE4A
:10077000C80E83E0D81EE11CF11C81149104A10471
:10078000B10429F7FF90EF90DF90CF90BF90AF902A
:100790009F908F9008952FB7F8946091F70670910D
:1007A000F8068091F9069091FA062FBF0895FC0192
:1007B00020812EBD9B012150310941F051810DB4A2
:1007C00007FEFDCF4EB55EBD4193F5CF6150710977
:1007D000860F971F0DB407FEFDCF2EB5FC012083B9
:1007E0000895E0914F0FF091500F808190914E0F3E
:1007F000892B80830895E0914F0FF091500F9081E5
:1008000080914E0F80958923808308958EBD0000CE
:100810000DB407FEFDCF8EB50895AF92BF92CF9273
:10082000DF92EF92FF920F931F93CF93DF9300D04D
:1008300000D01F921F92CDB7DEB78C017B016A01F9
:100840008091520F8333E1F45801A40EB51EA01617
:10085000B10609F46FC00E94FB0380EF0E940604FA
:10086000812F0E940604802F0E9406040F5F1F4FF5
:10087000F70181917F010E9406040E94F103E7CFF6
:100880005B01A40EB51E8433C1F40E94FB031983DF
:100890000A838D2D80688B83CC8264E070E0CE016A
:1008A00001960E94D703AE14BF0409F441C0F701BA
:1008B00081917F010E940604F6CF0E94FB030F3F47
:1008C000110509F028F419820A8384E08B830CC097
:1008D00017FD17C019820A8333E0169507953A95DC
:1008E000E1F7007E0C600B8386E0C816D104A0F50A
:1008F000F701DE011496EA15FB0599F081918D93BD
:10090000FACFC80126E0969587952A95E1F7807E73
:1009100019830A830115104C10F48461D7CF8C61C0
:10092000D5CFB6016D5F7F4FCE0101960E94D703F0
:100930000E94F103C60128960FB6F894DEBF0FBEE1
:10094000CDBFDF91CF911F910F91FF90EF90DF907E
:10095000CF90BF90AF90089563E070E0CE01019614
:100960000E94D703F70181917F010E940604AE1413
:10097000BF04C1F7DDCFCF93DF931F92CDB7DEB7B2
:10098000898341E050E0BE016F5F7F4F90E080E0DF
:100990000E940D040F90DF91CF91089590E0209177
:1009A000520F233339F40C96982F990F990F990F02
:1009B00080E008954896F8CFDA01E091530FF0E017
:1009C000FE2FEE27E60FF71F90E0982F8827A9014A
:1009D000BD018E0F9F1F0C940D04CF93DF931F92C8
:1009E0001F92CDB7DEB779836A8322E030E0AE0193
:1009F0004F5F5F4F64E070E00E94DC040F900F9047
:100A0000DF91CF910895CF93DF931F92CDB7DEB7DB
:100A10002091530F30E0322F2227260F371F90E00E
:100A2000982F8827498341E050E0BE016F5F7F4FD8
:100A3000820F931F0E940D040F90DF91CF910895B4
:100A40000895CF93DF931F92CDB7DEB76983DC01A2
:100A5000ED91FC910280F381E02D41E050E0BE0178
:100A60006F5F7F4F19950F90DF91CF910895FC0133
:100A7000818D928D08950895DF92EF92FF920F93EA
:100A80001F93CF93DF931F921F92CDB7DEB7FB0169
:100A9000DC0157961C921E9256972281211109C0A3
:100AA0002381211106C02481211103C02581222325
:100AB00069F14115510551F17A018F01FC01D08C8A
:100AC00080E591E00E948302A8014E5F5F4F24E021
:100AD00030E06CE070E08D2D0E94DC04F982EA8247
:100AE00022E030E0AE014F5F5F4F60E170E08D2D9E
:100AF0000E94DC0481E090E00F900F90DF91CF9195
:100B00001F910F91FF90EF90DF90089580E0F3CF59
:100B1000CF93DF93DB01EA01FC01EE50F94F4081F6
:100B20005CE0589F9001599F300D112447FF1CC075
:100B300011961C921E9280818F5F80838081A90113
:100B4000480F511D87FD5A9557FF03C080818C3097
:100B5000ACF08D919C911197049680349C4938F1AA
:100B60008D919C91049625C08081A901480F511D4B
:100B700087FD5A9557FFDFCF8081DDCF8D919C9106
:100B80004081240F311D47FD3A95D901AA0FBB1FA3
:100B9000A20FB31FAE59B94F11962D913C91820F00
:100BA000931F998388838081DF91CF91089580E49A
:100BB0009CE9998388838FEF8083F6CFDC01ED91E8
:100BC000FC910190F081E02D19940C970C94DE05B6
:100BD00021E030E0FC0141895289452B11F030E0E1
:100BE00020E0319521953109FC01328B218B08954C
:100BF000DC01ED91FC910190F081E02D19940C97AE
:100C00000C94F805FC01848595850895FC01848980
:100C10009589089524E632E0FC0131832083FB01AD
:100C20004089518962897389FC01428353836483BB
:100C300075830895DC01ED91FC91048CF58DE02D18
:100C40001994FC019191992339F08091C00085FF9E
:100C5000FCCF9093C600F6CF0895CF93DF93EB01BE
:100C60000E94210683E193E00E942106CE010E94AA
:100C7000210686E293E00E94210681E0DF91CF9178
:100C800008950F931F93CF93DF93EC018B01B8016D
:100C9000CE010E942D068823D1F381E0DF91CF9110
:100CA0001F910F91089590E080E008958F929F9298
:100CB000AF92BF92EF92FF920F931F93CF93DF9368
:100CC000CDB7DEB7A1970FB6F894DEBF0FBECDBF8C
:100CD0007C01FA01CB0119A2223008F42AE08E012E
:100CE0000F5D1F4F822E912CB12CA12CBF01A501AD
:100CF00094010E94BF21F901CA016A3074F5605D58
:100D0000D8016E938D01232B242B252B79F790E0AE
:100D100080E0109789F0FD0101900020E9F73197FC
:100D2000AF014A1B5B0BD701ED91FC910280F3816F
:100D3000E02DB801C7011995A1960FB6F894DEBF52
:100D40000FBECDBFDF91CF911F910F91FF90EF901C
:100D5000BF90AF909F908F900895695CD1CF8F9294
:100D60009F92AF92BF92CF92DF92EF92FF920F933A
:100D70001F93CF93DF937C01EB016C0182E0C80EDF
:100D8000D11C4701E5E08E0E911C10E000E0F60159
:100D900041916F0150E070E060E02AE0CE010E94D6
:100DA00056065C01E881F9810190F081E02D6EE248
:100DB000CE0119958A0D9B1D080F191FC814D9045F
:100DC00031F7F701458150E070E060E02AE0CE01A4
:100DD0000E945606800F911FDF91CF911F910F91B6
:100DE000FF90EF90DF90CF90BF90AF909F908F904B
:100DF00008950E9413250F931F93CF93DF93EC0167
:100E000088819981009759F02A813B8126173707FD
:100E100030F081E0DF91CF911F910F9108958B0108
:100E20006F5F7F4F0E943224009759F09983888327
:100E30001B830A832C813D81232B59F7FC011082EF
:100E4000E8CF80E0E7CFEF92FF920F931F93CF930D
:100E5000DF936115710541F480E0DF91CF911F911F
:100E60000F91FF90EF90089541155105B1F07B016E
:100E7000EC010C811D81040F151FB8010E94FB06B7
:100E8000882351F3288139818C819D81B701820F9C
:100E9000931F0E9428251D830C8381E0DECFCF9312
:100EA000DF93EC0188819981009711F00E94A923BA
:100EB000198218821D821C821B821A82DF91CF91B7
:100EC0000895CF93DF93EC01FB0101900020E9F737
:100ED0003197AF01461B570B0E942307811103C0B6
:100EE000CE010E944F07CE01DF91CF910895CF939D
:100EF000DF93EC01FB0144815581608171810E9487
:100F00002307811103C0CE010E944F07CE01DF915C
:100F1000CF910895EF92FF920F931F93CF93DF939A
:100F2000EC017B018A01BA010E94FB0681110BC012
:100F3000CE010E944F07CE01DF91CF911F910F91FB
:100F4000FF90EF9008951D830C83B70188819981EC
:100F50000E942825F0CFCF93DF93EC01FB01861789
:100F6000970749F0608171816115710541F04481F5
:100F700055810E948A07CE01DF91CF9108950E948A
:100F80004F07F9CFFC011182108213821282158261
:100F90001482FB0101900020E9F73197AF01461B55
:100FA000570B0C948A07FC0180819181009711F006
:100FB0000C94A9230895AF92BF92CF92DF92EF9243
:100FC000FF920F931F93CF93DF9300D01F92CDB763
:100FD000DEB78C016B017A018091520F8333E9F403
:100FE0005B016801C40ED51EC016D106A9F10E948E
:100FF000FB038FE00E940604812F0E940604802FCD
:101000000E9406040F5F1F4F80E00E940604F50156
:1010100081935F010E94F103E7CF843369F50E9459
:10102000FB0319830A838F2D8F778B83EC8264E017
:1010300070E0CE0101960E94D703A70170E060E046
:10104000C6010E942125E114F10421F0B701C60177
:101050000E94D7030E94F103C7010F900F900F90D9
:101060000F90DF91CF911F910F91FF90EF90DF9044
:10107000CF90BF90AF9008950E94FB030F3F1105E2
:1010800009F030F419820A831B8263E070E0D1CF4B
:1010900017FD0BC019820A8333E0169507953A9520
:1010A000E1F7007E08600B83F0CFC80126E096953B
:1010B00087952A95E1F7807E19830A830115104CE4
:1010C00018F480618B83E1CF8861FCCFCF93DF93ED
:1010D0001F92CDB7DEB72091530F30E0322F222779
:1010E000260F371F90E0982F882741E050E0BE017F
:1010F0006F5F7F4F820F931F0E94DB0789810F90E4
:10110000DF91CF910895CF93C82F462F61E070E013
:101110000E94030561E070E08C2F0E946608811137
:10112000F9CFCF910895CF93C82F80E591E00E9429
:10113000830260E170E08C2FCF910C948308CF93F1
:10114000DF93EC01888D883020F40E94930888E0BA
:10115000888FDF91CF910895CF93FC01C08D80E5FA
:1011600091E00E94830260E270E08C2F0E9483086D
:1011700062E070E08C2F0E94660884FD16C062E079
:1011800070E08C2F0E94660883FF0AC048E162E08D
:1011900070E08C2F0E94030580E090E0CF910895CD
:1011A00080E591E00E948302E3CF40E162E070E0DD
:1011B0008C2F0E94030581E0F0CFCF93DF931F9225
:1011C000CDB7DEB741E050E0BE016F5F7F4F90E0EA
:1011D00080E00E94DB0789810F90DF91CF91089515
:1011E000CF93DF93C4E1D0E00E94DD08882361F053
:1011F00061E070E080E090E00E9499032197A1F700
:1012000080E0DF91CF91089581E0FBCFCF92DF9214
:10121000EF92FF920F931F93CF93DF93CDB7DEB77B
:10122000C454D1090FB6F894DEBF0FBECDBFFC0188
:1012300082819381A481B58123968CAF9DAFAEAF9F
:10124000BFAF239721E023962FAF239723964CAD72
:101250005DAD6EAD7FAD23974BAB5CAB6DAB7EAB45
:1012600089AF9AAFABAFBCAF8DA79EA7AFA7B8AB06
:1012700028AB4DA55EA56FA578A94FA358A769A770
:101280007AA72EAB4BA95CA96DA97EA949A35AA345
:101290006BA37CA38B8F9C8FAD8FBE8F44E652E0F7
:1012A0005C8B4B8B3FEF3D8B3E8B3F8B188E5E876D
:1012B0004D872AA7CFA0D8A4E9A4FAA4CF86D88ABC
:1012C000E98AFA8A2CA309A11AA12BA13CA10987BA
:1012D0001A872B873C875A8349838B839C83AD83F2
:1012E000BE838091540F81119DC060E372E080E065
:1012F00090E00E9499031FB7F8948091510F8111DB
:1013000027C0EBE8F4E08491E5E4F4E09491E82F61
:10131000F0E0EE0FFF1FEA50FC4FA591B491EC9165
:10132000E92321F461E085E30E94ED0261E085E3B9
:101330000E941B038CB580618CBD8CB580648CBD14
:1013400061E084E30E941B0361E083E30E941B03CE
:101350008091510F8F5F8093510F1FBFE0E6F4E043
:10136000E491F0E0EE0FFF1FE452FC4F8591949161
:101370009093500F80934F0FEAE1F4E0E491E093F3
:101380004E0F61E08AE00E941B030E94F10380E59A
:1013900091E00E94830284E38093520F80E80E94D0
:1013A000BB040E94F008882309F472C088E00E9400
:1013B000BB040E94DD08883009F06AC080E10E9409
:1013C000BB040E94DD08803109F062C080E00E9409
:1013D000BB040E94DD08182F81115AC041E050E083
:1013E000BE016D5B7F4F8FE190E00E94DB0724968A
:1013F0008FAD2497833009F04BC080E48093530F66
:1014000042E06EE170E0812F0E94030542E06FE14F
:1014100070E0812F0E9403051F5F183089F781E07B
:101420008093540F80E591E00E94830246E050E0F3
:1014300064E072E089E090E00E940D0444E050E036
:10144000BE016D5F7F4F8FE090E00E940D0444E08D
:1014500050E0BE01615F7F4F81E090E00E940D048B
:1014600044E050E0BE016B5E7F4F85E090E00E945B
:101470000D0481E08C8789859A85AB85BC85809336
:10148000750F9093760FA093770FB093780F6FC07E
:1014900087E38093520F80E80E94BB040E94F0080B
:1014A000882339F188E00E94BB040E94DD0888305F
:1014B00001F580E10E94BB040E94DD08182F8031F5
:1014C000C1F480E00E94BB040E94DD08811111C0BC
:1014D00041E050E0BE016D5B7F4F89E390E00E94E8
:1014E000DB0724968FAD2497843019F41093530FA3
:1014F00096CF83E38093520F80E80E94BB040E9442
:10150000F008882391F180E10E94BB040E94DD086D
:10151000803159F582E10E94BB040E94DD088231CE
:1015200021F580E00E94BB040E94DD0881111DC0EE
:1015300084E08093530F15E525961FAF259741E072
:1015400050E0BE016C5B7F4F8BE190E00E940D0488
:1015500024961FAF249741E050E0BE016D5B7F4FA2
:101560008AE190E00E940D045ACF1092520FCC5B9A
:10157000DF4F0FB6F894DEBF0FBECDBFDF91CF9126
:101580001F910F91FF90EF90DF90CF9008951F93E0
:10159000CF93DF931F92CDB7DEB7FC01108D1830CB
:1015A00020F5818D928D892B01F180E591E00E94DB
:1015B0008302812F0E94CE0427E0129FF0011124A4
:1015C000EA5EF04F22813381377041E050E0BE0186
:1015D0006F5F7F4F820F931F0E94DB07898190E02E
:1015E0000F90DF91CF911F9108958FEF9FEFF8CF6C
:1015F000DA01E091530FF0E0FE2FEE27E60FF71F20
:1016000090E0982F8827A901BD018E0F9F1F0C9491
:10161000DB078F929F92AF92BF92CF92DF92EF92B1
:10162000FF920F931F93CF93DF93CDB7DEB76097F1
:101630000FB6F894DEBF0FBECDBF7C019091520F64
:10164000911115C018E0812F60960FB6F894DEBF97
:101650000FBECDBFDF91CF911F910F91FF90EF9003
:10166000DF90CF90BF90AF909F908F90089508E04B
:10167000933309F404E06B0180E591E00E9483025A
:101680009E012F5F3F4F5901490110E063E070E078
:10169000812F0E946608F40181934F018823C1F0D5
:1016A0001F5F0113F3CF00E0F50181915F018D31E0
:1016B00049F0883139F08A51823020F00F5F1013E1
:1016C000F3CFC0CF60E170E0802F0E948308102F1D
:1016D000A12EB12C83EE93E00197F1F742E870E080
:1016E00060E0812F0E9403054FEF62E070E0812FE0
:1016F0000E940305B601C114D10491F48091020245
:101700009091030201968115F0EC9F0708F464C0E4
:10171000909303028093020260910202709103028F
:10172000812F0E94ED0486E0E0E1F2E0DE011996EF
:1017300001900D928A95E1F7F70183818F778C876D
:1017400084818D8785818E87A7014E5F5F4F24E05E
:1017500030E06CE070E0812F0E94DC04DF86C88AF4
:1017600022E030E0AE01415F5F4F60E170E0812F29
:101770000E94DC0426E030E0AE01475F5F4F66E088
:1017800070E0812F0E94DC0461E070E0812F0E94F4
:10179000830827E02A9DC0012B9D900D11249C01F8
:1017A0002A5E304F7901F9011182108222E030E087
:1017B000AE01415F5F4F68E270E0812F0E94F80A3E
:1017C0008F859889982789279827F70193838283A3
:1017D00016821582148237CF80E090EC99CFCF9299
:1017E000DF92EF92FF920F931F93CF93DF9300D07E
:1017F00000D0CDB7DEB78C016B017A01FC01808D82
:10180000883010F40E94930884E692E09A838983DA
:10181000F60182819381A481B5818B839C83AD8302
:10182000BE83B701CE0101960E94090BF801808F9B
:101830008830A0F4F586E486128E118E81E026961B
:101840000FB6F894DEBF0FBECDBFDF91CF911F91D1
:101850000F91FF90EF90DF90CF90089580E0EFCF51
:10186000FF920F931F93CF93DF931F921F92CDB7D9
:10187000DEB7F82E22E030E0AE014F5F5F4F66E248
:1018800070E00E94F80A09811A81102701271027A9
:1018900022E030E0AE014F5F5F4F66E270E08F2DD7
:1018A0000E94F80A89819A81982789279827081722
:1018B000190749F4C8010F900F90DF91CF911F9144
:1018C0000F91FF9008958C01E3CF4F925F927F922A
:1018D0008F929F92AF92BF92CF92DF92EF92FF9240
:1018E0000F931F93CF93DF931F921F92CDB7DEB755
:1018F000782E6B014A01A82EB12C27E0829FC001EF
:101900001124FC01EA5EF04F7F010081118180E526
:1019100091E00E9483020815190554F4872D0E9456
:10192000300CF70126818C01021B11091183008301
:101930000115110529F563E070E0872D0E94660806
:10194000843159F0882349F001E010E08C3111F422
:1019500010E000E0119501951109C8010F900F905A
:10196000DF91CF911F910F91FF90EF90DF90CF907B
:10197000BF90AF909F908F907F905F904F90089511
:10198000801691060CF4840187E08A9DF0018B9DFE
:10199000F00D1124EA5EF04FE280F380C114D1040F
:1019A00051F12701F7E05F22872D0E94CE04840DBC
:1019B000951D2091520F273309F453C09801240D2F
:1019C000351D2130384008F44CC020E038E0490192
:1019D00084189508A401B6010E94DB072601480C73
:1019E000591C6801C818D908872D0E94CE04A60189
:1019F000B2010E94DB07E00EF11E87E08A9DF00134
:101A00008B9DF00D1124EA5EF04FF382E28220817B
:101A10003181201B310B318320838681800F912FF0
:101A2000911D8A3F910510F4232BF1F487E08A9DE4
:101A3000F0018B9DF00D1124EA5EF04F1682F982C1
:101A4000EA8222E030E0AE014F5F5F4F68E270E073
:101A5000872D0E94DC0460E470E0872D0E948308DB
:101A60007CCFA801B601C5CF868377CFCF93DF9314
:101A7000FC01218D328D2115310529F48FEF9FEF67
:101A8000DF91CF910895EC01808D4217530708F044
:101A9000A9010E94650C1816190684F7298D3A8D44
:101AA000281B390B3A8F298FEBCF0F931F93CF93BE
:101AB000DF931F92CDB7DEB7FC01218D328D232B32
:101AC00041F48FEF9FEF0F90DF91CF911F910F9116
:101AD00008958C0141E050E0BE016F5F7F4FFC0133
:101AE000808D0E94650C181619065CF7F801818D2F
:101AF000928D0197928F818F898190E0E4CF3F9200
:101B00004F925F926F927F928F929F92AF92BF920D
:101B1000CF92DF92EF92FF920F931F93CF93DF93B9
:101B20001F921F92CDB7DEB75C014B01342E452EBC
:101B3000FC0166887788508C80E591E00E948302E2
:101B400022E030E0AE014F5F5F4F60E270E0852D34
:101B50000E94F80AC980DA80DC24CD24DC2422E04B
:101B600030E0AE014F5F5F4F60E270E0852D0E9474
:101B7000F80A89819A81982789279827C816D90653
:101B800009F079C0E52CF12C67E0569EF001112494
:101B9000EA5EF04FD582C482032D142DC016D10603
:101BA00008F4860122E030E0AE014F5F5F4F64E24F
:101BB00070E0852D0E94F80A89819A8198278927EB
:101BC0009827680E791E930137704091520F433366
:101BD00009F053C088E0E80EF11CFE2CEE24FF0C47
:101BE000FF0CFF0CC9018E0D9F1D473309F449C03E
:101BF000A901400F511F4130584008F442C060E035
:101C000078E06B01C21AD30AA601B4010E940D0448
:101C1000A8014C195D09B4016C0D7D1DC7010E941E
:101C20000D04600E711E79826A8222E030E0AE01FE
:101C30004F5F5F4F64E270E0852D0E94DC04F50188
:101C400086899789800F911F978B868BC8010F908B
:101C50000F90DF91CF911F910F91FF90EF90DF9048
:101C6000CF90BF90AF909F908F907F906F905F903C
:101C70004F903F9008956C0172CFE0E1EE0EF11CA1
:101C8000ACCFA801B401CBCFFC0144815581608168
:101C9000718189E990E10C947F0DEF92FF920F938F
:101CA0001F93CF93DF9300D000D0CDB7DEB7209144
:101CB0000002309101022130310509F079C08C0118
:101CC00084E6E82E82E0F82EFA82E9828091C8103C
:101CD0009091C910A091CA10B091CB108B839C83B6
:101CE000AD83BE8348E759E6BE016F5F7F4F89E948
:101CF00090E10E943C0566E672E0CE0101960E94EA
:101D0000C207B801CE0101960E9477070E94440ED7
:101D1000CE0101960E94D30789E990E10E94AC08A8
:101D2000FA82E9828091BC109091BD10A091BE1002
:101D3000B091BF108B839C83AD83BE834CE65EE184
:101D4000BE016F5F7F4F89E990E10E943C05C801A9
:101D50000E94440E89E990E10E94AC0880910B0D2D
:101D6000811126C00E94CB03AB01BC018091070DFD
:101D70009091080DA091090DB0910A0D8C599F4FBB
:101D8000AF4FBF4F481759076A077B0788F061E0DC
:101D900086E00E94ED0281E080930B0D0E94CB0350
:101DA0006093070D7093080D8093090D90930A0DB1
:101DB00026960FB6F894DEBF0FBECDBFDF91CF9150
:101DC0001F910F91FF90EF9008958F929F92AF9285
:101DD000BF92CF92DF92EF92FF920F931F93CF9318
:101DE000DF9300D000D000D01F92CDB7DEB76C01DA
:101DF0005B01FC01808D883010F40E949308809173
:101E0000520F811117C088E0F601808F80E02A967A
:101E10000FB6F894DEBF0FBECDBFDF91CF911F91FB
:101E20000F91FF90EF90DF90CF90BF90AF909F9079
:101E30008F90089508E0833309F404E080E591E091
:101E40000E9483029E012F5F3F4F4901790110E0FC
:101E500063E070E0812F0E946608F70181937F01A3
:101E60008823C1F01F5F0113F3CFF12CF40181919E
:101E70004F018D3149F0883139F08A51823020F09C
:101E8000F3941F11F3CFBFCF60E170E08F2D0E945C
:101E900083081F2DE12EF12C83EE93E00197F1F7DB
:101EA00042E070E060E0812F0E9403054FEF62E0A6
:101EB00070E0812F0E940305B501A114B10489F4DB
:101EC000809102029091030201968115F0EC9F0728
:101ED000D0F190930302809302026091020270910C
:101EE0000302812F0E94ED0461E070E0812F0E94C7
:101EF000830827E02E9DC0012F9D900D11249C0189
:101F00002A5E304F7901F9011182108222E030E01F
:101F1000AE01475F5F4F68E270E0812F0E94F80AD0
:101F200089859A85982789279827F7019383828343
:101F3000168215821482F601108FB586A486128E41
:101F4000118E81E064CF80E090ECC3CFDF92EF92FE
:101F5000FF920F931F93CF93DF9300D000D01F9277
:101F60001F92CDB7DEB78C01D80159964D915C9187
:101F70005A974115510551F0ED91FC91048CF58D66
:101F8000E02D70E060E0C8011995EECFF801D08C2B
:101F9000F7E0DF9EC00111249C012A5E304F7901D9
:101FA000D9018D919C91892B59F148E050E0BE01F7
:101FB0006F5F7F4FF801808D0E94650C181619061F
:101FC00094F5D801509684E0FE01319601900D926F
:101FD0008A95E1F78D8190E0982F88272E81820FD6
:101FE000911DF801958B848B8F81282F30E0322F43
:101FF00022278885820F932F911D928F818F13C086
:1020000080E591E00E9483028D2D0E94300CD70163
:1020100016962C911697821B91098D939C93892B70
:1020200021F690E080E028960FB6F894DEBF0FBE50
:10203000CDBFDF91CF911F910F91FF90EF90DF9077
:1020400008956F927F928F929F92AF92BF92CF929C
:10205000DF92EF92FF920F931F93CF93DF93CDB751
:10206000DEB7EC970FB6F894DEBF0FBECDBF4C01C4
:102070008B013A0184E692E09A8389831C861B8651
:1020800048EE53E060E070E04D875E876F87788BA5
:102090002AE332E03A872987988F8F8B198E1A8E20
:1020A0001B8E1C8E28E029A399AB88AB1AAA1BAA09
:1020B0001CAA1DAA8091750F9091760FA091770FA1
:1020C000B091780F8EA39FA3A8A7B9A78B839C83F9
:1020D000AD83BE8318861F82F80120E090E080E087
:1020E0006AE03191332309F47AC040ED430F4A305E
:1020F00008F064C0689FA001699F500D1124CA01B7
:10210000C097830F911D37FD9A958F3F910549F335
:1021100040F34B815C816D817E818091810F909134
:10212000820FA091830FB091840F481759076A0757
:102130007B0709F428C20E94CB036F7077277C5F6E
:10214000CE0109960E94E50E813009F01FC284E697
:1021500092E09DA38CA38B819C81AD81BE818EA3D7
:102160009FA3A8A7B9A745E350E0BE016C5D7F4FD0
:10217000CE0109960E943C05892B09F04EC010E063
:1021800000E0CE0109960E949F080130110559F127
:10219000C801EC960FB6F894DEBF0FBECDBFDF913D
:1021A000CF911F910F91FF90EF90DF90CF90BF9054
:1021B000AF909F908F907F906F9008953E3209F07E
:1021C000A8CF233009F4A5CFA2E3B0E0AC0FBD1F28
:1021D000A20FB11D8C932F5F90E080E082CF23305F
:1021E00009F097CF8DABD401ED91FC910488F5896E
:1021F000E02D84E692E09DA38CA38AA99BA9ACA9BB
:10220000BDA98EA39FA3A8A7B9A7A301BE016C5D1A
:102210007F4FC40119958C01BBCF0E94CB037887F7
:102220006F8342E050E0BE01695F7F4FCE010996A7
:102230000E947F0D81E090E09DA38CA342E050E0DE
:10224000BE016C5D7F4FCE0109960E947F0D80E03C
:1022500091E09DA38CA342E050E0BE016C5D7F4FF6
:10226000CE0109960E947F0D1DA21CA242E050E003
:10227000BE016C5D7F4FCE0109960E947F0D42E04A
:1022800050E0BE016C5D7F4FCE0109960E947F0D2C
:1022900042E050E0BE016C5D7F4FCE0109960E9486
:1022A0007F0D7801D8018C91882311F18701F80105
:1022B00081916F01882311F08E32C1F45801AE185C
:1022C000BF081A141B0484F4AEAA41E050E0BE011A
:1022D0006A5C7F4FCE0109960E947F0DA501B70170
:1022E000CE0109960E947F0D7601DCCF8601DFCFFB
:1022F0001EAA41E050E0BE016A5C7F4FCE01099604
:102300000E947F0D00E011E01DA30CA342E050E00D
:10231000BE016C5D7F4FCE0109960E947F0D1DA30B
:102320000CA342E050E0BE016C5D7F4FCE010996E8
:102330000E947F0DCE0109960E94AC08892B09F4FA
:102340001ECF83E0E82EF12CD7C04B815C816D81DC
:102350007E81898D9A8DAB8DBC8D481759076A0790
:102360007B0709F00AC18D8D9E8DC59709F005C1C7
:102370008AA19BA10DEF1FEF0C970CF4B4C04CE0A9
:1023800050E0BE016C5D7F4FCE0109960E94360D74
:102390008EA19FA19827892798279BAF8AAF4F814D
:1023A00058852CA13DA14217530709F0E9C097FFBA
:1023B000E7C08F7092700BEF1FEF892B09F093C06D
:1023C000AAA4BBA4BA24AB24BA240AEF1FEFA11419
:1023D000B10409F488C010E000E088A599A5982709
:1023E000892798270817190708F541E050E0BE0132
:1023F0006A5C7F4FCE0109960E94360D4EA9442398
:1024000039F050E070E060E0CE0109960E94360D90
:102410008EA98111EACF44E050E070E060E0CE0187
:1024200009960E94360D0F5F1F4FD7CFD12CC12CBC
:1024300041E050E0BE01645C7F4FCE0109960E94EE
:10244000360D4CAD842F807C09F074C0442339F0E4
:1024500050E070E060E0CE0109960E94360D8CAD30
:102460008111E6CF42E050E0BE01685C7F4FCE01B3
:1024700009960E94360D42E050E0BE016A5C7F4F33
:10248000CE0109960E94360D44E050E070E060E015
:10249000CE0109960E94360D42E050E0BE01665C16
:1024A0007F4FCE0109960E94360D88AD99AD4AAD99
:1024B0005BAD8115914009F047C00EA91FA91027F7
:1024C000012710270130110509F03EC04115544085
:1024D00009F04DC044E050E0BE016E5C7F4FCE017C
:1024E00009960E94360DF1E0EF1AF10809F449CE81
:1024F0000F3F100709F045CE0E94CB035B016C0132
:10250000CE0109960E94A60F181619060CF41DCFCD
:102510000E94CB036A197B098C099D0969387341B4
:102520008105910538F562E370E080E090E00E945B
:102530009903E6CF41E050E070E060E0CE010996FB
:102540000E94360D1CAE8BCF54274527542770E0D0
:1025500060E0CE0109960E94360DEFEFCE1ADE0A3A
:10256000AC14BD0409F064CF06EF1FEFBCCF07EF3A
:102570001FEFB9CF0FEF1FEFB6CF0EEF1FEFB3CFA7
:102580000CEF1FEFB0CF0EEF1FEF02CE10E000E018
:10259000FFCDCF92DF92EF92FF920F931F93CF93D5
:1025A000DF9300D000D0CDB7DEB78C01FC0180896D
:1025B0009789992309F44EC00E945703DC0121E05A
:1025C00030E04FEF5FEF0E94B7212FEF33E040E0A4
:1025D00050E00E948D21215031094F4F5F4FF8018B
:1025E000C388D488E588F688B90190E080E00E942D
:1025F000FF20A70196010E94F02120E030E040EA90
:1026000050E40E945D22A70196010E94F121F80189
:10261000638B748B858B968B0E94CF226B01CB01D1
:10262000F801218932896217730730F4A9014C1926
:102630005D094138510530F528173907C8F4A6015E
:10264000421B530B41385105E8F480384FEF940793
:10265000C8F412C00E9457032FEF3FEFDC010E9425
:1026600006232FEF33E040E050E00E948D21B7CFEA
:102670008038FFEF9F07D0F480389105B8F48217B7
:102680009307A0F44AE0BE016F5F7F4FC6010E942E
:10269000D520BE016F5F7F4FF801868597850E9428
:1026A0002D06882319F0F801D28AC18A26960FB622
:1026B000F894DEBF0FBECDBFDF91CF911F910F9178
:1026C000FF90EF90DF90CF900895CF92DF92EF923E
:1026D000FF920F931F93CF93DF9300D000D0CDB71D
:1026E000DEB78C01FC0180899789992309F44EC0DB
:1026F0000E945703DC0121E030E04FEF5FEF0E94C2
:10270000B7212FEF33E040E050E00E948D212150AF
:1027100031094F4F5F4FF801C388D488E588F688A8
:10272000B90190E080E00E94FF20A70196010E947D
:10273000F02120E030E040EA50E40E945D22A70151
:1027400096010E94F121F801638B748B858B968B27
:102750000E94CF226B01CB01F801218932896217D7
:10276000730730F4A9014C195D094138510530F562
:1027700028173907C8F4A601421B530B41385105ED
:10278000E8F480384FEF9407C8F412C00E94570352
:102790002FEF3FEFDC010E9406232FEF33E040E0F4
:1027A00050E00E948D21B7CF8038FFEF9F07D0F413
:1027B00080389105B8F482179307A0F44AE0BE016F
:1027C0006F5F7F4FC6010E94D520BE016F5F7F4FB4
:1027D000F801868597850E942D06882319F0F80157
:1027E000D28AC18A26960FB6F894DEBF0FBECDBF3F
:1027F000DF91CF911F910F91FF90EF90DF90CF90DD
:1028000008951F920F920FB60F9211242F933F93AA
:102810008F939F93AF93BF938091F7069091F806A3
:10282000A091F906B091FA063091F60623E0230F45
:102830002D3758F50196A11DB11D2093F606809302
:10284000F7069093F806A093F906B093FA068091E4
:10285000FB069091FC06A091FD06B091FE06019644
:10286000A11DB11D8093FB069093FC06A093FD066D
:10287000B093FE06BF91AF919F918F913F912F91A1
:102880000F900FBE0F901F90189526E8230F029609
:10289000A11DB11DD2CF1F920F920FB60F9211241E
:1028A0000BB60F922F933F934F935F936F937F934A
:1028B0008F939F93AF93BF93EF93FF9348E251E0C1
:1028C00064E271E090E080E00E948805FF91EF9162
:1028D000BF91AF919F918F917F916F915F914F9138
:1028E0003F912F910F900BBE0F900FBE0F901F9036
:1028F00018951F920F920FB60F9211240BB60F92DC
:102900002F933F934F935F936F937F938F939F93F7
:10291000AF93BF93EF93FF9348EA50E064EA70E00F
:1029200083E090E00E948805FF91EF91BF91AF9105
:102930009F918F917F916F915F914F913F912F91D7
:102940000F900BBE0F900FBE0F901F9018951F9207
:102950000F920FB60F9211240BB60F922F933F9345
:102960004F935F936F937F938F939F93AF93BF9397
:10297000EF93FF9348E950E064E970E082E090E073
:102980000E948805FF91EF91BF91AF919F918F9128
:102990007F916F915F914F913F912F910F900BBE5F
:1029A0000F900FBE0F901F9018951F920F920FB6A9
:1029B0000F9211240BB60F922F933F934F935F9377
:1029C0006F937F938F939F93AF93BF93EF93FF93F7
:1029D00048E850E064E870E081E090E00E948805FB
:1029E000FF91EF91BF91AF919F918F917F916F91E7
:1029F0005F914F913F912F910F900BBE0F900FBEA3
:102A00000F901F9018951F920F920FB60F921124DE
:102A10000BB60F929F92AF92BF92CF92DF92EF923E
:102A2000FF920F931F932F933F934F935F936F9357
:102A30007F938F939F93AF93BF93EF93FF93CF9326
:102A4000DF931F92CDB7DEB78091C600898389815D
:102A5000E0912811F0E0E252FF4E82878091281128
:102A60008F5F809328118F738093281180912B1191
:102A7000811117C081E080932B1184E0C82E96E06D
:102A8000B92E25E0D22EEE24E39432E0A32E43E0CB
:102A9000942E9091291180912811981321C01092A1
:102AA0002B110F90DF91CF91FF91EF91BF91AF91DB
:102AB0009F918F917F916F915F914F913F912F9156
:102AC0001F910F91FF90EF90DF90CF90BF90AF904C
:102AD0009F900F900BBE0F900FBE0F901F901895F8
:102AE000E0912911F0E0E252FF4EF2848091291129
:102AF0008F5F809329118F7380932911789480912F
:102B0000DE10833009F47CC0E0F4813009F459C050
:102B1000823009F45FC0B5E5FB12DDC08091E5109D
:102B20008F5F8093E5108091E510843009F0B1CF7C
:102B3000E092DE101092E5101092E7101092E6106D
:102B4000A8CF853009F471C008F463C0863019F746
:102B50008091E3109091E4109F299093E41080936A
:102B6000E3108091E1109091E21001979093E210B0
:102B70008093E1100091E6101091E7100115110506
:102B800009F496C08091DF109091E010D80114965E
:102B90002D913C9115972817390708F058C0ED91F1
:102BA000FC910280F381E02DC8011995E091E610B7
:102BB000F091E710868197819093E7108093E6105B
:102BC000D9CF8F2D90E09093E0108093DF10A092EA
:102BD000DE10A1CF8091DF109091E0109F2990939B
:102BE000E0108093DF108091DF109091E010853528
:102BF000954519F09092DE108ECF1092DE108BCF9B
:102C00008F2D90E09093E2108093E110C092DE103F
:102C100082CF8091E1109091E2109F299093E21071
:102C20008093E110D092DE1076CF8F2D90E09093BC
:102C3000E4108093E3108091E1109091E2100197ED
:102C40009093E2108093E110B092DE1064CFF8010F
:102C5000828193812091DF103091E010281739078D
:102C600038F12091DF103091E01028173907C8F0B3
:102C70008091DF109091E010248135812817390769
:102C800080F04091E3105091E4106091DF1070915A
:102C9000E0100190F081E02D0190F081E02DC8015D
:102CA0001995D80116960D911C910115110579F60B
:102CB0008091DF109091E01002969093E010809345
:102CC000DF108091E1109091E210892B09F0AACFDA
:102CD000E092DE1020CF1092E51025CFCF93DF9346
:102CE000EC01842F2091FF06309100073B872A8753
:102CF000D0930007C093FF061E821F821886198694
:102D00001A821B821C821D822AE232E039832883C8
:102D100024E332E03D872C877F876E87488B1F8AAC
:102D200060E00E941B038F898823C9F088890E9474
:102D30005703DC0121E030E04FEF5FEF0E94B72145
:102D40002FEF33E040E050E00E948D212150310907
:102D50004F4F5F4F3A8B298BDF91CF910895888930
:102D60000E9457032FEF3FEFDC010E9406232FEF55
:102D700033E040E050E00E948D21ECCF0F931F9391
:102D8000CF93DF93EC01842F2091FF063091000751
:102D90003B872A87D0930007C093FF061E821F82BD
:102DA0001886198605E010E020E030E00A831B83D6
:102DB0002C833D832AE132E03983288324E232E008
:102DC0003D872C877F876E87488B1F8A60E00E9433
:102DD0001B038F898823D9F088890E945703DC015F
:102DE00021E030E04FEF5FEF0E94B7212FEF33E09B
:102DF00040E050E00E948D21215031094F4F5F4F3C
:102E00003A8B298BDF91CF911F910F91089588897B
:102E10000E9457032FEF3FEFDC010E9406232FEFA4
:102E200033E040E050E00E948D21EACFFF920F9303
:102E30001F93CF93DF93E5E5FFE0C4E6D2E0D183B3
:102E4000C0831282138214821582EBE5FFE0D183E6
:102E5000C0831282138214821582E1E6FFE0D183DF
:102E6000C0831282138214821582E7E6FFE0D183C9
:102E7000C0831282138214821582EDE6FFE0D183B3
:102E8000C0831282138214821582E9E7FFE0D183A6
:102E9000C0831282138214821582E3E7FFE0D1839C
:102EA000C0831282138214821582EFE7FFE0D18380
:102EB000C0831282138214821582E5E8FFE0D18379
:102EC000C0831282138214821582EEEDF0E110921B
:102ED00028111092291110922A1110922B11108290
:102EE0001782E8EDF0E1D183C0831282138214824D
:102EF0001582E2EDF0E1D183C0838CEAF82EF282F4
:102F000000E1038311E0148384E685836BE772E0BC
:102F10008CEC90E10E94C207E6ECF0E1D183C08323
:102F2000F282038314838AE0858368E872E080EC90
:102F300090E10E94C207EAEBF0E1D183C083F28204
:102F4000038314838EE6858368E872E084EB90E166
:102F50000E94C207E9E9F0E11382128288EE93E051
:102F6000A0E0B0E084839583A683B7838AE392E0F0
:102F700091838083D787C687108A118A128A138A21
:102F800088E0808F0E94CB0367E273E083E990E1E1
:102F90000E94C20720E04EE060E972E08BE790E11A
:102FA0000E94BE1620E04CE069E972E083E690E101
:102FB0000E946E1620E041E061EA72E08BE490E14D
:102FC0000E946E1620E043E069EA72E083E390E13C
:102FD0000E946E1620E044E064EB72E08BE190E129
:102FE0000E946E1620E042E06FEB72E083E090E119
:102FF0000E946E1620E045E067EC72E08BEE9FE0E9
:103000000E946E1620E040E061ED72E083ED9FE0EB
:103010000E946E1620E04DE069ED72E08BEB9FE0C0
:103020000E946E1620E048E061EE72E083EA9FE0C5
:103030000E94BE1620E04FE062EF72E08BE89FE056
:10304000DF91CF911F910F91FF900C94BE16CF93FB
:10305000DF93CDB7DEB7A7970FB6F894DEBF0FBEEC
:10306000CDBF789484B5826084BD84B5816084BD11
:1030700085B5826085BD85B5816085BD80916E0016
:10308000816080936E001092810080918100826047
:103090008093810080918100816080938100809184
:1030A00080008160809380008091B1008460809373
:1030B000B1008091B00081608093B0008091910058
:1030C0008260809391008091910081608093910053
:1030D000809190008160809390008091A100826037
:1030E0008093A1008091A10081608093A1008091D4
:1030F000A00081608093A000809121018260809374
:103100002101809121018160809321018091200122
:1031100081608093200180917A00846080937A009E
:1031200080917A00826080937A0080917A00816039
:1031300080937A0080917A00806880937A00109260
:10314000C10016E161E0812F0E941B031F5F163250
:10315000C9F762E0812F0E941B031F5F1233C9F77A
:1031600046E057E086E09BE0E6E1FDE01192119237
:10317000DC011D921D92CD01DA011D921D921D925E
:103180001D92AD01BFE0E631FB0781F7809164003D
:103190008D7F809364001092C50083E08093C4000B
:1031A0001092C00086E08093C20088E98093C1003D
:1031B00062E082E00E941B0361E085E00E941B0345
:1031C00061E086E00E941B0361E085E00E94ED0261
:1031D00061E086E00E94ED0264E670E080E090E04D
:1031E0000E94990360E085E00E94ED0260E086E0C5
:1031F0000E94ED0264E670E080E090E00E94990396
:10320000E8E9F3E08491E2E1F4E00491E8E5F4E038
:1032100014911111E8C1109201021092000261E0B4
:1032200086E00E94ED0280910002909101020197D8
:1032300009F07EC064EF71E080E090E00E949903A5
:10324000F4E6EF2EF2E0FF2EFA82E9828091D410AC
:103250009091D510A091D610B091D7108B839C83FC
:10326000AD83BE838E010F5F1F4FC8010E94060908
:103270006CE67EE189E990E10E94E50EFA82E9823E
:103280008091C8109091C910A091CA10B091CB1034
:103290008B839C83AD83BE8348E759E6B80189E9F7
:1032A00090E10E943C050E94CB031BA21AA21DA222
:1032B0001CA21FA21EA22AE0A8010E94B320F801AE
:1032C00001900020E9F73197AF01401B510BB80185
:1032D000CE0182960E948A0762E073E0C8010E94D4
:1032E000C2076CEC70E1C8010E94770763E173E0EC
:1032F0000E946107BE016E5D7F4F0E94770765E106
:1033000073E00E9461070E94440E42E050E065E2D3
:1033100073E089E990E10E947F0DC8010E94D30704
:10332000CE0182960E94D30789E990E10E94AC0801
:1033300066246394712C99249A94AA24A394B12CA2
:10334000882483940091FF06109100070115110550
:10335000C9F10E94CB036B017C01F8018681978142
:10336000A085B185B701A601481B590B6A0B7B0BE1
:1033700082819381A481B58184179507A607B70739
:1033800078F40190F081E02D0280F381E02DC801F6
:103390001995D8011696CD92DD92ED92FC9219976F
:1033A0008091FF0690910007F80122853385232B39
:1033B00011F493878287D8011A960D911C9180177A
:1033C000910759F646E15DE090E080E0009709F052
:1033D0001AC198B89301082E01C0220F0A94EAF787
:1033E000209522B9EBE3F1E03197F1F729B1022EF4
:1033F000000C330B232F221F2227221F29831A821E
:1034000022B322FB222720F92B831C8222B326958C
:1034100021702D831E8222B321702F831886209164
:103420000901022E000C330B232F221F2227221FFB
:1034300029871A862091090126FB222720F92B874C
:103440001C862091090125FB222720F92D871E8645
:1034500020910901229521702F87188A2091090156
:1034600023FB222720F9298B1A8A2091090122FBAC
:10347000222720F92B8B1C8A209109012695217087
:103480002D8B1E8AB88EAF8ABA8EA98EBC8EAB8E5B
:10349000BE8EAD8EB8A2AF8EFE01319630E020E038
:1034A0001E2F0F2F61917191DA01A20FB31F672BAD
:1034B00009F0C0C06D927C922E5F3F4F20323105E3
:1034C00089F701964A5E5F4F8031910509F07ECF02
:1034D00056E0C52E5BE0D52E66E1462E6DE0562EF9
:1034E000F12CE12CD2018D919D912D012091060DA1
:1034F000222309F4A2C01092060DF6019183808365
:10350000FFEFEF1AFF0A22E0C20ED11CE11441E0E6
:10351000F40641F78091150D8823B9F00E94CB0382
:103520000091110D1091120D2091130D3091140D79
:10353000601771078207930740F06EE273E086E53B
:1035400096E00E9441061092150D8091100D88237F
:10355000B9F00E94CB0300910C0D10910D0D20913C
:103560000E0D30910F0D601771078207930740F021
:103570006EE273E08BE496E00E9441061092100D1B
:1035800080910B0D882329F10E94CB03AB01BC0174
:103590008091070D9091080DA091090DB0910A0D31
:1035A0008C599F4FAF4FBF4F481759076A077B078A
:1035B00080F060E086E00E94ED0210920B0D0E9408
:1035C000CB036093070D7093080D8093090D9093C2
:1035D0000A0D0E94CB0380E090E0892B09F4B2CE63
:1035E0000E940000ADCE81110E948602E12FF0E022
:1035F000EE0FFF1FE458FC4FA591B491EC91E0232E
:1036000009F409CE10CE8830910579F492B82FE0F4
:1036100030E0281B390BF30102C0EE0FFF1F2A9583
:10362000E2F79F01209528B9DDCE883091050CF492
:10363000D1CEEDCF1D921C923FCFD6012D913C9162
:103640002817390709F45CCF0E94CB039701220F9A
:10365000331F220F331FF901EA5FF84F1F0120814A
:10366000318142815381261737074807590708F0EF
:1036700047CF0E94CB03645C7F4F8F4F9F4FD10198
:103680006D937D938D939C931397FF92EF92E8E255
:10369000F3E0FF93EF9341E057E05F934F930E9475
:1036A0002F250F900F900F900F900F900F90D60135
:1036B0008D919C911A8219821C821B821E821D820E
:1036C00063E970E1892B09F065C3812F902F0E9477
:1036D000AB076EE273E0812F902F0E946107BC015F
:1036E00083E990E10E94AB07812F902F0E94D307BE
:1036F000B1E9EB16F10408F09EC0F7018827EC57FA
:10370000F44E8F4F0C94FE22151C201C271C1B1CF2
:103710001B1C1B1C1B1C1B1C1B1C2E1C351C3C1CA3
:10372000431C4A1C1B1C1B1C1B1C1B1C1B1C1B1C8A
:10373000511C581C6F1C761C7D1C841C8B1C921CFD
:10374000991CA01CA71CAE1CB51CBC1CC31CCA1C0D
:10375000D11CED1CFA1C011D081D1B1C0F1D1B1C80
:10376000261D2D1D341D1B1C3B1D421D491D651DA5
:10377000811D1B1C881D8F1D961D9D1DA41D1B1CBE
:10378000AB1DB21D1B1CCE1DD51DDC1DE31DEA1D8E
:10379000F11DF81DFF1D061E1B1C1B1C1B1C1B1CEA
:1037A0001B1C0D1E141E1B1E1B1C1B1C221E1B1C67
:1037B0001B1C1B1C1B1C1B1C291E301E371E1B1C0C
:1037C0001B1C3E1E1B1C1B1C1B1C1B1C1B1C151C22
:1037D0001B1C451E1B1C1B1C1B1C1B1C1B1C1B1C05
:1037E0001B1C1B1C4C1E531E5A1E611E7D1E841E5C
:1037F0001B1C1B1C1B1C1B1C1B1C8B1E921E991EA6
:103800001B1CA01EA71E1B1C1B1C1B1C1B1C1B1CEB
:10381000AE1EB51E1B1C1B1C1B1C1B1C1B1C1B1CBF
:103820001B1C1B1C1B1CBC1EC31E6DE273E080E333
:1038300093E00E944106F2013297808191815DCE32
:1038400066E872E080E393E00E944106F4CF66E808
:1038500072E083E493E00E944106EDCF60E773E0FD
:1038600085E593E00E944106E6CF6EE273E08FE5C6
:1038700093E00E944106DFCF6EE273E080E393E0C5
:103880000E944106D8CF6FE673E080E393E00E9488
:103890004106D1CF60E773E083E493E00E944106E4
:1038A000CACF66E872E085E593E00E944106C3CF87
:1038B0006EE273E082E793E00E9441068092100D71
:1038C0000E94CB036C507E4F8F4F9F4F60930C0D27
:1038D00070930D0D80930E0D90930F0DACCF60E89B
:1038E00073E080E393E00E944106A5CF60E773E0B8
:1038F00080E393E00E9441069ECF66E872E083E891
:1039000093E00E94410697CF6EE273E081E993E075
:103910000E94410690CF66E872E08EE993E00E9433
:10392000410689CF60E074E08AEA93E00E94410694
:1039300082CF6EE273E088EB93E00E9441067BCF7A
:1039400066E872E08AEC93E00E94410674CF66E874
:1039500072E087ED93E00E9441066DCF6EE273E066
:1039600085EE93E00E94410666CF6EE273E083EF3E
:1039700093E00E9441065FCF61E873E080E393E04B
:103980000E94410658CF6FEF73E080E393E00E94FE
:10399000410651CF60E773E083E893E00E9441065F
:1039A0004ACF8091000290910102019779F462E080
:1039B00074E0812F902F0E94C207812F902F0E94C8
:1039C0004D0E812F902F0E94D30735CF6EE273E00A
:1039D00082E194E00E9441062ECF60E773E080E22E
:1039E00094E00E94410666E872E08FE394E00E9452
:1039F000410621CF61E873E08AEA93E00E94410624
:103A00001ACF66E872E08CE594E00E94410613CF7D
:103A100066E872E089E694E00E9441060CCF6EE20F
:103A200073E084E794E00E9441068092150D0E94A5
:103A3000CB036C507E4F8F4F9F4F6093110D70934F
:103A4000120D8093130D9093140DF5CE66E874E07B
:103A500080E393E00E944106EECE60E074E080E3F4
:103A600093E00E944106E7CE66E872E089E894E0C0
:103A70000E944106E0CE6EE273E08BE994E00E9482
:103A80004106D9CE60E773E08AEA93E00E944106DE
:103A9000D2CE8091000290910102019779F46AEAF6
:103AA00074E0812F902F0E94C207812F902F0E94D7
:103AB0004D0E812F902F0E94D307BDCE66E872E095
:103AC0008AEB94E00E944106B6CE8091000290916C
:103AD0000102019779F46AEC74E0812F902F0E9423
:103AE000C207812F902F0E944D0E812F902F0E9490
:103AF000D307A1CE6EE273E089ED94E00E94410607
:103B00009ACE60E773E088EE94E00E94410693CE7F
:103B10006EE273E08EEE94E00E9441068CCE67E880
:103B200074E080E393E00E94410685CE67EF74E085
:103B300080E393E00E9441067ECE60E773E089E86F
:103B400094E00E94410677CE60E773E08AEF94E04C
:103B50000E94410670CE6EE273E08AEA93E00E9412
:103B6000410669CE8091000290910102019779F49B
:103B700062E075E0812F902F0E94C207812F902F65
:103B80000E944D0E812F902F0E94D30754CE60E7E4
:103B900073E08AEB94E00E9441064DCE66E872E045
:103BA00088EE94E00E94410646CE6EE273E082E128
:103BB00095E00E9441063FCE6AE275E080E395E021
:103BC0000E94410638CE69E375E080E393E00E94ED
:103BD000410631CE68EF74E080E393E00E94410635
:103BE0002ACE66E872E08CE395E00E94410623CE7F
:103BF00066E872E08AEF94E00E9441061CCE6EE215
:103C000073E08EE495E00E94410615CE66E872E00E
:103C10008AEA93E00E9441060ECE6AE375E080E3F3
:103C200093E00E94410607CE6BE575E080E393E0E8
:103C30000E94410600CE66E872E08EE595E00E94A3
:103C40004106F9CD60E773E08FE695E00E944106FA
:103C5000F2CD6CE775E080E393E00E944106EBCD86
:103C60006CE575E080E393E00E944106E4CD6EE2EE
:103C700073E08FE795E00E944106DDCD66E872E0D3
:103C80008FE695E00E944106D6CD60E773E08EE5B1
:103C900095E00E944106CFCD66E872E082E995E0AA
:103CA0000E944106C8CD66E872E08BE995E00E946B
:103CB0004106C1CD66E872E08BEA95E00E944106BC
:103CC000BACD8091000290910102019779F46BEBDB
:103CD00075E0812F902F0E94C207812F902F0E94A4
:103CE0004D0E812F902F0E94D307A5CD6EE273E079
:103CF0008BEC95E00E9441069ECD66E872E088ED6F
:103D000095E00E94410697CD6EE273E083EE95E068
:103D10000E94410690CD60E773E082E995E00E9441
:103D2000410689CD60E773E08BE995E00E9441068A
:103D300082CD60E773E08BEA95E00E9441067BCD7F
:103D40006EE273E084EF95E00E94410674CD66E870
:103D500072E08FE096E00E9441066DCD60E773E06F
:103D600085E296E00E94410666CD60E773E089E354
:103D700096E00E9441065FCD66E872E085E296E03B
:103D80000E94410658CD66E872E089E396E00E9401
:103D9000410651CD812F902F0E94AB0766E872E05B
:103DA000812F902F0E946107BC0183E990E10E945E
:103DB000AB07812F902F0E94D307F7013297EF387E
:103DC000F10508F038CD8827E751F14E8F4F0C945C
:103DD000FE22781F1B1C1B1C1B1C1B1C1B1C1B1CE2
:103DE0007F1F861F1B1C1B1C781F1B1C1B1C1B1CE6
:103DF0001B1C1B1C1B1C7F1F8D1F1B1C1B1C9A1FAD
:103E0000A11FA81F1B1CAF1FB61FBD1FC41FCB1FA8
:103E10001B1C1B1C9A1FD21FD91F1B1CE01FE71F56
:103E20001B1CEE1F1B1C1B1C1B1CFB1F1B1C022036
:103E30001B1C0920102017201B1C1E201B1C1B1CD8
:103E4000FB1F25201B1C1B1C09201B1C17202C20C2
:103E500033201B1C1B1C3A20252041201B1C1B1C33
:103E60001B1C1B1C1B1C1B1C1B1C1B1C48201B1C69
:103E70001B1C4F201B1C1B1C1B1C1B1C1B1C1B1C52
:103E80001B1C56201B1C1B1C4F201B1C1B1C1B1C03
:103E90001B1C1B1C1B1C1B1C48201B1C1B1C1B1C39
:103EA0001B1C1B1C1B1C1B1C1B1C5D2064206B2073
:103EB0007220792080201B1C1B1C1B1C1B1C1B1C24
:103EC0005D2064206B201B1C87208E201B1C1B1C6C
:103ED0001B1C1B1C1B1C95209C201B1C1B1C1B1C27
:103EE0001B1C1B1C1B1C1B1C1B1C1B1C95209C2017
:103EF0006EE273E083E493E00E9441069CCC6EE2A4
:103F000073E085E593E00E94410695CC66E872E097
:103F10008FE593E00E9441068ECC66E872E08BE468
:103F200096E00E94410666E872E082E793E00E9414
:103F3000410681CC6EE273E083E893E00E94410683
:103F40007ACC66E872E081E993E00E94410673CC86
:103F50006EE273E08EE993E00E9441066CCC66E865
:103F600072E088EB93E00E94410665CC6EE273E05C
:103F70008AEC93E00E9441065ECC6EE273E087ED2E
:103F800093E00E94410657CC66E872E085EE93E02C
:103F90000E94410650CC66E872E083EF93E00E94F5
:103FA000410649CC66E872E082E194E00E94410655
:103FB00042CC6EE273E08FE394E00E9441063BCC7A
:103FC0006EE273E08CE594E00E94410634CC6EE230
:103FD00073E089E694E00E9441062DCC66E872E029
:103FE00086E596E00E94410666E872E084E794E088
:103FF0000E94410620CC6EE273E089E894E00E94C2
:10400000410619CC66E872E08BE994E00E94410613
:1040100012CC6EE273E08AEB94E00E9441060BCC76
:1040200066E872E089ED94E00E94410604CC6EE2FD
:1040300073E088EE94E00E944106FDCB66E872E0F2
:104040008EEE94E00E944106F6CB6EE273E08AEFBA
:1040500094E00E944106EFCB66E872E082E195E0D1
:104060000E944106E8CB66E872E080E395E00E949A
:104070004106E1CB6EE273E08CE395E00E944106DD
:10408000DACB66E872E08EE495E00E944106D3CB7D
:104090006EE273E08EE595E00E944106CCCB6EE2C5
:1040A00073E08FE695E00E944106C5CB66E872E0BA
:1040B0008FE795E00E944106BECB6EE273E082E995
:1040C00095E00E944106B7CB6EE273E08BE995E084
:1040D0000E944106B0CB6EE273E08BEA95E00E944D
:1040E0004106A9CB66E872E08BEC95E00E944106A0
:1040F000A2CB6EE273E088ED95E00E9441069BCB77
:1041000066E872E083EE95E00E94410694CB66E893
:1041100072E084EF95E00E9441068DCB6EE273E081
:104120008FE096E00E94410686CB6EE273E085E266
:1041300096E00E9441067FCB6EE273E089E396E051
:104140000E94410678CB83E990E10E94D30784EB7B
:1041500090E10E94D30780EC90E10E94D3078CECA1
:1041600090E10C94D307BB27FA01A62F62177105C3
:1041700081059105330B30FB66F0AA27660F771F88
:10418000881F991FAA1FA21710F0A21B6395385011
:10419000A9F7A05DAA3308F0A95DA19336F7B11184
:1041A000B1931082CA010C94EF20BB27FB01552765
:1041B000AA27880F991FAA1FA41710F0A41B839584
:1041C0005051B9F7A05DAA3308F0A95DA1930097FB
:1041D00079F7B111B1931192CB010C94EF20DC016E
:1041E000FC01672F71917723E1F7329704C07C912E
:1041F0006D9370836291AE17BF07C8F30895E8947A
:1042000009C097FB3EF490958095709561957F4F1E
:104210008F4F9F4F9923A9F0F92F96E9BB279395CC
:10422000F695879577956795B795F111F8CFFAF4DC
:10423000BB0F11F460FF1BC06F5F7F4F8F4F9F4F0D
:1042400016C0882311F096E911C0772321F09EE86B
:10425000872F762F05C0662371F096E8862F70E0D1
:1042600060E02AF09A95660F771F881FDAF7880FAB
:104270009695879597F9089597F99F6780E870E07C
:1042800060E008959FEF80EC089500240A941616CC
:10429000170618060906089500240A941216130634
:1042A000140605060895092E0394000C11F48823C2
:1042B00052F0BB0F40F4BF2B11F460FF04C06F5FDE
:1042C0007F4F8F4F9F4F089557FD9058440F551FB4
:1042D00059F05F3F71F04795880F97FB991F61F088
:1042E0009F3F79F087950895121613061406551FFF
:1042F000F2CF4695F1DF08C0161617061806991F6B
:10430000F1CF86957105610508940895E894BB275F
:1043100066277727CB0197F90895052E97FB1EF4A2
:1043200000940E94A42157FD07D00E94BF2107FCE2
:1043300003D04EF40C94A4215095409530952195CE
:104340003F4F4F4F5F4F08959095809570956195C1
:104350007F4F8F4F9F4F08950E94E121A59F900DA1
:10436000B49F900DA49F800D911D11240895B7FF57
:104370000C94AC210E94AC21821B930B0895A1E206
:104380001A2EAA1BBB1BFD010DC0AA1FBB1FEE1FCF
:10439000FF1FA217B307E407F50720F0A21BB30B1A
:1043A000E40BF50B661F771F881F991F1A9469F796
:1043B00060957095809590959B01AC01BD01CF01F2
:1043C0000895A29FB001B39FC001A39F700D811DEE
:1043D0001124911DB29F700D811D1124911D08950E
:1043E0005058BB27AA270E9408220C9453210E94F0
:1043F000452138F00E944C2120F039F49F3F19F4F8
:1044000026F40C9442210EF4E095E7FB0C943C2139
:10441000E92F0E94642158F3BA17620773078407D3
:10442000950720F079F4A6F50C9486210EF4E0951A
:104430000B2EBA2FA02D0B01B90190010C01CA015E
:10444000A0011124FF27591B99F0593F50F4503E09
:1044500068F11A16F040A22F232F342F4427585FFB
:10446000F3CF469537952795A795F0405395C9F713
:104470007EF41F16BA0B620B730B840BBAF09150CB
:10448000A1F0FF0FBB1F661F771F881FC2F70EC06A
:10449000BA0F621F731F841F48F48795779567953D
:1044A000B795F7959E3F08F0B0CF9395880F08F029
:1044B0009927EE0F9795879508950E9471220C9485
:1044C00053210E944C2158F00E94452140F029F4CC
:1044D0005F3F29F00C943C2151110C9487210C94DE
:1044E00042210E94642168F39923B1F3552391F38B
:1044F000951B550BBB27AA2762177307840738F053
:104500009F5F5F4F220F331F441FAA1FA9F335D0AF
:104510000E2E3AF0E0E832D091505040E695001C63
:10452000CAF72BD0FE2F29D0660F771F881FBB1F1D
:10453000261737074807AB07B0E809F0BB0B802DFB
:10454000BF01FF2793585F4F3AF09E3F510578F027
:104550000C943C210C9487215F3FE4F3983ED4F304
:10456000869577956795B795F7959F5FC9F7880FFB
:10457000911D9695879597F90895E1E0660F771F4D
:10458000881FBB1F621773078407BA0720F0621BDE
:10459000730B840BBA0BEE1F88F7E09508950E9409
:1045A0006C2188F09F5798F0B92F9927B751B0F038
:1045B000E1F0660F771F881F991F1AF0BA95C9F7A7
:1045C00014C0B13091F00E948621B1E008950C949E
:1045D0008621672F782F8827B85F39F0B93FCCF351
:1045E000869577956795B395D9F73EF49095809524
:1045F000709561957F4F8F4F9F4F0895EE0FFF1F6E
:10460000881F8BBF0790F691E02D19940E94E1213D
:10461000B7FF0895821B930B08950F931F93CF93B9
:10462000DF938230910510F482E090E0E0912E114A
:10463000F0912F1130E020E0B0E0A0E0309799F445
:104640002115310509F44AC0281B390B24303105E6
:10465000D8F58A819B816115710589F1FB019383EE
:104660008283FE0111C0408151810281138148176C
:104670005907E0F04817590799F4109761F012961E
:104680000C93129713961C933296CF01DF91CF9122
:104690001F910F91089500932E1110932F11F4CFB5
:1046A0002115310551F04217530738F0A901DB01FC
:1046B0009A01BD01DF01F801C1CFEF01F9CF90935D
:1046C0002F1180932E11CDCFFE01E20FF31F8193A6
:1046D00091932250310939832883D7CF20912C110F
:1046E00030912D11232B41F420910C0230910D02B9
:1046F00030932D1120932C1120910A0230910B023E
:104700002115310541F42DB73EB740910E0250916D
:104710000F02241B350BE0912C11F0912D11E217A3
:10472000F307A0F42E1B3F0B2817390778F0AC01D4
:104730004E5F5F4F2417350748F04E0F5F1F5093B1
:104740002D1140932C11819391939FCFF0E0E0E0E5
:104750009CCFCF93DF930097E9F0FC01329713824F
:104760001282A0912E11B0912F11ED0130E020E0C6
:104770001097A1F420813181820F931F20912C1179
:1047800030912D112817390709F061C0F0932D11D0
:10479000E0932C11DF91CF910895EA01CE17DF0746
:1047A000E8F54A815B819E0141155105B1F7E901A8
:1047B000FB83EA8349915991C40FD51FEC17FD077C
:1047C00061F4808191810296840F951FE90199839C
:1047D0008883828193819B838A83F0E0E0E0129654
:1047E0008D919C9113970097B9F52D913C9111975C
:1047F000CD010296820F931F20912C1130912D1123
:104800002817390739F6309751F510922F11109269
:104810002E11B0932D11A0932C11BCCFD383C28342
:1048200040815181840F951FC817D90761F44E5FED
:104830005F4F88819981480F591F518340838A8136
:104840009B81938382832115310509F0B0CFF093CA
:104850002F11E0932E119ECFFD01DC01C0CF1382FA
:104860001282D7CF4F925F926F927F928F929F92D8
:10487000AF92BF92CF92DF92EF92FF920F931F936E
:10488000CF93DF938C01009799F4CB01DF91CF9107
:104890001F910F91FF90EF90DF90CF90BF90AF905E
:1048A0009F908F907F906F905F904F900C940D230E
:1048B000FC01E60FF71F9C0122503109E217F307B4
:1048C00008F4AEC0D901CD91DC911197C617D70776
:1048D00020F1C530D10578F0CE01049786179707EF
:1048E00050F0C61BD70B2297C193D1936D937C9345
:1048F000CF010E94A923C801DF91CF911F910F9191
:10490000FF90EF90DF90CF90BF90AF909F908F90EF
:104910007F906F905F904F9008955B01AC1ABD0A35
:104920004C018C0E9D1EA0912E11B0912F11512C77
:10493000412CF12CE12C109731F580912C119091A4
:104940002D118815990509F05CC04616570608F028
:1049500058C080910A0290910B02009741F48DB7E4
:104960009EB740910E0250910F02841B950BE817E1
:10497000F90708F055C0F0932D11E0932C11F901BF
:1049800071836083B8CF8D919C91119712966C9032
:10499000129713967C901397A815B90559F56C01D9
:1049A00042E0C40ED11CCA14DB0420F1AC014A1948
:1049B0005B09DA011296159780F062827382518347
:1049C0004083D9016D937C93E114F10471F0D70118
:1049D0001396FC93EE9312978ECF22968C0F9D1F09
:1049E000F90191838083F301EFCFF0932F11E093CE
:1049F0002E1181CF4816590608F42C017D01D301F0
:104A00009ACFCB010E940D237C01009749F0AE01A3
:104A1000B8010E941825C8010E94A92387016BCF05
:104A200010E000E068CF81E090E0F8940C94052855
:104A3000FB01DC0102C001900D9241505040D8F7BB
:104A40000895DC0101C06D9341505040E0F7089596
:104A5000FB01DC0101900D920020E1F708950F9316
:104A60001F93CF93DF93CDB7DEB72E970FB6F89491
:104A7000DEBF0FBECDBF0E891F8986E08C831A83EF
:104A800009838FEF9FE79E838D83AE01465E5F4F64
:104A9000688D798DCE0101960E945F252F81388522
:104AA000020F131FF80110822E960FB6F894DEBF86
:104AB0000FBECDBFDF91CF911F910F9108952F921F
:104AC0003F924F925F926F927F928F929F92AF929E
:104AD000BF92CF92DF92EF92FF920F931F93CF93EB
:104AE000DF9300D000D000D01F921F92CDB7DEB769
:104AF0007C013B018A01FC0117821682838181FFC0
:104B0000DDC1CE0101965C01F7019381F30193FDB4
:104B1000859193FF81913F01882309F453C1853228
:104B200039F493FD859193FF81913F01853229F4FA
:104B3000B70190E00E947727E7CF912C212C312CF0
:104B4000FFE1F31538F08B3211F190F4803209F166
:104B5000833229F137FC3CC020ED280F2A3050F574
:104B600036FE20C08AE0989E200D1124922E06C0A9
:104B70008D3291F0803371F7689430F8F30193FD32
:104B8000859193FF81913F018111DACF21C0689413
:104B900031F8689432F8F2CF689433F8EFCF689424
:104BA00034F8ECCFEAE02E9E200D1124222E6894DA
:104BB00035F8E4CF8E3229F436FC04C1689436F817
:104BC000DDCF8C3619F4689437F8D8CF8836B1F237
:104BD000982F9F7D95549330E0F08336A1F1833771
:104BE000C1F1833509F063C02801F2E04F0E511C7A
:104BF000F801C080D180692D70E036FC02C06FEFF3
:104C00007FEFC6010E9461274C01689437F882014A
:104C10000AC00C5F1F4FFFE3F98388248394912C13
:104C20006501E89437F833FE2DC0522C81149104AD
:104C300071F5552009F468CFB70180E290E00E9439
:104C400077275A94F6CFF801808189830E5F1F4F32
:104C5000E4CF2801F2E04F0E511CF801C080D18052
:104C6000692D70E036FC02C06FEF7FEFC6010E9435
:104C70006C274C018201D5CFB70180E290E00E9401
:104C800077272A942814190409F0B0F7CECFF6013B
:104C900037FC859137FE81916F01B70190E00E944A
:104CA000772751105A94F1E08F1A9108BFCF8436BC
:104CB00019F0893609F077C0F80137FE6BC06081C2
:104CC0007181828193810C5F1F4FF32DFF763F2E00
:104CD00097FF09C090958095709561957F4F8F4F94
:104CE0009F4F689437F82AE030E0A5010E94A7277B
:104CF000C82ECA188C2C432C36FE0CC0E89440F801
:104D0000C91440F434FE05C032FC03C0F32DFE7E0E
:104D10004F2E892C44FEAAC0FE01EC0DF11D8081AE
:104D2000803309F09CC0242D297E422E842D88706A
:104D3000582E43FCAAC040FEA4C09C2C821418F438
:104D40002C0C922C981844FEA6C0B70180E390E08A
:104D50000E94772742FE09C088E790E041FE02C02A
:104D600088E590E0B7010E947727C91408F49FC036
:104D7000CA94D12C9FEFC91AD90ACA0CDB1CF601C0
:104D800082916F01B70190E00E947727AC14BD04B7
:104D9000B1F74FCF60817181072E000C880B990B02
:104DA0000E5F1F4F92CFD32CE894D4F82AE030E066
:104DB0008537E1F1232D297FD22E8F36A9F1F0F42A
:104DC000883551F1F701868197812B960FB6F894BB
:104DD000DEBF0FBECDBFDF91CF911F910F91FF902E
:104DE000EF90DF90CF90BF90AF909F908F907F908B
:104DF0006F905F904F903F902F900895803749F0CB
:104E0000883701F7D4FE02C06894D2F820E130E080
:104E10000DC06894D4F8F6CF34FE03C0822F8660AC
:104E2000D82E20E132E002C028E030E0F801D7FEC1
:104E30000FC060817181828193810C5F1F4FA5013A
:104E40000E94A727C82ECA183D2CE89437F852CFE5
:104E50006081718190E080E00E5F1F4FF0CF42FCD7
:104E600002C0839463CF8394839460CF842D86782B
:104E700009F45CCFF6CFB70180E290E00E9477277B
:104E800083948214C0F3512C5ECF522C5818821494
:104E900008F459CFF8CF842D867809F466CF8BE2D9
:104EA00041FE80E247FC8DE2B70190E05CCFB701A4
:104EB00080E390E00E9477279A9457CF8FEF9FEF7F
:104EC00084CFFC010590615070400110D8F78095A7
:104ED00090958E0F9F1F0895FC01615070400190C6
:104EE0000110D8F7809590958E0F9F1F08950F930E
:104EF0001F93CF93DF93182F092FEB018B8181FD37
:104F000009C01FEF0FEF812F902FDF91CF911F91DD
:104F10000F91089582FF14C02E813F818C819D8165
:104F2000281739073CF4E881F981CF01019699836C
:104F3000888310838E819F8101969F838E83E3CF28
:104F4000E885F985812F1995892BA1F3DACFFA012C
:104F5000AA27283051F1203181F1E8946F936E7FB8
:104F60006E5F7F4F8F4F9F4FAF4FB1E03ED0B4E0A9
:104F70003CD0670F781F891F9A1FA11D680F791FEA
:104F80008A1F911DA11D6A0F711D811D911DA11DFB
:104F900020D009F468943F912AE0269F112430190B
:104FA000305D3193DEF6CF010895462F4770405DA6
:104FB0004193B3E00FD0C9F7F6CF462F4F70405D55
:104FC0004A3318F0495D31FD4052419302D0A9F7B0
:104FD000EACFB4E0A6959795879577956795BA95AA
:104FE000C9F700976105710508959B01AC010A2E70
:104FF00006945795479537952795BA95C9F7620F47
:10500000731F841F951FA01D089512E0CFE4D2E006
:1050100000E006C0802FFE010E94FE222196011DA5
:10502000C035D10780E00807A9F7F894FFCF010049
:1050300000C0A8610A9E83000000301180000100BA
:105040005E00000000000000E805C912DE05F4FF64
:105050000000E50500000000E8056513F805F4FF11
:105060000000FF050000000021057F0D530620050C
:105070003705550DC70AE50EEF0B9F083C052110BB
:10508000AC08A60F360D1A060A0606060206000030
:105090000000AF0653656E64696E67204B6579202A
:1050A0005374726F6B657320003137322E31362E98
:1050B000312E31303000582E582E582E580052556F
:1050C000445F5452494D00434F4D5F415558004392
:1050D0004F4D5F49435300434F4D5F4D4944535F2C
:1050E0004100434F4D5F4D4944535F4200434F4D94
:1050F0005F52575200434F4D5F544143414E00436E
:105100004F4D5F564F5800434F4D5F57504E00462E
:105110004F524D4154494F4E5F44494D4D45520009
:10512000504F534954494F4E5F44494D4D455200ED
:10513000494E4954204C45465420494E5055542020
:105140002D20006D532073696E6365207265736551
:10515000742E000D0A002530336400313100434FB6
:105160004D5F494C535F4348414E4E454C5F53574A
:1051700000434F4D5F434F4D4D5F52454C41595F8A
:105180005357005354524F42455F535700494E54B2
:105190005F574E475F54414E4B5F535700313200CB
:1051A00047454E5F5449455F434F564552003133A2
:1051B00000434F4D5F43525950544F5F5357005374
:1051C000454C5F4A4554545F42544E004C44475F3F
:1051D000544158495F53570053454C5F4A45545416
:1051E0005F4B4E4F4200434D53445F44495350453B
:1051F0004E53455F42544E0043425F4643535F4324
:1052000048414E320043425F4C41554E43485F4255
:105210004152004643535F52455345545F42544EFA
:1052200000544F5F5452494D5F42544E0031340098
:105230004C4354524C204C53484946542046380065
:105240004C41554E43485F4241525F535700454DD4
:10525000455247454E43595F5041524B494E475F77
:105260004252414B455F524F5441544500454D45D4
:105270005247454E43595F5041524B494E475F425A
:1052800052414B455F50554C4C0043425F4643539F
:105290005F4348414E310043425F5350445F4252A6
:1052A0004B004741494E5F5357495443485F434F72
:1052B00056455200313500434F4D5F434F4D4D5FD2
:1052C000475F584D545F535700484F4F4B5F42590B
:1052D000504153535F5357004C4354524C204C534E
:1052E0004849465420463600454E47494E455F439F
:1052F00052414E4B5F5357004C414C54204C534845
:10530000494654204637004150555F434F4E545252
:105310004F4C5F5357004D435F5357004F424F4729
:10532000535F535700313600464C41505F5357008E
:105330004C4354524C204C53484946542046370065
:105340004859445F49534F4C4154455F4F5645526D
:10535000524944455F5357003635353335004F5871
:10536000595F464C4F5700313700434F4D5F494618
:10537000465F4D41535445525F535700414E544987
:105380005F534B49445F535700313800434F4D5FE3
:105390004946465F4D4F4445345F53570046495296
:1053A000455F544553545F535700313900434F4DC7
:1053B0005F494C535F5546435F4D414E5F53570025
:1053C00050524F42455F5357004558545F574E4720
:1053D0005F54414E4B5F5357004558545F434E5402
:1053E0005F54414E4B5F5357004C4354524C204C3A
:1053F0005348494654204635004655454C5F445570
:105400004D505F535700474541525F4C45564552FA
:1054100000474541525F53494C454E43455F425416
:105420004E00474541525F444F574E4C4F434B5FF0
:105430004F564552524944455F42544E00454D45F2
:105440005247454E43595F474541525F524F544181
:10545000544500434F4D4D315F414E545F53454CD1
:105460004543545F5357004946465F414E545F538E
:10547000454C4543545F53570047454E5F5449459B
:105480005F5357004741494E5F53574954434800C3
:10E000000D9489F10D94B2F10D94B2F10D94B2F129
:10E010000D94B2F10D94B2F10D94B2F10D94B2F1F0
:10E020000D94B2F10D94B2F10D94B2F10D94B2F1E0
:10E030000D94B2F10D94B2F10D94B2F10D94B2F1D0
:10E040000D94B2F10D94B2F10D94B2F10D94B2F1C0
:10E050000D94B2F10D94B2F10D94B2F10D94B2F1B0
:10E060000D94B2F10D94B2F10D94B2F10D94B2F1A0
:10E070000D94B2F10D94B2F10D94B2F10D94B2F190
:10E080000D94B2F10D94B2F10D94B2F10D94B2F180
:10E090000D94B2F10D94B2F10D94B2F10D94B2F170
:10E0A0000D94B2F10D94B2F10D94B2F10D94B2F160
:10E0B0000D94B2F10D94B2F10D94B2F10D94B2F150
:10E0C0000D94B2F10D94B2F10D94B2F10D94B2F140
:10E0D0000D94B2F10D94B2F10D94B2F10D94B2F130
:10E0E0000D94B2F141546D656761323536300041AF
:10E0F000726475696E6F206578706C6F72657220DE
:10E1000073746B3530305632206279204D4C530099
:10E11000426F6F746C6F616465723E004875683F52
:10E1200000436F6D70696C6564206F6E203D200048
:10E130004350552054797065202020203D20005FF9
:10E140005F4156525F415243485F5F3D2000415658
:10E1500052204C696243205665723D20004743437C
:10E160002056657273696F6E203D20004350552024
:10E1700049442020202020203D20004C6F7720663D
:10E18000757365202020203D20004869676820665F
:10E190007573652020203D200045787420667573D6
:10E1A00065202020203D20004C6F636B2066757336
:10E1B000652020203D20004D617220203720323024
:10E1C000313300312E362E3800342E332E350056A2
:10E1D00023202020414444522020206F7020636F70
:10E1E00064652020202020696E73747275637469E1
:10E1F0006F6E2061646472202020496E74657272B3
:10E20000757074006E6F20766563746F7200726A49
:10E210006D702020006A6D70200057686174207056
:10E220006F72743A00506F7274206E6F7420737541
:10E2300070706F72746564004D7573742062652030
:10E2400061206C6574746572002000577269747483
:10E25000696E672045450052656164696E672045B7
:10E26000450045452065727220636E743D00504F35
:10E27000525400303D5A65726F2061646472003FF1
:10E280003D43505520737461747300403D454550C3
:10E29000524F4D207465737400423D426C696E6B41
:10E2A000204C454400453D44756D70204545505215
:10E2B0004F4D00463D44756D7020464C415348001B
:10E2C000483D48656C70004C3D4C69737420492F83
:10E2D0004F20506F72747300513D51756974005234
:10E2E0003D44756D702052414D00563D73686F7707
:10E2F00020696E7465727275707420566563746FF0
:10E30000727300593D506F727420626C696E6B00BD
:10E310002A0011241FBECFEFD1E2DEBFCDBF01E046
:10E320000CBF12E0A0E0B2E0EEE1FDEF03E00BBFB6
:10E3300002C007900D92A030B107D9F712E0A0E01B
:10E34000B2E001C01D92AE30B107E1F70F9460F367
:10E350000D948DFE01E20EBF0FEF0DBF11241FBE05
:10E360000D9460F30D9400F020E030E040ED57E0B4
:10E3700005C0FA013197F1F72F5F3F4F2817390792
:10E38000C0F308959C01260F311DC901A0E0B0E043
:10E390002F5F3F4FABBFFC018791882361F08093D3
:10E3A000C6008091C00086FFFCCF8091C0008064D1
:10E3B0008093C000EACF08958DE08093C6008091DD
:10E3C000C00086FFFCCF8091C00080648093C000B5
:10E3D0008AE08093C6008091C00086FFFCCF8091C8
:10E3E000C00080648093C00008950F94C2F10F9420
:10E3F000DCF10895FC019081992359F09093C600B7
:10E400008091C00086FFFCCF8091C0008064809323
:10E41000C0003196992379F70895282F982F929567
:10E420009F70892F805D8A3308F0895F8093C600D2
:10E430008091C00086FFFCCF8091C00080648093F3
:10E44000C000822F8F70982F905D9A3308F0995FEB
:10E450009093C6008091C00086FFFCCF8091C000E1
:10E4600080648093C00008959C01FB01853691056E
:10E470001CF46330710594F0C90164E670E00F94F8
:10E480002EFE605D7F4F6093C6008091C00086FFC6
:10E49000FCCF8091C00080648093C0002B30310598
:10E4A00014F43297B4F0C90164E670E00F942EFEC4
:10E4B0006AE070E00F942EFE605D7F4F6093C600AF
:10E4C0008091C00086FFFCCF8091C0008064809363
:10E4D000C000C9016AE070E00F942EFEC0968093E0
:10E4E000C6008091C00086FFFCCF8091C000806490
:10E4F0008093C00008951F93182F8EE692EE60E07F
:10E500000F94C2F11093C6008091C00086FFFCCF2B
:10E510008091C00080648093C0000F94DCF11F9153
:10E5200008952F923F924F925F926F927F928F92B7
:10E530009F92AF92BF92CF92DF92EF92FF920F9392
:10E540001F93DF93CF93CDB7DEB762970FB6F894E2
:10E55000DEBF0FBECDBF382E622ECA01DB015C01CB
:10E560006D01772420E2222E2E010894411C511CBB
:10E570008BC081E0A81680E0B80681E0C80680E084
:10E58000D80628F0C601AA27BB270F940DF2BB2797
:10E59000AD2D9C2D8B2D0F940DF28A2D0F940DF225
:10E5A0002092C6008091C00086FFFCCF8091C00001
:10E5B00080648093C0009DE29093C6008091C0006B
:10E5C00086FFFCCF8091C00080648093C0002092C1
:10E5D000C6008091C00086FFFCCF8091C00080649F
:10E5E0008093C00019828601750188249924A1E0D6
:10E5F0003A1651F03A1620F0B2E03B1661F409C029
:10E600000BBFF701779007C0C7010F9477FE782EF4
:10E6100002C0F7017080872D0F940DF22092C60082
:10E620008091C00086FFFCCF8091C0008064809301
:10E63000C000872D8052F401EF70F0708F3520F408
:10E64000E40DF51D708204C0E40DF51D8EE280839B
